:100200000C94CF060C94EC060C94EC060C94EC06C3
:100210000C94EC060C94EC060C94EC060C94EC0696
:100220000C94EC060C94EC060C94EC060C94EC0686
:100230000C9480160C94EC060C94EC060C94EC06D2
:100240000C94EC060C94710C0C94C0080C94EC0605
:100250000C94EC060C94EC060C94E9130C94EC064C
:100260000C94EC060C94EC060C94EC060C94EC0646
:100270000C94EC060C94EC060C94EC060C94EC0636
:100280000C94EC060C94EC060C94EC060C94EC0626
:10029000252041474343532D4374726C323243202F
:1002A0002D2D2D20656E74657220223F5B43522FE9
:1002B0004C465D2220666F72206D6F72652064650A
:1002C0007461696C73007061727365206572726F1E
:1002D000720025205D5D5D0025203D3D3D3D3D3D9D
:1002E0003D0025206363732073746174653A2000B8
:1002F00025206C6F636B2073746174653A20002550
:100300002073797374696D653A200025203D3D3D69
:100310003D3D3D3D0025203D3D3D3D3D3D3D0025D4
:1003200020436F707972696768742054686F6D61DB
:1003300073204D6F6F722028632920323032302CA9
:10034000203230323100252041474343532D43743E
:10035000726C32324320415652204669726D776189
:1003600072652056657273696F6E200025203D3DD1
:100370003D3D3D3D3D0025205B5B5B007573616746
:10038000653D3100202520005B522F2D5D005B2D47
:100390002F575D005B522F575D0025200025205709
:1003A00039202D3E2041300025205739202D3E2078
:1003B00041300025205737202D3E20413000252098
:1003C0005736202D3E20413000252057362F372F1D
:1003D000382F39202D3E204F46460025205730200B
:1003E0002D3E2057362F372F382F390025205731F3
:1003F000202D3E204F4646202862746E290025207D
:100400005731202D3E204F4646202872747279299C
:100410000025205730202D3E205731002520503117
:10042000202D3E2057300025205031202D3E204FDA
:100430004646300025205030202D3E2050310025EA
:10044000204333202D3E2050302028706861736592
:10045000206368616E6765290025204333202D3EA7
:100460002050302028696E76616C696420706F7747
:100470006572290025204333202D3E204F4646300B
:100480002028627574746F6E290025204333202D57
:100490003E204F46463920286370696C6F742900EE
:1004A00025204332202D3E20433300252043322097
:1004B0002D3E20503020287068617365732072656E
:1004C0006A6563746564290025204332202D3E202F
:1004D0004F4646302028627574746F6E29002520BF
:1004E0004332202D3E204F46463920286370696CE8
:1004F0006F74290025204332202D3E2050302028C3
:100500007068617365732072656A656374656429D8
:100510000025204331202D3E20433200252043304A
:10052000202D3E2043310025204330202D3E204504
:1005300052520025204231202D3E20573020287570
:100540006E686170707920776974682043502D500F
:10055000574D290025204231202D3E204F46463060
:100560002028627574746F6E290025204231202D79
:100570003E2043302F310025204230202D3E205791
:10058000302028696E76616C696420706F776572BF
:10059000290025204230202D3E20423100252041D7
:1005A00031202D3E204F4646302028627574746FEE
:1005B0006E290025204131202D3E204F464639200E
:1005C0002874696D656F7574290025204131202DCF
:1005D0003E2042300025204130202D3E2041310078
:1005E00025204F464639202D3E204F4646300025D7
:1005F000204F464631202D3E2041300025206363A8
:10060000732073746174653A204F464632202D3E44
:10061000204F4646330025204F464631202D3E20B0
:100620004F4646320025204F464630202D3E204F73
:100630004646320025204F464630202D3E204F466C
:100640004631006379636C652074696D65206D695E
:100650006E2F6D617820006D735D003B2073616DBE
:10066000706C652074696D6520003B20636E74209A
:1006700023006D56205B6D65616E2023006D563B37
:1006800020726D73503A20002520726D73463A2017
:10069000005D003B2053756D503D003B2053756D50
:1006A000463D003B20467371723D00205B463D0095
:1006B00020002520726D73002520726D73207265F5
:1006C000636F72642064756D70002520726D7320F5
:1006D0007265636F726420696E636F6D706C6574B0
:1006E0006500293B006D564000202800204C333A1D
:1006F0002000293B006D564000202800204C323A53
:100700002000293B006D564000202800204C313A43
:1007100020002520726D733A003B2070703A200053
:100720003B2064703A20002063703A20002520703E
:10073000696C6F74207570646174653A20005B6247
:100740006F745D0075736520227265736574212274
:1007500020666F72206120736F6674207265736506
:10076000740075736520223F22206F7220227573FA
:10077000616765212220746F206F627461696E2049
:1007800074686973206C697374006F70657261744A
:100790006520636F6E746163746F72732028646583
:1007A000632E20656E636F646564292C2075736504
:1007B00020227373727E2220666F722022616C6C1D
:1007C000206F66662200726561642F7772697465B6
:1007D0002070756C7365206C656E67746820746F2B
:1007E00020636C6F7365206C6F636B205B6D735D52
:1007F00000726561642F77726974652070756C731F
:1008000065206C656E67746820746F206F70656E0C
:10081000206C6F636B205B6D735D007573652022C8
:100820006C6F636B21222F226C6F636B7E222074AE
:100830006F206F70657261746520746865206C6FDD
:10084000636B00726561642F777269746520636100
:100850006C6962726174696F6E20706172616D653E
:1008600074657220634200726561642F77726974E7
:10087000652063616C6962726174696F6E2070617A
:1008800072616D6574657220634100757365202225
:1008900063616C646D70212220666F7220706572D6
:1008A000696F6469632064756D7073206F66205290
:1008B0004D5320636F756E747320287265712E20FE
:1008C00022726D732122290064756D70206D6F7323
:1008D0007420726563656E7420726D732072656337
:1008E0006F7264002D2D2D206469746F20666F7205
:1008F00020435433002D2D2D206469746F20666FC2
:1009000072204354320067657420726D73207265E3
:100910006164696E67206F6620435431205B6D56B9
:100920005D2C207573652022726D73312122207435
:100930006F20747269676765722075706461746591
:10094000007573652022726D7321222F22726D73E0
:100950007E2220746F20656E2F64697361626C65FE
:1009600020706572696F6469632063757272656E69
:10097000742072656164696E6700726561642F77C7
:1009800072697465206D61782E2063757272656E70
:100990007420696E6469636174656420746F207487
:1009A0006865204556207669612050574D206F6E4E
:1009B00020435000656E61626C65204144432063B2
:1009C0006F756E74207265706F727420666F72201E
:1009D00070696C6F742072656164696E670072651E
:1009E0006164205050202873616D6520617320631D
:1009F0006D6178637572295B3130306D415D0072D5
:100A0000656164204350206F6E20206E61676174C1
:100A100069762068616C6677617665205B2D565D2E
:100A20000072656164204350205B565D00757365FC
:100A3000202270696C6F747321222F2270696C6F91
:100A400079737E2220746F20656E2F6469736162F2
:100A50006C6520706572696F6469632070696C6F82
:100A6000742072656164696E670075736520227316
:100A7000696772656C21222F2273696772656C7ECB
:100A80002220746F20656E2F64697361626C65202B
:100A9000746865207369676E616C2072656C61793A
:100AA000007573652022636373646D702122207466
:100AB0006F20747261636B204343532073746174BD
:100AC000652070726F6772657373007365742F674A
:100AD000657420626F617264207265766973696FF4
:100AE0006E00726561642F777269746520696E7338
:100AF00074616C6C656420706861736573205B64FD
:100B00006563696D616C20656E636F64696E675DB6
:100B100000726561642F777269746520696E737401
:100B2000616C6C6564206D61782E206375727265EE
:100B30006E745B3130306D415D00757365202273DA
:100B4000617665212220746F207361766520636F62
:100B50006E66696775726174696F6E20746F204587
:100B60004550524F4D0072656164206572726F721C
:100B700020666C6167732C20736565206465636C07
:100B800061726174696F6E2022675F6572726F7245
:100B90002200726561642F77726974652064796ED2
:100BA0002E2070686173657320616C6C6F63617473
:100BB0006564205B646563696D616C20656E636F5D
:100BC00064696E675D00726561642F777269746530
:100BD0002064796E2E206D61782E206375727265A7
:100BE0006E7420617661696C61626C65205B313086
:100BF000306D415D002D2D2D206469746F20666F6E
:100C000072204C33002D2D2D206469746F20666F87
:100C100072204C3200726561642063757272656E79
:100C20007420647261776E206F6E204C31205B31CE
:100C3000306D415D007265616420656E61626C6556
:100C4000642070686173656420617320736574202B
:100C500062792053535273205B646563696D616CE4
:100C600020656E636F64696E675D290072656164FB
:100C7000206D61782E2063757272656E74207369C1
:100C8000676E616C656420746F20455620766961DB
:100C9000204350205B3130306D415D0072656164EE
:100CA0002050502C20692E652E2C206D61782E202E
:100CB0006361626C65206361706163697479205B54
:100CC0003130306D415D00726561642043435320D3
:100CD00073746174652C2073656520747970656424
:100CE000656620226363735F73746174655F742249
:100CF00000726561642041565220564343205B6D6B
:100D0000565D007265616420415652206469652019
:100D100074656D70657261747572205B435D0072FD
:100D20006561642F7365742073797374696D6520D0
:100D3000696E205B6D735D006F76657277726974A2
:100D4000652073746174757320696E64696361747E
:100D50006F722028455350333229006F76657277C1
:100D6000726974652073746174757320696E646947
:100D70006361746F72202872656D6F746520686F8F
:100D80007374290072656164206F757420666972DE
:100D90006D776172652076657273696F6E001124DC
:100DA0001FBECFEFCDBFDFE3DEBF18E2A0E0B8E2A9
:100DB000E1E3F5E402C005900D92AE34B107D9F736
:100DC00021E3AEE4B8E201C01D92A533B207E1F71A
:100DD0000E944A1E0C9440210C940001892B41F082
:100DE00088ED84BF80914100816080934100FFCFF6
:100DF00090E080E0089528E0009719F02093060421
:100E0000089520930504089520918A0A30918B0A51
:100E1000273B3340C8F780938D2890938E2880938A
:100E2000B6289093B7280895809135288B7F19F0C4
:100E300083E0809335280895CF93DF93EC01892BCD
:100E400069F080913528823029F0843019F081E0F2
:100E500080933528CE01DF91CF9108950E94140729
:100E6000F9CF80E7809306041092A6281092A72855
:100E70001092A4281092A5280895EF92FF920F9344
:100E80001F93CF93DF93EC01009751F40E94310739
:100E9000CE01DF91CF911F910F91FF90EF900895B8
:100EA0008093A6289093A7288C01F0E0E0E020E052
:100EB0008AE0E82EF12C101611065CF0E093A428CD
:100EC000F093A5282093050480E7282720930604A3
:100ED000DFCFC801B7010E942A1F8230910569F057
:100EE0008330910569F0019711F42064E160C80135
:100EF000B7010E942A1F8B01DECF2062E260F7CF8C
:100F00002061E3E0F0E0F3CF20919E2830919F280C
:100F10002817390701F12FEF3FEF20933328309343
:100F20003428209331283093322820932F2830936F
:100F300030282EEF3FEF20932B2830932C2820933E
:100F4000292830932A2820932D2830932E28809307
:100F50009E2890939F28089520919328309194285B
:100F600028173907F1F02FEF3FEF20932728309310
:100F7000282820932528309326282093232830934F
:100F8000242820931B2830931C2820931928309361
:100F90001A28209317283093182880939328909329
:100FA00094280895E0E0FAE081818F7B818310929C
:100FB00091281092922890E080E00895009711F413
:100FC0000C94D20720919128309192282817390744
:100FD000A1F16AE0689FA001699F500D1124CA0128
:100FE000039666E070E00E942A1F643671052CF1BA
:100FF000633583E0780714F062E573E025E0269F0F
:10100000C001279F900D112480933C0A90933D0AC4
:101010008091010A80648093010A26E0269FC00126
:10102000279F900D112405966AE070E00E942A1F08
:101030009B016093912870939228C901089588EDCF
:1010400084BF81E0809361008091630080FDFCCFCC
:101050000895E0E6F4E080E1828388E081830895EA
:101060008091B42821E030E0893010F026E130E0B2
:101070008E518A3010F425E130E08091B0289091B3
:10108000B128892B11F024E130E08091392890912A
:101090003A28181619060CF49C0180913728909173
:1010A00038281816190654F125313105C1F0809100
:1010B000B6289091B72860ED77E00E942A1F25316D
:1010C00031058CF464E670E00E942A1F62177307F2
:1010D00024F088E0809366040895C297D4F788E0EE
:1010E0008093650408952631310551F464EF71E071
:1010F0000E942A1F8A3F910564F7F1CF9C01D4CF4B
:1011000008959091680481E0292F207194FF80E078
:1011100090918428981317C0909183289F5F909393
:10112000832890918328923369F4222339F0909197
:101130008228911103C091E09093AF288093822878
:101140001092832808958093842810928328E9CFF1
:10115000E0E0F8E08BE591E08087918783E087838A
:10116000858180688583A0E0B4E081E011968C934E
:10117000119782E012968C938681806C8683089505
:101180001F920F920FB60F9211248F939F93EF939C
:10119000FF93E091AE2891E09E0F9093AE28F0E08F
:1011A000EE51FF4C8081882311F0933590F08091AF
:1011B00005088F7D809305081092AE281092AD2807
:1011C000FF91EF919F918F910F900FBE0F901F9005
:1011D000189580930208F4CF9091AD2891110CC01E
:1011E000E091AE28E03540F491E09E0F9093AE2858
:1011F000F0E0EE51FF4C808308958091AD2881117D
:1012000029C0E091AE28AE2FB0E0AE51BF4C8DE0CA
:101210008C93A1E0AE0FB0E0AE51BF4C8AE08C934E
:10122000EE5FF0E0EE51FF4C10821092AE2881E0AC
:101230008093AD288091040885FFFCCF809105083C
:101240008062809305088091AC28882319F08091F2
:10125000AD28FBCF08958091AD288111FCCF81E0AE
:101260008093AC2881E090E080933B2890933C28C9
:1012700008958091AD288111FCCF1092AC2881E0B7
:1012800090E080933B2890933C280895CF93DF9380
:101290002091AD28DC01222371F0DF91CF910895D8
:1012A00081E08E0F8093AE28ED0121978881F0E0D8
:1012B000EE51FF4C80838D91882379F3E091AE2825
:1012C000E03570F3EACFFC018091AD2881110BC0AD
:1012D0009091AE28A92FB0E0AE51BF4C84918111FE
:1012E00003C09093AE2808959035D8F79F5F8D93F3
:1012F0003196F4CF0E9463090C94FD089C01809103
:10130000AD2881110FC09091AE28E92FF0E0EE5189
:10131000FF4C80E2AF01425E5043421753071CF07E
:101320009093AE2808959035D8F79F5F8193F2CFC0
:10133000EF92FF920F931F93CF93DF93EC01809175
:10134000AD2881110FC0E091AE28209729F5E03536
:1013500048F481E08E0F8093AE28F0E0EE51FF4C10
:1013600080E38083DF91CF911F910F91FF90EF90E9
:10137000089541505109C901A1F40E2F10E00E51FA
:101380001F4C8AE0E82EF12C2115310511F0E035D3
:1013900090F0E093AE28E6CF44E050E081E090E0AA
:1013A0006AE0689F9001699F300D1124C217D3072E
:1013B00000F79C01E2CFCE01B9010E94161FEF5F3A
:1013C000605DD8016D938D01EC01C901B7010E94E8
:1013D000161F9B01D9CF2091AD28211124C0009761
:1013E00071F4E091AE28E035F0F481E08E0F809347
:1013F000AE28F0E0EE51FF4C80E38083089597FF24
:1014000010C0E091AE28E03570F491958195910976
:1014100021E02E0F2093AE28F0E0EE51FF4C2DE29C
:1014200020830C94980908954F925F926F927F9257
:101430008F929F92AF92BF92CF92DF92EF92FF92E4
:101440000F931F93CF93DF934B015C018091AD28E5
:10145000811112C0C091AE2881149104A104B1047D
:10146000A1F5C03548F481E08C0F8093AE28D0E020
:10147000CE51DF4C80E38883DF91CF911F910F9194
:10148000FF90EF90DF90CF90BF90AF909F908F90A4
:101490007F906F905F904F9008953197DC2D7D2C59
:1014A0008701C9F40C2F10E00E511F4C8AE0482E22
:1014B000512C612C712CC114D104E104F10411F000
:1014C000C035D8F0C093AE28D7CFE9E0F0E0D1E046
:1014D000712C00E010E0AAE0B0E02D2F372DA8011C
:1014E0000E947E1F6B017C018C149D04AE04BF041E
:1014F000A0F6CD2ED72C7801D5CFC501B401A70118
:1015000096010E943E1FCF5F205DF80121938F015D
:101510004B015C01C701B601A30192010E943E1F6D
:1015200069017A01C8CF2091AD2821112BC0611526
:1015300071058105910571F4E091AE28E03510F553
:1015400081E08E0F8093AE28F0E0EE51FF4C80E3F7
:101550008083089597FF14C0E091AE28E03590F4A1
:1015600090958095709561957F4F8F4F9F4F21E0AB
:101570002E0F2093AE28F0E0EE51FF4C2DE2208399
:101580000C94140A08952F923F924F925F926F929B
:101590007F928F929F92AF92BF92CF92DF92EF9203
:1015A000FF920F931F93CF93DF93CDB7DEB72E97A4
:1015B000CDBFDEBF8D879E87019799F480919B28D0
:1015C00090919C28883E934021F480919D28882307
:1015D00059F00E942B098AEC96E00E947A090E9439
:1015E00039091D861E8665C188EB96E00E947A093E
:1015F00042E159E249835A8342EE50E362E1262EEA
:1016000069E2362E80E090E0DC01F1010191119158
:101610001F01012E000C220B330B800F911FA21F04
:10162000B31F4E175F0789F7BC01CD016C507E4F89
:101630008F4F9F4F28EE33E040E050E00E943E1F66
:101640002B833C834D835E832B813C812B873C879E
:101650004091122950911329421B530BC12CD12CBC
:101660007601812C912C5401412C512C3201A981FD
:10167000BA810D911D91A983BA83EB85FC850E1B60
:101680001F0B9801D8010E94601F460E571E681E4E
:10169000791EC801841B950B092E000CAA0BBB0BED
:1016A000BA2FA92F982F8827880D991DAA1DBB1D19
:1016B000492F5A2F6B2F772767FD7A954C015D01D3
:1016C000841A950AA60AB70AC501B40142E09595A5
:1016D0008795779567954A95D1F797FF07C09095BD
:1016E0008095709561957F4F8F4F9F4F9B01AC0107
:1016F0000E94061F9B01AC019AE0569547953795CD
:1017000027959A95D1F72F83388749875A87C20E34
:10171000D31EE41EF51E0E942B0982EB96E00E9468
:1017200063098091992890919A280E94EB0980EB97
:1017300096E00E946309C8010E94EB098BEA96E0DB
:101740000E946309C501B4010E94930A83EA96E0EE
:101750000E9463096F81788589859A850E94140AA1
:101760008BE996E00E946309C701B6010E94140A42
:1017700083E996E00E946309C301B2010E94140A42
:1017800081E996E00E9463090E94FD080E943909E0
:10179000A80189819A812816390609F068CFC3010A
:1017A000B20163587F4F8F4F9F4F2AEF30E040E0E8
:1017B00050E00E943E1FCA01B9010E942A200E94E7
:1017C000E22020E030E040E05FE30E948A1F0E94B8
:1017D000FB1F9B01A4ECB9E00E94681F61507C4F85
:1017E0008F4F9F4F2FEF37E040E050E00E943E1FA9
:1017F0004901C701B60128EE33E040E050E00E9405
:101800003E1FCA01B9010E942A200E94E22020E066
:1018100030E040E05FE30E948A1F0E94FB1F9B01B3
:1018200036952795A4ECB9E00E94681F61507E4F61
:101830008F4F9F4F2FEF33E040E050E00E943E1F5C
:1018400069010E942B0988E896E00E946309C6019D
:101850000E9498098DE796E00E946309C4010E94E6
:10186000980982E796E00E9463098B819C810E941F
:1018700098098AE696E00E94630988EE93E00E9448
:10188000EB098BE596E00E94630980919528909181
:1018900096282091972830919828821B930B0E94BC
:1018A000EB0987E596E00E9463090E94FD080E940B
:1018B00039098D859E852E96CDBFDEBFDF91CF91F4
:1018C0001F910F91FF90EF90DF90CF90BF90AF905E
:1018D0009F908F907F906F905F904F903F902F9050
:1018E00008951F920F920FB60F9211248F939F931A
:1018F000EF93FF93809100089091AA28911107C05F
:101900008D3029F08A3061F481E08093AA28FF911C
:10191000EF919F918F910F900FBE0F901F90189590
:10192000E091AB28E03598F791E09E0F9093AB28BB
:10193000F0E0E054F74D8083EACF1092AB2810928C
:10194000AA2808958091AA28882391F08091AA2836
:10195000813061F4E091AB28F0E0E054F74D108263
:1019600082E08093AA2880EC98E208950E949D0C62
:1019700090E080E00895FC01EE0FFF1FFF27F46167
:101980008081918108952091A8283091A928260F5F
:10199000371F2093A8283093A928FC01EE0FFF1FC2
:1019A000FF27F461608371838DE984BF83E08093B6
:1019B00000108091021081FDFCCF0895CF93DF933A
:1019C000009709F492C08091B428843108F090C047
:1019D0008FB78F778FBF1092A8281092A928609197
:1019E0004B2870914C2890E080E00E94C30C6091DD
:1019F000492870914A2881E090E00E94C30C6091D0
:101A000047287091482882E090E00E94C30C6091C2
:101A100043287091442883E090E00E94C30C6091B9
:101A200045287091462884E090E00E94C30C6091A4
:101A3000BE287091BF2885E090E00E94C30C6091A1
:101A400041287091422886E090E00E94C30C60918A
:101A50003F287091402887E090E00E94C30C60917D
:101A6000BC287091BD2888E090E00E94C30C609172
:101A70003D2870913E2889E090E00E94C30C60915F
:101A8000BA287091BB288AE090E00E94C30C609154
:101A9000A8287091A9288BE090E00E94C30C8FB712
:101AA00080688FBF1092A8281092A928D0E0C0E0CB
:101AB000CE010E94BB0C2091A8283091A928820F4A
:101AC000931F8093A8289093A9282196CB30D10505
:101AD00079F731E020E0409116145091171448171F
:101AE000590709F030E0832F922FDF91CF910895AD
:101AF00090E080E0FACFCF93DF931092A828109265
:101B0000A928D0E0C0E0CE010E94BB0C2091A828FB
:101B10003091A928820F931F8093A8289093A92819
:101B20002196CB30D10579F72091161430911714F6
:101B30008217930761F08091B0289091B12884605A
:101B40008093B0289093B128DF91CF910895809130
:101B500000149091011480934B2890934C2880910D
:101B60000214909103148093492890934A288091FD
:101B700004149091051480934728909348288091ED
:101B800006149091071480934328909344288091E1
:101B900008149091091480934528909346288091C9
:101BA0000A1490910B148093BE289093BF288091C3
:101BB0000C1490910D1480934128909342288091A9
:101BC0000E1490910F1480933F2890934028809199
:101BD0001014909111148093BC289093BD2880918B
:101BE00012149091131480933D2890933E28809175
:101BF0001414909115148093BA289093BB28A4CF05
:101C0000E0E0F4E080E78183868388E08183858358
:101C100080E881838583E0E4F4E084E08183858348
:101C20008093620481E08093A2040895882331F0B8
:101C3000813059F090E89093050403C090E89093A8
:101C4000060494E09093450406C090E89093050440
:101C500094E0909346048093362808956091452837
:101C600070914628409135286115710531F08091B9
:101C7000432890914428009769F4433011F410925E
:101C8000352880913528813009F094C182E0809315
:101C90003528089520913628223009F0B8C02091C7
:101CA000680422FB222720F9309114282313AAC0AC
:101CB000309181283F5F30938128309181283A30DC
:101CC00020F01092812820931328209112282417A5
:101CD00089F1413009F0A2C083E0809380282091EF
:101CE000B8283091B92820937E2830937F28260F7A
:101CF000371F20937C2830937D282C503E4F209313
:101D00007A2830937B28CB018C53964F28EE33E012
:101D1000B9010E94161F6F5F7F4F629FC001639FD2
:101D2000900D729F900D112480931028909311288C
:101D300040931228413081F58091B8289091B928BC
:101D400020917E2830917F288217930708F481C064
:101D5000821B930B97FF85C08091B8289091B9287A
:101D600020917C2830917D288217930708F487C042
:101D7000821B930B97FF8BC08091B8289091B92854
:101D800020917A2830917B288217930708F48DC020
:101D9000821B930B97FF91C080913528833009F007
:101DA00009C18091B8289091B92820917E2830915E
:101DB0007F288217930708F4A6C0821B930B97FF16
:101DC000AAC08091B8289091B92820917C283091A0
:101DD0007D288217930708F4ACC0821B930B97FFF2
:101DE000B0C08091B8289091B92820917A2830917C
:101DF0007B288217930708F4B2C0821B930B97FFCE
:101E0000B5C00895209314281092812856CF21E060
:101E100020931428109281282FEF55CF433009F0DA
:101E200087CF2AE0209380282091B8283091B928C4
:101E300020937E2830937F28280F391F20937C28F9
:101E400030937D282C503E4F20937A2830937B2866
:101E50005BCFA901481B590BCA018130904808F497
:101E60007BCF8091102890911128280F391F209343
:101E70007E2830937F2881E00E94160E6DCFA90145
:101E8000481B590BCA018130904808F475CF8091E6
:101E9000102890911128280F391F20937C28309307
:101EA0007D2882E00E94160E67CFA901481B590BBE
:101EB000CA018130904808F46FCF8091102890912A
:101EC0001128280F391F20937A2830937B2880917E
:101ED0001328813021F482E0809335285DCF8091F2
:101EE0008028815080938028811156CF83E0809391
:101EF00035288091B0289091B12881608093B028D6
:101F00009093B12849CFA901481B590BCA018130D0
:101F1000904808F456CF8091102890911128280FEE
:101F2000391F20937E2830937F2880E00E94160E70
:101F300048CFA901481B590BCA018130904808F4C9
:101F400050CF8091102890911128280F391F20938D
:101F50007C2830937D2882E00E94160E42CFA90192
:101F6000481B590BCA018130904820F180911028FC
:101F700090911128280F391F20937A2830937B28BD
:101F800080911328811103C0109235280895809103
:101F9000802881508093802881110CC084E0809338
:101FA00035288091B0289091B12881608093B02825
:101FB0009093B128089560914B2870914C28072E7A
:101FC000000C880B990B0E942C202AE939E949E979
:101FD0005FE30E94F61F87FD10C08091A80480FD7A
:101FE0000CC080E00E94160E0E9431070E942B094F
:101FF0008EE397E00E947A09FFCF0895E0EAF0E0CF
:102000008081806280838081826080838181826020
:102010008183E0E8F6E08081816080838FEF8483B4
:102020000895E0E6F4E081E082838089887F808BF8
:1020300080898460808B8089877F808B82E0828327
:102040008189887F818B81898460818B8189877F69
:10205000818B08958091B52881117AC01092000675
:1020600084E080930106109202068091020683604C
:1020700080930206809102068093020680910206F8
:1020800080648093020610920306809103068066A6
:1020900080930306809103068061809303068FE19D
:1020A000809305068EE18093060610920A068091C1
:1020B000000681608093000680910806816080930D
:1020C000080680910B0680FFFCCF6091100670918E
:1020D000110690E080E024E0660F771F881F991FAB
:1020E0002A95D1F7685C7F4F8F4F9F4F20E730E0F4
:1020F00040E050E00E943E1F80912111A0912011EC
:10210000082E000C990B281B390BB0E00E94681FA9
:10211000DC01CB0180589F4FAF4FBF4F892F9A2FC3
:10212000AB2FBB2781519140A109B1098093A2280F
:102130009093A328809100068E7F80930006809163
:1021400002068061809302061092B52881E008950E
:1021500080E008958091B52881115BC0109200063F
:1021600084E080930106109202068091020683604B
:10217000809302068091020680618093020680911E
:102180000206806480930206109203068091030683
:102190008066809303068091030680618093030626
:1021A0008FE1809305068CE18093060610920A0663
:1021B000809100068160809300068091080681600E
:1021C0008093080680910B0680FFFCCF20911006BB
:1021D00030911106B9017695679590E080E0645AD8
:1021E0007C4082499D4F50E040E00E943E1F20937A
:1021F000A0283093A128809100068E7F809300064E
:10220000809102068061809302061092B52881E0D9
:10221000089580E00895CF93DF938091B82890913E
:10222000B928C0917828D09179288C179D0738F06B
:102230008C1B9D0B97FF0AC0DF91CF9108959E01E3
:10224000281B390BC90181309048B0F38091772861
:10225000882369F00E942A10882371F3C05FD84D4B
:10226000C0937828D093792810927728E5CF0E94E0
:10227000AA10882309F3C05FD84DC0937828D09363
:10228000792881E080937728D7CF8F929F92AF9261
:10229000BF92CF92DF92EF92FF920F931F93CF9353
:1022A000DF938091B5288111B1C191E09093B52859
:1022B0001092000682E0809301061092020680913F
:1022C00002068260809302068091020680618093FC
:1022D0000206809102068064809302061092030633
:1022E00080910306806280930306809103068061DB
:1022F000809303061092050610920A06809100064C
:10230000816080930006909306068091200A909148
:10231000210A8A3F9105C8F38091200A9091210AF1
:102320008B3F9105C8F781E08093080680910B06EA
:1023300080FFFCCF009110061091110615950795AE
:102340001595079520914B2830914C282C3031055C
:102350000CF0B6C0053D43E014070CF0C3C0C80143
:102360008D5593408633910508F4BFC084579F4F25
:102370008F34910508F4B3C0CFEFDFEF80912B28A5
:1023800090912C28029641F4109276288FEF9FEFBF
:1023900080932B2890932C2880912B2890912C2887
:1023A0008C179D0709F0A4C0809176288F5F8093D9
:1023B000762880917628853021F4C0933328D093F5
:1023C00034288091200A9091210A8E389241C8F3D6
:1023D00081E08093080680910B0680FFFCCF8090FF
:1023E0001006909011069594879495948794C40153
:1023F0002C3031050CF083C04A978534910508F4E0
:1024000083C0AA24AA94BA2C8091292890912A28C2
:10241000029641F4109275288FEF9FEF8093292840
:1024200090932A288091292890912A288A159B0523
:1024300009F06EC0809175288F5F80937528809118
:102440007528853021F4A0923128B092322810925C
:10245000060681E08093080680910B0680FFFCCF82
:10246000C0901006D0901106D594C794D594C79407
:10247000809110069091110632E8E32EF12C45ED83
:10248000C41643E0D4060CF04EC0C60185509140FE
:1024900028ECE22EF12C8B3D910508F444C08259C2
:1024A0009F4F85349105D8F1855B9F4F46E7E42E19
:1024B00042E0F42E8C97B8F1EE24EA94FE2C33C05F
:1024C0000E3583E0180774F4C8018C5093408633AE
:1024D000910558F08E5A9F4FC69708F04DCFC6E031
:1024E000D0E04CCFCCE0D0E049CFC9E0D0E046CF3F
:1024F000C0932B28D0932C28109276285ACF8E5D2B
:102500009109C59708F07DCF6CE0A62EB12C7CCF49
:10251000A0922928B0922A281092752890CF90E492
:10252000E92EFF24F39480912D2890912E28029675
:1025300041F4109274288FEF9FEF80932D28909391
:102540002E2880912D2890912E288E159F0509F018
:1025500056C0809174288F5F80937428809174286E
:10256000853021F4E0922F28F092302880910006E7
:102570008E7F809300061092B528809173288F5F1C
:10258000809373282091BA283091BB28232BA9F17E
:10259000853698F1109273280E942B098DE297E0FE
:1025A0000E94630987E297E00E946309CE010E94BE
:1025B000EB0980E40E94EC08C8010E94EB0980E26C
:1025C00097E00E946309C5010E94EB0980E40E9424
:1025D000EC08C4010E94EB0989E197E00E946309BD
:1025E000C7010E94EB0980E40E94EC08C6010E942A
:1025F000EB090E94FD080E94390981E008C0E092C1
:102600002D28F0922E2810927428A8CF80E0DF9118
:10261000CF911F910F91FF90EF90DF90CF90BF90DF
:10262000AF909F908F900895CF93DF938091B828BB
:102630009091B928C0917128D091722820919E283C
:1026400030919F28232BB9F48C179D0738F08C1BF1
:102650009D0B97FF0AC0DF91CF9108959E01281B23
:10266000390BC90181309048B0F36096C09371284E
:10267000D0937228F0CF8C179D0748F08C1B9D0BD0
:1026800097FDE9CF0E9445118111EFCFE4CF9E0164
:10269000281B390BC90181309048A0F7DCCFE0E658
:1026A000F4E080E282838589887F858B85898460D8
:1026B000858B8589877F858B80E482838689887F67
:1026C000868B86898460868B8689877F868B80E867
:1026D00082838789887F878B87898460878B8789B6
:1026E000877F878B089590919D28911152C090917A
:1026F000B52891114EC091E09093B5281092000634
:102700001092010610920206909102069260909338
:102710000206909102069093020690910206906440
:10272000909302061092030690910306906890938E
:1027300003069AE090930506282F30E0823019F1C5
:10274000833019F1813019F585E0809306062093D6
:10275000992830939A2891E090930A068091000678
:1027600081608093000610929B2810929C282091F3
:10277000B8283091B92820939728309398289093BF
:102780009D2881E0089586E0E0CF87E0DECF1092BB
:10279000B52880E00895019729F481E00E94731321
:1027A00090E0089590E080E00895019729F482E098
:1027B0000E94731390E0089590E080E008950197DF
:1027C00029F483E00E94731390E0089590E080E084
:1027D00008951F920F920FB60F9211242F933F93DB
:1027E0004F935F938F939F93EF93FF9340911006C6
:1027F0005091110680919D28813001F580919B2890
:1028000090919C289C012F5F3F4F20939B283093F1
:102810009C28880F991FFC01EE5EF64D4083518382
:10282000283E33405CF082E080939D288091B82858
:102830009091B9288093952890939628FF91EF91D5
:102840009F918F915F914F913F912F910F900FBE6C
:102850000F901F9018958F929F92AF92BF92CF9238
:10286000DF92EF92FF920F931F9380919D28823009
:1028700061F540910E2850910F2857FF3CC0E2E1CE
:10288000F9E242EE50E380E090E0DC014E175F0792
:1028900039F5BC01CD016C507E4F8F4F9F4F28EE14
:1028A00033E040E050E00E943E1F20930C2830931C
:1028B0000D2810926D2810926E2810926F28109299
:1028C000702810920E2810920F281F910F91FF90E0
:1028D000EF90DF90CF90BF90AF909F908F90089532
:1028E00001911191012E000C220B330B800F911FCF
:1028F000A21FB31FCBCF483E23E05207ECF58A015D
:102900000C591F4F093E83E0180714F008EE13E03E
:10291000E0900C28F0900D2880906D2890906E2803
:10292000A0906F28B0907028FA01EE0FFF1FEE5EA6
:10293000F64D401751076CF080926D2890926E28EA
:10294000A0926F28B092702840930E2850930F28C1
:10295000BCCFA191B191AE19BF09B7FF03C0B1952A
:10296000A195B1099D010E94601F860E971EA81EA9
:10297000B91E4F5F5F4FDDCF483E23E0520759F548
:1029800060916D2870916E2880916F2890917028C9
:1029900063587F4F8F4F9F4F2AEF30E040E050E069
:1029A0000E943E1FCA01B9010E942A200E94E22013
:1029B00020E030E040E05FE30E948A1F0E94FB1F9E
:1029C00060936B2870936C2889EE93E080930E28B7
:1029D00090930F287ACF493E534009F076CFE0918B
:1029E0006B28F0916C28DF012EEC38E341E050E0D9
:1029F0000E947E1F6B017C0120E8D20EE11CF11CBD
:102A00006701EE24FF24A0914128B09142289F0144
:102A10000E94771F00913F2810914028012E000C42
:102A2000220B330BDC01CB01800F911FA21FB31FC0
:102A30009E5FAF4FBF4F2AE0B595A79597958795B5
:102A40002A95D1F78A30910514F490E080E0209126
:102A5000992830919A282230310509F4B0C02330EA
:102A6000310509F4B9C02130310561F4E09327281C
:102A7000F0932828C0922128D092222880931B28E6
:102A800090931C2810929D281092B5288FEF9FEFED
:102A900080930E2890930F288091BE289091BF2894
:102AA000892B09F412CF0E942B0982E197E00E9442
:102AB000630980911B2890911C2897FD22C08CE00F
:102AC00097E00E94630980911B2890911C280E9426
:102AD000980989E097E00E946309809121289091EC
:102AE00022280E94980985E097E00E94630980915E
:102AF0002728909128280E94980982E097E00E9458
:102B000063098091192890911A2897FD22C08CEFB3
:102B100096E00E9463098091192890911A280E94DA
:102B2000980989EF96E00E94630980911F2890918F
:102B300020280E94980985EF96E00E946309809101
:102B40002528909126280E94980982EF96E00E94FD
:102B50006309809117289091182897FD22C08CEE68
:102B600096E00E94630980911728909118280E948E
:102B7000980989EE96E00E94630980911D28909142
:102B80001E280E94980985EE96E00E9463098091B4
:102B90002328909124280E94980982EE96E00E94B2
:102BA00063090E94FD081F910F91FF90EF90DF9045
:102BB000CF90BF90AF909F908F900C943909E09385
:102BC0002528F0932628C0921F28D0922028809391
:102BD000192890931A2856CFE0932328F09324289D
:102BE000C0921D28D0921E288093172890931828F1
:102BF00049CF0F931F93CF93DF93C0910A28D091B1
:102C00000B288091932890919428892BF9F41092A5
:102C10009D288091B8289091B9288C179D0748F07D
:102C20008C1B9D0B97FF0CC0DF91CF911F910F91D3
:102C300008959E01281B390BC90181309048A0F3EB
:102C4000DC5FC0930A28D0930B28EECF0E942B1490
:102C50008091B8289091B9288C179D07B8F08C1BEB
:102C60009D0B97FDE1CF0091082810910928802F36
:102C70000E9473138823C1F20F5F1F4F04301105A8
:102C80006CF40093082810930928DACF9E01281BC2
:102C9000390BC9018130904830F7C6CF81E090E010
:102CA0008093082890930928CBCFE0E0F4E084E0FB
:102CB000818385831092E405E0E0FAE080818083DF
:102CC00081818760818388E893E186A397A384EF5D
:102CD00091E084A795A781818F7B8183808181602A
:102CE00080830895E0E8FAE01082118281E0858314
:102CF00088EE93E084879587808181608083089542
:102D00001F920F920FB60F9211242F938F939F93C0
:102D100080919D28813029F48091080681608093FC
:102D2000080680916A288F5F80936A288A3068F449
:102D30008091860A81608093860A9F918F912F915E
:102D40000F900FBE0F901F90189510926A288091D7
:102D50008F2890919028019680938F2890939028A7
:102D600080918D2890918E28019680938D28909344
:102D70008E2880918D2890918E2880339547C4F2BB
:102D800010928D2810928E28D3CF80918A0A90912C
:102D90008B0A873B9340C8F780918F2890919028A9
:102DA0008093B8289093B92880918D2890918E288F
:102DB0008093B6289093B72808958091B828909171
:102DC000B9282091892830918A2880938928909366
:102DD0008A2840913B2850913C28452BC1F4821B06
:102DE000930B20911528309116288217930720F411
:102DF000809315289093162820918B2830918C2849
:102E00002817390720F480938B2890938C281092F0
:102E10003B2810923C28089583E496E00E946309C1
:102E200080911528909116280E9498098FE20E949F
:102E3000EC0880918B2890918C280E9498090E9420
:102E4000FD088FEF9FEF809315289093162810921E
:102E50008B2810928C2881E090E080933B289093FF
:102E60003C280895CF93DF932091BC283091BD2852
:102E7000232B61F0EC010E942B09CE010E94630913
:102E80000E94FD08DF91CF910C943909DF91CF9119
:102E900008958091492890914A288093872890939B
:102EA000882880914728909148288093852890937E
:102EB00086281092B4280895CF93DF9380914928F3
:102EC00090914A282091872830918828821793076B
:102ED00024F480938728909388288091B4288111C6
:102EE00018C08091912890919228892B09F4EDC304
:102EF00081E08093B42884E396E00E9432178091A9
:102F0000B8289091B9288854944F8093682890935A
:102F100069288091B428813091F40E94D2072091D1
:102F2000B8283091B928809168289091692828178D
:102F3000390708F4D2C3281B390B37FFD4C380915B
:102F4000B428823061F50E94310790E080E00E9451
:102F5000AC070E94D20790E080E00E94840788E0DE
:102F6000809305040E941407109266281092672827
:102F7000109264281092652810926228109263289B
:102F8000109260281092612880913528811107C025
:102F90008CEF95E00E94321783E08093B4288091F3
:102FA000B428833069F48091AF28882349F08FEEEC
:102FB00095E00E9432171092AF288AE08093B428DF
:102FC0008091B4288930D9F40E94310790E080E0E4
:102FD0000E94AC070E94D20790E080E00E94840724
:102FE00088E0809305048091AF28882341F080EE2B
:102FF00095E00E9432171092AF281092B428809169
:10300000B4288A3041F50E94310790E080E00E94A8
:10301000AC0781E090E00E9484070E94D20788E01C
:1030200080930604109266281092672810926228F6
:10303000109263288091B8289091B928805D9A48B1
:1030400080935E2890935F2885ED95E00E9432176B
:103050008BE08093B4288091B4288B3081F58091E7
:10306000332890913428099771F480912F289091FA
:103070003028181619063CF48AEC95E00E943217A5
:1030800084E18093B4282091B8283091B9288091A8
:103090005E2890915F282817390708F42CC3281B55
:1030A000390B37FF2EC38091AF28882341F08DE97B
:1030B00095E00E9432171092AF281092B4288091A8
:1030C000B428843109F043C00E94310790E080E0C9
:1030D0000E94AC0781E090E00E94840788E0809322
:1030E000060481E090E00E941C071092662810926E
:1030F00067281092622810926328809135288230C8
:1031000031F58091872890918828CC970CF401C3E1
:1031100080912F2890913028CC970CF4FAC280919E
:10312000852890918628892B09F4F3C28091B828CC
:103130009091B928805F984D80935C2890935D288A
:1031400082E995E00E94321785E18093B42880914E
:10315000B428853109F042C0209187283091882811
:10316000209362283093632880912F2890913028F3
:103170008217930724F480936228909363288091A8
:103180006228909163280E94DE07809133289091F5
:103190003428069739F48AE695E00E9432178EE1CA
:1031A0008093B4288091AF28882341F084E595E08E
:1031B0000E9432171092AF281092B4282091B8289C
:1031C0003091B92880915C2890915D2828173907A3
:1031D00008F4A5C2281B390B37FFA7C28091B42879
:1031E0008E31C1F48091622890916328CC975CF075
:1031F0008091852890918628892B29F08091352807
:10320000823009F49AC287E295E00E9432178AE57B
:103210008093B4288091B4288F3109F049C0C091BF
:103220008528D0918628C0936628D09367288091FE
:103230006228909163280E94DE0788E0809306044C
:10324000CE010E943D0781E090E00E94AC0781E042
:1032500090E00E94840781E195E00E94321780E2AD
:103260008093B4288091B8289091B928805D9A48BD
:1032700080935A2890935B288091642890916528C8
:103280002091A4283091A528822B932B8093642829
:10329000909365288FEF9FEF80935828909359283B
:1032A00080935628909357288093542890935528BC
:1032B0008091B428803209F080C080911B289091C1
:1032C0001C2820915828309159282817390724F4B0
:1032D00080935828909359288091192890911A2802
:1032E00020915628309157282817390724F48093C5
:1032F000562890935728809117289091182820914C
:103300005428309155282817390724F480935428DD
:10331000909355288091332890913428099721F56E
:1033200080915828909159282091562830915728FB
:10333000820F931F2091542830915528820F931F9C
:1033400020913D2830913E28821793076CF480919C
:10335000A4289091A528079739F084EF94E00E9463
:10336000321788E28093B4288091332890913428D2
:10337000069739F08EED94E00E94321789E0809331
:10338000B4288091AF28882341F088EC94E00E9413
:1033900032171092AF281092B4282091B82830919B
:1033A000B92880915A2890915B282817390708F48A
:1033B000CAC1281B390B37FFCCC18091B428813298
:1033C00009F041C010926028109261288091332842
:1033D00090913428069739F08AE894E00E943217D9
:1033E00089E08093B4288091AF28882341F084E756
:1033F00094E00E9432171092AF281092B428C09126
:103400008528D0918628209779F0209187283091BF
:1034100088282C33310544F080912F289091302852
:103420008C3391050CF0C0C1109262281092632871
:10343000109266281092672889E594E00E9432175E
:1034400088E28093B4288091B428883299F40E944D
:10345000D2078091B8289091B928805F984D8093C9
:1034600068289093692884E394E00E94321789E2E7
:103470008093B4288091B428893219F58091AF28BF
:10348000882341F087E294E00E9432171092AF281F
:103490001092B4282091B8283091B92880916828DA
:1034A000909169282817390708F4A2C1281B390B05
:1034B00037FFA4C18091332890913428069709F0F2
:1034C0009DC18091B428823319F50E94310788E0AC
:1034D0008093050490E080E00E94AC078091602812
:1034E0009091612801968093602890936128809143
:1034F000B8289091B928805F984D80935228909376
:10350000532881E194E00E94321783E38093B4282A
:103510008091B428833349F5809160289091612887
:10352000059739F48EEF93E00E94321789E080937B
:10353000B4288091AF28882341F08CEE93E00E945C
:1035400032171092AF281092B4282091B8283091E9
:10355000B92880915228909153282817390708F4E8
:1035600055C1281B390B37FF57C18091B4288853A8
:10357000843060F48091AF28882341F089EC93E097
:103580000E9432171092AF281092B4288091B4286C
:103590008833C9F48091872890918828CC979CF033
:1035A00080912F2890913028CC976CF080918528BD
:1035B00090918628892B39F08EEB93E00E94321788
:1035C0008AE08093B4288091B428893311F58091E2
:1035D00062289091632884369105DCF480918728D5
:1035E0009091882884369105A4F080912F2890919D
:1035F0003028843691056CF080918528909186283A
:10360000892B39F083EB93E00E9432178AE0809394
:10361000B4288091B4288A33C9F480918728909186
:103620008828CC979CF080912F2890913028CC97B7
:103630006CF08091852890918628892B39F088EA52
:1036400093E00E9432178AE08093B4288091B428D6
:103650008B3331F58091872890918828CC9704F19D
:1036600080912F2890913028CC97D4F08091852894
:10367000909186280097A1F02091662830916728C4
:103680008217930769F080916428909165280797C5
:1036900039F08DE993E00E9432178AE08093B428D4
:1036A0008091B4288A3549F42091B0283091B1280E
:1036B00022602093B0283093B12890E08093B22804
:1036C0009093B328DF91CF91089582E08093B4283E
:1036D00085E296E00E9432171CCC821B930B81304E
:1036E000904808F42CCC86E196E00E94321782E0E4
:1036F0008093B42824CC821B930B8130904808F42B
:10370000D2CC83EB95E00E94321789E08093B428F5
:10371000CACC87E795E00E94321782E316CD821B60
:10372000930B8130904808F459CD83E395E00E94D3
:10373000321782E38093B42851CD8CE195E00E944A
:1037400032178FE165CD821B930B8130904808F4CE
:1037500034CE809158289091592820915628309144
:103760005728820F931F2091542830915528820F9B
:10377000931F20913D2830913E288217930774F4BF
:103780008091A4289091A528079741F08BEA94E0B6
:103790000E94321788E28093B4280FCE80EA94E02A
:1037A0000E94321781E2F7CF409166285091672836
:1037B000C417D50739F010926228109263288FE35E
:1037C00094E03CCE8217930774F0209362283093E4
:1037D000632880916228909163280E94DE07CE01C1
:1037E0000E943D0730CE8093622890936328F1CFEA
:1037F000821B930B8130904808F45CCE8CE194E0FE
:103800000E94321782E38093B4285BCE821B930B15
:103810008130904808F4A9CE8BED93E00E943217D6
:1038200080916628909167282091622830916328C2
:10383000232B41F4892B51F488E38093B42895CE4F
:1038400089E3FBCF892BE1F38BE3F7CF8AE3F5CF55
:103850000F931F93CF93DF938091AD28811189C07F
:10386000C091B428D0E08091062890910728C8170D
:10387000D90769F5C0911B28D0911C288091042894
:1038800090910528C817D907E9F5C0911928D0915A
:103890001A288091022890910328C817D90709F4A3
:1038A00047C09C012B5F3F4F2C173D074CF02A501F
:1038B0003109C217D30724F0D7FD02C097FF38C0E3
:1038C000C0930228D09303280EE812E806C0C093E4
:1038D0000628D093072809E812E88BE50E94EC0837
:1038E000C8010E9446098DE30E94EC08CE010E94A7
:1038F000EB098DE50E94EC08DF91CF911F910F91AC
:103900000C94FD089C012B5F3F4F2C173D074CF09A
:103910002A503109C217D30724F0D7FD02C097FF00
:10392000B4CFC0930428D093052803E912E8D5CF7B
:10393000C0911728D09118288091002890910128D3
:10394000C817D907B1F09C012B5F3F4F2C173D07DB
:103950004CF02A503109C217D30724F0D7FD02C01A
:1039600097FF07C0C0930028D093012804E812E80D
:10397000B4CFDF91CF911F910F910895CF93DF9333
:10398000C1E8D3E888819981892B19F4DF91CF911F
:1039900008958AE993E00E946309888199810E94D1
:1039A00046098A819B81892B49F08DE30E94EC08AE
:1039B000EA81FB81808191810E94EB098CE090E09B
:1039C0000E947E098A819B81892B61F08C819D8177
:1039D000892B21F48E819F81892B21F084E993E04A
:1039E0000E9463098A819B81892B61F48C819D816E
:1039F000892B21F48E819F81892B21F08EE893E021
:103A00000E9463098A819B81892B61F08C819D8151
:103A1000892B41F48E819F81892B21F488E893E0E2
:103A20000E94630988859985892B41F084E893E099
:103A30000E946309888599850E9463090E94FD0898
:103A40002A96A0CF8CE793E00E947A090E942B0966
:103A500086E793E00E947A098CE693E00E947A0957
:103A600086E493E00E94630981E090E00E94980957
:103A70008EE20E94EC0883E090E00E9498090E9488
:103A8000FD088FE193E00E947A0985E193E00E94AE
:103A90007A090E94BE1C8BE093E00E947A090E9482
:103AA0000C178FEF92E00E9463098091B6289091E5
:103AB000B7280E9498090E94FD0880EF92E00E94BA
:103AC00063098091352890E00E9498090E94FD08C2
:103AD00082EE92E00E9463098091B42890E00E94F7
:103AE00098090E94FD0888ED92E00E947A0982ED13
:103AF00092E00E947A090E94390981E090E0809367
:103B00003B2890933C280895892B11F00C94221D9A
:103B100090E080E008959F92AF92BF92CF92DF92A3
:103B2000EF92FF920F931F93CF93DF93FC017F01DE
:103B3000119111110DC080E0DF91CF911F910F9174
:103B4000FF90EF90DF90CF90BF90AF909F9008953F
:103B50005F011F3331F01D3321F0113211F01E3798
:103B600031F7992E082FF701108281E8C82E83E8DB
:103B7000D82E0BC0602F792D0E943721EC01892BA4
:103B800009F460C08AE0C80ED11CD6018D919C91C9
:103B9000009781F7D0CF1E3741F480E3D70111960B
:103BA0008C93119712961C9254C01D3309F451C086
:103BB0001F3349F4D6011296ED91FC91309709F428
:103BC000BACFC081D181802F992D0E9446098DE303
:103BD0000E94EC08CE010E94EB090E94FD0881E0E2
:103BE000ABCFC1389CE0D9070CF0A5CF4C9FB001FA
:103BF0004D9F700D1124A82FA053BB0BED01C60FD4
:103C0000D71F819190ED980F9A3058F3FE01E29FF3
:103C1000E001E39FD00DF29FD00D1124D60116963E
:103C2000ED91FC911797309749F41496ED91FC9122
:103C3000309709F480CFC083D183C5CFCE010995D9
:103C4000EC01C1CF113209F0A6CF81E3F7018183E6
:103C50001282F7018181882309F46DCF21E030E0E1
:103C60008D3231F45701F2E0AF0EB11C2FEF3FEF70
:103C7000F5014AE0C6CFFC0120812F3311F40C94EA
:103C8000221D0E948B1D811104C086EC92E00C94D1
:103C90007A0908950E941F080E94A8080E94290816
:103CA0000E94000E0E94FE0F0E9411100E944F13EE
:103CB0000E9455160E9472168FB780688FBF0E94AF
:103CC0007B0D80E992E00E947A090E94491718E072
:103CD000C1E0D0E00E94C5160E94DD160E943008A7
:103CE0000E942E0E0E94DB0F0E9481080E94F9158F
:103CF0000E9414130E940B110E94281C8091B0286E
:103D00009091B128892B09F45EC0109305040E949C
:103D1000310790E080E00E94AC0790E080E00E94D4
:103D200084070E941407809135286091B028709113
:103D3000B128811116C060FF14C080915028909165
:103D40005128892B71F4C0935028D0935128809129
:103D5000B8289091B928805F984D80934E28909311
:103D60004F2862307105A1F480915028909151281C
:103D7000892B71F460935028709351288091B82852
:103D80009091B928805D9A4880934E2890934F284F
:103D90008091502890915128009779F04091B8284F
:103DA0005091B92820914E2830914F28421753073F
:103DB000B8F0421B530B57FF18C08091B028909168
:103DC000B128892B11F40E945C170E94A20C009765
:103DD00021F00E943B1E0E949D0C1092AF287ACFCA
:103DE000241B350B2130304840F380959095862375
:103DF00097238093B0289093B128892B11F41092C7
:103E0000B4281092502810925128D7CFDB018F93FD
:103E10009F930E947E1FBF91AF91A29F800D911D25
:103E2000A39F900DB29F900D11240895AA1BBB1B58
:103E300051E107C0AA1FBB1FA617B70710F0A61BAA
:103E4000B70B881F991F5A95A9F780959095BC01CB
:103E5000CD01089597FB072E16F4009407D077FD47
:103E600009D00E94161F07FC05D03EF4909581955D
:103E70009F4F0895709561957F4F0895A1E21A2E86
:103E8000AA1BBB1BFD010DC0AA1FBB1FEE1FFF1FFE
:103E9000A217B307E407F50720F0A21BB30BE40B4E
:103EA000F50B661F771F881F991F1A9469F7609595
:103EB0007095809590959B01AC01BD01CF0108954F
:103EC0000E94681F332312F48A1B9B0B0C94791FEA
:103ED000A29FB001B39FC001A39F700D811D11244B
:103EE000911DB29F700D811D1124911D08950E9496
:103EF000681FB7FF0895821B930B08950E94681FE7
:103F0000A59F900DB49F900DA49F800D911D11242D
:103F100008955058BB27AA270E94A11F0C94A220E5
:103F20000E94942038F00E949B2020F039F49F3F9B
:103F300019F426F40C9491200EF4E095E7FB0C9410
:103F40008B20E92F0E94B32058F3BA17620773073A
:103F50008407950720F079F4A6F50C94D5200EF48B
:103F6000E0950B2EBA2FA02D0B01B90190010C0189
:103F7000CA01A0011124FF27591B99F0593F50F4A1
:103F8000503E68F11A16F040A22F232F342F4427F9
:103F9000585FF3CF469537952795A795F0405395F1
:103FA000C9F77EF41F16BA0B620B730B840BBAF0C1
:103FB0009150A1F0FF0FBB1F661F771F881FC2F72C
:103FC0000EC0BA0F621F731F841F48F48795779540
:103FD0006795B795F7959E3F08F0B0CF9395880FFA
:103FE00008F09927EE0F9795879508950E9467200E
:103FF00008F481E008950E94BB2088F09F5798F054
:10400000B92F9927B751B0F0E1F0660F771F881FDD
:10401000991F1AF0BA95C9F714C0B13091F00E94F7
:10402000D520B1E008950C94D520672F782F8827EC
:10403000B85F39F0B93FCCF3869577956795B3951E
:10404000D9F73EF490958095709561957F4F8F4F8D
:104050009F4F0895E89409C097FB3EF49095809592
:10406000709561957F4F8F4F9F4F9923A9F0F92F3E
:1040700096E9BB279395F695879577956795B795BC
:10408000F111F8CFFAF4BB0F11F460FF1BC06F5FA2
:104090007F4F8F4F9F4F16C0882311F096E911C0B4
:1040A000772321F09EE8872F762F05C0662371F0D5
:1040B00096E8862F70E060E02AF09A95660F771FE9
:1040C000881FDAF7880F9695879597F90895990FC5
:1040D0000008550FAA0BE0E8FEEF16161706E807D2
:1040E000F907C0F012161306E407F50798F0621BF3
:1040F000730B840B950B39F40A2661F0232B242BC8
:10410000252B21F408950A2609F4A140A6958FEFE6
:10411000811D811D089597F99F6780E870E060E038
:1041200008959FEF80EC089500240A941616170650
:1041300018060906089500240A9412161306140698
:1041400005060895092E0394000C11F4882352F0FB
:10415000BB0F40F4BF2B11F460FF04C06F5F7F4FB3
:104160008F4F9F4F089557FD9058440F551F59F09A
:104170005F3F71F04795880F97FB991F61F09F3F54
:1041800079F087950895121613061406551FF2CF7D
:104190004695F1DF08C0161617061806991FF1CFCD
:1041A00086957105610508940895E894BB276627F4
:1041B0007727CB0197F9089519F416F40C94912000
:1041C0000C9422210E94BB20B8F39923C9F3B6F3C3
:1041D0009F57550B87FF0E9430210024A0E640EA3C
:1041E000900180585695979528F4805C660F771F4C
:1041F000881F20F026173707480730F4621B730B1F
:10420000840B202931294A2BA69517940794202541
:1042100031254A2758F7660F771F881F20F0261789
:104220003707480730F4620B730B840B200D311DE8
:10423000411DA09581F7B901842F9158880F96955B
:10424000879508959F3F31F0915020F48795779599
:104250006795B795880F911D9695879597F908955D
:1042600091505040660F771F881FD2F70895FB01C9
:10427000DC018D91019080190110D9F3990B0895FB
:04428000F894FFCFE0
:104284006375723300636373730063757232006322
:10429400757231007665720078626C696E6B7300BA
:1042A40074696D650074656D700076636300636D99
:1042B400617863757200616D617863757200617015
:1042C4006861736573006572726F720073617665FD
:1042D400006970686173657300696D6178637572F4
:1042E400007370686173657300736D6178637572D0
:1042F4000062726472657600636373646D70007348
:10430400696772656C0070696C6F747300637069BF
:104314006C6F740063706E736C70007070696C6F96
:104324007400616463646D7000637063757200721D
:104334006D7300726D733100726D733200726D7340
:104344003300726D73646D700063616C646D700032
:1043540063616C610063616C62006C6F636B006C21
:104364006F706E6D73006C636C736D730073737236
:104374000075736167650072657365740098822FB8
:104384008500000000840D9D823928392800005BD7
:104394000D9C82372837280000380DA482B62800E7
:1043A4000004071F0DA982A22800000000030DAE1F
:1043B40082A02800000000F10C8982B228000000CD
:1043C40000C70CB2822F28000000009C0CBA829116
:1043D40028000000006C0CC282A6280000000035F2
:1043E4000C93821B2800000000150C8E82192800F3
:1043F400000000050C8482172800000000F50BCA99
:1044040082B02800000000660BD08200000000DEAD
:104414000C3A0BD582472847280000E20ADD82497E
:104424002849280000110BE5828528852800009280
:104434000BED82872887280000C60BF5824B284B9A
:10444400280000CB0AFC820000BC280000A10A035B
:104454008300000000FB066A0A0A839E2800008489
:10446400072D0A1183332800000000210A18833124
:104474002800000000FF091F832F2800000000DE31
:104484000926830000BA280000B4092D839128006E
:1044940000DE077A09338393280000AC074109370B
:1044A4008327280000CB1306093C8325280000D568
:1044B40013F508418323280000DF13E40846830032
:1044C400000000C30AC8084D830000BE2800008B0A
:1044D400085483412841280000670859833F283F36
:1044E40028000043085E83000000001C071B0863CB
:1044F40083432843280000F1076A834528452800A0
:1045040000C6077183000000003D078A0775830019
:10451400000000841D62077B8300000000EE064457
:0D45240007000000000000000000000D0076
:10453100FFFFFFFFFFFFFFFF010005000002FFFF7C
:10454100E80304FF01FFFFFFFFFFFFFFFFFFFFFF86
:10455100FFFFFFFFFFFFFFFFFFFEFFFEFFFEFFFF6D
:10456100FFFFFFFFFF0302FFFFFFFF01000A002C17
:0E457100FF6A04640064007B00A0000C0000E0
:0400000300000200F7
:00000001FF
