:100200000C9484060C94A1060C94A1060C94A106EF
:100210000C94A1060C94A1060C94A1060C94A106C2
:100220000C94A1060C94A1060C94A1060C94A106B2
:100230000C94B6150C94A1060C94A1060C94A1067E
:100240000C94A1060C94260C0C9475080C94A10631
:100250000C94A1060C94A1060C9423130C94A106F3
:100260000C94A1060C94A1060C94A1060C94A10672
:100270000C94A1060C94A1060C94A1060C94A10662
:100280000C94A1060C94A1060C94A1060C94A10652
:10029000252041474343532D4374726C323243202F
:1002A0002D2D2D20656E74657220223F5B43522FE9
:1002B0004C465D2220666F72206D6F72652064650A
:1002C0007461696C73007061727365206572726F1E
:1002D000720025205D5D5D0025203D3D3D3D3D3D9D
:1002E0003D0025206363732073746174653A2000B8
:1002F00025206C6F636B2073746174653A20002550
:100300002073797374696D653A200025203D3D3D69
:100310003D3D3D3D0025203D3D3D3D3D3D3D0025D4
:1003200020436F707972696768742054686F6D61DB
:1003300073204D6F6F722028632920323032302CA9
:10034000203230323100252041474343532D43743E
:10035000726C32324320415652204669726D776189
:1003600072652056657273696F6E200025203D3DD1
:100370003D3D3D3D3D0025205B5B5B007573616746
:10038000653D3100202520005B522F2D5D005B2D47
:100390002F575D005B522F575D0025200025205709
:1003A00039202D3E2041300025205739202D3E2078
:1003B00041300025205737202D3E20413000252098
:1003C0005736202D3E20413000252057362F372F1D
:1003D000382F39202D3E204F46460025205730200B
:1003E0002D3E2057362F372F382F390025205031FA
:1003F000202D3E2057300025205031202D3E204F0B
:100400004646300025205030202D3E20503100251A
:10041000204333202D3E20503020287068617365C2
:10042000206368616E6765290025204333202D3ED7
:100430002050302028696E76616C696420706F7777
:100440006572290025204333202D3E204F4646303B
:100450002028627574746F6E290025204333202D87
:100460003E204F46463920286370696C6F7429001E
:1004700025204332202D3E204333002520433220C7
:100480002D3E20503020287068617365732072659E
:100490006A6563746564290025204332202D3E205F
:1004A0004F4646302028627574746F6E29002520EF
:1004B0004332202D3E204F46463920286370696C18
:1004C0006F74290025204332202D3E2050302028F3
:1004D0007068617365732072656A65637465642909
:1004E0000025204331202D3E20433200252043307B
:1004F000202D3E2043310025204330202D3E204535
:1005000052520025204231202D3E205730202875A0
:100510006E686170707920776974682043502D503F
:10052000574D290025204231202D3E204F46463090
:100530002028627574746F6E290025204231202DA9
:100540003E2043302F310025204230202D3E2057C1
:10055000302028696E76616C696420706F776572EF
:10056000290025204230202D3E2042310025204107
:1005700031202D3E204F4646302028627574746F1E
:100580006E290025204131202D3E204F464639203E
:100590002874696D656F7574290025204131202DFF
:1005A0003E2042300025204130202D3E20413100A8
:1005B00025204F464639202D3E204F464630002507
:1005C000204F464631202D3E2041300025206363D8
:1005D000732073746174653A204F464632202D3E75
:1005E000204F4646330025204F464631202D3E20E1
:1005F0004F4646320025204F464630202D3E204FA4
:100600004646320025204F464630202D3E204F469C
:100610004631006379636C652074696D65206D698E
:100620006E2F6D617820006D735D003B2073616DEE
:10063000706C652074696D6520003B20636E7420CA
:1006400023006D56205B6D65616E2023006D563B67
:1006500020726D73503A20002520726D73463A2047
:10066000005D003B2053756D503D003B2053756D80
:10067000463D003B20467371723D00205B463D00C5
:1006800020002520726D73002520726D7320726525
:10069000636F72642064756D70002520726D732025
:1006A0007265636F726420696E636F6D706C6574E0
:1006B0006500293B006D564000202800204C333A4D
:1006C0002000293B006D564000202800204C323A83
:1006D0002000293B006D564000202800204C313A74
:1006E00020002520726D733A005B626F745D0075A7
:1006F000736520227265736574212220666F7220F3
:100700006120736F6674207265736574007573651C
:1007100020223F22206F722022757361676521229B
:1007200020746F206F627461696E20746869732031
:100730006C697374006F70657261746520636F6EAD
:10074000746163746F727320286465632E20656E14
:10075000636F646564292C2075736520227373723E
:100760007E2220666F722022616C6C206F6666228A
:1007700000726561642F77726974652070756C739F
:1007800065206C656E67746820746F20636C6F738E
:1007900065206C6F636B205B6D735D0072656164D7
:1007A0002F77726974652070756C7365206C656E47
:1007B00067746820746F206F70656E206C6F636B58
:1007C000205B6D735D0075736520226C6F636B2118
:1007D000222F226C6F636B7E2220746F206F7065F6
:1007E0007261746520746865206C6F636B0072655C
:1007F00061642F77726974652063616C69627261EC
:1008000074696F6E20706172616D657465722063CA
:100810004200726561642F77726974652063616C50
:100820006962726174696F6E20706172616D657466
:10083000657220634100757365202263616C646D8D
:1008400070212220666F7220706572696F6469631F
:100850002064756D7073206F6620524D5320636F56
:10086000756E747320287265712E2022726D73214B
:1008700022290064756D70206D6F7374207265633A
:10088000656E7420726D73207265636F7264002DE3
:100890002D2D206469746F20666F722043543300DD
:1008A0002D2D2D206469746F20666F7220435432A1
:1008B0000067657420726D732072656164696E678C
:1008C000206F6620435431205B6D565D2C2075737C
:1008D000652022726D7331212220746F2074726939
:1008E0006767657220757064617465007573652053
:1008F00022726D7321222F22726D737E2220746FFB
:1009000020656E2F64697361626C65207065726921
:100910006F6469632063757272656E7420726561BD
:1009200064696E6700726561642F7772697465200F
:100930006D61782E2063757272656E7420696E64C5
:1009400069636174656420746F207468652045561E
:10095000207669612050574D206F6E204350007201
:10096000656164205050202873616D65206173209B
:10097000636D6178637572295B3130306D415D0064
:1009800072656164204350206F6E20206E61676144
:100990007469762068616C6677617665205B2D5698
:1009A0005D0072656164204350205B565D00757385
:1009B00065202270696C6F747321222F2270696C1C
:1009C0006F79737E2220746F20656E2F6469736166
:1009D000626C6520706572696F6469632070696C10
:1009E0006F742072656164696E670075736520229B
:1009F00073696772656C21222F2273696772656C57
:100A00007E2220746F20656E2F64697361626C654D
:100A100020746865207369676E616C2072656C6113
:100A200079007573652022636373646D70212220E1
:100A3000746F20747261636B20434353207374613D
:100A400074652070726F677265737300726561649C
:100A50002F777269746520696E7374616C6C65645C
:100A600020706861736573205B646563696D616C98
:100A700020656E636F64696E675D00726561642FE7
:100A8000777269746520696E7374616C6C6564203B
:100A90006D61782E2063757272656E745B313030D3
:100AA0006D415D007573652022736176652122209A
:100AB000746F207361766520636F6E666967757207
:100AC0006174696F6E20746F20454550524F4D0020
:100AD00072656164206572726F7220666C61677303
:100AE0002C20736565206465636C61726174696F45
:100AF0006E2022675F6572726F7222007265616498
:100B00002F77726974652064796E2E207068617326
:100B1000657320616C6C6F6361746564205B6465F0
:100B200063696D616C20656E636F64696E675D00FB
:100B3000726561642F77726974652064796E2E2006
:100B40006D61782E2063757272656E7420617661B6
:100B5000696C61626C65205B3130306D415D002DE8
:100B60002D2D206469746F20666F72204C33002D28
:100B70002D2D206469746F20666F72204C320072D4
:100B80006561642063757272656E7420647261774A
:100B90006E206F6E204C31205B31306D415D0072F4
:100BA00065616420656E61626C6564207068617364
:100BB00065642061732073657420627920535352F9
:100BC00073205B646563696D616C20656E636F643F
:100BD000696E675D290072656164206D61782E2001
:100BE00063757272656E74207369676E616C65649B
:100BF00020746F20455620766961204350205B3178
:100C000030306D415D00726561642050502C206968
:100C10002E652E2C206D61782E206361626C65201C
:100C20006361706163697479205B3130306D415D5F
:100C30000072656164204343532073746174652CB2
:100C4000207365652074797065646566202263632E
:100C5000735F73746174655F7422007265616420F0
:100C600041565220564343205B6D565D00726561CC
:100C70006420415652206469652074656D70657208
:100C800061747572205B435D00726561642F7365EA
:100C9000742073797374696D6520696E205B6D7360
:100CA0005D006F7665727772697465207374617424
:100CB000757320696E64696361746F72202845538F
:100CC00050333229006F76657277726974652073CC
:100CD000746174757320696E64696361746F7220E6
:100CE0002872656D6F746520686F73742900726572
:100CF0006164206F7574206669726D77617265201A
:100D000076657273696F6E0011241FBECFEFCDBF81
:100D1000DFE3DEBF18E2A0E0B8E2EFEDF2E402C0EC
:100D200005900D92AA34B107D9F721E3AAE4B8E2FD
:100D300001C01D92AE32B207E1F70E94341D0C943F
:100D400028200C940001892B41F088ED84BF80910C
:100D50004100816080934100FFCF90E080E00895E2
:100D600028E0009719F020930604089520930504C5
:100D7000089520918A0A30918B0A273B3340C8F7A7
:100D800080938628909387288093AF289093B028EB
:100D90000895809135288B7F19F083E08093352862
:100DA0000895CF93DF93EC01892B69F0809135286A
:100DB000823029F0843019F081E080933528CE010B
:100DC000DF91CF9108950E94C906F9CF80E7809303
:100DD000060410929F281092A02810929D2810922D
:100DE0009E280895EF92FF920F931F93CF93DF9366
:100DF000EC01009751F40E94E606CE01DF91CF91FD
:100E00001F910F91FF90EF90089580939F289093EA
:100E1000A0288C01F0E0E0E020E08AE0E82EF12C50
:100E2000101611065CF0E0939D28F0939E28209305
:100E3000050480E7282720930604DFCFC801B70107
:100E40000E94121E8230910569F08330910569F08D
:100E5000019711F42064E160C801B7010E94121EDD
:100E60008B01DECF2062E260F7CF2061E3E0F0E0AB
:100E7000F3CF20919728309198282817390701F14E
:100E80002FEF3FEF209333283093342820933128DD
:100E90003093322820932F28309330282EEF3FEFC5
:100EA00020932B2830932C282093292830932A280C
:100EB00020932D2830932E2880939728909398285C
:100EC000089520918C2830918D2828173907F1F04A
:100ED0002FEF3FEF209327283093282820932528B1
:100EE00030932628209323283093242820931B28EE
:100EF00030931C282093192830931A282093172800
:100F00003093182880938C2890938D280895E0E0E2
:100F1000FAE081818F7B818310928A2810928B283E
:100F200090E080E00895009711F40C9487072091D9
:100F30008A2830918B2828173907A1F16AE0689F29
:100F4000A001699F500D1124CA01039666E070E06C
:100F50000E94121E643671052CF1633583E0780718
:100F600014F062E573E025E0269FC001279F900DF5
:100F7000112480933C0A90933D0A8091010A806479
:100F80008093010A26E0269FC001279F900D11241F
:100F900005966AE070E00E94121E9B0160938A2809
:100FA00070938B28C901089588ED84BF81E08093F8
:100FB00061008091630080FDFCCF0895E0E6F4E0DD
:100FC00080E1828388E0818308958091AD2821E0CB
:100FD00030E0893010F026E130E08E518A3010F494
:100FE00025E130E08091A9289091AA28892B11F061
:100FF00024E130E08091392890913A28181619069A
:101000000CF49C0180913728909138281816190605
:1010100054F125313105C1F08091AF289091B0286D
:1010200060ED77E00E94121E253131058CF464E6F4
:1010300070E00E94121E6217730724F088E080930C
:1010400066040895C297D4F788E0809365040895F4
:101050002631310551F464EF71E00E94121E8A3F7F
:10106000910564F7F1CF9C01D4CF08959091680465
:1010700081E0292F207194FF80E090917D289813C2
:1010800017C090917C289F5F90937C2890917C283A
:10109000923369F4222339F090917B28911103C097
:1010A00091E09093A82880937B2810927C28089543
:1010B00080937D2810927C28E9CFE0E0F8E08BE572
:1010C00091E08087918783E087838581806885832D
:1010D000A0E0B4E081E011968C93119782E0129623
:1010E0008C938681806C868308951F920F920FB631
:1010F0000F9211248F939F93EF93FF93E091A72872
:1011000091E09E0F9093A728F0E0E552FF4C80817C
:10111000882311F0933590F0809105088F7D80939E
:1011200005081092A7281092A628FF91EF919F9191
:101130008F910F900FBE0F901F901895809302080B
:10114000F4CF9091A62891110CC0E091A728E0352A
:1011500040F491E09E0F9093A728F0E0E552FF4CF9
:10116000808308958091A628811129C0E091A72845
:10117000AE2FB0E0A552BF4C8DE08C93A1E0AE0F36
:10118000B0E0A552BF4C8AE08C93EE5FF0E0E552F0
:10119000FF4C10821092A72881E08093A6288091AE
:1011A000040885FFFCCF80910508806280930508C4
:1011B0008091A528882319F08091A628FBCF089557
:1011C0008091A6288111FCCF81E08093A52881E041
:1011D00090E080933B2890933C2808958091A62826
:1011E0008111FCCF1092A52881E090E080933B28EC
:1011F00090933C280895CF93DF932091A628DC019B
:10120000222371F0DF91CF91089581E08E0F8093BA
:10121000A728ED0121978881F0E0E552FF4C8083FB
:101220008D91882379F3E091A728E03570F3EACF18
:10123000FC018091A62881110BC09091A728A92FAD
:10124000B0E0A552BF4C8491811103C09093A728B0
:1012500008959035D8F79F5F8D933196F4CF0E9413
:1012600018090C94B2089C018091A62881110FC026
:101270009091A728E92FF0E0E552FF4C80E2AF0102
:101280004B5D5043421753071CF09093A7280895D5
:101290009035D8F79F5F8193F2CFEF92FF920F9333
:1012A0001F93CF93DF93EC018091A62881110FC08B
:1012B000E091A728209729F5E03548F481E08E0FCA
:1012C0008093A728F0E0E552FF4C80E38083DF9114
:1012D000CF911F910F91FF90EF90089541505109C8
:1012E000C901A1F40E2F10E005521F4C8AE0E82E30
:1012F000F12C2115310511F0E03590F0E093A7288D
:10130000E6CF44E050E081E090E06AE0689F900121
:10131000699F300D1124C217D30700F79C01E2CF5B
:10132000CE01B9010E94FE1DEF5F605DD8016D9393
:101330008D01EC01C901B7010E94FE1D9B01D9CFAF
:101340002091A628211124C0009771F4E091A728CC
:10135000E035F0F481E08E0F8093A728F0E0E552AD
:10136000FF4C80E38083089597FF10C0E091A72889
:10137000E03570F491958195910921E02E0F20932D
:10138000A728F0E0E552FF4C2DE220830C944D0994
:1013900008954F925F926F927F928F929F92AF9239
:1013A000BF92CF92DF92EF92FF920F931F93CF9352
:1013B000DF934B015C018091A628811112C0C0917E
:1013C000A72881149104A104B104A1F5C03548F403
:1013D00081E08C0F8093A728D0E0C552DF4C80E3DA
:1013E0008883DF91CF911F910F91FF90EF90DF9055
:1013F000CF90BF90AF909F908F907F906F905F90B5
:101400004F9008953197DC2D7D2C8701C9F40C2F66
:1014100010E005521F4C8AE0482E512C612C712C93
:10142000C114D104E104F10411F0C035D8F0C09327
:10143000A728D7CFE9E0F0E0D1E0712C00E010E080
:10144000AAE0B0E02D2F372DA8010E94661E6B0187
:101450007C018C149D04AE04BF04A0F6CD2ED72CC5
:101460007801D5CFC501B401A70196010E94261EBF
:10147000CF5F205DF80121938F014B015C01C70113
:10148000B601A30192010E94261E69017A01C8CF0C
:101490002091A62821112BC06115710581059105A8
:1014A00071F4E091A728E03510F581E08E0F80936C
:1014B000A728F0E0E552FF4C80E38083089597FF72
:1014C00014C0E091A728E03590F490958095709530
:1014D00061957F4F8F4F9F4F21E02E0F2093A728BC
:1014E000F0E0E552FF4C2DE220830C94C9090895E9
:1014F0002F923F924F925F926F927F928F929F9224
:10150000AF92BF92CF92DF92EF92FF920F931F9311
:10151000CF93DF93CDB7DEB72E97CDBFDEBF8D87DC
:101520009E87019799F48091942890919528883E00
:10153000934021F480919628882359F00E94E00876
:101540008AE996E00E942F090E94EE081D861E86F9
:1015500065C188E896E00E942F094BE059E2498373
:101560005A834BED50E36BE0262E69E2362E80E085
:1015700090E0DC01F101019111911F01012E000C9D
:10158000220B330B800F911FA21FB31F4E175F0753
:1015900089F7BC01CD016C507E4F8F4F9F4F28EED5
:1015A00033E040E050E00E94261E2B833C834D83B5
:1015B0005E832B813C812B873C8740910B29509186
:1015C0000C29421B530BC12CD12C7601812C912C60
:1015D0005401412C512C3201A981BA810D911D91E8
:1015E000A983BA83EB85FC850E1B1F0B9801D801DC
:1015F0000E94481E460E571E681E791EC801841B95
:10160000950B092E000CAA0BBB0BBA2FA92F982FF4
:101610008827880D991DAA1DBB1D492F5A2F6B2F96
:10162000772767FD7A954C015D01841A950AA60A11
:10163000B70AC501B40142E09595879577956795FE
:101640004A95D1F797FF07C0909580957095619561
:101650007F4F8F4F9F4F9B01AC010E94EE1D9B015E
:10166000AC019AE056954795379527959A95D1F70D
:101670002F83388749875A87C20ED31EE41EF51E72
:101680000E94E00882E896E00E9418098091922862
:10169000909193280E94A00980E896E00E94180982
:1016A000C8010E94A0098BE796E00E941809C501B5
:1016B000B4010E94480A83E796E00E9418096F81EE
:1016C000788589859A850E94C9098BE696E00E94F3
:1016D0001809C701B6010E94C90983E696E00E9475
:1016E0001809C301B2010E94C90981E696E00E946F
:1016F00018090E94B2080E94EE08A80189819A8107
:101700002816390609F068CFC301B20163587F4F2C
:101710008F4F9F4F2AEF30E040E050E00E94261E9E
:10172000CA01B9010E94121F0E94CA1F20E030E0C6
:1017300040E05FE30E94721E0E94E31E9B01A4EC46
:10174000B9E00E94501E61507C4F8F4F9F4F2FEF8A
:1017500037E040E050E00E94261E4901C701B60173
:1017600028EE33E040E050E00E94261ECA01B90195
:101770000E94121F0E94CA1F20E030E040E05FE399
:101780000E94721E0E94E31E9B0136952795A4ECD1
:10179000B9E00E94501E61507E4F8F4F9F4F2FEF38
:1017A00033E040E050E00E94261E69010E94E008FC
:1017B00088E596E00E941809C6010E944D098DE453
:1017C00096E00E941809C4010E944D0982E496E047
:1017D0000E9418098B819C810E944D098AE396E042
:1017E0000E94180988EE93E00E94A0098BE296E01F
:1017F0000E94180980918E2890918F28209190281E
:1018000030919128821B930B0E94A00987E296E0F9
:101810000E9418090E94B2080E94EE088D859E85DC
:101820002E96CDBFDEBFDF91CF911F910F91FF901C
:10183000EF90DF90CF90BF90AF909F908F907F9070
:101840006F905F904F903F902F9008951F920F924E
:101850000FB60F9211248F939F93EF93FF93809174
:1018600000089091A328911107C08D3029F08A308B
:1018700061F481E08093A328FF91EF919F918F9174
:101880000F900FBE0F901F901895E091A428E0359F
:1018900098F791E09E0F9093A428F0E0E754F74D5D
:1018A0008083EACF1092A4281092A32808958091F3
:1018B000A328882391F08091A328813061F4E091DE
:1018C000A428F0E0E754F74D108282E08093A3282B
:1018D00089EB98E208950E94520C90E080E0089510
:1018E000FC01EE0FFF1FFF27F461808191810895B5
:1018F0002091A1283091A228260F371F2093A128DC
:101900003093A228FC01EE0FFF1FFF27F4616083D4
:1019100071838DE984BF83E0809300108091021071
:1019200081FDFCCF0895CF93DF93009709F482C027
:101930008091AD28843108F080C08FB78F778FBF3A
:101940001092A1281092A2286091472870914828EF
:1019500090E080E00E94780C6091452870914628C4
:1019600081E090E00E94780C6091432870914428B7
:1019700082E090E00E94780C60913F2870914028AE
:1019800083E090E00E94780C609141287091422899
:1019900084E090E00E94780C6091B7287091B8289C
:1019A00085E090E00E94780C60913D2870913E287F
:1019B00086E090E00E94780C6091B5287091B6287E
:1019C00087E090E00E94780C6091B3287091B42871
:1019D00088E090E00E94780C6091A1287091A22884
:1019E00089E090E00E94780C8FB780688FBF1092DA
:1019F000A1281092A228D0E0C0E0CE010E94700C75
:101A00002091A1283091A228820F931F8093A128B2
:101A10009093A2282196C930D10579F731E020E0D2
:101A200040911214509113144817590709F030E0EF
:101A3000832F922FDF91CF91089590E080E0FACF2D
:101A4000CF93DF931092A1281092A228D0E0C0E09B
:101A5000CE010E94700C2091A1283091A228820F03
:101A6000931F8093A1289093A2282196C930D10575
:101A700079F720911214309113148217930761F0B3
:101A80008091A9289091AA2884608093A928909396
:101A9000AA28DF91CF9108958091001490910114AC
:101AA00080934728909348288091021490910314C2
:101AB00080934528909346288091041490910514B2
:101AC00080934328909344288091061490910714A2
:101AD00080933F2890934028809108149091091496
:101AE000809341289093422880910A1490910B147E
:101AF0008093B7289093B82880910C1490910D147E
:101B000080933D2890933E2880910E1490910F145D
:101B10008093B5289093B628809110149091111459
:101B20008093B3289093B428B4CFE0E0F4E080E74A
:101B30008183868388E08183858380E881838583B0
:101B4000E0E4F4E084E0818385838093620481E0B3
:101B50008093A2040895882331F0813059F090E8F1
:101B60009093050403C090E89093060494E090934A
:101B7000450406C090E89093050494E090934604D1
:101B800080933628089560914128709142284091B1
:101B900035286115710531F080913F2890914028DA
:101BA000009769F4433011F410923528809135285C
:101BB000813009F094C182E0809335280895209106
:101BC0003628223009F0B8C02091680422FB222771
:101BD00020F9309114282313AAC030917A283F5F4E
:101BE00030937A2830917A283A3020F010927A286F
:101BF0002093132820911228241789F1413009F0ED
:101C0000A2C083E0809379282091B1283091B22836
:101C10002093772830937828260F371F2093752834
:101C2000309376282C503E4F20937328309374289D
:101C3000CB018C53964F28EE33E0B9010E94FE1D74
:101C40006F5F7F4F629FC001639F900D729F900DE9
:101C5000112480931028909311284093122841302A
:101C600081F58091B1289091B22820917728309108
:101C700078288217930708F481C0821B930B97FF83
:101C800085C08091B1289091B2282091752830911B
:101C900076288217930708F487C0821B930B97FF5F
:101CA0008BC08091B1289091B228209173283091F7
:101CB00074288217930708F48DC0821B930B97FF3B
:101CC00091C080913528833009F009C18091B128F5
:101CD0009091B22820917728309178288217930725
:101CE00008F4A6C0821B930B97FFAAC08091B1286D
:101CF0009091B22820917528309176288217930709
:101D000008F4ACC0821B930B97FFB0C08091B12840
:101D10009091B228209173283091742882179307EC
:101D200008F4B2C0821B930B97FFB5C008952093AF
:101D3000142810927A2856CF21E02093142810926C
:101D40007A282FEF55CF433009F087CF2AE0209330
:101D500079282091B1283091B228209377283093A8
:101D60007828280F391F20937528309376282C5017
:101D70003E4F20937328309374285BCFA901481BF2
:101D8000590BCA018130904808F47BCF809110280C
:101D900090911128280F391F2093772830937828A5
:101DA00081E00E94AB0D6DCFA901481B590BCA0100
:101DB0008130904808F475CF8091102890911128B7
:101DC000280F391F209375283093762882E00E94CF
:101DD000AB0D67CFA901481B590BCA018130904850
:101DE00008F46FCF8091102890911128280F391F87
:101DF000209373283093742880911328813021F424
:101E000082E0809335285DCF80917928815080933E
:101E10007928811156CF83E0809335288091A928B5
:101E20009091AA2881608093A9289093AA2849CFED
:101E3000A901481B590BCA018130904808F456CFBC
:101E40008091102890911128280F391F209377280E
:101E50003093782880E00E94AB0D48CFA901481B41
:101E6000590BCA018130904808F450CF8091102856
:101E700090911128280F391F2093752830937628C8
:101E800082E00E94AB0D42CFA901481B590BCA0149
:101E90008130904820F18091102890911128280FCE
:101EA000391F20937328309374288091132881114F
:101EB00003C010923528089580917928815080932D
:101EC000792881110CC084E0809335288091A9285D
:101ED0009091AA2881608093A9289093AA280895B8
:101EE0006091472870914828072E000C880B990BA9
:101EF0000E94141F2AE939E949E95FE30E94DE1EC6
:101F000087FD10C08091A80480FD0CC080E00E9475
:101F1000AB0D0E94E6060E94E00889EE96E00E9462
:101F20002F09FFCF0895E0EAF0E08081806280838E
:101F3000808182608083818182608183E0E8F6E035
:101F40008081816080838FEF84830895E0E6F4E0F0
:101F500081E082838089887F808B80898460808B08
:101F60008089877F808B82E082838189887F818BD3
:101F700081898460818B8189877F818B089580919D
:101F8000AE2881117AC01092000684E08093010689
:101F9000109202068091020683608093020680916F
:101FA00002068093020680910206806480930206F6
:101FB0001092030680910306806680930306809149
:101FC00003068061809303068FE1809305068EE10E
:101FD0008093060610920A06809100068160809325
:101FE00000068091080681608093080680910B06A8
:101FF00080FFFCCF609110067091110690E080E0A8
:1020000024E0660F771F881F991F2A95D1F7685C17
:102010007F4F8F4F9F4F20E730E040E050E00E941D
:10202000261E80912111A0912011082E000C990BE1
:10203000281B390BB0E00E94501EDC01CB018058F8
:102040009F4FAF4FBF4F892F9A2FAB2FBB27815187
:102050009140A109B10980939B2890939C2880917D
:1020600000068E7F80930006809102068061809337
:1020700002061092AE2881E0089580E008958091D4
:10208000AE2881115BC01092000684E080930106A7
:10209000109202068091020683608093020680916E
:1020A000020680618093020680910206806480931C
:1020B0000206109203068091030680668093030651
:1020C000809103068061809303068FE1809305066B
:1020D0008CE18093060610920A06809100068160CA
:1020E00080930006809108068160809308068091A5
:1020F0000B0680FFFCCF2091100630911106B9012C
:102100007695679590E080E0645A7C4082499D4FC7
:1021100050E040E00E94261E2093992830939A2890
:10212000809100068E7F8093000680910206806178
:10213000809302061092AE2881E0089580E0089511
:10214000CF93DF938091B1289091B228C0917128EC
:10215000D09172288C179D0738F08C1B9D0B97FF30
:102160000AC0DF91CF9108959E01281B390BC90148
:1021700081309048B0F380917028882369F00E94E4
:10218000BF0F882371F3C05FD84DC0937128D093DF
:10219000722810927028E5CF0E943F10882309F31F
:1021A000C05FD84DC0937128D093722881E080938E
:1021B0007028D7CF8091AE2881116EC191E09093A5
:1021C000AE281092000682E080930106109202066B
:1021D00080910206826080930206809102068061EF
:1021E000809302068091020680648093020610921A
:1021F00003068091030680628093030680910306A4
:102200008061809303061092050610920A06809161
:102210000006816080930006909306068091200A54
:102220009091210A8A3F9105C8F38091200A9091EC
:10223000210A8B3F9105C8F781E0809308068091C1
:102240000B0680FFFCCF80911006909111069595AA
:1022500087959595879540914728509148284C300F
:1022600051050CF0D8C0853D23E092070CF0E5C085
:102270009C012D5533402633310508F4E1C0815DC2
:1022800092408F34910508F0D5C086E090E020910F
:102290002B2830912C282E3F3F4F41F410926F286D
:1022A0002FEF3FEF20932B2830932C2820912B28C1
:1022B00030912C282817390709F0C5C020916F28C4
:1022C0002F5F20936F2820916F28253021F4809371
:1022D0003328909334288091200A9091210A8E38D7
:1022E0009241C8F381E08093080680910B0680FF3D
:1022F000FCCF809110069091110695958795959544
:1023000087954C3051050CF0A5C04A97853491054E
:1023100008F0A5C08CE090E02091292830912A286F
:102320002E3F3F4F41F410926E282FEF3FEF209346
:10233000292830932A282091292830912A282817E3
:10234000390709F08FC020916E282F5F20936E28E7
:1023500020916E28253021F48093312890933228E3
:102360001092060681E08093080680910B0680FF9C
:10237000FCCF8091100690911106959587959595C3
:1023800087952091100630911106853D63E09607F0
:102390000CF06FC09C01255031402B3D310508F4F5
:1023A0006BC022593F4F2534310508F468C08C5466
:1023B00091098C9708F066C086E792E020912D285D
:1023C00030912E282E3F3F4F41F410926D282FEF71
:1023D0003FEF20932D2830932E2820912D283091E7
:1023E0002E282817390709F050C020916D282F5F3B
:1023F00020936D2820916D28253021F480932F287B
:1024000090933028809100068E7F80930006109272
:10241000AE2881E008958E3563E0960774F49C0140
:102420002C5033402633310558F08A5B9240C697D2
:1024300008F42BCF8FEF9FEF2ACF8CE090E027CFCF
:1024400089E090E024CF80932B2890932C28109241
:102450006F2839CF8E5D9109C59708F45BCF8FEF58
:102460009FEF5ACF8093292890932A2810926E28A4
:102470006FCF82E890E0A2CF88EC90E09FCF80E41D
:1024800091E09CCF8FEF9FEF99CF80932D28909371
:102490002E2810926D28AECF80E00895CF93DF9361
:1024A0008091B1289091B228C0916B28D0916C286E
:1024B0002091972830919828232BB9F48C179D07E9
:1024C00038F08C1B9D0B97FF0AC0DF91CF910895C8
:1024D0009E01281B390BC90181309048B0F36096EA
:1024E000C0936B28D0936C28F0CF8C179D0748F0D1
:1024F0008C1B9D0B97FDE9CF0E94DA108111EFCF65
:10250000E4CF9E01281B390BC90181309048A0F708
:10251000DCCFE0E6F4E080E282838589887F858BEA
:1025200085898460858B8589877F858B80E482831C
:102530008689887F868B86898460868B8689877F5B
:10254000868B80E882838789887F878B87898460F0
:10255000878B8789877F878B089590919628911123
:1025600052C09091AE2891114EC091E09093AE2848
:102570001092000610920106109202069091020637
:1025800092609093020690910206909302069091B9
:10259000020690649093020610920306909103063F
:1025A0009068909303069AE090930506282F30E0F8
:1025B000823019F1833019F1813019F585E080936B
:1025C0000606209392283093932891E090930A0670
:1025D00080910006816080930006109294281092EA
:1025E00095282091B1283091B228209390283093DB
:1025F00091289093962881E0089586E0E0CF87E0C7
:10260000DECF1092AE2880E00895019729F481E092
:102610000E94AD1290E0089590E080E00895019747
:1026200029F482E00E94AD1290E0089590E080E0ED
:102630000895019729F483E00E94AD1290E0089577
:1026400090E080E008951F920F920FB60F92112430
:102650002F933F934F935F938F939F93EF93FF93AA
:10266000409110065091110680919628813001F515
:1026700080919428909195289C012F5F3F4F209343
:10268000942830939528880F991FFC01E55FF64D3B
:1026900040835183283E33405CF082E0809396284B
:1026A0008091B1289091B22880938E2890938F28A2
:1026B000FF91EF919F918F915F914F913F912F915A
:1026C0000F900FBE0F901F9018958F929F92AF9210
:1026D000BF92CF92DF92EF92FF92CF93DF938091E0
:1026E0009628823009F066C040910E2850910F283C
:1026F000EBE0F9E22BED30E380E090E0DC0157FD08
:102700003AC0483E23E052070CF072C0EA01CC59AF
:10271000DF4FC93E83E0D80714F0C8EED3E0E09065
:102720000C28F0900D288090672890906828A09041
:102730006928B0906A28FA01EE0FFF1FE55FF64D99
:102740004C175D070CF441C080926728909268286E
:10275000A0926928B0926A2840930E2850930F28BF
:1027600029C0C190D1900D2C000CEE08FF088C0DF3
:102770009D1DAE1DBF1D2E173F0799F7BC01CD0152
:102780006C507E4F8F4F9F4F28EE33E040E050E07B
:102790000E94261E20930C2830930D281092672843
:1027A000109268281092692810926A2810920E28B8
:1027B00010920F28DF91CF91FF90EF90DF90CF9094
:1027C000BF90AF909F908F900895A191B191AE1955
:1027D000BF09B7FF03C0B195A195B1099D010E9442
:1027E000481E860E971EA81EB91E4F5F5F4FA8CFCA
:1027F000483E23E0520759F5609167287091682898
:102800008091692890916A2863587F4F8F4F9F4F1E
:102810002AEF30E040E050E00E94261ECA01B901D4
:102820000E94121F0E94CA1F20E030E040E05FE3D8
:102830000E94721E0E94E31E6093652870936628B2
:1028400089EE93E080930E2890930F28B3CF493EF2
:10285000534009F0AFCFE0916528F0916628DF0181
:102860002EEC38E341E050E00E94661E6B017C01D3
:1028700020E8D20EE11CF11C6701EE24FF24A09198
:102880003D28B0913E289F010E945F1EDC01CB01D4
:10289000905EAF4FBF4F2EE0B695A7959795879561
:1028A0002A95D1F72091B5283091B628820F931F31
:1028B0008A30910510F490E080E0209192283091C8
:1028C00093282230310509F4B0C02330310509F4D2
:1028D000B9C02130310561F4E0932728F09328280E
:1028E000C0922128D092222880931B2890931C28E4
:1028F000109296281092AE288FEF9FEF80930E28AB
:1029000090930F288091B7289091B828892B09F4CB
:1029100051CF0E94E00882EE96E00E941809809153
:102920001B2890911C2897FD22C08CED96E00E94F8
:10293000180980911B2890911C280E944D0989ED4F
:1029400096E00E94180980912128909122280E94E7
:102950004D0985ED96E00E941809809127289091F5
:1029600028280E944D0982ED96E00E941809809166
:10297000192890911A2897FD22C08CEC96E00E94AD
:1029800018098091192890911A280E944D0989EC04
:1029900096E00E94180980911F28909120280E949B
:1029A0004D0985EC96E00E941809809125289091A8
:1029B00026280E944D0982EC96E00E941809809119
:1029C00017289091182897FD22C08CEB96E00E9462
:1029D000180980911728909118280E944D0989EBB9
:1029E00096E00E94180980911D2890911E280E944F
:1029F0004D0985EB96E00E9418098091232890915B
:102A000024280E944D0982EB96E00E9418090E943A
:102A1000B208DF91CF91FF90EF90DF90CF90BF9001
:102A2000AF909F908F900C94EE08E0932528F09340
:102A30002628C0921F28D09220288093192890938E
:102A40001A2856CFE0932328F0932428C0921D28FB
:102A5000D0921E28809317289093182849CF0F935F
:102A60001F93CF93DF93C0910A28D0910B288091B8
:102A70008C2890918D28892BF9F4109296288091BA
:102A8000B1289091B2288C179D0748F08C1B9D0BA4
:102A900097FF0CC0DF91CF911F910F9108959E0178
:102AA000281B390BC90181309048A0F3DC5FC0932B
:102AB0000A28D0930B28EECF0E9465138091B1288D
:102AC0009091B2288C179D07B8F08C1B9D0B97FD39
:102AD000E1CF0091082810910928802F0E94AD12A3
:102AE0008823C1F20F5F1F4F043011056CF400936F
:102AF000082810930928DACF9E01281B390BC90139
:102B00008130904830F7C6CF81E090E0809308286C
:102B100090930928CBCFE0E0F4E084E081838583C3
:102B20001092E405E0E0FAE0808180838181876093
:102B3000818388E893E186A397A384EF91E084A73B
:102B400095A781818F7B81838081816080830895B7
:102B5000E0E8FAE01082118281E0858388EE93E05C
:102B60008487958780818160808308951F920F926A
:102B70000FB60F9211242F938F939F9380919628D5
:102B8000813029F480910806816080930806809145
:102B900064288F5F809364288A3068F48091860A65
:102BA00081608093860A9F918F912F910F900FBE25
:102BB0000F901F901895109264288091882890910A
:102BC0008928019680938828909389288091862867
:102BD00090918728019680938628909387288091EA
:102BE00086289091872880339547C4F210928628D2
:102BF00010928728D3CF80918A0A90918B0A873BC5
:102C00009340C8F780918828909189288093B128B3
:102C10009093B22880918628909187288093AF283E
:102C20009093B02808958091B1289091B228209176
:102C30008228309183288093822890938328409122
:102C40003B2850913C28452BC1F4821B930B2091CB
:102C50001528309116288217930720F480931528A1
:102C600090931628209184283091852828173907B9
:102C700020F4809384289093852810923B2810920A
:102C80003C28089583E196E00E9418098091152858
:102C9000909116280E944D098FE20E94A108809110
:102CA0008428909185280E944D090E94B2088FEFD8
:102CB0009FEF8093152890931628109284281092E5
:102CC000852881E090E080933B2890933C280895EC
:102CD000CF93DF932091B3283091B428232B61F058
:102CE000EC010E94E008CE010E9418090E94B2087F
:102CF000DF91CF910C94EE08DF91CF910895CF939F
:102D0000DF9380914528909146282091802830912A
:102D100081288217930724F4809380289093812838
:102D200020918028309181288217930724F4809382
:102D30008028909381288091AD2881111AC010922B
:102D4000A82880918A2890918B28892B09F4A6C302
:102D500081E08093AD2884E096E00E94681680911F
:102D6000B1289091B2288854944F80936228909310
:102D700063288091AD28813091F40E9487072091CB
:102D8000B1283091B2288091622890916328281749
:102D9000390708F48BC3281B390B37FF8DC380918B
:102DA000AD28823051F50E94E60690E080E00E9456
:102DB00061070E94870790E080E00E94390788E061
:102DC000809305040E94C9061092A82810926028DA
:102DD0001092612810925E2810925F2810925C2851
:102DE00010925D2880913528811107C08CEC95E008
:102DF0000E94681683E08093AD288091AD288330CF
:102E000059F48091A828882339F08FEB95E00E942F
:102E100068168AE08093AD288091AD288930C9F486
:102E20000E94E60690E080E00E9461070E9487070A
:102E300090E080E00E94390788E08093050480914B
:102E4000A828882331F080EB95E00E946816109244
:102E5000AD288091AD288A3051F50E94E60690E0B9
:102E600080E00E94610781E090E00E9439070E94A3
:102E7000870788E0809306041092A82810926028A3
:102E80001092612810925C2810925D288091B128E0
:102E90009091B228805D9A4880935A2890935B283D
:102EA00085EA95E00E9468168BE08093AD288091BA
:102EB000AD288B3071F58091332890913428099793
:102EC00071F480912F2890913028181619063CF43F
:102ED0008AE995E00E94681684E18093AD282091EC
:102EE000B1283091B22880915A2890915B282817F8
:102EF000390708F4E9C2281B390B37FFEBC2809170
:102F0000A828882331F08DE695E00E94681610927B
:102F1000AD288091AD28843109F045C00E94E606B5
:102F200090E080E00E94610781E090E00E94390714
:102F300088E08093060481E090E00E94D106109220
:102F4000A828109260281092612810925C28109294
:102F50005D2880913528823031F5809180289091CC
:102F60008128CC970CF4BEC280912F2890913028F4
:102F7000CC970CF4B7C280917E2890917F28892B42
:102F800009F4B0C28091B1289091B228805F984D29
:102F9000809358289093592882E695E00E946816FD
:102FA00085E18093AD288091AD28853109F040C03E
:102FB000209180283091812820935C2830935D28CF
:102FC00080912F28909130288217930724F48093C2
:102FD0005C2890935D2880915C2890915D280E94E8
:102FE00093078091332890913428069739F48AE327
:102FF00095E00E9468168EE18093AD288091A82804
:10300000882331F084E295E00E9468161092AD2882
:103010002091B1283091B228809158289091592858
:103020002817390708F464C2281B390B37FF66C21A
:103030008091AD288E31D1F41092A82880915C281F
:1030400090915D28CC975CF080917E2890917F28AC
:10305000892B29F080913528823009F457C287EFF7
:1030600094E00E9468168AE58093AD288091AD288F
:103070008F3109F049C0C0917E28D0917F28C0933C
:103080006028D093612880915C2890915D280E94EF
:10309000930788E080930604CE010E94F20681E047
:1030A00090E00E94610781E090E00E94390781EE84
:1030B00094E00E94681680E28093AD288091B12848
:1030C0009091B228805D9A48809356289093572813
:1030D00080915E2890915F2820919D2830919E28B4
:1030E000822B932B80935E2890935F288FEF9FEF26
:1030F0008093542890935528809352289093532876
:1031000080935028909351288091AD28803209F007
:1031100079C080911B2890911C28209154283091CF
:1031200055282817390724F480935428909355285C
:103130008091192890911A28209152283091532873
:103140002817390724F480935228909353288091AC
:10315000172890911828209150283091512828172D
:10316000390724F480935028909351288091332874
:10317000909134280997F9F480915428909155281A
:103180002091522830915328820F931F209150286C
:1031900030915128820F931F8D976CF480919D2858
:1031A00090919E28079739F084EC94E00E9468166D
:1031B00088E28093AD288091332890913428069737
:1031C00039F08EEA94E00E94681689E08093AD2879
:1031D0008091A828882331F088E994E00E9468163D
:1031E0001092AD282091B1283091B22880915628B4
:1031F000909157282817390708F48EC1281B390BDE
:1032000037FF90C18091AD288132D9F58091332864
:1032100090913428069739F08AE594E00E94681668
:1032200089E08093AD288091A828882331F084E438
:1032300094E00E9468161092AD28C0917E28D0912B
:103240007F28209779F020918028309181282C3395
:10325000310544F080912F28909130288C339105CE
:103260000CF086C110925C2810925D2810926028A4
:103270001092612889E294E00E94681688E28093A7
:10328000AD288091AD288832A9F40E94870710925A
:10329000A8288091B1289091B228805F984D8093A2
:1032A00062289093632884E094E00E94681689E283
:1032B0008093AD288091AD28893219F58091A82896
:1032C000882331F087EF93E00E9468161092AD28B2
:1032D0008091B1289091B228209162283091632882
:1032E0008217930708F468C1AC01421B530B57FFC8
:1032F00069C120913328309134282630310509F0F6
:1033000061C18091AD288233D9F40E94E60688E03D
:103310008093050490E080E00E9461071092A82845
:103320002091B1283091B22880914E2890914F2859
:103330002817390708F454C1281B390B37FF56C129
:103340008091AD288853843050F48091A828882338
:1033500031F089EC93E00E9468161092AD288091BC
:10336000AD288833C9F48091802890918128CC972A
:103370009CF080912F2890913028CC976CF0809110
:103380007E2890917F28892B39F08EEB93E00E9464
:1033900068168AE08093AD288091AD28893311F5B5
:1033A00080915C2890915D2884369105DCF48091B1
:1033B00080289091812884369105A4F080912F284F
:1033C00090913028843691056CF080917E28909100
:1033D0007F28892B39F083EB93E00E9468168AE0FE
:1033E0008093AD288091AD288A33C9F480918028DC
:1033F00090918128CC979CF080912F289091302833
:10340000CC976CF080917E2890917F28892B39F0A1
:1034100088EA93E00E9468168AE08093AD28809144
:10342000AD288B3331F58091802890918128CC97FD
:1034300004F180912F2890913028CC97D4F080917E
:103440007E2890917F280097A1F0209160283091EC
:1034500061288217930769F080915E2890915F2818
:10346000079739F48DE993E00E9468168AE080930B
:10347000AD288091AD288A3549F42091A928309152
:10348000AA2822602093A9283093AA2890E080934C
:10349000AB289093AC28DF91CF91089582E0809380
:1034A000AD2885EF95E00E94681663CC821B930BD4
:1034B0008130904808F473CC86EE95E00E9468163F
:1034C00082E08093AD286BCC821B930B81309048B7
:1034D00008F415CD83E895E00E94681689E0809392
:1034E000AD280DCD87E495E00E94681682E359CDA2
:1034F000821B930B8130904808F49ACD83E095E0CD
:103500000E94681682E38093AD2892CD8CEE94E001
:103510000E9468168FE1A8CD821B930B81309048E2
:1035200008F470CE8091542890915528209152280B
:1035300030915328820F931F2091502830915128A9
:10354000820F931F8D9774F480919D2890919E28EF
:10355000079741F08BE794E00E94681688E2809319
:10356000AD2850CE80E794E00E94681681E2F7CF44
:103570004091602850916128C417D50739F0109206
:103580005C2810925D288FE094E076CE8217930736
:1035900074F020935C2830935D2880915C28909192
:1035A0005D280E949307CE010E94F2066ACE8093A6
:1035B0005C2890935D28F1CF281B390B21303048CF
:1035C00008F497CE805F984D80934E2890934F28B3
:1035D0008CEE93E00E94681682E38093AD2891CE32
:1035E000821B930B8130904808F4AACE8BED93E0B8
:1035F0000E946816809160289091612820915C2833
:1036000030915D28232B41F4892B51F488E380937A
:10361000AD2896CE89E3FBCF892BE1F38BE3F7CF7F
:103620008AE3F5CF0F931F93CF93DF938091A62862
:10363000811189C0C091AD28D0E080910628909179
:103640000728C817D90769F5C0911B28D0911C28F5
:103650008091042890910528C817D907E9F5C091F1
:103660001928D0911A288091022890910328C81710
:10367000D90709F447C09C012B5F3F4F2C173D072A
:103680004CF02A503109C217D30724F0D7FD02C0ED
:1036900097FF38C0C0930228D09303280EE510E8A6
:1036A00006C0C0930628D093072809E510E88BE5EB
:1036B0000E94A108C8010E94FB088DE30E94A10896
:1036C000CE010E94A0098DE50E94A108DF91CF9153
:1036D0001F910F910C94B2089C012B5F3F4F2C1748
:1036E0003D074CF02A503109C217D30724F0D7FD0B
:1036F00002C097FFB4CFC0930428D093052803E6F7
:1037000010E8D5CFC0911728D091182880910028B3
:1037100090910128C817D907B1F09C012B5F3F4F4A
:103720002C173D074CF02A503109C217D30724F05B
:10373000D7FD02C097FF07C0C0930028D09301288F
:1037400004E510E8B4CFDF91CF911F910F91089558
:10375000CF93DF93C3E4D1E888819981892B19F451
:10376000DF91CF9108958AE993E00E94180988813A
:1037700099810E94FB088A819B81892B49F08DE306
:103780000E94A108EA81FB81808191810E94A009A9
:103790008CE090E00E9433098A819B81892B61F043
:1037A0008C819D81892B21F48E819F81892B21F031
:1037B00084E993E00E9418098A819B81892B61F436
:1037C0008C819D81892B21F48E819F81892B21F011
:1037D0008EE893E00E9418098A819B81892B61F011
:1037E0008C819D81892B41F48E819F81892B21F4CD
:1037F00088E893E00E94180988859985892B41F013
:1038000084E893E00E941809888599850E94180928
:103810000E94B2082A96A0CF8CE793E00E942F095D
:103820000E94E00886E793E00E942F098CE693E06F
:103830000E942F0986E493E00E94180981E090E03D
:103840000E944D098EE20E94A10883E090E00E9450
:103850004D090E94B2088FE193E00E942F0985E193
:1038600093E00E942F090E94A81B8BE093E00E9426
:103870002F090E9442168FEF92E00E941809809152
:10388000AF289091B0280E944D090E94B20880EFA5
:1038900092E00E9418098091352890E00E944D091D
:1038A0000E94B20882EE92E00E9418098091AD2831
:1038B00090E00E944D090E94B20888ED92E00E94BB
:1038C0002F0982ED92E00E942F090E94EE0881E00C
:1038D00090E080933B2890933C280895892B11F029
:1038E0000C940C1C90E080E008959F92AF92BF92E0
:1038F000CF92DF92EF92FF920F931F93CF93DF93BC
:10390000FC017F01119111110DC080E0DF91CF9179
:103910001F910F91FF90EF90DF90CF90BF90AF90ED
:103920009F9008955F011F3331F01D3321F0113254
:1039300011F01E3731F7992E082FF701108283E41A
:10394000C82E81E8D82E0BC0602F792D0E941F2031
:10395000EC01892B09F460C08AE0C80ED11CD601A5
:103960008D919C91009781F7D0CF1E3741F480E371
:10397000D70111968C93119712961C9254C01D3347
:1039800009F451C01F3349F4D6011296ED91FC9110
:10399000309709F4BACFC081D181802F992D0E9430
:1039A000FB088DE30E94A108CE010E94A0090E949D
:1039B000B20881E0ABCFC1389CE0D9070CF0A5CFAD
:1039C0004C9FB0014D9F700D1124A82FA053BB0B2D
:1039D000ED01C60FD71F819190ED980F9A3058F3E3
:1039E000FE01E29FE001E39FD00DF29FD00D112474
:1039F000D6011696ED91FC911797309749F41496DD
:103A0000ED91FC91309709F480CFC083D183C5CF6D
:103A1000CE010995EC01C1CF113209F0A6CF81E3A7
:103A2000F70181831282F7018181882309F46DCF28
:103A300021E030E08D3231F45701F2E0AF0EB11CDD
:103A40002FEF3FEFF5014AE0C6CFFC0120812F3375
:103A500011F40C940C1C0E94751C811104C086EC9E
:103A600092E00C942F0908950E94D4070E945D08EB
:103A70000E94DE070E94950D0E94930F0E94A60FE0
:103A80000E9489120E948B150E94A8158FB780682A
:103A90008FBF0E94200D80E992E00E942F0918E05C
:103AA000C1E0D0E00E94FB150E9413160E94E507BA
:103AB0000E94C30D0E94700F0E9436080E942F15AD
:103AC0000E944E120E94A0100E94121B8091A928F1
:103AD0009091AA28892B09F45EC0109305040E94D6
:103AE000E60690E080E00E94610790E080E00E949E
:103AF00039070E94C906809135286091A9287091E4
:103B0000AA28811116C060FF14C080914C289091A2
:103B10004D28892B71F4C0934C28D0934D28809167
:103B2000B1289091B228805F984D80934A28909355
:103B30004B2862307105A1F480914C2890914D285A
:103B4000892B71F460934C2870934D288091B12893
:103B50009091B228805D9A4880934A2890934B2890
:103B600080914C2890914D28009779F04091B12890
:103B70005091B22820914A2830914B284217530780
:103B8000B8F0421B530B57FF18C08091A9289091A1
:103B9000AA28892B11F40E947F160E94570C0097C7
:103BA00021F00E94251D0E94520C1092A8287ACF65
:103BB000241B350B2130304840F3809590958623A7
:103BC00097238093A9289093AA28892B11F4109207
:103BD000AD2810924C2810924D28D7CFDB018F933F
:103BE0009F930E94661EBF91AF91A29F800D911D71
:103BF000A39F900DB29F900D11240895AA1BBB1B8B
:103C000051E107C0AA1FBB1FA617B70710F0A61BDC
:103C1000B70B881F991F5A95A9F780959095BC01FD
:103C2000CD01089597FB072E16F4009407D077FD79
:103C300009D00E94FE1D07FC05D03EF490958195A9
:103C40009F4F0895709561957F4F0895A1E21A2EB8
:103C5000AA1BBB1BFD010DC0AA1FBB1FEE1FFF1F30
:103C6000A217B307E407F50720F0A21BB30BE40B80
:103C7000F50B661F771F881F991F1A9469F76095C7
:103C80007095809590959B01AC01BD01CF01089581
:103C90000E94501E332312F48A1B9B0B0C94611E4E
:103CA000A29FB001B39FC001A39F700D811D11247D
:103CB000911DB29F700D811D1124911D08950E94C8
:103CC000501EB7FF0895821B930B08950E94501E4B
:103CD000A59F900DB49F900DA49F800D911D112460
:103CE00008955058BB27AA270E94891E0C948A1F4A
:103CF0000E947C1F38F00E94831F20F039F49F3F00
:103D000019F426F40C94791F0EF4E095E7FB0C945B
:103D1000731FE92F0E949B1F58F3BA17620773079E
:103D20008407950720F079F4A6F50C94BD1F0EF4D6
:103D3000E0950B2EBA2FA02D0B01B90190010C01BB
:103D4000CA01A0011124FF27591B99F0593F50F4D3
:103D5000503E68F11A16F040A22F232F342F44272B
:103D6000585FF3CF469537952795A795F040539523
:103D7000C9F77EF41F16BA0B620B730B840BBAF0F3
:103D80009150A1F0FF0FBB1F661F771F881FC2F75E
:103D90000EC0BA0F621F731F841F48F48795779572
:103DA0006795B795F7959E3F08F0B0CF9395880F2C
:103DB00008F09927EE0F9795879508950E944F1F59
:103DC00008F481E008950E94A31F88F09F5798F09F
:103DD000B92F9927B751B0F0E1F0660F771F881F10
:103DE000991F1AF0BA95C9F714C0B13091F00E942A
:103DF000BD1FB1E008950C94BD1F672F782F882751
:103E0000B85F39F0B93FCCF3869577956795B39550
:103E1000D9F73EF490958095709561957F4F8F4FBF
:103E20009F4F0895E89409C097FB3EF490958095C4
:103E3000709561957F4F8F4F9F4F9923A9F0F92F70
:103E400096E9BB279395F695879577956795B795EE
:103E5000F111F8CFFAF4BB0F11F460FF1BC06F5FD4
:103E60007F4F8F4F9F4F16C0882311F096E911C0E6
:103E7000772321F09EE8872F762F05C0662371F007
:103E800096E8862F70E060E02AF09A95660F771F1B
:103E9000881FDAF7880F9695879597F90895990FF7
:103EA0000008550FAA0BE0E8FEEF16161706E80704
:103EB000F907C0F012161306E407F50798F0621B25
:103EC000730B840B950B39F40A2661F0232B242BFA
:103ED000252B21F408950A2609F4A140A6958FEF19
:103EE000811D811D089597F99F6780E870E060E06B
:103EF00008959FEF80EC089500240A941616170683
:103F000018060906089500240A94121613061406CA
:103F100005060895092E0394000C11F4882352F02D
:103F2000BB0F40F4BF2B11F460FF04C06F5F7F4FE5
:103F30008F4F9F4F089557FD9058440F551F59F0CC
:103F40005F3F71F04795880F97FB991F61F09F3F86
:103F500079F087950895121613061406551FF2CFAF
:103F60004695F1DF08C0161617061806991FF1CFFF
:103F700086957105610508940895E894BB27662726
:103F80007727CB0197F9089519F416F40C94791F4B
:103F90000C940A200E94A31FB8F39923C9F3B6F327
:103FA0009F57550B87FF0E9418200024A0E640EA87
:103FB000900180585695979528F4805C660F771F7E
:103FC000881F20F026173707480730F4621B730B51
:103FD000840B202931294A2BA69517940794202574
:103FE00031254A2758F7660F771F881F20F02617BC
:103FF0003707480730F4620B730B840B200D311D1B
:10400000411DA09581F7B901842F9158880F96958D
:10401000879508959F3F31F0915020F487957795CB
:104020006795B795880F911D9695879597F908958F
:1040300091505040660F771F881FD2F70895FB01FB
:10404000DC018D91019080190110D9F3990B08952D
:04405000F894FFCF12
:104054006375723300636373730063757232006354
:10406400757231007665720078626C696E6B7300EC
:1040740074696D650074656D700076636300636DCB
:10408400617863757200616D617863757200617047
:104094006861736573007370686173657300736D31
:1040A4006178637572006572726F72007361766510
:1040B400006970686173657300696D617863757216
:1040C40000636373646D700073696772656C00707C
:1040D400696C6F7473006370696C6F740063706EE5
:1040E400736C70007070696C6F74006370637572C8
:1040F40000726D7300726D733100726D73320072F1
:104104006D733300726D73646D700063616C646D04
:10411400700063616C610063616C62006C6F636B5F
:10412400006C6F706E6D73006C636C736D730073F1
:1041340073720075736167650072657365740068F6
:1041440080DD8200000000EE0C6D803928392800E3
:1041540000C50C6C80372837280000A20C7480AF8F
:10416400280000B906890C79809B28000000006DA6
:104174000C7E809928000000005B0C5980AB28005D
:10418400000000310C82802F2800000000060C8AF9
:10419400808A2800000000D60B92809F280000002F
:1041A400009F0B63801B28000000007F0B5E8019BA
:1041B40028000000006F0B54801728000000005FE7
:1041C4000B9A807E287E280000FC0AA2808028802A
:1041D400280000300BAA80A92800000000D00AB0F3
:1041E4008000000000930CA40AB5804328432800F3
:1041F400004C0ABD804528452800007B0AC5800084
:1042040000B3280000220ACC8000000000B006EBB6
:1042140009D380972800003907AE09DA80332800D3
:10422400000000A209E1803128000000008009E8B4
:10423400802F28000000005F09EF808A2800009387
:10424400072509F5808C2800006107EC08F9802710
:104254002800000513B108FE80252800000F13A0D4
:104264000803812328000019138F08088100000027
:1042740000780A73080F810000B72800003608167A
:10428400813D283D28000012081B81B528B528006F
:1042940000EE07208100000000D106C60725813FFB
:1042A400283F2800009C072C8141284128000071E8
:1042B40007338100000000F2063507378100000053
:1042C400006E1C0D073D8100000000A306EF0600F0
:0B42D4000000000000000000000D00D2
:1042DF00FFFFFFFFFFFFFFFF010005000002FFFFD1
:1042EF00E80304FF01FFFFFFFFFFFFFFFFFFFFFFDB
:1042FF00FFFFFFFFFFFFFFFFFFFEFFFEFFFEFFFFC2
:10430F00FFFFFFFFFF0302FFFFFFFF01004B4A64A8
:0A431F000064007B00A0000C000009
:0400000300000200F7
:00000001FF
