:100200000C94A8060C94C5060C94C5060C94C5065F
:100210000C94C5060C94C5060C94C5060C94C50632
:100220000C94C5060C94C5060C94C5060C94C50622
:100230000C94DA150C94C5060C94C5060C94C506EE
:100240000C94C5060C944A0C0C9499080C94C506A1
:100250000C94C5060C94C5060C9447130C94C50663
:100260000C94C5060C94C5060C94C5060C94C506E2
:100270000C94C5060C94C5060C94C5060C94C506D2
:100280000C94C5060C94C5060C94C5060C94C506C2
:10029000252041474343532D4374726C323243202F
:1002A0002D2D2D20656E74657220223F5B43522FE9
:1002B0004C465D2220666F72206D6F72652064650A
:1002C0007461696C73007061727365206572726F1E
:1002D000720025205D5D5D0025203D3D3D3D3D3D9D
:1002E0003D0025206363732073746174653A2000B8
:1002F00025206C6F636B2073746174653A20002550
:100300002073797374696D653A200025203D3D3D69
:100310003D3D3D3D0025203D3D3D3D3D3D3D0025D4
:1003200020436F707972696768742054686F6D61DB
:1003300073204D6F6F722028632920323032302CA9
:10034000203230323100252041474343532D43743E
:10035000726C32324320415652204669726D776189
:1003600072652056657273696F6E200025203D3DD1
:100370003D3D3D3D3D0025205B5B5B007573616746
:10038000653D3100202520005B522F2D5D005B2D47
:100390002F575D005B522F575D0025200025205709
:1003A00039202D3E2041300025205739202D3E2078
:1003B00041300025205737202D3E20413000252098
:1003C0005736202D3E20413000252057362F372F1D
:1003D000382F39202D3E204F46460025205730200B
:1003E0002D3E2057362F372F382F390025205731F3
:1003F000202D3E204F4646202862746E290025207D
:100400005731202D3E204F4646202872747279299C
:100410000025205730202D3E205731002520503117
:10042000202D3E2057300025205031202D3E204FDA
:100430004646300025205030202D3E2050310025EA
:10044000204333202D3E2050302028706861736592
:10045000206368616E6765290025204333202D3EA7
:100460002050302028696E76616C696420706F7747
:100470006572290025204333202D3E204F4646300B
:100480002028627574746F6E290025204333202D57
:100490003E204F46463920286370696C6F742900EE
:1004A00025204332202D3E20433300252043322097
:1004B0002D3E20503020287068617365732072656E
:1004C0006A6563746564290025204332202D3E202F
:1004D0004F4646302028627574746F6E29002520BF
:1004E0004332202D3E204F46463920286370696CE8
:1004F0006F74290025204332202D3E2050302028C3
:100500007068617365732072656A656374656429D8
:100510000025204331202D3E20433200252043304A
:10052000202D3E2043310025204330202D3E204504
:1005300052520025204231202D3E20573020287570
:100540006E686170707920776974682043502D500F
:10055000574D290025204231202D3E204F46463060
:100560002028627574746F6E290025204231202D79
:100570003E2043302F310025204230202D3E205791
:10058000302028696E76616C696420706F776572BF
:10059000290025204230202D3E20423100252041D7
:1005A00031202D3E204F4646302028627574746FEE
:1005B0006E290025204131202D3E204F464639200E
:1005C0002874696D656F7574290025204131202DCF
:1005D0003E2042300025204130202D3E2041310078
:1005E00025204F464639202D3E204F4646300025D7
:1005F000204F464631202D3E2041300025206363A8
:10060000732073746174653A204F464632202D3E44
:10061000204F4646330025204F464631202D3E20B0
:100620004F4646320025204F464630202D3E204F73
:100630004646320025204F464630202D3E204F466C
:100640004631006379636C652074696D65206D695E
:100650006E2F6D617820006D735D003B2073616DBE
:10066000706C652074696D6520003B20636E74209A
:1006700023006D56205B6D65616E2023006D563B37
:1006800020726D73503A20002520726D73463A2017
:10069000005D003B2053756D503D003B2053756D50
:1006A000463D003B20467371723D00205B463D0095
:1006B00020002520726D73002520726D73207265F5
:1006C000636F72642064756D70002520726D7320F5
:1006D0007265636F726420696E636F6D706C6574B0
:1006E0006500293B006D564000202800204C333A1D
:1006F0002000293B006D564000202800204C323A53
:100700002000293B006D564000202800204C313A43
:1007100020002520726D733A005B626F745D007576
:10072000736520227265736574212220666F7220C2
:100730006120736F667420726573657400757365EC
:1007400020223F22206F722022757361676521226B
:1007500020746F206F627461696E20746869732001
:100760006C697374006F70657261746520636F6E7D
:10077000746163746F727320286465632E20656EE4
:10078000636F646564292C2075736520227373720E
:100790007E2220666F722022616C6C206F6666225A
:1007A00000726561642F77726974652070756C736F
:1007B00065206C656E67746820746F20636C6F735E
:1007C00065206C6F636B205B6D735D0072656164A7
:1007D0002F77726974652070756C7365206C656E17
:1007E00067746820746F206F70656E206C6F636B28
:1007F000205B6D735D0075736520226C6F636B21E8
:10080000222F226C6F636B7E2220746F206F7065C5
:100810007261746520746865206C6F636B0072652B
:1008200061642F77726974652063616C69627261BB
:1008300074696F6E20706172616D6574657220639A
:100840004200726561642F77726974652063616C20
:100850006962726174696F6E20706172616D657436
:10086000657220634100757365202263616C646D5D
:1008700070212220666F7220706572696F646963EF
:100880002064756D7073206F6620524D5320636F26
:10089000756E747320287265712E2022726D73211B
:1008A00022290064756D70206D6F7374207265630A
:1008B000656E7420726D73207265636F7264002DB3
:1008C0002D2D206469746F20666F722043543300AD
:1008D0002D2D2D206469746F20666F722043543271
:1008E0000067657420726D732072656164696E675C
:1008F000206F6620435431205B6D565D2C2075734C
:10090000652022726D7331212220746F2074726908
:100910006767657220757064617465007573652022
:1009200022726D7321222F22726D737E2220746FCA
:1009300020656E2F64697361626C652070657269F1
:100940006F6469632063757272656E74207265618D
:1009500064696E6700726561642F777269746520DF
:100960006D61782E2063757272656E7420696E6495
:1009700069636174656420746F20746865204556EE
:10098000207669612050574D206F6E2043500072D1
:10099000656164205050202873616D65206173206B
:1009A000636D6178637572295B3130306D415D0034
:1009B00072656164204350206F6E20206E61676114
:1009C0007469762068616C6677617665205B2D5668
:1009D0005D0072656164204350205B565D00757355
:1009E00065202270696C6F747321222F2270696CEC
:1009F0006F79737E2220746F20656E2F6469736136
:100A0000626C6520706572696F6469632070696CDF
:100A10006F742072656164696E670075736520226A
:100A200073696772656C21222F2273696772656C26
:100A30007E2220746F20656E2F64697361626C651D
:100A400020746865207369676E616C2072656C61E3
:100A500079007573652022636373646D70212220B1
:100A6000746F20747261636B20434353207374610D
:100A700074652070726F6772657373007365742F8D
:100A800067657420626F617264207265766973694C
:100A90006F6E00726561642F777269746520696E8C
:100AA0007374616C6C656420706861736573205B3E
:100AB000646563696D616C20656E636F64696E6700
:100AC0005D00726561642F777269746520696E7369
:100AD00074616C6C6564206D61782E206375727230
:100AE000656E745B3130306D415D00757365202239
:100AF00073617665212220746F20736176652063AF
:100B00006F6E66696775726174696F6E20746F20AD
:100B1000454550524F4D0072656164206572726F99
:100B20007220666C6167732C207365652064656351
:100B30006C61726174696F6E2022675F6572726F9B
:100B4000722200726561642F77726974652064791E
:100B50006E2E2070686173657320616C6C6F6361C9
:100B6000746564205B646563696D616C20656E63A8
:100B70006F64696E675D00726561642F7772697476
:100B8000652064796E2E206D61782E2063757272F7
:100B9000656E7420617661696C61626C65205B31A1
:100BA00030306D415D002D2D2D206469746F2066FD
:100BB0006F72204C33002D2D2D206469746F2066D8
:100BC0006F72204C320072656164206375727265C9
:100BD0006E7420647261776E206F6E204C31205BE2
:100BE00031306D415D007265616420656E61626CDB
:100BF0006564207068617365642061732073657437
:100C00002062792053535273205B646563696D6180
:100C10006C20656E636F64696E675D290072656143
:100C200064206D61782E2063757272656E74207316
:100C300069676E616C656420746F20455620766923
:100C400061204350205B3130306D415D0072656141
:100C5000642050502C20692E652E2C206D61782E3A
:100C6000206361626C6520636170616369747920DF
:100C70005B3130306D415D007265616420434353E8
:100C80002073746174652C207365652074797065B8
:100C900064656620226363735F73746174655F7457
:100CA0002200726561642041565220564343205B06
:100CB0006D565D007265616420415652206469651D
:100CC0002074656D70657261747572205B435D00A0
:100CD000726561642F7365742073797374696D65CF
:100CE00020696E205B6D735D006F76657277726947
:100CF00074652073746174757320696E64696361CF
:100D0000746F722028455350333229006F76657214
:100D100077726974652073746174757320696E6489
:100D2000696361746F72202872656D6F74652068E5
:100D30006F7374290072656164206F757420666931
:100D4000726D776172652076657273696F6E0000EF
:100D500011241FBECFEFCDBFDFE3DEBF18E2A0E05E
:100D6000B8E2E0ECF3E402C005900D92AA34B107BA
:100D7000D9F721E3AAE4B8E201C01D92A033B2077B
:100D8000E1F70E949A1D0C9490200C940001892B8D
:100D900041F088ED84BF80914100816080934100E3
:100DA000FFCF90E080E0089528E0009719F02093AD
:100DB0000604089520930504089520918A0A30912D
:100DC0008B0A273B3340C8F7809388289093892863
:100DD0008093B1289093B2280895809135288B7F15
:100DE00019F083E0809335280895CF93DF93EC01C9
:100DF000892B69F080913528823029F0843019F0F0
:100E000081E080933528CE01DF91CF9108950E9433
:100E1000ED06F9CF80E7809306041092A128109286
:100E2000A22810929F281092A0280895EF92FF9276
:100E30000F931F93CF93DF93EC01009751F40E941F
:100E40000A07CE01DF91CF911F910F91FF90EF9094
:100E500008958093A1289093A2288C01F0E0E0E00F
:100E600020E08AE0E82EF12C101611065CF0E093E9
:100E70009F28F093A0282093050480E7282720933B
:100E80000604DFCFC801B7010E947A1E82309105A7
:100E900069F08330910569F0019711F42064E160F5
:100EA000C801B7010E947A1E8B01DECF2062E2608A
:100EB000F7CF2061E3E0F0E0F3CF20919928309163
:100EC0009A282817390701F12FEF3FEF2093332895
:100ED00030933428209331283093322820932F28C0
:100EE000309330282EEF3FEF20932B2830932C287F
:100EF0002093292830932A2820932D2830932E28B8
:100F00008093992890939A28089520918E28309163
:100F10008F2828173907F1F02FEF3FEF209327286C
:100F2000309328282093252830932628209323289F
:100F30003093242820931B2830931C2820931928B1
:100F400030931A28209317283093182880938E28DE
:100F500090938F280895E0E0FAE081818F7B818370
:100F600010928C2810928D2890E080E008950097D0
:100F700011F40C94AB0720918C2830918D28281700
:100F80003907A1F16AE0689FA001699F500D112403
:100F9000CA01039666E070E00E947A1E643671050D
:100FA0002CF1633583E0780714F062E573E025E007
:100FB000269FC001279F900D112480933C0A909397
:100FC0003D0A8091010A80648093010A26E0269FF1
:100FD000C001279F900D112405966AE070E00E94E1
:100FE0007A1E9B0160938C2870938D28C901089507
:100FF00088ED84BF81E0809361008091630080FD73
:10100000FCCF0895E0E6F4E080E1828388E081830C
:1010100008958091AF2821E030E0893010F026E17A
:1010200030E08E518A3010F425E130E08091AB2819
:101030009091AC28892B11F024E130E0809139287F
:1010400090913A28181619060CF49C0180913728C3
:10105000909138281816190654F125313105C1F040
:101060008091B1289091B22860ED77E00E947A1EBD
:10107000253131058CF464E670E00E947A1E621717
:10108000730724F088E0809366040895C297D4F72C
:1010900088E08093650408952631310551F464EFAA
:1010A00071E00E947A1E8A3F910564F7F1CF9C019E
:1010B000D4CF08959091680481E0292F207194FF86
:1010C00080E090917F28981317C090917E289F5FB1
:1010D00090937E2890917E28923369F4222339F0F0
:1010E00090917D28911103C091E09093AA2880935C
:1010F0007D2810927E28089580937F2810927E2864
:10110000E9CFE0E0F8E08BE591E08087918783E02C
:101110008783858180688583A0E0B4E081E01196B3
:101120008C93119782E012968C938681806C8683D3
:1011300008951F920F920FB60F9211248F939F93D1
:10114000EF93FF93E091A92891E09E0F9093A92837
:10115000F0E0E352FF4C8081882311F0933590F04A
:10116000809105088F7D809305081092A928109220
:10117000A828FF91EF919F918F910F900FBE0F9034
:101180001F90189580930208F4CF9091A828911190
:101190000CC0E091A928E03540F491E09E0F9093B7
:1011A000A928F0E0E352FF4C808308958091A8289D
:1011B000811129C0E091A928AE2FB0E0A352BF4C05
:1011C0008DE08C93A1E0AE0FB0E0A352BF4C8AE05B
:1011D0008C93EE5FF0E0E352FF4C10821092A9284E
:1011E00081E08093A8288091040885FFFCCF80913E
:1011F00005088062809305088091A728882319F04C
:101200008091A828FBCF08958091A8288111FCCF58
:1012100081E08093A72881E090E080933B28909321
:101220003C2808958091A8288111FCCF1092A7280E
:1012300081E090E080933B2890933C280895CF93E1
:10124000DF932091A828DC01222371F0DF91CF9158
:10125000089581E08E0F8093A928ED012197888160
:10126000F0E0E352FF4C80838D91882379F3E09185
:10127000A928E03570F3EACFFC018091A8288111FC
:101280000BC09091A928A92FB0E0A352BF4C849124
:10129000811103C09093A92808959035D8F79F5FD6
:1012A0008D933196F4CF0E943C090C94D6089C0192
:1012B0008091A82881110FC09091A928E92FF0E012
:1012C000E352FF4C80E2AF014D5D5043421753079C
:1012D0001CF09093A92808959035D8F79F5F8193CB
:1012E000F2CFEF92FF920F931F93CF93DF93EC0116
:1012F0008091A82881110FC0E091A928209729F595
:10130000E03548F481E08E0F8093A928F0E0E352A5
:10131000FF4C80E38083DF91CF911F910F91FF906D
:10132000EF90089541505109C901A1F40E2F10E02A
:1013300003521F4C8AE0E82EF12C2115310511F0E3
:10134000E03590F0E093A928E6CF44E050E081E05A
:1013500090E06AE0689F9001699F300D1124C217E8
:10136000D30700F79C01E2CFCE01B9010E94661EAF
:10137000EF5F605DD8016D938D01EC01C901B7018C
:101380000E94661E9B01D9CF2091A828211124C05C
:10139000009771F4E091A928E035F0F481E08E0F18
:1013A0008093A928F0E0E352FF4C80E38083089506
:1013B00097FF10C0E091A928E03570F491958195D0
:1013C000910921E02E0F2093A928F0E0E352FF4C71
:1013D0002DE220830C94710908954F925F926F92D1
:1013E0007F928F929F92AF92BF92CF92DF92EF92B5
:1013F000FF920F931F93CF93DF934B015C0180917A
:10140000A828811112C0C091A92881149104A104B7
:10141000B104A1F5C03548F481E08C0F8093A92870
:10142000D0E0C352DF4C80E38883DF91CF911F91DE
:101430000F91FF90EF90DF90CF90BF90AF909F9073
:101440008F907F906F905F904F9008953197DC2D33
:101450007D2C8701C9F40C2F10E003521F4C8AE049
:10146000482E512C612C712CC114D104E104F104DB
:1014700011F0C035D8F0C093A928D7CFE9E0F0E04B
:10148000D1E0712C00E010E0AAE0B0E02D2F372D64
:10149000A8010E94CE1E6B017C018C149D04AE0439
:1014A000BF04A0F6CD2ED72C7801D5CFC501B4014D
:1014B000A70196010E948E1ECF5F205DF801219347
:1014C0008F014B015C01C701B601A30192010E948B
:1014D0008E1E69017A01C8CF2091A82821112BC046
:1014E000611571058105910571F4E091A928E03538
:1014F00010F581E08E0F8093A928F0E0E352FF4CB5
:1015000080E38083089597FF14C0E091A928E03517
:1015100090F490958095709561957F4F8F4F9F4F78
:1015200021E02E0F2093A928F0E0E352FF4C2DE29A
:1015300020830C94ED0908952F923F924F925F9271
:101540006F927F928F929F92AF92BF92CF92DF92D3
:10155000EF92FF920F931F93CF93DF93CDB7DEB738
:101560002E97CDBFDEBF8D879E87019799F480911E
:10157000962890919728883E934021F4809198284E
:10158000882359F00E9404098AEC96E00E945309CE
:101590000E9412091D861E8665C188EB96E00E9496
:1015A00053094DE059E249835A834DED50E36DE014
:1015B000262E69E2362E80E090E0DC01F1010191F7
:1015C00011911F01012E000C220B330B800F911F74
:1015D000A21FB31F4E175F0789F7BC01CD016C50E6
:1015E0007E4F8F4F9F4F28EE33E040E050E00E9447
:1015F0008E1E2B833C834D835E832B813C812B8706
:101600003C8740910D2950910E29421B530BC12C50
:10161000D12C7601812C912C5401412C512C32017A
:10162000A981BA810D911D91A983BA83EB85FC85AF
:101630000E1B1F0B9801D8010E94B01E460E571EAC
:10164000681E791EC801841B950B092E000CAA0B7D
:10165000BB0BBA2FA92F982F8827880D991DAA1D7B
:10166000BB1D492F5A2F6B2F772767FD7A954C01A9
:101670005D01841A950AA60AB70AC501B40142E0C1
:1016800095958795779567954A95D1F797FF07C008
:1016900090958095709561957F4F8F4F9F4F9B01DF
:1016A000AC010E94561E9B01AC019AE056954795ED
:1016B000379527959A95D1F72F83388749875A8789
:1016C000C20ED31EE41EF51E0E94040982EB96E0B2
:1016D0000E943C0980919428909195280E94C40909
:1016E00080EB96E00E943C09C8010E94C4098BEA85
:1016F00096E00E943C09C501B4010E946C0A83EA8D
:1017000096E00E943C096F81788589859A850E94C0
:10171000ED098BE996E00E943C09C701B6010E94E1
:10172000ED0983E996E00E943C09C301B2010E94E1
:10173000ED0981E996E00E943C090E94D6080E94CA
:101740001209A80189819A812816390609F068CF03
:10175000C301B20163587F4F8F4F9F4F2AEF30E094
:1017600040E050E00E948E1ECA01B9010E947A1F1B
:101770000E94322020E030E040E05FE30E94DA1E69
:101780000E944B1F9B01A4ECB9E00E94B81E61505F
:101790007C4F8F4F9F4F2FEF37E040E050E00E948B
:1017A0008E1E4901C701B60128EE33E040E050E04B
:1017B0000E948E1ECA01B9010E947A1F0E94322027
:1017C00020E030E040E05FE30E94DA1E0E944B1F01
:1017D0009B0136952795A4ECB9E00E94B81E615094
:1017E0007E4F8F4F9F4F2FEF33E040E050E00E943D
:1017F0008E1E69010E94040988E896E00E943C0957
:10180000C6010E9471098DE796E00E943C09C4015F
:101810000E94710982E796E00E943C098B819C81BD
:101820000E9471098AE696E00E943C0988EE93E0E6
:101830000E94C4098BE596E00E943C0980919028A3
:10184000909191282091922830919328821B930B9C
:101850000E94C40987E596E00E943C090E94D608D0
:101860000E9412098D859E852E96CDBFDEBFDF9129
:10187000CF911F910F91FF90EF90DF90CF90BF908D
:10188000AF909F908F907F906F905F904F903F9020
:101890002F9008951F920F920FB60F9211248F93DD
:1018A0009F93EF93FF93809100089091A528911149
:1018B00007C08D3029F08A3061F481E08093A5283B
:1018C000FF91EF919F918F910F900FBE0F901F90FE
:1018D0001895E091A628E03598F791E09E0F909337
:1018E000A628F0E0E554F74D8083EACF1092A628B1
:1018F0001092A52808958091A528882391F08091C1
:10190000A528813061F4E091A628F0E0E554F74D78
:10191000108282E08093A5288BEB98E208950E94C4
:10192000760C90E080E00895FC01EE0FFF1FFF278A
:10193000F4618081918108952091A3283091A42899
:10194000260F371F2093A3283093A428FC01EE0F05
:10195000FF1FFF27F461608371838DE984BF83E0FB
:10196000809300108091021081FDFCCF0895CF93E9
:10197000DF93009709F482C08091AF28843108F08A
:1019800080C08FB78F778FBF1092A3281092A428A2
:10199000609147287091482890E080E00E949C0C5C
:1019A000609145287091462881E090E00E949C0C4F
:1019B000609143287091442882E090E00E949C0C42
:1019C00060913F287091402883E090E00E949C0C39
:1019D000609141287091422884E090E00E949C0C24
:1019E0006091B9287091BA2885E090E00E949C0C23
:1019F00060913D2870913E2886E090E00E949C0C0A
:101A00006091B7287091B82887E090E00E949C0C04
:101A10006091B5287091B62888E090E00E949C0CF7
:101A20006091A3287091A42889E090E00E949C0C0A
:101A30008FB780688FBF1092A3281092A428D0E09F
:101A4000C0E0CE010E94940C2091A3283091A428DC
:101A5000820F931F8093A3289093A4282196C930C6
:101A6000D10579F731E020E0409112145091131420
:101A70004817590709F030E0832F922FDF91CF915B
:101A8000089590E080E0FACFCF93DF931092A328DF
:101A90001092A428D0E0C0E0CE010E94940C2091C6
:101AA000A3283091A428820F931F8093A32890939A
:101AB000A4282196C930D10579F7209112143091CC
:101AC00013148217930761F08091AB289091AC2892
:101AD00084608093AB289093AC28DF91CF910895D8
:101AE0008091001490910114809347289093482886
:101AF0008091021490910314809345289093462876
:101B00008091041490910514809343289093442865
:101B1000809106149091071480933F289093402859
:101B20008091081490910914809341289093422841
:101B300080910A1490910B148093B9289093BA283D
:101B400080910C1490910D1480933D2890933E2821
:101B500080910E1490910F148093B7289093B82819
:101B600080911014909111148093B5289093B62809
:101B7000B4CFE0E0F4E080E78183868388E081836E
:101B8000858380E881838583E0E4F4E084E08183D9
:101B900085838093620481E08093A2040895882362
:101BA00031F0813059F090E89093050403C090E83B
:101BB0009093060494E09093450406C090E89093B7
:101BC000050494E09093460480933628089560912C
:101BD000412870914228409135286115710531F0F6
:101BE00080913F2890914028009769F4433011F488
:101BF0001092352880913528813009F094C182E017
:101C000080933528089520913628223009F0B8C0F5
:101C10002091680422FB222720F9309114282313F5
:101C2000AAC030917C283F5F30937C2830917C287B
:101C30003A3020F010927C2820931328209112280B
:101C4000241789F1413009F0A2C083E080937B28FA
:101C50002091B3283091B4282093792830937A28A2
:101C6000260F371F20937728309378282C503E4F2B
:101C70002093752830937628CB018C53964F28EE0D
:101C800033E0B9010E94661E6F5F7F4F629FC00103
:101C9000639F900D729F900D112480931028909354
:101CA000112840931228413081F58091B3289091FA
:101CB000B4282091792830917A288217930708F464
:101CC00081C0821B930B97FF85C08091B3289091B0
:101CD000B42820917728309178288217930708F448
:101CE00087C0821B930B97FF8BC08091B328909184
:101CF000B42820917528309176288217930708F42C
:101D00008DC0821B930B97FF91C080913528833043
:101D100009F009C18091B3289091B42820917928C5
:101D200030917A288217930708F4A6C0821B930B80
:101D300097FFAAC08091B3289091B428209177286A
:101D4000309178288217930708F4ACC0821B930B5C
:101D500097FFB0C08091B3289091B4282091752846
:101D6000309176288217930708F4B2C0821B930B38
:101D700097FFB5C008952093142810927C2856CF61
:101D800021E02093142810927C282FEF55CF433068
:101D900009F087CF2AE020937B282091B328309147
:101DA000B4282093792830937A28280F391F20935C
:101DB0007728309378282C503E4F20937528309305
:101DC00076285BCFA901481B590BCA018130904886
:101DD00008F47BCF8091102890911128280F391F8B
:101DE0002093792830937A2881E00E94CF0D6DCF1F
:101DF000A901481B590BCA018130904808F475CFDE
:101E00008091102890911128280F391F209377284E
:101E10003093782882E00E94CF0D67CFA901481B3C
:101E2000590BCA018130904808F46FCF8091102877
:101E300090911128280F391F209375283093762808
:101E400080911328813021F482E0809335285DCF82
:101E500080917B28815080937B28811156CF83E02D
:101E6000809335288091AB289091AC288160809335
:101E7000AB289093AC2849CFA901481B590BCA0144
:101E80008130904808F456CF809110289091112805
:101E9000280F391F2093792830937A2880E00E94F8
:101EA000CF0D48CFA901481B590BCA01813090487A
:101EB00008F450CF8091102890911128280F391FD5
:101EC000209377283093782882E00E94CF0D42CF6C
:101ED000A901481B590BCA018130904820F180911B
:101EE000102890911128280F391F209375283093BE
:101EF000762880911328811103C010923528089507
:101F000080917B28815080937B2881110CC084E0D4
:101F1000809335288091AB289091AC288160809384
:101F2000AB289093AC280895609147287091482879
:101F3000072E000C880B990B0E947C1F2AE939E9B7
:101F400049E95FE30E94461F87FD10C08091A80405
:101F500080FD0CC080E00E94CF0D0E940A070E9405
:101F6000040989E197E00E945309FFCF0895E0EA50
:101F7000F0E08081806280838081826080838181C3
:101F800082608183E0E8F6E08081816080838FEF6A
:101F900084830895E0E6F4E081E082838089887F8D
:101FA000808B80898460808B8089877F808B82E0B2
:101FB00082838189887F818B81898460818B8189FB
:101FC000877F818B08958091B02881117AC010920B
:101FD000000684E0809301061092020680910206BA
:101FE00083608093020680910206809302068091AE
:101FF0000206806480930206109203068091030615
:1020000080668093030680910306806180930306B7
:102010008FE1809305068EE18093060610920A06F2
:10202000809100068160809300068091080681609F
:102030008093080680910B0680FFFCCF609110060C
:102040007091110690E080E024E0660F771F881FF2
:10205000991F2A95D1F7685C7F4F8F4F9F4F20E7DC
:1020600030E040E050E00E948E1E80912111A0914E
:102070002011082E000C990B281B390BB0E00E9490
:10208000B81EDC01CB0180589F4FAF4FBF4F892F47
:102090009A2FAB2FBB2781519140A109B1098093A1
:1020A0009D2890939E28809100068E7F8093000645
:1020B000809102068061809302061092B02881E030
:1020C000089580E008958091B02881115BC010923E
:1020D000000684E0809301061092020680910206B9
:1020E00083608093020680910206806180930206DD
:1020F000809102068064809302061092030680910C
:1021000003068066809303068091030680618093B6
:1021100003068FE1809305068CE1809306061092FA
:102120000A0680910006816080930006809108066F
:1021300081608093080680910B0680FFFCCF209180
:10214000100630911106B9017695679590E080E010
:10215000645A7C4082499D4F50E040E00E948E1EB0
:1021600020939B2830939C28809100068E7F80933B
:102170000006809102068061809302061092B028CA
:1021800081E0089580E00895CF93DF938091B32894
:102190009091B428C0917328D09174288C179D0712
:1021A00038F08C1B9D0B97FF0AC0DF91CF910895EB
:1021B0009E01281B390BC90181309048B0F38091F2
:1021C0007228882369F00E94E30F882371F3C05FAF
:1021D000D84DC0937328D093742810927228E5CFFD
:1021E0000E946310882309F3C05FD84DC093732801
:1021F000D093742881E080937228D7CF8091B02843
:1022000081116EC191E09093B0281092000682E097
:1022100080930106109202068091020682608093EC
:102220000206809102068061809302068091020678
:1022300080648093020610920306809103068062F8
:1022400080930306809103068061809303061092B9
:10225000050610920A0680910006816080930006B0
:10226000909306068091200A9091210A8A3F910559
:10227000C8F38091200A9091210A8B3F9105C8F7FD
:1022800081E08093080680910B0680FFFCCF80914F
:102290001006909111069595879595958795409193
:1022A0004728509148284C3051050CF0D8C0853D46
:1022B00023E092070CF0E5C09C012D5533402633F6
:1022C000310508F4E1C0815D92408F34910508F03A
:1022D000D5C086E090E020912B2830912C282E3F0D
:1022E0003F4F41F4109271282FEF3FEF20932B289E
:1022F00030932C2820912B2830912C28281739072F
:1023000009F0C5C0209171282F5F2093712820917A
:102310007128253021F480933328909334288091BC
:10232000200A9091210A8E389241C8F381E080936F
:10233000080680910B0680FFFCCF809110069091DB
:10234000110695958795959587954C3051050CF01C
:10235000A5C04A978534910508F0A5C08CE090E0AF
:102360002091292830912A282E3F3F4F41F4109286
:1023700070282FEF3FEF2093292830932A282091AF
:10238000292830912A282817390709F08FC0209171
:1023900070282F5F2093702820917028253021F419
:1023A00080933128909332281092060681E0809322
:1023B000080680910B0680FFFCCF8091100690915B
:1023C00011069595879595958795209110063091E2
:1023D0001106853D63E096070CF06FC09C01255007
:1023E00031402B3D310508F46BC022593F4F253455
:1023F000310508F468C08C5491098C9708F066C0C8
:1024000086E792E020912D2830912E282E3F3F4FD5
:1024100041F410926F282FEF3FEF20932D28309337
:102420002E2820912D2830912E282817390709F0C1
:1024300050C020916F282F5F20936F2820916F2824
:10244000253021F480932F28909330288091000626
:102450008E7F809300061092B02881E008958E351B
:1024600063E0960774F49C012C5033402633310509
:1024700058F08A5B9240C69708F42BCF8FEF9FEFFE
:102480002ACF8CE090E027CF89E090E024CF8093A2
:102490002B2890932C281092712839CF8E5D9109AA
:1024A000C59708F45BCF8FEF9FEF5ACF8093292811
:1024B00090932A28109270286FCF82E890E0A2CFE4
:1024C00088EC90E09FCF80E491E09CCF8FEF9FEF6E
:1024D00099CF80932D2890932E2810926F28AECFFD
:1024E00080E00895CF93DF938091B3289091B42832
:1024F000C0916D28D0916E282091992830919A280A
:10250000232BB9F48C179D0738F08C1B9D0B97FF7C
:102510000AC0DF91CF9108959E01281B390BC90194
:1025200081309048B0F36096C0936D28D0936E28A8
:10253000F0CF8C179D0748F08C1B9D0B97FDE9CFC2
:102540000E94FE108111EFCFE4CF9E01281B390BB2
:10255000C90181309048A0F7DCCFE0E6F4E080E2EA
:1025600082838589887F858B85898460858B858931
:10257000877F858B80E482838689887F868B8689A6
:102580008460868B8689877F868B80E882838789B3
:10259000887F878B87898460878B8789877F878BF4
:1025A000089590919828911152C09091B02891115E
:1025B0004EC091E09093B028109200061092010650
:1025C00010920206909102069260909302069091FA
:1025D0000206909302069091020690649093020680
:1025E00010920306909103069068909303069AE078
:1025F00090930506282F30E0823019F1833019F1CD
:10260000813019F585E08093060620939428309355
:10261000952891E090930A0680910006816080934E
:10262000000610929628109297282091B328309196
:10263000B42820939228309393289093982881E08F
:10264000089586E0E0CF87E0DECF1092B02880E0EA
:102650000895019729F481E00E94D11290E0089535
:1026600090E080E00895019729F482E00E94D11261
:1026700090E0089590E080E00895019729F483E0C8
:102680000E94D11290E0089590E080E008951F929A
:102690000F920FB60F9211242F933F934F935F9396
:1026A0008F939F93EF93FF934091100650911106E3
:1026B00080919828813001F58091962890919728F3
:1026C0009C012F5F3F4F2093962830939728880FC7
:1026D000991FFC01E35FF64D40835183283E334050
:1026E0005CF082E0809398288091B3289091B42880
:1026F0008093902890939128FF91EF919F918F91D3
:102700005F914F913F912F910F900FBE0F901F90AF
:1027100018958F929F92AF92BF92CF92DF92EF92D5
:10272000FF92CF93DF9380919828823009F066C0A2
:1027300040910E2850910F28EDE0F9E22DED30E3A5
:1027400080E090E0DC0157FD3AC0483E23E05207AC
:102750000CF072C0EA01CC59DF4FC93E83E0D807C4
:1027600014F0C8EED3E0E0900C28F0900D28809093
:10277000692890906A28A0906B28B0906C28FA0184
:10278000EE0FFF1FE35FF64D4C175D070CF441C0E1
:102790008092692890926A28A0926B28B0926C2847
:1027A00040930E2850930F2829C0C190D1900D2C32
:1027B000000CEE08FF088C0D9D1DAE1DBF1D2E17D1
:1027C0003F0799F7BC01CD016C507E4F8F4F9F4F53
:1027D00028EE33E040E050E00E948E1E20930C284B
:1027E00030930D281092692810926A2810926B2855
:1027F00010926C2810920E2810920F28DF91CF9122
:10280000FF90EF90DF90CF90BF90AF909F908F9010
:102810000895A191B191AE19BF09B7FF03C0B19559
:10282000A195B1099D010E94B01E860E971EA81E9B
:10283000B91E4F5F5F4FA8CF483E23E0520759F5BE
:102840006091692870916A2880916B2890916C281A
:1028500063587F4F8F4F9F4F2AEF30E040E050E0AA
:102860000E948E1ECA01B9010E947A1F0E94322066
:1028700020E030E040E05FE30E94DA1E0E944B1F40
:10288000609367287093682889EE93E080930E2800
:1028900090930F28B3CF493E534009F0AFCFE0915A
:1028A0006728F0916828DF012EEC38E341E050E022
:1028B0000E94CE1E6B017C0120E8D20EE11CF11CAF
:1028C0006701EE24FF24A0913D28B0913E289F018E
:1028D0000E94C71EDC01CB01905EAF4FBF4F2EE0C0
:1028E000B695A795979587952A95D1F72091B72802
:1028F0003091B828820F931F8A30910510F490E030
:1029000080E020919428309195282230310509F4F7
:10291000B0C02330310509F4B9C02130310561F46C
:10292000E0932728F0932828C0922128D0922228CB
:1029300080931B2890931C28109298281092B028FE
:102940008FEF9FEF80930E2890930F288091B928E6
:102950009091BA28892B09F451CF0E94040982E191
:1029600097E00E943C0980911B2890911C2897FDBC
:1029700022C08CE097E00E943C0980911B28909136
:102980001C280E94710989E097E00E943C0980910F
:102990002128909122280E94710985E097E00E94E9
:1029A0003C0980912728909128280E94710982E093
:1029B00097E00E943C098091192890911A2897FD70
:1029C00022C08CEF96E00E943C09809119289091DA
:1029D0001A280E94710989EF96E00E943C098091B3
:1029E0001F28909120280E94710985EF96E00E948F
:1029F0003C0980912528909126280E94710982EF38
:102A000096E00E943C09809117289091182897FD24
:102A100022C08CEE96E00E943C098091172890918C
:102A200018280E94710989EE96E00E943C09809165
:102A30001D2890911E280E94710985EE96E00E9443
:102A40003C0980912328909124280E94710982EEEC
:102A500096E00E943C090E94D608DF91CF91FF903A
:102A6000EF90DF90CF90BF90AF909F908F900C949D
:102A70001209E0932528F0932628C0921F28D092AF
:102A800020288093192890931A2856CFE093232862
:102A9000F0932428C0921D28D0921E2880931728D6
:102AA0009093182849CF0F931F93CF93DF93C09132
:102AB0000A28D0910B2880918E2890918F28892BFD
:102AC000F9F4109298288091B3289091B4288C172B
:102AD0009D0748F08C1B9D0B97FF0CC0DF91CF9199
:102AE0001F910F9108959E01281B390BC901813058
:102AF0009048A0F3DC5FC0930A28D0930B28EECF58
:102B00000E9489138091B3289091B4288C179D0757
:102B1000B8F08C1B9D0B97FDE1CF00910828109118
:102B20000928802F0E94D1128823C1F20F5F1F4F06
:102B3000043011056CF40093082810930928DACFAB
:102B40009E01281B390BC9018130904830F7C6CF50
:102B500081E090E08093082890930928CBCFE0E0B3
:102B6000F4E084E0818385831092E405E0E0FAE0FC
:102B70008081808381818760818388E893E186A357
:102B800097A384EF91E084A795A781818F7B8183B0
:102B90008081816080830895E0E8FAE010821182EC
:102BA00081E0858388EE93E08487958780818160CA
:102BB000808308951F920F920FB60F9211242F93C6
:102BC0008F939F9380919828813029F480910806F3
:102BD000816080930806809166288F5F80936628C5
:102BE0008A3068F48091860A81608093860A9F917A
:102BF0008F912F910F900FBE0F901F9018951092EC
:102C0000662880918A2890918B28019680938A2843
:102C100090938B28809188289091892801968093A1
:102C200088289093892880918828909189288033DA
:102C30009547C4F21092882810928928D3CF8091AA
:102C40008A0A90918B0A873B9340C8F780918A2823
:102C500090918B288093B3289093B42880918828F2
:102C6000909189288093B1289093B22808958091FB
:102C7000B3289091B428209184283091852880939E
:102C800084289093852840913B2850913C28452BDF
:102C9000C1F4821B930B20911528309116288217BE
:102CA000930720F480931528909316282091862866
:102CB000309187282817390720F48093862890932D
:102CC000872810923B2810923C28089583E496E0D0
:102CD0000E943C0980911528909116280E94710944
:102CE0008FE20E94C50880918628909187280E94D3
:102CF00071090E94D6088FEF9FEF8093152890935B
:102D00001628109286281092872881E090E0809300
:102D10003B2890933C280895CF93DF932091B528CA
:102D20003091B628232B61F0EC010E940409CE01FA
:102D30000E943C090E94D608DF91CF910C941209A1
:102D4000DF91CF91089580914528909146288093F6
:102D500082289093832880914328909144288093DF
:102D60008028909381281092AF280895CF93DF9305
:102D7000809145289091462820918228309183287F
:102D80008217930724F4809382289093832880915C
:102D9000AF28811118C080918C2890918D28892BA3
:102DA00009F4E8C381E08093AF2884E396E00E94B1
:102DB0008C168091B3289091B4288854944F8093B6
:102DC0006428909365288091AF28813091F40E9407
:102DD000AB072091B3283091B4288091642890915A
:102DE00065282817390708F4CDC3281B390B37FF8E
:102DF000CFC38091AF28823061F50E940A0790E02E
:102E000080E00E9485070E94AB0790E080E00E946E
:102E10005D0788E0809305040E94ED061092622809
:102E200010926328109260281092612810925E28F8
:102E300010925F2810925C2810925D2880913528AE
:102E4000811107C08CEF95E00E948C1683E080937F
:102E5000AF288091AF28833069F48091AA28882315
:102E600049F08FEE95E00E948C161092AA288AE015
:102E70008093AF288091AF288930D9F40E940A0747
:102E800090E080E00E9485070E94AB0790E080E020
:102E90000E945D0788E0809305048091AA2888231A
:102EA00041F080EE95E00E948C161092AA281092B4
:102EB000AF288091AF288A3041F50E940A0790E040
:102EC00080E00E94850781E090E00E945D070E94FB
:102ED000AB0788E080930604109262281092632862
:102EE00010925E2810925F288091B3289091B428A8
:102EF000805D9A4880935A2890935B2885ED95E0F1
:102F00000E948C168BE08093AF288091AF288B3085
:102F100081F58091332890913428099771F480913C
:102F20002F2890913028181619063CF48AEC95E069
:102F30000E948C1684E18093AF282091B3283091B1
:102F4000B42880915A2890915B282817390708F4F3
:102F500027C3281B390B37FF29C38091AA28882350
:102F600041F08DE995E00E948C161092AA281092EB
:102F7000AF288091AF28843109F043C00E940A072E
:102F800090E080E00E94850781E090E00E945D076C
:102F900088E08093060481E090E00E94F50610929C
:102FA00062281092632810925E2810925F28809108
:102FB0003528823031F58091822890918328CC97F2
:102FC0000CF4FCC280912F2890913028CC970CF4FF
:102FD000F5C28091802890918128892B09F4EEC256
:102FE0008091B3289091B428805F984D80935828A1
:102FF0009093592882E995E00E948C1685E1809390
:10300000AF288091AF28853109F042C020918228F5
:103010003091832820935E2830935F2880912F2859
:10302000909130288217930724F480935E28909320
:103030005F2880915E2890915F280E94B707809159
:10304000332890913428069739F48AE695E00E9457
:103050008C168EE18093AF288091AA28882341F0B6
:1030600084E595E00E948C161092AA281092AF2851
:103070002091B3283091B4288091582890915928F4
:103080002817390708F4A0C2281B390B37FFA2C242
:103090008091AF288E31C1F480915E2890915F2895
:1030A000CC975CF08091802890918128892B29F021
:1030B00080913528823009F495C287E295E00E941C
:1030C0008C168AE58093AF288091AF288F3109F064
:1030D00049C0C0918028D0918128C0936228D093A4
:1030E000632880915E2890915F280E94B70788E04E
:1030F00080930604CE010E94160781E090E00E94B2
:10310000850781E090E00E945D0781E195E00E94E3
:103110008C1680E28093AF288091B3289091B428D8
:10312000805D9A4880935628909357288091602814
:103130009091612820919F283091A028822B932B79
:1031400080936028909361288FEF9FEF809354289D
:103150009093552880935228909353288093502819
:10316000909351288091AF28803209F07BC08091E4
:103170001B2890911C2820915428309155282817FD
:10318000390724F480935428909355288091192866
:1031900090911A28209152283091532828173907E6
:1031A00024F480935228909353288091172890916B
:1031B000182820915028309151282817390724F4D5
:1031C00080935028909351288091332890913428EF
:1031D0000997F9F48091542890915528209152280C
:1031E00030915328820F931F2091502830915128FD
:1031F000820F931F8D976CF480919F289091A02847
:10320000079739F084EF94E00E948C1688E280934F
:10321000AF288091332890913428069739F08EEDAD
:1032200094E00E948C1689E08093AF288091AA28B0
:10323000882341F088EC94E00E948C161092AA2812
:103240001092AF282091B3283091B428809156284D
:10325000909157282817390708F4CAC1281B390B41
:1032600037FFCCC18091AF28813209F041C0109264
:103270005C2810925D28809133289091342806971D
:1032800039F08AE894E00E948C1689E08093AF2898
:103290008091AA28882341F084E794E00E948C164C
:1032A0001092AA281092AF28C0918028D09181282E
:1032B000209779F020918228309183282C33310592
:1032C00044F080912F28909130288C3391050CF098
:1032D000BBC110925E2810925F2810926228109253
:1032E000632889E594E00E948C1688E28093AF28D9
:1032F0008091AF28883299F40E94AB078091B3285F
:103300009091B428805F984D8093642890936528AD
:1033100084E394E00E948C1689E28093AF28809128
:10332000AF28893219F58091AA28882341F087E2D5
:1033300094E00E948C161092AA281092AF28209137
:10334000B3283091B428809164289091652828177B
:10335000390708F49DC1281B390B37FF9FC18091A5
:10336000332890913428069709F098C18091AF28AE
:10337000823319F50E940A0788E08093050490E0E3
:1033800080E00E94850780915C2890915D280196DD
:1033900080935C2890935D288091B3289091B42805
:1033A000805F984D80934E2890934F2881E194E060
:1033B0000E948C1683E38093AF288091AF288333DB
:1033C00049F580915C2890915D28059739F48EEF3E
:1033D00093E00E948C1689E08093AF288091AA2800
:1033E000882341F08CEE93E00E948C161092AA285C
:1033F0001092AF282091B3283091B42880914E28A4
:1034000090914F282817390708F450C1281B390B11
:1034100037FF52C18091AF288853843060F4809187
:10342000AA28882341F089EC93E00E948C16109220
:10343000AA281092AF288091AF288833C9F48091D0
:10344000822890918328CC979CF080912F2890918E
:103450003028CC976CF08091802890918128892B1E
:1034600039F08EEB93E00E948C168AE08093AF28AF
:103470008091AF28893311F580915E2890915F2863
:1034800084369105DCF480918228909183288436DB
:103490009105A4F080912F289091302884369105D1
:1034A0006CF08091802890918128892B39F083EBF2
:1034B00093E00E948C168AE08093AF288091AF2819
:1034C0008A33C9F48091822890918328CC979CF00C
:1034D00080912F2890913028CC976CF08091802893
:1034E00090918128892B39F088EA93E00E948C160C
:1034F0008AE08093AF288091AF288B3331F580919B
:10350000822890918328CC9704F180912F28909164
:103510003028CC97D4F08091802890918128009712
:10352000A1F020916228309163288217930769F0F7
:103530008091602890916128079739F08DE993E098
:103540000E948C168AE08093AF288091AF288A353C
:1035500049F42091AB283091AC2822602093AB280D
:103560003093AC2890E08093AD289093AE28DF9103
:10357000CF91089582E08093AF2885E296E00E9483
:103580008C1621CC821B930B8130904808F431CCEF
:1035900086E196E00E948C1682E08093AF2829CCC9
:1035A000821B930B8130904808F4D7CC83EB95E0D5
:1035B0000E948C1689E08093AF28CFCC87E795E0F6
:1035C0000E948C1682E31BCD821B930B81309048A6
:1035D00008F45ECD83E395E00E948C1682E380932D
:1035E000AF2856CD8CE195E00E948C168FE16ACD14
:1035F000821B930B8130904808F434CE809154287C
:10360000909155282091522830915328820F931F72
:103610002091502830915128820F931F8D9774F478
:1036200080919F289091A028079741F08BEA94E021
:103630000E948C1688E28093AF2814CE80EA94E032
:103640000E948C1681E2F7CF409162285091632846
:10365000C417D50739F010925E2810925F288FE3C7
:1036600094E041CE8217930774F020935E28309344
:103670005F2880915E2890915F280E94B707CE0155
:103680000E94160735CE80935E2890935F28F1CF75
:10369000821B930B8130904808F461CE8CE194E05A
:1036A0000E948C1682E38093AF2860CE821B930B1E
:1036B0008130904808F4AECE8BED93E00E948C16DA
:1036C000809162289091632820915E2830915F2834
:1036D000232B41F4892B51F488E38093AF289ACEB1
:1036E00089E3FBCF892BE1F38BE3F7CF8AE3F5CFB7
:1036F0000F931F93CF93DF938091A828811189C0E6
:10370000C091AF28D0E08091062890910728C81773
:10371000D90769F5C0911B28D0911C2880910428F5
:1037200090910528C817D907E9F5C0911928D091BB
:103730001A288091022890910328C817D90709F404
:1037400047C09C012B5F3F4F2C173D074CF02A5080
:103750003109C217D30724F0D7FD02C097FF38C044
:10376000C0930228D09303280EE211E806C0C0934C
:103770000628D093072809E211E88BE50E94C508C6
:10378000C8010E941F098DE30E94C508CE010E9456
:10379000C4098DE50E94C508DF91CF911F910F915B
:1037A0000C94D6089C012B5F3F4F2C173D074CF023
:1037B0002A503109C217D30724F0D7FD02C097FF62
:1037C000B4CFC0930428D093052803E311E8D5CFE4
:1037D000C0911728D0911828809100289091012835
:1037E000C817D907B1F09C012B5F3F4F2C173D073D
:1037F0004CF02A503109C217D30724F0D7FD02C07C
:1038000097FF07C0C0930028D093012804E211E875
:10381000B4CFDF91CF911F910F910895CF93DF9394
:10382000CAE1D2E888819981892B19F4DF91CF917F
:1038300008958AE993E00E943C09888199810E9459
:103840001F098A819B81892B49F08DE30E94C5085D
:10385000EA81FB81808191810E94C4098CE090E023
:103860000E9457098A819B81892B61F08C819D81FF
:10387000892B21F48E819F81892B21F084E993E0AB
:103880000E943C098A819B81892B61F48C819D81F6
:10389000892B21F48E819F81892B21F08EE893E082
:1038A0000E943C098A819B81892B61F08C819D81DA
:1038B000892B41F48E819F81892B21F488E893E044
:1038C0000E943C0988859985892B41F084E893E022
:1038D0000E943C09888599850E943C090E94D6086F
:1038E0002A96A0CF8CE793E00E9453090E94040916
:1038F00086E793E00E9453098CE693E00E94530907
:1039000086E493E00E943C0981E090E00E94710906
:103910008EE20E94C50883E090E00E9471090E9437
:10392000D6088FE193E00E94530985E193E00E945D
:1039300053090E940E1C8BE093E00E9453090E94E1
:1039400066168FEF92E00E943C098091B128909119
:10395000B2280E9471090E94D60880EF92E00E946E
:103960003C098091352890E00E9471090E94D60898
:1039700082EE92E00E943C098091AF2890E00E9484
:1039800071090E94D60888ED92E00E94530982EDE9
:1039900092E00E9453090E94120981E090E0809316
:1039A0003B2890933C280895892B11F00C94721CAD
:1039B00090E080E008959F92AF92BF92CF92DF9205
:1039C000EF92FF920F931F93CF93DF93FC017F0140
:1039D000119111110DC080E0DF91CF911F910F91D6
:1039E000FF90EF90DF90CF90BF90AF909F900895A1
:1039F0005F011F3331F01D3321F0113211F01E37FA
:103A000031F7992E082FF70110828AE1C82E82E83B
:103A1000D82E0BC0602F792D0E948720EC01892BB6
:103A200009F460C08AE0C80ED11CD6018D919C912A
:103A3000009781F7D0CF1E3741F480E3D70111966C
:103A40008C93119712961C9254C01D3309F451C0E7
:103A50001F3349F4D6011296ED91FC91309709F489
:103A6000BACFC081D181802F992D0E941F098DE38B
:103A70000E94C508CE010E94C4090E94D60881E0B8
:103A8000ABCFC1389CE0D9070CF0A5CF4C9FB0015B
:103A90004D9F700D1124A82FA053BB0BED01C60F35
:103AA000D71F819190ED980F9A3058F3FE01E29F55
:103AB000E001E39FD00DF29FD00D1124D6011696A0
:103AC000ED91FC911797309749F41496ED91FC9184
:103AD000309709F480CFC083D183C5CFCE0109953B
:103AE000EC01C1CF113209F0A6CF81E3F701818348
:103AF0001282F7018181882309F46DCF21E030E043
:103B00008D3231F45701F2E0AF0EB11C2FEF3FEFD1
:103B1000F5014AE0C6CFFC0120812F3311F40C944B
:103B2000721C0E94DB1C811104C086EC92E00C9494
:103B3000530908950E94F8070E9481080E94020814
:103B40000E94B90D0E94B70F0E94CA0F0E94AD12C9
:103B50000E94AF150E94CC158FB780688FBF0E945E
:103B6000440D80E992E00E9453090E94A31618E0D8
:103B7000C1E0D0E00E941F160E9437160E9409087B
:103B80000E94E70D0E94940F0E945A080E9453154C
:103B90000E9472120E94C4100E94781B8091AB2870
:103BA0009091AC28892B09F45EC0109305040E9403
:103BB0000A0790E080E00E94850790E080E00E9484
:103BC0005D070E94ED06809135286091AB287091C9
:103BD000AC28811116C060FF14C080914C289091D0
:103BE0004D28892B71F4C0934C28D0934D28809197
:103BF000B3289091B428805F984D80934A28909381
:103C00004B2862307105A1F480914C2890914D2889
:103C1000892B71F460934C2870934D288091B328C0
:103C20009091B428805D9A4880934A2890934B28BD
:103C300080914C2890914D28009779F04091B328BD
:103C40005091B42820914A2830914B2842175307AD
:103C5000B8F0421B530B57FF18C08091AB289091CE
:103C6000AC28892B11F40E94B6160E947B0C009799
:103C700021F00E948B1D0E94760C1092AA287ACF08
:103C8000241B350B2130304840F3809590958623D6
:103C900097238093AB289093AC28892B11F4109232
:103CA000AF2810924C2810924D28D7CFDB018F936C
:103CB0009F930E94CE1EBF91AF91A29F800D911D38
:103CC000A39F900DB29F900D11240895AA1BBB1BBA
:103CD00051E107C0AA1FBB1FA617B70710F0A61B0C
:103CE000B70B881F991F5A95A9F780959095BC012D
:103CF000CD01089597FB072E16F4009407D077FDA9
:103D000009D00E94661E07FC05D03EF4909581956F
:103D10009F4F0895709561957F4F0895A1E21A2EE7
:103D2000AA1BBB1BFD010DC0AA1FBB1FEE1FFF1F5F
:103D3000A217B307E407F50720F0A21BB30BE40BAF
:103D4000F50B661F771F881F991F1A9469F76095F6
:103D50007095809590959B01AC01BD01CF010895B0
:103D60000E94B81E332312F48A1B9B0B0C94C91EAD
:103D7000A29FB001B39FC001A39F700D811D1124AC
:103D8000911DB29F700D811D1124911D08950E94F7
:103D9000B81EB7FF0895821B930B08950E94B81EAA
:103DA000A59F900DB49F900DA49F800D911D11248F
:103DB00008955058BB27AA270E94F11E0C94F21FA9
:103DC0000E94E41F38F00E94EB1F20F039F49F3F5F
:103DD00019F426F40C94E11F0EF4E095E7FB0C9423
:103DE000DB1FE92F0E94032058F3BA1762077307FD
:103DF0008407950720F079F4A6F50C9425200EF49D
:103E0000E0950B2EBA2FA02D0B01B90190010C01EA
:103E1000CA01A0011124FF27591B99F0593F50F402
:103E2000503E68F11A16F040A22F232F342F44275A
:103E3000585FF3CF469537952795A795F040539552
:103E4000C9F77EF41F16BA0B620B730B840BBAF022
:103E50009150A1F0FF0FBB1F661F771F881FC2F78D
:103E60000EC0BA0F621F731F841F48F487957795A1
:103E70006795B795F7959E3F08F0B0CF9395880F5B
:103E800008F09927EE0F9795879508950E94B71F20
:103E900008F481E008950E940B2088F09F5798F065
:103EA000B92F9927B751B0F0E1F0660F771F881F3F
:103EB000991F1AF0BA95C9F714C0B13091F00E9459
:103EC0002520B1E008950C942520672F782F8827AE
:103ED000B85F39F0B93FCCF3869577956795B39580
:103EE000D9F73EF490958095709561957F4F8F4FEF
:103EF0009F4F0895E89409C097FB3EF490958095F4
:103F0000709561957F4F8F4F9F4F9923A9F0F92F9F
:103F100096E9BB279395F695879577956795B7951D
:103F2000F111F8CFFAF4BB0F11F460FF1BC06F5F03
:103F30007F4F8F4F9F4F16C0882311F096E911C015
:103F4000772321F09EE8872F762F05C0662371F036
:103F500096E8862F70E060E02AF09A95660F771F4A
:103F6000881FDAF7880F9695879597F90895990F26
:103F70000008550FAA0BE0E8FEEF16161706E80733
:103F8000F907C0F012161306E407F50798F0621B54
:103F9000730B840B950B39F40A2661F0232B242B29
:103FA000252B21F408950A2609F4A140A6958FEF48
:103FB000811D811D089597F99F6780E870E060E09A
:103FC00008959FEF80EC089500240A9416161706B2
:103FD00018060906089500240A94121613061406FA
:103FE00005060895092E0394000C11F4882352F05D
:103FF000BB0F40F4BF2B11F460FF04C06F5F7F4F15
:104000008F4F9F4F089557FD9058440F551F59F0FB
:104010005F3F71F04795880F97FB991F61F09F3FB5
:1040200079F087950895121613061406551FF2CFDE
:104030004695F1DF08C0161617061806991FF1CF2E
:1040400086957105610508940895E894BB27662755
:104050007727CB0197F9089519F416F40C94E11F12
:104060000C9472200E940B20B8F39923C9F3B6F385
:104070009F57550B87FF0E9480200024A0E640EA4E
:10408000900180585695979528F4805C660F771FAD
:10409000881F20F026173707480730F4621B730B80
:1040A000840B202931294A2BA695179407942025A3
:1040B00031254A2758F7660F771F881F20F02617EB
:1040C0003707480730F4620B730B840B200D311D4A
:1040D000411DA09581F7B901842F9158880F9695BD
:1040E000879508959F3F31F0915020F487957795FB
:1040F0006795B795880F911D9695879597F90895BF
:1041000091505040660F771F881FD2F70895FB012A
:10411000DC018D91019080190110D9F3990B08955C
:04412000F894FFCF41
:104124006375723300636373730063757232006383
:10413400757231007665720078626C696E6B73001B
:1041440074696D650074656D700076636300636DFA
:10415400617863757200616D617863757200617076
:104164006861736573006572726F7200736176655E
:10417400006970686173657300696D617863757255
:10418400007370686173657300736D617863757231
:104194000062726472657600636373646D700073A9
:1041A400696772656C0070696C6F74730063706921
:1041B4006C6F740063706E736C70007070696C6FF8
:1041C4007400637063757200726D7300726D733185
:1041D40000726D733200726D733300726D73646DAF
:1041E400700063616C646D700063616C6100636195
:1041F4006C62006C6F636B006C6F706E6D73006C3F
:10420400636C736D7300737372007573616765001B
:104214007265736574003881BE8300000000350D3B
:104224003D813928392800000C0D3C813728372876
:104234000000E90C4481B1280000DD06D00C49815E
:104244009D2800000000B40C4E819B280000000053
:10425400A20C2981AD2800000000780C52812F287F
:10426400000000004D0C5A818C28000000001D0C39
:104274006281A12800000000E60B33811B280000A6
:104284000000C60B2E81192800000000B60B248103
:10429400172800000000A60B6A81AB28000000006C
:1042A400170B708100000000B70CEB0A75814328DE
:1042B40043280000930A7D81452845280000C20A4E
:1042C4008581802880280000430B8D8182288228E4
:1042D4000000770B95814728472800007C0A9C81C1
:1042E4000000B5280000520AA38100000000D40693
:1042F4001B0AAA81992800005D07DE09B1813328D1
:1043040000000000D209B881312800000000B00983
:10431400BF812F28000000008F09C6818C2800006F
:10432400B7075509CC818E28000085071C09D08168
:10433400272800002913E108D5812528000033131C
:10434400D008DA81232800003D13BF08DF81000074
:1043540000009C0AA308E6810000B9280000660852
:10436400ED813D283D2800004208F281B728B72896
:1043740000001E08F78100000000F506F607FC8126
:104384003F283F280000CC07038241284128000031
:10439400A1070A8200000000160765070E820000CC
:1043A4000000D41C3D07148200000000C7061F074C
:0C43B400000000000000000000000D00F0
:1043C000FFFFFFFFFFFFFFFF010005000002FFFFEF
:1043D000E80304FF01FFFFFFFFFFFFFFFFFFFFFFF9
:1043E000FFFFFFFFFFFFFFFFFFFEFFFEFFFEFFFFE0
:1043F000FFFFFFFFFF0302FFFFFFFF01004B4A64C7
:0A4400000064007B00A0000C000027
:0400000300000200F7
:00000001FF
