:100200000C9448060C9465060C9465060C946506DF
:100210000C9465060C9465060C9465060C946506B2
:100220000C9465060C9465060C9465060C946506A2
:100230000C947A150C9465060C9465060C9465066E
:100240000C9465060C94EA0B0C9439080C94650622
:100250000C9465060C9465060C94E7120C946506E4
:100260000C9465060C9465060C9465060C94650662
:100270000C9465060C9465060C9465060C94650652
:100280000C9465060C9465060C9465060C94650642
:10029000252041474343532D4374726C323243202F
:1002A0002D2D2D20656E74657220223F5B43522FE9
:1002B0004C465D2220666F72206D6F72652064650A
:1002C0007461696C730025205739202D3E20413020
:1002D0000025205739202D3E20413000252057375A
:1002E000202D3E2041300025205736202D3E204134
:1002F0003000252057362F372F382F39202D3E201C
:100300004F46460025205730202D3E2057362F37A8
:100310002F382F390025205031202D3E2057300016
:1003200025205730202D3E204F46460025205030B6
:10033000202D3E2050310025204333202D3E2050DB
:100340003020287068617365206368616E67652975
:100350000025204333202D3E2050302028696E7622
:10036000616C696420706F776572290025204333C2
:10037000202D3E204F4646302028627574746F6EE3
:10038000290025204333202D3E204F464639202882
:100390006370696C6F74290025204332202D3E2044
:1003A00043330025204332202D3E2050302028703A
:1003B00068617365732072656A656374656429009A
:1003C00025204332202D3E204F464630202862759E
:1003D00074746F6E290025204332202D3E204F4635
:1003E000463920286370696C6F74290025204332D8
:1003F000202D3E2050302028706861736573207274
:10040000656A6563746564290025204331202D3EAB
:100410002043320025204330202D3E20433100254B
:10042000204330202D3E20455252002520423120CD
:100430002D3E2057302028756E68617070792077C6
:100440006974682043502D50574D290025204231B2
:10045000202D3E204F4646302028627574746F6E02
:10046000290025204231202D3E2043302F31002508
:10047000204230202D3E2057302028696E76616C56
:10048000696420706F776572290025204230202D25
:100490003E2042310025204131202D3E204F46464E
:1004A000302028627574746F6E2900252041312038
:1004B0002D3E204F464639202874696D656F75744E
:1004C000290025204131202D3E20423000252041A9
:1004D00030202D3E2041310025204F464639202D29
:1004E0003E204F4646300025204F464631202D3EC7
:1004F0002041300025206363732073746174653A72
:10050000204F464630202D3E204F46463100706138
:10051000727365206572726F720025205D5D5D00EB
:1005200025203D3D3D3D3D3D3D002520636373203D
:1005300073746174653A200025206C6F636B2073BF
:10054000746174653A2000252073797374696D6550
:100550003A200025203D3D3D3D3D3D3D0025203DCF
:100560003D3D3D3D3D3D002520436F7079726967FB
:1005700068742054686F6D6173204D6F6F7220280E
:10058000632920323032302C2032303231002520A5
:1005900041474343532D4374726C323243204156DA
:1005A00052204669726D7761726520566572736973
:1005B0006F6E200025203D3D3D3D3D3D3D00252009
:1005C0005B5B5B0075736167653D31002025200032
:1005D0005B522F2D5D005B2D2F575D005B522F5717
:1005E0005D002520006379636C652074696D65206A
:1005F0006D696E2F6D617820006D735D003B207317
:10060000616D706C652074696D6520003B20636EC0
:10061000742023006D56205B6D65616E2023006D94
:10062000563B20726D73503A20002520726D734640
:100630003A20005D003B2053756D503D003B205338
:10064000756D463D003B20467371723D00205B4650
:100650003D0020002520726D73002520726D7320EF
:100660007265636F72642064756D70002520726D11
:1006700073207265636F726420696E636F6D706C56
:1006800065746500293B006D564000202800204C11
:10069000333A2000293B006D564000202800204CB2
:1006A000323A2000293B006D564000202800204CA3
:1006B000313A20002520726D733A005B626F745DE1
:1006C0000075736520227265736574212220666F40
:1006D00072206120736F6674207265736574007593
:1006E000736520223F22206F722022757361676537
:1006F000212220746F206F627461696E20746869B2
:1007000073206C697374006F706572617465206327
:100710006F6E746163746F727320286465632E203A
:10072000656E636F646564292C2075736520227380
:1007300073727E2220666F722022616C6C206F665D
:10074000662200726561642F777269746520707526
:100750006C7365206C656E67746820746F20636CC1
:100760006F7365206C6F636B205B6D735D007265EA
:1007700061642F77726974652070756C7365206C85
:10078000656E67746820746F206F70656E206C6F83
:10079000636B205B6D735D0075736520226C6F6306
:1007A0006B21222F226C6F636B7E2220746F206F6F
:1007B00070657261746520746865206C6F636B008E
:1007C000726561642F77726974652063616C696218
:1007D000726174696F6E20706172616D65746572AB
:1007E00020634200726561642F77726974652063CB
:1007F000616C6962726174696F6E20706172616DA3
:100800006574657220634100757365202263616CB5
:10081000646D70212220666F7220706572696F644A
:1008200069632064756D7073206F6620524D53208C
:10083000636F756E747320287265712E2022726D3D
:10084000732122290064756D70206D6F737420729E
:100850006563656E7420726D73207265636F726478
:10086000002D2D2D206469746F20666F7220435413
:1008700033002D2D2D206469746F20666F72204324
:1008800054320067657420726D732072656164690B
:100890006E67206F6620435431205B6D565D2C20BF
:1008A0007573652022726D7331212220746F20745C
:1008B000726967676572207570646174650075732D
:1008C000652022726D7321222F22726D737E222089
:1008D000746F20656E2F64697361626C652070654A
:1008E00072696F6469632063757272656E742072D9
:1008F000656164696E6700726561642F77726974FF
:1009000065206D61782E2063757272656E74206942
:100910006E6469636174656420746F207468652017
:100920004556207669612050574D206F6E20435008
:100930000072656164205050202873616D652061EC
:100940007320636D6178637572295B3130306D415E
:100950005D0072656164204350206F6E20206E61DF
:1009600067617469762068616C6677617665205B83
:100970002D565D0072656164204350205B565D001A
:10098000757365202270696C6F747321222F227039
:10099000696C6F79737E2220746F20656E2F646995
:1009A0007361626C6520706572696F646963207041
:1009B000696C6F742072656164696E670075736538
:1009C000202273696772656C21222F227369677216
:1009D000656C7E2220746F20656E2F64697361627E
:1009E0006C6520746865207369676E616C20726540
:1009F0006C6179007573652022636373646D702187
:100A00002220746F20747261636B20434353207300
:100A1000746174652070726F6772657373007265BC
:100A200061642F777269746520617661696C6162B7
:100A30006C65207068617365732066726F6D2073DA
:100A40007570706C79205B646563696D616C20659D
:100A50006E636F64696E675D00726561642F7772A3
:100A6000697465206D61782E2063757272656E748D
:100A700020617661696C61626C652066726F6D20C1
:100A8000737570706C79205B3130306D415D00752D
:100A90007365202273617665212220746F20736153
:100AA000766520636F6E66696775726174696F6ED3
:100AB00020746F20454550524F4D0072656164208F
:100AC0006572726F7220666C6167732C2073656546
:100AD000206465636C61726174696F6E2022675F68
:100AE0006572726F7222002D2D2D206469746F2043
:100AF000666F72204C33002D2D2D206469746F2099
:100B0000666F72204C320072656164206375727288
:100B1000656E7420647261776E206F6E204C312098
:100B20005B31306D415D007265616420656E6162AC
:100B30006C656420706861736564206173207365FF
:100B4000742062792053535273205B646563696D2E
:100B5000616C20656E636F64696E675D2900726504
:100B60006164206D61782E2063757272656E7420E9
:100B70007369676E616C656420746F2045562076DA
:100B80006961204350205B3130306D415D007265FA
:100B900061642050502C20692E652E2C206D6178C8
:100BA0002E206361626C6520636170616369747992
:100BB000205B3130306D415D0072656164204343DC
:100BC000532073746174652C20736565207479708B
:100BD0006564656620226363735F73746174655F27
:100BE00074220072656164204156522056434320AE
:100BF0005B6D565D007265616420415652206469E8
:100C0000652074656D70657261747572205B435DFB
:100C100000726561642F7365742073797374696DF4
:100C20006520696E205B6D735D006F76657277720B
:100C30006974652073746174757320696E64696387
:100C400061746F722028455350333229006F7665E6
:100C50007277726974652073746174757320696E3C
:100C600064696361746F72202872656D6F746520AA
:100C7000686F7374290072656164206F75742066F3
:100C800069726D776172652076657273696F6E0047
:100C900011241FBECFEFCDBFDFE3DEBF18E2A0E01F
:100CA000B8E2EBE7F1E402C005900D92AA34B10777
:100CB000D9F721E3AAE4B8E201C01D92AA32B20733
:100CC000E1F70E94941C0C94881F0C940001892B5E
:100CD00041F088ED84BF80914100816080934100A4
:100CE000FFCF90E080E0089528E0009719F020936E
:100CF0000604089520930504089520918A0A3091EE
:100D00008B0A273B3340C8F780938228909383282F
:100D10008093AB289093AC280895809135288B7FE1
:100D200019F083E0809335280895CF93DF93EC0189
:100D3000892B69F080913528823029F0843019F0B0
:100D400081E080933528CE01DF91CF9108950E94F4
:100D50008D06F9CF80E78093060410929B281092AD
:100D60009C281092992810929A280895EF92FF9249
:100D70000F931F93CF93DF93EC01009751F40E94E0
:100D8000AA06CE01DF91CF911F910F91FF90EF90B6
:100D9000089580939B2890939C288C01F0E0E0E0DC
:100DA00020E08AE0E82EF12C101611065CF0E093AA
:100DB0009928F0939A282093050480E72827209308
:100DC0000604DFCFC801B7010E94721D8230910571
:100DD00069F08330910569F0019711F42064E160B6
:100DE000C801B7010E94721D8B01DECF2062E26054
:100DF000F7CF2061E3E0F0E0F3CF2091932830912A
:100E000094282817390701F12FEF3FEF209333285B
:100E100030933428209331283093322820932F2880
:100E2000309330282EEF3FEF20932B2830932C283F
:100E30002093292830932A2820932D2830932E2878
:100E40008093932890939428089520918828309136
:100E5000892828173907F1F02FEF3FEF2093272833
:100E60003093282820932528309326282093232860
:100E70003093242820931B2830931C282093192872
:100E800030931A28209317283093182880938828A5
:100E9000909389280895E0E0FAE081818F7B818337
:100EA000109286281092872890E080E0089500979D
:100EB00011F40C944B07209186283091872828172D
:100EC0003907A1F16AE0689FA001699F500D1124C4
:100ED000CA01039666E070E00E94721D64367105D7
:100EE0002CF1633583E0780714F062E573E025E0C8
:100EF000269FC001279F900D112480933C0A909358
:100F00003D0A8091010A80648093010A26E0269FB1
:100F1000C001279F900D112405966AE070E00E94A1
:100F2000721D9B016093862870938728C9010895DC
:100F300088ED84BF81E0809361008091630080FD33
:100F4000FCCF0895E0E6F4E080E1828388E08183CD
:100F500008958091A92821E030E0893010F026E141
:100F600030E08E518A3010F425E130E08091A528E0
:100F70009091A628892B11F024E130E08091392846
:100F800090913A28181619060CF49C018091372884
:100F9000909138281816190654F125313105C1F001
:100FA0008091AB289091AC2860ED77E00E94721D93
:100FB000253131058CF464E670E00E94721D6217E1
:100FC000730724F088E0809366040895C297D4F7ED
:100FD00088E08093650408952631310551F464EF6B
:100FE00071E00E94721D8A3F910564F7F1CF9C0168
:100FF000D4CF08959091680481E0292F207194FF47
:1010000080E090917D28981317C090917C289F5F75
:1010100090937C2890917C28923369F4222339F0B4
:1010200090917B28911103C091E09093A428809324
:101030007B2810927C28089580937D2810927C282C
:10104000E9CFE0E0F8E08BE591E08087918783E0ED
:101050008783858180688583A0E0B4E081E0119674
:101060008C93119782E012968C938681806C868394
:1010700008951F920F920FB60F9211248F939F9392
:10108000EF93FF93E091A32891E09E0F9093A32804
:10109000F0E0E952FF4C8081882311F0933590F005
:1010A000809105088F7D809305081092A3281092E7
:1010B000A228FF91EF919F918F910F900FBE0F90FB
:1010C0001F90189580930208F4CF9091A228911157
:1010D0000CC0E091A328E03540F491E09E0F90937E
:1010E000A328F0E0E952FF4C808308958091A22864
:1010F000811129C0E091A328AE2FB0E0A952BF4CC6
:101100008DE08C93A1E0AE0FB0E0A952BF4C8AE015
:101110008C93EE5FF0E0E952FF4C10821092A3280E
:1011200081E08093A2288091040885FFFCCF809104
:1011300005088062809305088091A128882319F012
:101140008091A228FBCF08958091A2288111FCCF25
:1011500081E08093A12881E090E080933B289093E8
:101160003C2808958091A2288111FCCF1092A128DB
:1011700081E090E080933B2890933C280895CF93A2
:10118000DF932091A228DC01222371F0DF91CF911F
:10119000089581E08E0F8093A328ED012197888127
:1011A000F0E0E952FF4C80838D91882379F3E09140
:1011B000A328E03570F3EACFFC018091A2288111C9
:1011C0000BC09091A328A92FB0E0A952BF4C8491E5
:1011D000811103C09093A32808959035D8F79F5F9D
:1011E0008D933196F4CF0E94DC080C9476089C0114
:1011F0008091A22881110FC09091A328E92FF0E0DF
:10120000E952FF4C80E2AF01475D5043421753075C
:101210001CF09093A32808959035D8F79F5F819391
:10122000F2CFEF92FF920F931F93CF93DF93EC01D6
:101230008091A22881110FC0E091A328209729F561
:10124000E03548F481E08E0F8093A328F0E0E95266
:10125000FF4C80E38083DF91CF911F910F91FF902E
:10126000EF90089541505109C901A1F40E2F10E0EB
:1012700009521F4C8AE0E82EF12C2115310511F09E
:10128000E03590F0E093A328E6CF44E050E081E021
:1012900090E06AE0689F9001699F300D1124C217A9
:1012A000D30700F79C01E2CFCE01B9010E945E1D79
:1012B000EF5F605DD8016D938D01EC01C901B7014D
:1012C0000E945E1D9B01D9CF2091A228211124C02C
:1012D000009771F4E091A328E035F0F481E08E0FDF
:1012E0008093A328F0E0E952FF4C80E380830895C7
:1012F00097FF10C0E091A328E03570F49195819597
:10130000910921E02E0F2093A328F0E0E952FF4C31
:101310002DE220830C94110908954F925F926F92F1
:101320007F928F929F92AF92BF92CF92DF92EF9275
:10133000FF920F931F93CF93DF934B015C0180913A
:10134000A228811112C0C091A32881149104A10484
:10135000B104A1F5C03548F481E08C0F8093A32837
:10136000D0E0C952DF4C80E38883DF91CF911F9199
:101370000F91FF90EF90DF90CF90BF90AF909F9034
:101380008F907F906F905F904F9008953197DC2DF4
:101390007D2C8701C9F40C2F10E009521F4C8AE004
:1013A000482E512C612C712CC114D104E104F1049C
:1013B00011F0C035D8F0C093A328D7CFE9E0F0E012
:1013C000D1E0712C00E010E0AAE0B0E02D2F372D25
:1013D000A8010E94C61D6B017C018C149D04AE0403
:1013E000BF04A0F6CD2ED72C7801D5CFC501B4010E
:1013F000A70196010E94861DCF5F205DF801219311
:101400008F014B015C01C701B601A30192010E944B
:10141000861D69017A01C8CF2091A22821112BC015
:10142000611571058105910571F4E091A328E035FE
:1014300010F581E08E0F8093A328F0E0E952FF4C75
:1014400080E38083089597FF14C0E091A328E035DE
:1014500090F490958095709561957F4F8F4F9F4F39
:1014600021E02E0F2093A328F0E0E952FF4C2DE25B
:1014700020830C948D0908952F923F924F925F9292
:101480006F927F928F929F92AF92BF92CF92DF9294
:10149000EF92FF920F931F93CF93DF93CDB7DEB7F9
:1014A0002E97CDBFDEBF8D879E87019799F48091DF
:1014B000902890919128883E934021F48091922821
:1014C000882359F00E94A4088CE696E00E94F30855
:1014D0000E94B2081D861E8665C18AE596E00E94BC
:1014E000F30847E059E249835A8347ED50E367E048
:1014F000262E69E2362E80E090E0DC01F1010191B8
:1015000011911F01012E000C220B330B800F911F34
:10151000A21FB31F4E175F0789F7BC01CD016C50A6
:101520007E4F8F4F9F4F28EE33E040E050E00E9407
:10153000861D2B833C834D835E832B813C812B87CF
:101540003C874091072950910829421B530BC12C1D
:10155000D12C7601812C912C5401412C512C32013B
:10156000A981BA810D911D91A983BA83EB85FC8570
:101570000E1B1F0B9801D8010E94A81D460E571E76
:10158000681E791EC801841B950B092E000CAA0B3E
:10159000BB0BBA2FA92F982F8827880D991DAA1D3C
:1015A000BB1D492F5A2F6B2F772767FD7A954C016A
:1015B0005D01841A950AA60AB70AC501B40142E082
:1015C00095958795779567954A95D1F797FF07C0C9
:1015D00090958095709561957F4F8F4F9F4F9B01A0
:1015E000AC010E944E1D9B01AC019AE056954795B7
:1015F000379527959A95D1F72F83388749875A874A
:10160000C20ED31EE41EF51E0E94A40884E596E0D7
:101610000E94DC0880918E2890918F280E94640996
:1016200082E596E00E94DC08C8010E9464098DE40E
:1016300096E00E94DC08C501B4010E940C0A85E412
:1016400096E00E94DC086F81788589859A850E94E2
:101650008D098DE396E00E94DC08C701B6010E9467
:101660008D0985E396E00E94DC08C301B2010E9467
:101670008D0983E396E00E94DC080E9476080E94B0
:10168000B208A80189819A812816390609F068CF25
:10169000C301B20163587F4F8F4F9F4F2AEF30E055
:1016A00040E050E00E94861DCA01B9010E94721EEE
:1016B0000E942A1F20E030E040E05FE30E94D21D3C
:1016C0000E94431E9B01A4ECB9E00E94B01D615032
:1016D0007C4F8F4F9F4F2FEF37E040E050E00E944C
:1016E000861D4901C701B60128EE33E040E050E015
:1016F0000E94861DCA01B9010E94721E0E942A1F03
:1017000020E030E040E05FE30E94D21D0E94431ED3
:101710009B0136952795A4ECB9E00E94B01D61505D
:101720007E4F8F4F9F4F2FEF33E040E050E00E94FD
:10173000861D69010E94A4088AE296E00E94DC08E6
:10174000C6010E9411098FE196E00E94DC08C401E5
:101750000E94110984E196E00E94DC088B819C8143
:101760000E9411098CE096E00E94DC0888EE93E06C
:101770000E9464098DEF95E00E94DC0880918A2820
:1017800090918B2820918C2830918D28821B930B6F
:101790000E94640989EF95E00E94DC080E947608A7
:1017A0000E94B2088D859E852E96CDBFDEBFDF914B
:1017B000CF911F910F91FF90EF90DF90CF90BF904E
:1017C000AF909F908F907F906F905F904F903F90E1
:1017D0002F9008951F920F920FB60F9211248F939E
:1017E0009F93EF93FF938091000890919F28911110
:1017F00007C08D3029F08A3061F481E080939F2802
:10180000FF91EF919F918F910F900FBE0F901F90BE
:101810001895E091A028E03598F791E09E0F9093FD
:10182000A028F0E0EB54F74D8083EACF1092A02877
:1018300010929F28089580919F28882391F080918D
:101840009F28813061F4E091A028F0E0EB54F74D3F
:10185000108282E080939F2885EB98E208950E9491
:10186000160C90E080E00895FC01EE0FFF1FFF27AB
:10187000F46180819181089520919D2830919E2866
:10188000260F371F20939D2830939E28FC01EE0FD2
:10189000FF1FFF27F461608371838DE984BF83E0BC
:1018A000809300108091021081FDFCCF0895CF93AA
:1018B000DF93009709F482C08091A928843108F051
:1018C00080C08FB78F778FBF10929D2810929E286F
:1018D000609147287091482890E080E00E943C0C7D
:1018E000609145287091462881E090E00E943C0C70
:1018F000609143287091442882E090E00E943C0C63
:1019000060913F287091402883E090E00E943C0C59
:10191000609141287091422884E090E00E943C0C44
:101920006091B3287091B42885E090E00E943C0C4F
:1019300060913D2870913E2886E090E00E943C0C2A
:101940006091B1287091B22887E090E00E943C0C31
:101950006091AF287091B02888E090E00E943C0C24
:1019600060919D2870919E2889E090E00E943C0C37
:101970008FB780688FBF10929D2810929E28D0E06C
:10198000C0E0CE010E94340C20919D2830919E2809
:10199000820F931F80939D2890939E282196C93093
:1019A000D10579F731E020E04091121450911314E1
:1019B0004817590709F030E0832F922FDF91CF911C
:1019C000089590E080E0FACFCF93DF9310929D28A6
:1019D00010929E28D0E0C0E0CE010E94340C2091ED
:1019E0009D2830919E28820F931F80939D2890936D
:1019F0009E282196C930D10579F720911214309193
:101A000013148217930761F08091A5289091A6285E
:101A100084608093A5289093A628DF91CF910895A4
:101A20008091001490910114809347289093482846
:101A30008091021490910314809345289093462836
:101A40008091041490910514809343289093442826
:101A5000809106149091071480933F28909340281A
:101A60008091081490910914809341289093422802
:101A700080910A1490910B148093B3289093B4280A
:101A800080910C1490910D1480933D2890933E28E2
:101A900080910E1490910F148093B1289093B228E6
:101AA00080911014909111148093AF289093B028D6
:101AB000B4CFE0E0F4E080E78183868388E081832F
:101AC000858380E881838583E0E4F4E084E081839A
:101AD00085838093620481E08093A2040895882323
:101AE00031F0813059F090E89093050403C090E8FC
:101AF0009093060494E09093450406C090E8909378
:101B0000050494E0909346048093362808956091EC
:101B1000412870914228409135286115710531F0B6
:101B200080913F2890914028009769F4433011F448
:101B30001092352880913528813009F094C182E0D7
:101B400080933528089520913628223009F0B8C0B6
:101B50002091680422FB222720F9309114282313B6
:101B6000AAC030917A283F5F30937A2830917A2842
:101B70003A3020F010927A282093132820911228CE
:101B8000241789F1413009F0A2C083E080937928BD
:101B90002091AD283091AE28209377283093782873
:101BA000260F371F20937528309376282C503E4FF0
:101BB0002093732830937428CB018C53964F28EED2
:101BC00033E0B9010E945E1D6F5F7F4F629FC001CD
:101BD000639F900D729F900D112480931028909315
:101BE000112840931228413081F58091AD289091C1
:101BF000AE2820917728309178288217930708F42F
:101C000081C0821B930B97FF85C08091AD28909176
:101C1000AE2820917528309176288217930708F412
:101C200087C0821B930B97FF8BC08091AD2890914A
:101C3000AE2820917328309174288217930708F4F6
:101C40008DC0821B930B97FF91C080913528833004
:101C500009F009C18091AD289091AE282091772894
:101C6000309178288217930708F4A6C0821B930B43
:101C700097FFAAC08091AD289091AE282091752839
:101C8000309176288217930708F4ACC0821B930B1F
:101C900097FFB0C08091AD289091AE282091732815
:101CA000309174288217930708F4B2C0821B930BFB
:101CB00097FFB5C008952093142810927A2856CF24
:101CC00021E02093142810927A282FEF55CF43302B
:101CD00009F087CF2AE0209379282091AD28309110
:101CE000AE282093772830937828280F391F209327
:101CF0007528309376282C503E4F209373283093CC
:101D000074285BCFA901481B590BCA018130904848
:101D100008F47BCF8091102890911128280F391F4B
:101D2000209377283093782881E00E946F0D6DCF43
:101D3000A901481B590BCA018130904808F475CF9E
:101D40008091102890911128280F391F2093752811
:101D50003093762882E00E946F0D67CFA901481B5F
:101D6000590BCA018130904808F46FCF8091102838
:101D700090911128280F391F2093732830937428CD
:101D800080911328813021F482E0809335285DCF43
:101D900080917928815080937928811156CF83E0F2
:101DA000809335288091A5289091A6288160809302
:101DB000A5289093A62849CFA901481B590BCA0111
:101DC0008130904808F456CF8091102890911128C6
:101DD000280F391F209377283093782880E00E94BD
:101DE0006F0D48CFA901481B590BCA01813090489B
:101DF00008F450CF8091102890911128280F391F96
:101E0000209375283093762882E00E946F0D42CF90
:101E1000A901481B590BCA018130904820F18091DB
:101E2000102890911128280F391F20937328309380
:101E3000742880911328811103C0109235280895C9
:101E40008091792881508093792881110CC084E099
:101E5000809335288091A5289091A6288160809351
:101E6000A5289093A6280895609147287091482846
:101E7000072E000C880B990B0E94741E2AE939E981
:101E800049E95FE30E943E1E87FD10C08091A804CF
:101E900080FD0CC080E00E946F0D0E94AA060E9487
:101EA000A4088BEB96E00E94F308FFCF0895E0EAC8
:101EB000F0E0808180628083808182608083818184
:101EC00082608183E0E8F6E08081816080838FEF2B
:101ED00084830895E0E6F4E081E082838089887F4E
:101EE000808B80898460808B8089877F808B82E073
:101EF00082838189887F818B81898460818B8189BC
:101F0000877F818B08958091AA2881117AC01092D1
:101F1000000684E08093010610920206809102067A
:101F2000836080930206809102068093020680916E
:101F300002068064809302061092030680910306D5
:101F40008066809303068091030680618093030678
:101F50008FE1809305068EE18093060610920A06B3
:101F60008091000681608093000680910806816060
:101F70008093080680910B0680FFFCCF60911006CD
:101F80007091110690E080E024E0660F771F881FB3
:101F9000991F2A95D1F7685C7F4F8F4F9F4F20E79D
:101FA00030E040E050E00E94861D80912111A09118
:101FB0002011082E000C990B281B390BB0E00E9451
:101FC000B01DDC01CB0180589F4FAF4FBF4F892F11
:101FD0009A2FAB2FBB2781519140A109B109809362
:101FE000972890939828809100068E7F8093000612
:101FF000809102068061809302061092AA2881E0F7
:10200000089580E008958091AA2881115BC0109204
:10201000000684E080930106109202068091020679
:10202000836080930206809102068061809302069D
:1020300080910206806480930206109203068091CC
:102040000306806680930306809103068061809377
:1020500003068FE1809305068CE1809306061092BB
:102060000A06809100068160809300068091080630
:1020700081608093080680910B0680FFFCCF209141
:10208000100630911106B9017695679590E080E0D1
:10209000645A7C4082499D4F50E040E00E94861D7A
:1020A0002093952830939628809100068E7F809308
:1020B0000006809102068061809302061092AA2891
:1020C00081E0089580E00895CF93DF938091AD285B
:1020D0009091AE28C0917128D09172288C179D07DD
:1020E00038F08C1B9D0B97FF0AC0DF91CF910895AC
:1020F0009E01281B390BC90181309048B0F38091B3
:102100007028882369F00E94830F882371F3C05FD1
:10211000D84DC0937128D093722810927028E5CFC3
:102120000E940310882309F3C05FD84DC093712823
:10213000D093722881E080937028D7CF8091AA280D
:1021400081116EC191E09093AA281092000682E05E
:1021500080930106109202068091020682608093AD
:102160000206809102068061809302068091020639
:1021700080648093020610920306809103068062B9
:10218000809303068091030680618093030610927A
:10219000050610920A068091000681608093000671
:1021A000909306068091200A9091210A8A3F91051A
:1021B000C8F38091200A9091210A8B3F9105C8F7BE
:1021C00081E08093080680910B0680FFFCCF809110
:1021D0001006909111069595879595958795409154
:1021E0004728509148284C3051050CF0D8C0853D07
:1021F00023E092070CF0E5C09C012D5533402633B7
:10220000310508F4E1C0815D92408F34910508F0FA
:10221000D5C086E090E020912B2830912C282E3FCD
:102220003F4F41F410926F282FEF3FEF20932B2860
:1022300030932C2820912B2830912C2828173907EF
:1022400009F0C5C020916F282F5F20936F2820913F
:102250006F28253021F4809333289093342880917F
:10226000200A9091210A8E389241C8F381E0809330
:10227000080680910B0680FFFCCF8091100690919C
:10228000110695958795959587954C3051050CF0DD
:10229000A5C04A978534910508F0A5C08CE090E070
:1022A0002091292830912A282E3F3F4F41F4109247
:1022B0006E282FEF3FEF2093292830932A28209172
:1022C000292830912A282817390709F08FC0209132
:1022D0006E282F5F20936E2820916E28253021F4E0
:1022E00080933128909332281092060681E08093E3
:1022F000080680910B0680FFFCCF8091100690911C
:1023000011069595879595958795209110063091A2
:102310001106853D63E096070CF06FC09C012550C7
:1023200031402B3D310508F46BC022593F4F253415
:10233000310508F468C08C5491098C9708F066C088
:1023400086E792E020912D2830912E282E3F3F4F96
:1023500041F410926D282FEF3FEF20932D283093FA
:102360002E2820912D2830912E282817390709F082
:1023700050C020916D282F5F20936D2820916D28EB
:10238000253021F480932F289093302880910006E7
:102390008E7F809300061092AA2881E008958E35E2
:1023A00063E0960774F49C012C50334026333105CA
:1023B00058F08A5B9240C69708F42BCF8FEF9FEFBF
:1023C0002ACF8CE090E027CF89E090E024CF809363
:1023D0002B2890932C2810926F2839CF8E5D91096D
:1023E000C59708F45BCF8FEF9FEF5ACF80932928D2
:1023F00090932A2810926E286FCF82E890E0A2CFA7
:1024000088EC90E09FCF80E491E09CCF8FEF9FEF2E
:1024100099CF80932D2890932E2810926D28AECFBF
:1024200080E00895CF93DF938091AD289091AE28FE
:10243000C0916B28D0916C282091932830919428DA
:10244000232BB9F48C179D0738F08C1B9D0B97FF3D
:102450000AC0DF91CF9108959E01281B390BC90155
:1024600081309048B0F36096C0936B28D0936C286D
:10247000F0CF8C179D0748F08C1B9D0B97FDE9CF83
:102480000E949E108111EFCFE4CF9E01281B390BD3
:10249000C90181309048A0F7DCCFE0E6F4E080E2AB
:1024A00082838589887F858B85898460858B8589F2
:1024B000877F858B80E482838689887F868B868967
:1024C0008460868B8689877F868B80E88283878974
:1024D000887F878B87898460878B8789877F878BB5
:1024E000089590919228911152C09091AA2891112B
:1024F0004EC091E09093AA28109200061092010617
:1025000010920206909102069260909302069091BA
:102510000206909302069091020690649093020640
:1025200010920306909103069068909303069AE038
:1025300090930506282F30E0823019F1833019F18D
:10254000813019F585E08093060620938E2830931C
:102550008F2891E090930A06809100068160809315
:10256000000610929028109291282091AD28309169
:10257000AE2820938C2830938D289093922881E068
:10258000089586E0E0CF87E0DECF1092AA2880E0B1
:102590000895019729F481E00E94711290E0089556
:1025A00090E080E00895019729F482E00E94711282
:1025B00090E0089590E080E00895019729F483E089
:1025C0000E94711290E0089590E080E008951F92BB
:1025D0000F920FB60F9211242F933F934F935F9357
:1025E0008F939F93EF93FF934091100650911106A4
:1025F00080919228813001F58091902890919128C6
:102600009C012F5F3F4F2093902830939128880F93
:10261000991FFC01E95FF64D40835183283E33400A
:102620005CF082E0809392288091AD289091AE2852
:1026300080938A2890938B28FF91EF919F918F919F
:102640005F914F913F912F910F900FBE0F901F9070
:1026500018958F929F92AF92BF92CF92DF92EF9296
:10266000FF92CF93DF9380919228823009F066C069
:1026700040910E2850910F28E7E0F9E227ED30E372
:1026800080E090E0DC0157FD3AC0483E23E052076D
:102690000CF072C0EA01CC59DF4FC93E83E0D80785
:1026A00014F0C8EED3E0E0900C28F0900D28809054
:1026B000672890906828A0906928B0906A28FA014D
:1026C000EE0FFF1FE95FF64D4C175D070CF441C09C
:1026D0008092672890926828A0926928B0926A2810
:1026E00040930E2850930F2829C0C190D1900D2CF3
:1026F000000CEE08FF088C0D9D1DAE1DBF1D2E1792
:102700003F0799F7BC01CD016C507E4F8F4F9F4F13
:1027100028EE33E040E050E00E94861D20930C2814
:1027200030930D281092672810926828109269281B
:1027300010926A2810920E2810920F28DF91CF91E4
:10274000FF90EF90DF90CF90BF90AF909F908F90D1
:102750000895A191B191AE19BF09B7FF03C0B1951A
:10276000A195B1099D010E94A81D860E971EA81E65
:10277000B91E4F5F5F4FA8CF483E23E0520759F57F
:1027800060916728709168288091692890916A28E3
:1027900063587F4F8F4F9F4F2AEF30E040E050E06B
:1027A0000E94861DCA01B9010E94721E0E942A1F42
:1027B00020E030E040E05FE30E94D21D0E94431E13
:1027C000609365287093662889EE93E080930E28C5
:1027D00090930F28B3CF493E534009F0AFCFE0911B
:1027E0006528F0916628DF012EEC38E341E050E0E7
:1027F0000E94C61D6B017C0120E8D20EE11CF11C79
:102800006701EE24FF24A0913D28B0913E289F014E
:102810000E94BF1DDC01CB01905EAF4FBF4F2EE089
:10282000B695A795979587952A95D1F72091B128C8
:102830003091B228820F931F8A30910510F490E0F6
:1028400080E020918E2830918F282230310509F4C4
:10285000B0C02330310509F4B9C02130310561F42D
:10286000E0932728F0932828C0922128D09222288C
:1028700080931B2890931C28109292281092AA28CB
:102880008FEF9FEF80930E2890930F288091B328AD
:102890009091B428892B09F451CF0E94A40884EBAD
:1028A00096E00E94DC0880911B2890911C2897FDDF
:1028B00022C08EEA96E00E94DC0880911B2890914D
:1028C0001C280E9411098BEA96E00E94DC08809186
:1028D0002128909122280E94110987EA96E00E94FF
:1028E000DC0880912728909128280E94110984EA09
:1028F00096E00E94DC088091192890911A2897FD93
:1029000022C08EE996E00E94DC08809119289091FF
:102910001A280E9411098BE996E00E94DC08809138
:102920001F28909120280E94110987E996E00E94B3
:10293000DC0880912528909126280E94110984E9BD
:1029400096E00E94DC08809117289091182897FD46
:1029500022C08EE896E00E94DC08809117289091B2
:1029600018280E9411098BE896E00E94DC088091EB
:102970001D2890911E280E94110987E896E00E9468
:10298000DC0880912328909124280E94110984E872
:1029900096E00E94DC080E947608DF91CF91FF90BC
:1029A000EF90DF90CF90BF90AF909F908F900C945E
:1029B000B208E0932528F0932628C0921F28D092D1
:1029C00020288093192890931A2856CFE093232823
:1029D000F0932428C0921D28D0921E288093172897
:1029E0009093182849CF0F931F93CF93DF93C091F3
:1029F0000A28D0910B288091882890918928892BCA
:102A0000F9F4109292288091AD289091AE288C17FD
:102A10009D0748F08C1B9D0B97FF0CC0DF91CF9159
:102A20001F910F9108959E01281B390BC901813018
:102A30009048A0F3DC5FC0930A28D0930B28EECF18
:102A40000E9429138091AD289091AE288C179D0784
:102A5000B8F08C1B9D0B97FDE1CF009108281091D9
:102A60000928802F0E9471128823C1F20F5F1F4F27
:102A7000043011056CF40093082810930928DACF6C
:102A80009E01281B390BC9018130904830F7C6CF11
:102A900081E090E08093082890930928CBCFE0E074
:102AA000F4E084E0818385831092E405E0E0FAE0BD
:102AB0008081808381818760818388E893E186A318
:102AC00097A384EF91E084A795A781818F7B818371
:102AD0008081816080830895E0E8FAE010821182AD
:102AE00081E0858388EE93E084879587808181608B
:102AF000808308951F920F920FB60F9211242F9387
:102B00008F939F9380919228813029F480910806B9
:102B1000816080930806809164288F5F8093642889
:102B20008A3068F48091860A81608093860A9F913A
:102B30008F912F910F900FBE0F901F9018951092AC
:102B40006428809184289091852801968093842818
:102B50009093852880918228909183280196809374
:102B600082289093832880918228909183288033B3
:102B70009547C4F21092822810928328D3CF809177
:102B80008A0A90918B0A873B9340C8F780918428EA
:102B9000909185288093AD289093AE2880918228CB
:102BA000909183288093AB289093AC2808958091CE
:102BB000AD289091AE2820917E2830917F28809377
:102BC0007E2890937F2840913B2850913C28452BAC
:102BD000C1F4821B930B209115283091162882177F
:102BE000930720F48093152890931628209180282D
:102BF000309181282817390720F4809380289093FA
:102C0000812810923B2810923C28089585EE95E08B
:102C10000E94DC0880911528909116280E941109C5
:102C20008FE20E94650880918028909181280E94FF
:102C300011090E9476088FEF9FEF809315289093DB
:102C40001628109280281092812881E090E08093CD
:102C50003B2890933C280895CF93DF93C3EFDFE7A1
:102C600088819981892B19F4DF91CF91089582EEA3
:102C700095E00E94DC08888199810E94BF088A81C2
:102C80009B81892B49F08DE30E946508EA81FB81D5
:102C9000808191810E9464098CE090E00E94F70895
:102CA0008A819B81892B61F08C819D81892B21F404
:102CB0008E819F81892B21F08CED95E00E94DC08AC
:102CC0008A819B81892B61F48C819D81892B21F4E0
:102CD0008E819F81892B21F086ED95E00E94DC0892
:102CE0008A819B81892B61F08C819D81892B41F4A4
:102CF0008E819F81892B21F480ED95E00E94DC0874
:102D000088859985892B41F08CEC95E00E94DC0840
:102D1000888599850E94DC080E9476082A96A0CFB3
:102D200084EC95E00E94F3080E94A4088EEB95E0E5
:102D30000E94F30884EB95E00E94F3088EE895E08A
:102D40000E94DC0881E090E00E9411098EE20E945E
:102D5000650882E090E00E9411090E94760887E6EB
:102D600095E00E94F3088DE595E00E94F3080E942B
:102D70002C1683E595E00E94F3080E94061687E46E
:102D800095E00E94DC088091AB289091AC280E94CD
:102D900011090E94760888E395E00E94DC08809182
:102DA000352890E00E9411090E9476088AE295E099
:102DB0000E94DC088091A92890E00E9411090E94DD
:102DC000760880E295E00E94F3088AE195E00E948F
:102DD000F3080E94B20881E090E080933B28909332
:102DE0003C280895892B11F00C94901690E080E017
:102DF00008959F92AF92BF92CF92DF92EF92FF928F
:102E00000F931F93CF93DF93FC017F011191111159
:102E10000DC080E0DF91CF911F910F91FF90EF9057
:102E2000DF90CF90BF90AF909F9008955F011F33C8
:102E300031F01D3321F0113211F01E3731F7992E88
:102E4000082FF701108283EFC82E8FE7D82E0BC012
:102E5000602F792D0E947F1FEC01892B09F460C03F
:102E60008AE0C80ED11CD6018D919C91009781F704
:102E7000D0CF1E3741F480E3D70111968C93119780
:102E800012961C9254C01D3309F451C01F3349F4EB
:102E9000D6011296ED91FC91309709F4BACFC0811A
:102EA000D181802F992D0E94BF088DE30E94650873
:102EB000CE010E9464090E94760881E0ABCFC13840
:102EC0009CE0D9070CF0A5CF4C9FB0014D9F700D31
:102ED0001124A82FA053BB0BED01C60FD71F819162
:102EE00090ED980F9A3058F3FE01E29FE001E39FC6
:102EF000D00DF29FD00D1124D6011696ED91FC91C4
:102F00001797309749F41496ED91FC91309709F496
:102F100080CFC083D183C5CFCE010995EC01C1CF4D
:102F2000113209F0A6CF81E3F70181831282F70104
:102F30008181882309F46DCF21E030E08D3231F4B6
:102F40005701F2E0AF0EB11C2FEF3FEFF5014AE061
:102F5000C6CFFC0120812F3311F40C9490160E94EF
:102F6000F916811104C08EE095E00C94F3080895E1
:102F7000CF93DF932091AF283091B028232B61F0BD
:102F8000EC010E94A408CE010E94DC080E94760891
:102F9000DF91CF910C94B208DF91CF910895CF9338
:102FA000DF938091A92881112AC00E94AA0690E08F
:102FB00080E00E9425070E944B0790E080E00E947D
:102FC000FD0688E0809305040E948D061092A428D7
:102FD0001092622810926328109260281092612843
:102FE00010925E2810925F2880913528811107C0C9
:102FF00084EF94E00E94B81781E08093A928809123
:10300000A928813059F48091A428882339F087EECB
:1030100094E00E94B8178AE08093A9288091A9289B
:103020008930C9F40E94AA0690E080E00E9425073A
:103030000E944B0790E080E00E94FD0688E08093AC
:1030400005048091A428882331F088ED94E00E9443
:10305000B8171092A9288091A9288A3051F50E94AA
:10306000AA0690E080E00E94250781E090E00E949F
:10307000FD060E944B0788E0809306041092A42866
:10308000109262281092632810925E2810925F2896
:103090008091AD289091AE28805D9A4880935C28FD
:1030A00090935D288DEC94E00E94B8178BE080939C
:1030B000A9288091A9288B3071F5809133289091AF
:1030C0003428099771F480912F2890913028181690
:1030D00019063CF482EC94E00E94B81784E18093D6
:1030E000A9282091AD283091AE2880915C2890913C
:1030F0005D282817390708F4D3C2281B390B37FF7E
:10310000D5C28091A428882331F085E994E00E94FB
:10311000B8171092A9288091A928843109F045C0D8
:103120000E94AA0690E080E00E94250781E090E0DE
:103130000E94FD0688E08093060481E090E00E94F2
:1031400095061092A428109262281092632810927B
:103150005E2810925F2880913528823031F5809169
:10316000452890914628CC970CF4A8C280912F282E
:1031700090913028CC970CF4A1C280914328909173
:103180004428892B09F49AC28091AD289091AE28E9
:10319000805F984D80935A2890935B288AE894E04A
:1031A0000E94B81785E18093A9288091A9288531CC
:1031B00009F040C0209145283091462820935E2890
:1031C00030935F2880912F289091302882179307A1
:1031D00024F480935E2890935F2880915E289091DC
:1031E0005F280E94570780913328909134280697D2
:1031F00039F482E694E00E94B8178EE18093A92802
:103200008091A428882331F08CE494E00E94B817C0
:103210001092A9282091AD283091AE2880915A288B
:1032200090915B282817390708F44EC2281B390BE8
:1032300037FF50C28091A9288E31D1F41092A42872
:1032400080915E2890915F28CC975CF08091432814
:1032500090914428892B29F080913528823009F4F7
:1032600041C28FE194E00E94B8178AE58093A928B3
:103270008091A9288F3109F049C0C0914328D0918D
:103280004428C0936228D093632880915E2890914F
:103290005F280E94570788E080930604CE010E94B1
:1032A000B60681E090E00E94250781E090E00E9450
:1032B000FD0689E094E00E94B81780E28093A92877
:1032C0008091AD289091AE28805D9A4880935828CF
:1032D0009093592880916028909161282091992895
:1032E00030919A28822B932B8093602890936128A9
:1032F0008FEF9FEF80935628909357288093542800
:103300009093552880935228909353288091A92810
:10331000803209F079C080911B2890911C2820915F
:103320005628309157282817390724F480935628B7
:10333000909357288091192890911A282091542809
:10334000309155282817390724F4809354289093F6
:103350005528809117289091182820915228309153
:1033600053282817390724F4809352289093532820
:1033700080913328909134280997F9F48091562848
:10338000909157282091542830915528820F931FEF
:103390002091522830915328820F931F8D976CF4FF
:1033A0008091992890919A28079739F08CEE93E0B4
:1033B0000E94B81788E28093A928809133289091C1
:1033C0003428069739F086ED93E00E94B81789E01B
:1033D0008093A9288091A428882331F080EC93E081
:1033E0000E94B8171092A9282091AD283091AE28DC
:1033F00080915828909159282817390708F478C1E6
:10340000281B390B37FF7AC18091A9288132D9F561
:103410008091332890913428069739F082E893E020
:103420000E94B81789E08093A9288091A428882356
:1034300031F08CE693E00E94B8171092A928C09151
:103440004328D0914428209779F020914528309145
:1034500046282C33310544F080912F289091302854
:103460008C3391050CF070C110925E2810925F2889
:10347000109262281092632881E593E00E94B817A9
:1034800088E28093A9288091A9288832A9F40E9413
:103490004B071092A4288091AD289091AE28805FB0
:1034A000984D80935028909351288CE293E00E948D
:1034B000B81789E28093A9288091A928893219F543
:1034C0008091A428882331F080E293E00E94B8170D
:1034D0001092A9288091AD289091AE282091502873
:1034E000309151288217930708F452C1AC01421B56
:1034F000530B57FF53C12091332830913428263085
:10350000310509F04BC18091A9288233D9F40E947A
:10351000AA0688E08093050490E080E00E942507D9
:103520001092A4282091AD283091AE2880914E2889
:1035300090914F282817390708F43EC1281B390BF2
:1035400037FF40C18091A9288853843050F480917E
:10355000A428882331F082EF92E00E94B8171092DD
:10356000A9288091A9288833C9F480914528909191
:103570004628CC979CF080912F2890913028CC97AA
:103580006CF08091432890914428892B39F087EE84
:1035900092E00E94B8178AE08093A9288091A92818
:1035A000893311F580915E2890915F2884369105CA
:1035B000DCF4809145289091462884369105A4F04A
:1035C00080912F2890913028843691056CF080915D
:1035D000432890914428892B39F08CED92E00E9489
:1035E000B8178AE08093A9288091A9288A33C9F462
:1035F0008091452890914628CC979CF080912F2867
:1036000090913028CC976CF0809143289091442879
:10361000892B39F081ED92E00E94B8178AE08093FF
:10362000A9288091A9288B3331F580914528909164
:103630004628CC9704F180912F2890913028CC9780
:10364000D4F080914328909144280097A1F02091D4
:103650006228309163288217930769F0809160286F
:1036600090916128079739F486EC92E00E94B81790
:103670008AE08093A9288091A9288A3549F420916D
:10368000A5283091A62822602093A5283093A6284B
:1036900090E08093A7289093A828DF91CF91089578
:1036A000821B930B8130904808F42BCD8BEA94E079
:1036B0000E94B81789E08093A92823CD8FE694E073
:1036C0000E94B81782E36FCD821B930B8130904824
:1036D00008F4B0CD8BE294E00E94B81782E38093A7
:1036E000A928A8CD84E194E00E94B8178FE1BECD4F
:1036F000821B930B8130904808F486CE8091562827
:10370000909157282091542830915528820F931F6B
:103710002091522830915328820F931F8D9774F473
:103720008091992890919A28079741F083EA93E035
:103730000E94B81788E28093A92866CE88E993E0B2
:103740000E94B81781E2F7CF409162285091632818
:10375000C417D50739F010925E2810925F2887E3CE
:1037600093E08CCE8217930774F020935E283093F9
:103770005F2880915E2890915F280E945707CE01B4
:103780000E94B60680CE80935E2890935F28F1CF8A
:10379000281B390B2130304808F4ADCE805F984D9E
:1037A00080934E2890934F2885E193E00E94B817AC
:1037B00082E38093A928A7CE821B930B8130904887
:1037C00008F4C0CE84E093E00E94B817809162288C
:1037D0009091632820915E2830915F28232B41F43B
:1037E000892B51F488E38093A928ACCE89E3FBCFE1
:1037F000892BE1F38BE3F7CF8AE3F5CF0F931F9388
:10380000CF93DF938091A228811189C0C091A9280C
:10381000D0E08091062890910728C817D90769F54C
:10382000C0911B28D0911C288091042890910528D4
:10383000C817D907E9F5C0911928D0911A288091A5
:10384000022890910328C817D90709F447C09C01A2
:103850002B5F3F4F2C173D074CF02A503109C21700
:10386000D30724F0D7FD02C097FF38C0C0930228C9
:10387000D09303280EE11FE706C0C0930628D0931B
:10388000072809E11FE78BE50E946508C8010E942F
:10389000BF088DE30E946508CE010E9464098DE592
:1038A0000E946508DF91CF911F910F910C947608CB
:1038B0009C012B5F3F4F2C173D074CF02A503109DC
:1038C000C217D30724F0D7FD02C097FFB4CFC0932F
:1038D0000428D093052803E21FE7D5CFC09117280D
:1038E000D09118288091002890910128C817D907F5
:1038F000B1F09C012B5F3F4F2C173D074CF02A5035
:103900003109C217D30724F0D7FD02C097FF07C0C3
:10391000C0930028D093012804E11FE7B4CFDF91C2
:10392000CF911F910F9108950E9498070E9421083E
:103930000E94A2070E94590D0E94570F0E946A0F11
:103940000E944D120E944F150E946C158FB780681F
:103950008FBF0E94E40C80E992E00E94F30818E017
:10396000C1E0D0E00E94BF150E94D7150E94A907B0
:103970000E94870D0E94340F0E94FA070E94F314E0
:103980000E9412120E9464100E94FE1B8091A528C2
:103990009091A628892B09F45EC0109305040E941B
:1039A000AA0690E080E00E94250790E080E00E9457
:1039B000FD060E948D06809135286091A5287091A2
:1039C000A628811116C060FF14C080914C289091E8
:1039D0004D28892B71F4C0934C28D0934D288091A9
:1039E000AD289091AE28805F984D80934A2890939F
:1039F0004B2862307105A1F480914C2890914D289C
:103A0000892B71F460934C2870934D288091AD28D8
:103A10009091AE28805D9A4880934A2890934B28D5
:103A200080914C2890914D28009779F04091AD28D5
:103A30005091AE2820914A2830914B2842175307C5
:103A4000B8F0421B530B57FF18C08091A5289091E6
:103A5000A628892B11F40E94CF170E941B0C0097F7
:103A600021F00E94A9170E94160C1092A4287ACF68
:103A7000241B350B2130304840F3809590958623E8
:103A800097238093A5289093A628892B11F4109250
:103A9000A92810924C2810924D28D7CFDB018F9384
:103AA0009F930E94C61DBF91AF91A29F800D911D53
:103AB000A39F900DB29F900D11240895AA1BBB1BCC
:103AC00051E107C0AA1FBB1FA617B70710F0A61B1E
:103AD000B70B881F991F5A95A9F780959095BC013F
:103AE000CD01089597FB072E16F4009407D077FDBB
:103AF00009D00E945E1D07FC05D03EF4909581958B
:103B00009F4F0895709561957F4F0895A1E21A2EF9
:103B1000AA1BBB1BFD010DC0AA1FBB1FEE1FFF1F71
:103B2000A217B307E407F50720F0A21BB30BE40BC1
:103B3000F50B661F771F881F991F1A9469F7609508
:103B40007095809590959B01AC01BD01CF010895C2
:103B50000E94B01D332312F48A1B9B0B0C94C11DD1
:103B6000A29FB001B39FC001A39F700D811D1124BE
:103B7000911DB29F700D811D1124911D08950E9409
:103B8000B01DB7FF0895821B930B08950E94B01DCE
:103B9000A59F900DB49F900DA49F800D911D1124A1
:103BA00008955058BB27AA270E94E91D0C94EA1ECD
:103BB0000E94DC1E38F00E94E31E20F039F49F3F83
:103BC00019F426F40C94D91E0EF4E095E7FB0C943E
:103BD000D31EE92F0E94FB1E58F3BA176207730722
:103BE0008407950720F079F4A6F50C941D1F0EF4B8
:103BF000E0950B2EBA2FA02D0B01B90190010C01FD
:103C0000CA01A0011124FF27591B99F0593F50F414
:103C1000503E68F11A16F040A22F232F342F44276C
:103C2000585FF3CF469537952795A795F040539564
:103C3000C9F77EF41F16BA0B620B730B840BBAF034
:103C40009150A1F0FF0FBB1F661F771F881FC2F79F
:103C50000EC0BA0F621F731F841F48F487957795B3
:103C60006795B795F7959E3F08F0B0CF9395880F6D
:103C700008F09927EE0F9795879508950E94AF1E3B
:103C800008F481E008950E94031F88F09F5798F080
:103C9000B92F9927B751B0F0E1F0660F771F881F51
:103CA000991F1AF0BA95C9F714C0B13091F00E946B
:103CB0001D1FB1E008950C941D1F672F782F8827D2
:103CC000B85F39F0B93FCCF3869577956795B39592
:103CD000D9F73EF490958095709561957F4F8F4F01
:103CE0009F4F0895E89409C097FB3EF49095809506
:103CF000709561957F4F8F4F9F4F9923A9F0F92FB2
:103D000096E9BB279395F695879577956795B7952F
:103D1000F111F8CFFAF4BB0F11F460FF1BC06F5F15
:103D20007F4F8F4F9F4F16C0882311F096E911C027
:103D3000772321F09EE8872F762F05C0662371F048
:103D400096E8862F70E060E02AF09A95660F771F5C
:103D5000881FDAF7880F9695879597F90895990F38
:103D60000008550FAA0BE0E8FEEF16161706E80745
:103D7000F907C0F012161306E407F50798F0621B66
:103D8000730B840B950B39F40A2661F0232B242B3B
:103D9000252B21F408950A2609F4A140A6958FEF5A
:103DA000811D811D089597F99F6780E870E060E0AC
:103DB00008959FEF80EC089500240A9416161706C4
:103DC00018060906089500240A941216130614060C
:103DD00005060895092E0394000C11F4882352F06F
:103DE000BB0F40F4BF2B11F460FF04C06F5F7F4F27
:103DF0008F4F9F4F089557FD9058440F551F59F00E
:103E00005F3F71F04795880F97FB991F61F09F3FC7
:103E100079F087950895121613061406551FF2CFF0
:103E20004695F1DF08C0161617061806991FF1CF40
:103E300086957105610508940895E894BB27662767
:103E40007727CB0197F9089519F416F40C94D91E2D
:103E50000C946A1F0E94031FB8F39923C9F3B6F3A9
:103E60009F57550B87FF0E94781F0024A0E640EA69
:103E7000900180585695979528F4805C660F771FBF
:103E8000881F20F026173707480730F4621B730B92
:103E9000840B202931294A2BA695179407942025B5
:103EA00031254A2758F7660F771F881F20F02617FD
:103EB0003707480730F4620B730B840B200D311D5C
:103EC000411DA09581F7B901842F9158880F9695CF
:103ED000879508959F3F31F0915020F4879577950D
:103EE0006795B795880F911D9695879597F90895D1
:103EF00091505040660F771F881FD2F70895FB013D
:103F0000DC018D91019080190110D9F3990B08956E
:043F1000F894FFCF53
:103F14006375723300636373730063757232006395
:103F2400757231007665720078626C696E6B73002D
:103F340074696D650074656D700076636300636D0C
:103F4400617863757200616D617863757200617088
:103F54006861736573006572726F72007361766570
:103F640000736D6178637572007370686173657353
:103F740000636373646D700073696772656C0070CD
:103F8400696C6F7473006370696C6F740063706E36
:103F9400736C70007070696C6F7400637063757219
:103FA40000726D7300726D733100726D7332007242
:103FB4006D733300726D73646D700063616C646D56
:103FC400700063616C610063616C62006C6F636BB1
:103FD400006C6F706E6D73006C636C736D73007343
:103FE4007372007573616765007265736574002888
:103FF4007F798100000000760C2D7F392839280054
:10400400004D0C2C7F3728372800002A0C347FAB56
:104014002800007D06110C397F972800000000F568
:104024000B3E7F952800000000E30B197FA72800B2
:10403400000000B90B427F2F28000000008E0B4ABD
:104044007F8628000000005E0B527F9B2800000042
:1040540000270B237F1B2800000000070B1E7F197D
:104064002800000000F70A147F172800000000E76A
:104074000A5A7FA52800000000BB0A607F000000E8
:1040840000570C8F0A657F452845280000590A6DA2
:104094007F4328432800001E0A757F0000AF2800D4
:1040A40000F4097C7F000000007406BD09837F933F
:1040B400280000FD0680098A7F3328000000007470
:1040C40009917F3128000000005209987F2F2800B1
:1040D40000000031099F7F862800005707F708A5D4
:1040E4007F882800002507BE08A97F27280000C96B
:1040F400128308AE7F25280000D3127208B37F23F1
:10410400280000DD126108B87F000000003C0A4569
:1041140008BF7F0000B32800000808C67F3D283D83
:10412400280000E407CB7FB128B1280000C007D0E5
:104134007F0000000095069807D57F3F283F2800A0
:10414400006E07DC7F4128412800004307E37F001D
:10415400000000B6060707E77F00000000F216DF44
:1041640006ED7F000000006706C1060000000000A5
:0741740000000000000C0038
:10417B00FFFFFFFFFFFFFFFF010005000002FFFF36
:10418B00E80304FF01FFFFFFFFFFFFFFFFFFFFFF40
:10419B00FFFFFFFFFFFFFFFFFFFEFFFEFFFEFFFF27
:1041AB00FFFFFFFFFF0302FFFFFFFF01004B4A640E
:0A41BB000064007B00A0000C00006F
:0400000300000200F7
:00000001FF
