:100200000C941A070C9437070C9437070C94370793
:100210000C9437070C9437070C9437070C94370766
:100220000C9437070C9437070C9437070C94370756
:100230000C94B9160C9437070C9437070C943707B5
:100240000C9437070C94EF0C0C943E090C94370770
:100250000C9437070C9437070C9422140C9437072E
:100260000C9437070C9437070C9437070C94370716
:100270000C9437070C9437070C9437070C94370706
:100280000C9437070C9437070C9437070C943707F6
:10029000252041474343532D4374726C323243202F
:1002A0002D2D2D20656E74657220223F5B43522FE9
:1002B0004C465D2220666F72206D6F72652064650A
:1002C0007461696C73007061727365206572726F1E
:1002D000720025205D5D5D0025203D3D3D3D3D3D9D
:1002E0003D0025206363732073746174653A2000B8
:1002F00025206C6F636B2073746174653A20002550
:100300002073797374696D653A200025203D3D3D69
:100310003D3D3D3D0025203D3D3D3D3D3D3D0025D4
:1003200020436F707972696768742054686F6D61DB
:1003300073204D6F6F722028632920323032302CA9
:10034000203230323100252041474343532D43743E
:10035000726C32324320415652204669726D776189
:1003600072652056657273696F6E200025203D3DD1
:100370003D3D3D3D3D0025205B5B5B007573616746
:10038000653D3100202520005B522F2D5D005B2D47
:100390002F575D005B522F575D0025200025205709
:1003A00039202D3E2041300025205739202D3E2078
:1003B00041300025205737202D3E20413000252098
:1003C0005736202D3E20413000252057362F372F1D
:1003D000382F39202D3E204F46460025205730200B
:1003E0002D3E2057362F372F382F390025205731F3
:1003F000202D3E204F4646202862746E290025207D
:100400005731202D3E204F4646202872747279299C
:100410000025205730202D3E205731002520503117
:10042000202D3E2057300025205031202D3E204FDA
:100430004646300025205030202D3E2050310025EA
:10044000204333202D3E2050302028706861736592
:10045000206368616E6765290025204333202D3EA7
:100460002050302028696E76616C696420706F7747
:100470006572290025204333202D3E20503020284E
:10048000696E76616C6964207070696C6F742900A4
:100490002070703A200025207070696C6F74207590
:1004A00070646174653A200025204333202D3E207E
:1004B0004F4646302028627574746F6E29002520DF
:1004C0004333202D3E204F46463920286370696C07
:1004D0006F7429002063703A200025206370696CD6
:1004E0006F74207570646174653A20002520433272
:1004F000202D3E2043330025204332202D3E205026
:100500003020287068617365732072656A65637452
:100510006564290025204332202D3E204F46463079
:100520002028627574746F6E290025204332202DB7
:100530003E204F46463920286370696C6F7429004D
:1005400025204332202D3E205030202870686173D2
:1005500065732072656A65637465642900252043AC
:1005600031202D3E2043320025204331202D3E20D6
:100570004552522028696C6C6567616C2070686117
:10058000736573290025204330202D3E2043310020
:1005900025204330202D3E20455252002520423157
:1005A000202D3E2057302028756E686170707920AC
:1005B000776974682043502D50574D2900252042FB
:1005C00031202D3E204F4646302028627574746FCE
:1005D0006E290025204231202D3E2043302F31004E
:1005E00025204230202D3E2057302028696E76612C
:1005F0006C696420706F7765722900252042302075
:100600002D3E2042310025204131202D3E204F46F5
:1006100046302028627574746F6E290025204131A0
:10062000202D3E204F464639202874696D656F7530
:1006300074290025204131202D3E20423000252004
:100640004130202D3E2041310025204F46463920A3
:100650002D3E204F4646300025204F464631202D66
:100660003E204130002520636373207374617465FC
:100670003A204F464632202D3E204F464633002535
:10068000204F464631202D3E204F46463200252041
:100690004F464630202D3E204F4646320025204F03
:1006A000464630202D3E204F464631006379636C2C
:1006B000652074696D65206D696E2F6D617820000D
:1006C0006D735D003B2073616D706C652074696DA6
:1006D0006520003B20636E742023006D56205B6D07
:1006E00065616E2023006D563B20726D73503A2079
:1006F000002520726D73463A20005D003B20537543
:100700006D503D003B2053756D463D003B204673C8
:1007100071723D00205B463D0020002520726D7304
:10072000002520726D73207265636F72642064759A
:100730006D70002520726D73207265636F72642086
:10074000696E636F6D706C65746500293B006D5652
:100750004000202800204C333A2000293B006D56F1
:100760004000202800204C323A2000293B006D56E2
:100770004000202800204C313A20002520726D7363
:100780003A003B2070703A20003B2064703A200011
:100790002063703A2000252070696C6F742075709A
:1007A000646174653A20005B626F745D0075736507
:1007B00020227265736574212220666F7220612089
:1007C000736F66742072657365740075736520229B
:1007D0003F22206F72202275736167652122207489
:1007E0006F206F627461696E2074686973206C6930
:1007F0007374006F70657261746520636F6E7461ED
:1008000063746F727320286465632E20656E636F56
:10081000646564292C2075736520227373727E22AF
:1008200020666F722022616C6C206F6666220072F7
:100830006561642F77726974652070756C736520CB
:100840006C656E67746820746F20636C6F736520CD
:100850006C6F636B205B6D735D00726561642F77F5
:10086000726974652070756C7365206C656E677451
:100870006820746F206F70656E206C6F636B205BF7
:100880006D735D0075736520226C6F636B21222F81
:10089000226C6F636B7E2220746F206F70657261B3
:1008A000746520746865206C6F636B0072656164A9
:1008B0002F77726974652063616C69627261746913
:1008C0006F6E20706172616D6574657220634200A5
:1008D000726561642F77726974652063616C696207
:1008E000726174696F6E20706172616D657465729A
:1008F00020634100757365202263616C646D702113
:100900002220666F7220706572696F64696320646B
:10091000756D7073206F6620524D5320636F756E36
:10092000747320287265712E2022726D7321222922
:100930000064756D70206D6F737420726563656EF1
:100940007420726D73207265636F7264002D2D2D9B
:10095000206469746F20666F7220435433002D2D1C
:100960002D206469746F20666F72204354320067D3
:10097000657420726D732072656164696E67206FA3
:100980006620435431205B6D565D2C2075736520C5
:1009900022726D7331212220746F2074726967672F
:1009A00065722075706461746500757365202272CC
:1009B0006D7321222F22726D737E2220746F206549
:1009C0006E2F64697361626C6520706572696F6413
:1009D00069632063757272656E7420726561646903
:1009E0006E6700726561642F7772697465206D614E
:1009F000782E2063757272656E7420696E64696307
:100A00006174656420746F20746865204556207693
:100A100069612050574D206F6E20435000656E6114
:100A2000626C652041444320636F756E742072656B
:100A3000706F727420666F722070696C6F742072B0
:100A4000656164696E67007265616420505020289A
:100A500073616D6520617320636D617863757229C0
:100A60005B3130306D415D00726561642043502020
:100A70006F6E20206E6167617469762068616C66B4
:100A800077617665205B2D565D0072656164204359
:100A900050205B565D00757365202270696C6F7421
:100AA0007321222F2270696C6F79737E2220746FFC
:100AB00020656E2F64697361626C65207065726970
:100AC0006F6469632070696C6F742072656164691A
:100AD0006E6700757365202273696772656C2122E9
:100AE0002F2273696772656C7E2220746F20656E99
:100AF0002F64697361626C6520746865207369672F
:100B00006E616C2072656C6179007573652022637B
:100B10006373646D70212220746F20747261636B43
:100B2000204343532073746174652070726F677241
:100B3000657373007365742F67657420626F6172EB
:100B400064207265766973696F6E00726561642FE7
:100B5000777269746520696E7374616C6C6564206A
:100B6000636F6E746163746F7273205B312C20321B
:100B7000206F7220335D00726561642F7772697433
:100B80006520696E7374616C6C6564207068617354
:100B90006573205B646563696D616C20656E636F6E
:100BA00064696E675D00726561642F777269746550
:100BB00020696E7374616C6C6564206D61782E20A1
:100BC00063757272656E745B3130306D415D0075B6
:100BD0007365202273617665212220746F20736112
:100BE000766520636F6E66696775726174696F6E92
:100BF00020746F20454550524F4D0072656164204E
:100C00006572726F7220666C6167732C2073656504
:100C1000206465636C61726174696F6E2022675F26
:100C20006572726F722200726561642F77726974E7
:100C3000652064796E2E2070686173657320616C25
:100C40006C6F6361746564205B646563696D616C7E
:100C500020656E636F64696E675D00726561642F05
:100C600077726974652064796E2E206D61782E200C
:100C700063757272656E7420617661696C61626C15
:100C800065205B3130306D415D002D2D2D20646974
:100C9000746F20666F72204C33002D2D2D206469F7
:100CA000746F20666F72204C32007265616420633D
:100CB000757272656E7420647261776E206F6E203B
:100CC0004C31205B31306D415D007265616420659F
:100CD0006E61626C65642070686173656420617325
:100CE000207365742062792053535273205B6465CE
:100CF00063696D616C20656E636F64696E675D2901
:100D00000072656164206D61782E20637572726572
:100D10006E74207369676E616C656420746F204522
:100D20005620766961204350205B3130306D415D43
:100D300000726561642050502C20692E652E2C2095
:100D40006D61782E206361626C6520636170616300
:100D5000697479205B3130306D415D00726561648A
:100D6000204343532073746174652C2073656520A0
:100D70007479706564656620226363735F73746160
:100D800074655F742200726561642041565220567A
:100D90004343205B6D565D0072656164204156528D
:100DA000206469652074656D706572617475722068
:100DB0005B435D00726561642F73657420737973A2
:100DC00074696D6520696E205B6D735D006F76657B
:100DD0007277726974652073746174757320696EBB
:100DE00064696361746F722028455350333229005F
:100DF0006F76657277726974652073746174757348
:100E000020696E64696361746F72202872656D6F0A
:100E1000746520686F7374290072656164206F7552
:100E200074206669726D7761726520766572736988
:100E30006F6E000011241FBECFEFCDBFDFE3DEBF1A
:100E400018E2A0E0B8E2E9E2F6E402C005900D92F3
:100E5000A035B107D9F721E3A0E5B8E201C01D92A2
:100E6000AD33B207E1F70E94E41E0C94B3210C9459
:100E70000001892B41F088ED84BF809141008160A1
:100E800080934100FFCF90E080E0089528E0009734
:100E900019F02093060408952093050408952091E5
:100EA0008A0A30918B0A273B3340C8F780938C28FD
:100EB00090938D288093BE289093BF2808958091A9
:100EC00035288B7F19F083E0809335280895CF93E0
:100ED000DF93EC01892B69F080913528823029F06D
:100EE000843019F081E080933528CE01DF91CF91D5
:100EF00008950E945F07F9CF0F931F93CF93DF935D
:100F0000FC01009709F46EC0EC0130E020E00AE03B
:100F100010E01C161D0684F0809147289091482807
:100F20008130910501F54091492850914A28E417F4
:100F3000F50739F580E442C0CE01B8010E94C61F12
:100F40008230910561F08330910559F0019709F4E1
:100F50002160CE01B8010E94C61FEB01DACF2260EA
:100F6000F8CF2460F6CF8230910589F4E130F105A5
:100F700001F14091492850914A2880E2E417F50791
:100F8000E9F080E030E020E050E040E017C0039757
:100F900099F48091492890914A28853691058CF3DF
:100FA00080E020FD80E421FD806222FD8061AF01B0
:100FB00005C041E050E0BECFAF0180E08093050462
:100FC00090E78927809306044093AE285093AF287A
:100FD0002093AC283093AD28CF01DF91CF911F91A2
:100FE0000F91089580E7809306041092AE28109226
:100FF000AF281092AC281092AD28EECF2091A628F1
:101000003091A7282817390721F12FEF3FEF2093C0
:10101000332830933428209331283093322820937A
:101020002F283093302820932D2830932E2820937A
:101030002B2830932C282093292830932A2810928B
:10104000A5281092A4281092A3288093A6289093F4
:10105000A7280895209192283091932828173907BE
:10106000F1F02FEF3FEF209327283093282820938B
:101070002528309326282093232830932428209352
:101080001B2830931C282093192830931A2820936A
:1010900017283093182880939228909393280895C6
:1010A000E0E0FAE081818F7B81831092902810929A
:1010B000912890E080E00895009711F40C94500876
:1010C000209190283091912828173907A1F16AE0E2
:1010D000689FA001699F500D1124CA01039666E024
:1010E00070E00E94C61F643671052CF1633583E001
:1010F000780714F062E573E025E0269FC001279F82
:10110000900D112480933C0A90933D0A8091010A2E
:1011100080648093010A26E0269FC001279F900DDE
:10112000112405966AE070E00E94C61F9B0160933F
:10113000902870939128C901089588ED84BF81E0BB
:10114000809361008091630080FDFCCF0895E0E60C
:10115000F4E080E1828388E0818308958091BC2857
:1011600021E030E0893010F026E130E08E518A3005
:1011700010F425E130E08091B8289091B928892BAE
:1011800011F024E130E08091392890913A28181626
:1011900019060CF49C018091372890913828181674
:1011A000190654F125313105C1F08091BE28909186
:1011B000BF2860ED77E00E94C61F253131058CF411
:1011C00064E670E00E94C61F6217730724F088E08F
:1011D000809366040895C297D4F788E080936504ED
:1011E00008952631310551F464EF71E00E94C61F65
:1011F0008A3F910564F7F1CF9C01D4CF0895909177
:10120000680481E0292F207194FF80E09091832869
:10121000981317C0909182289F5F90938228909195
:101220008228923369F4222339F090918128911118
:1012300003C091E09093B728809381281092822870
:1012400008958093832810928228E9CFE0E0F8E0A7
:101250008BE591E08087918783E087838581806833
:101260008583A0E0B4E081E011968C93119782E031
:1012700012968C938681806C868308951F920F92BC
:101280000FB60F9211248F939F93EF93FF93E091EA
:10129000B62891E09E0F9093B628F0E0E651FF4CFF
:1012A0008081882311F0933590F0809105088F7D1F
:1012B000809305081092B6281092B528FF91EF91FF
:1012C0009F918F910F900FBE0F901F901895809354
:1012D0000208F4CF9091B52891110CC0E091B62886
:1012E000E03540F491E09E0F9093B628F0E0E6518F
:1012F000FF4C808308958091B528811129C0E09129
:10130000B628AE2FB0E0A651BF4C8DE08C93A1E083
:10131000AE0FB0E0A651BF4C8AE08C93EE5FF0E0D8
:10132000E651FF4C10821092B62881E08093B528D8
:101330008091040885FFFCCF80910508806280932E
:1013400005088091B428882319F08091B528FBCF37
:1013500008958091B5288111FCCF81E08093B42855
:1013600081E090E080933B2890933C280895809101
:10137000B5288111FCCF1092B42881E090E08093D1
:101380003B2890933C280895CF93DF932091B52874
:10139000DC01222371F0DF91CF91089581E08E0F5F
:1013A0008093B628ED0121978881F0E0E651FF4C4B
:1013B00080838D91882379F3E091B628E03570F32E
:1013C000EACFFC018091B52881110BC09091B6281D
:1013D000A92FB0E0A651BF4C8491811103C0909316
:1013E000B62808959035D8F79F5F8D933196F4CF46
:1013F0000E94E1090C947B099C018091B528811120
:101400000FC09091B628E92FF0E0E651FF4C80E242
:10141000AF014A5E5043421753071CF09093B62821
:1014200008959035D8F79F5F8193F2CFEF92FF92A6
:101430000F931F93CF93DF93EC018091B528811117
:101440000FC0E091B628209729F5E03548F481E0F7
:101450008E0F8093B628F0E0E651FF4C80E3808346
:10146000DF91CF911F910F91FF90EF900895415020
:101470005109C901A1F40E2F10E006511F4C8AE05A
:10148000E82EF12C2115310511F0E03590F0E093B4
:10149000B628E6CF44E050E081E090E06AE0689F43
:1014A0009001699F300D1124C217D30700F79C01EA
:1014B000E2CFCE01B9010E94B21FEF5F605DD8019B
:1014C0006D938D01EC01C901B7010E94B21F9B0110
:1014D000D9CF2091B528211124C0009771F4E09153
:1014E000B628E035F0F481E08E0F8093B628F0E066
:1014F000E651FF4C80E38083089597FF10C0E09190
:10150000B628E03570F491958195910921E02E0F70
:101510002093B628F0E0E651FF4C2DE220830C9496
:10152000160A08954F925F926F927F928F929F92C8
:10153000AF92BF92CF92DF92EF92FF920F931F93E1
:10154000CF93DF934B015C018091B528811112C0CC
:10155000C091B62881149104A104B104A1F5C0354D
:1015600048F481E08C0F8093B628D0E0C651DF4C60
:1015700080E38883DF91CF911F910F91FF90EF90CF
:10158000DF90CF90BF90AF909F908F907F906F90A3
:101590005F904F9008953197DC2D7D2C8701C9F421
:1015A0000C2F10E006511F4C8AE0482E512C612C64
:1015B000712CC114D104E104F10411F0C035D8F04C
:1015C000C093B628D7CFE9E0F0E0D1E0712C00E07D
:1015D00010E0AAE0B0E02D2F372DA8010E941A20BC
:1015E0006B017C018C149D04AE04BF04A0F6CD2ECB
:1015F000D72C7801D5CFC501B401A70196010E946F
:10160000DA1FCF5F205DF80121938F014B015C0150
:10161000C701B601A30192010E94DA1F69017A0194
:10162000C8CF2091B52821112BC061157105810506
:10163000910571F4E091B628E03510F581E08E0F48
:101640008093B628F0E0E651FF4C80E38083089554
:1016500097FF14C0E091B628E03590F490958095FE
:10166000709561957F4F8F4F9F4F21E02E0F2093F4
:10167000B628F0E0E651FF4C2DE220830C94920A4C
:1016800008952F923F924F925F926F927F928F9226
:101690009F92AF92BF92CF92DF92EF92FF920F9301
:1016A0001F93CF93DF93CDB7DEB72E97CDBFDEBFAD
:1016B0008D879E87019799F480919A2890919B2815
:1016C000883E934021F480919C28882359F00E9401
:1016D000A90983E397E00E94F8090E94B7091D86D3
:1016E0001E8665C181E297E00E94F8094AE159E24D
:1016F00049835A834AEE50E36AE1262E69E2362E88
:1017000080E090E0DC01F101019111911F01012EB7
:10171000000C220B330B800F911FA21FB31F4E171B
:101720005F0789F7BC01CD016C507E4F8F4F9F4FF3
:1017300028EE33E040E050E00E94DA1F2B833C8328
:101740004D835E832B813C812B873C8740911A29F6
:1017500050911B29421B530BC12CD12C7601812C9B
:10176000912C5401412C512C3201A981BA810D9147
:101770001D91A983BA83EB85FC850E1B1F0B980175
:10178000D8010E94FC1F460E571E681E791EC80114
:10179000841B950B092E000CAA0BBB0BBA2FA92F8B
:1017A000982F8827880D991DAA1DBB1D492F5A2FD8
:1017B0006B2F772767FD7A954C015D01841A950A96
:1017C000A60AB70AC501B40142E0959587957795B9
:1017D00067954A95D1F797FF07C0909580957095CA
:1017E00061957F4F8F4F9F4F9B01AC010E94A21FBD
:1017F0009B01AC019AE056954795379527959A95A8
:10180000D1F72F83388749875A87C20ED31EE41E2B
:10181000F51E0E94A9098BE197E00E94E1098091E1
:101820009828909199280E94690A89E197E00E947E
:10183000E109C8010E94690A84E197E00E94E10978
:10184000C501B4010E94110B8CE097E00E94E109F0
:101850006F81788589859A850E94920A84E097E055
:101860000E94E109C701B6010E94920A8CEF96E03E
:101870000E94E109C301B2010E94920A8AEF96E038
:101880000E94E1090E947B090E94B709A801898191
:101890009A812816390609F068CFC301B20163584E
:1018A0007F4F8F4F9F4F2AEF30E040E050E00E9483
:1018B000DA1FCA01B9010E94C1200E94552120E00F
:1018C00030E040E05FE30E9426200E9492209B01CE
:1018D000A4ECB9E00E94042061507C4F8F4F9F4FD1
:1018E0002FEF37E040E050E00E94DA1F4901C701C6
:1018F000B60128EE33E040E050E00E94DA1FCA0152
:10190000B9010E94C1200E94552120E030E040E052
:101910005FE30E9426200E9492209B013695279526
:10192000A4ECB9E00E94042061507E4F8F4F9F4F7E
:101930002FEF33E040E050E00E94DA1F69010E947F
:10194000A90981EF96E00E94E109C6010E94160AEA
:1019500086EE96E00E94E109C4010E94160A8BED12
:1019600096E00E94E1098B819C810E94160A83ED1A
:1019700096E00E94E10988EE93E00E94690A84ECF7
:1019800096E00E94E10980919428909195282091F9
:10199000962830919728821B930B0E94690A80EC4D
:1019A00096E00E94E1090E947B090E94B7098D859B
:1019B0009E852E96CDBFDEBFDF91CF911F910F91F7
:1019C000FF90EF90DF90CF90BF90AF909F908F905F
:1019D0007F906F905F904F903F902F9008951F924F
:1019E0000F920FB60F9211248F939F93EF93FF9353
:1019F000809100089091B228911107C08D3029F094
:101A00008A3061F481E08093B228FF91EF919F9139
:101A10008F910F900FBE0F901F901895E091B328F3
:101A2000E03598F791E09E0F9093B328F0E0E853EB
:101A3000F74D8083EACF1092B3281092B228089510
:101A40008091B228882391F08091B228813061F48E
:101A5000E091B328F0E0E853F74D108282E08093E4
:101A6000B22888EC98E208950E941B0D90E080E077
:101A70000895FC01EE0FFF1FFF27F4618081918123
:101A800008952091B0283091B128260F371F209358
:101A9000B0283093B128FC01EE0FFF1FFF27F4613F
:101AA000608371838DE984BF83E08093001080910F
:101AB000021081FDFCCF0895CF93DF93009709F4C6
:101AC0009AC08091BC28843108F098C08FB78F7776
:101AD0008FBF1092B0281092B12860914D2870915C
:101AE0004E2890E080E00E94410D60914B2870915B
:101AF0004C2881E090E00E94410D6091492870914E
:101B00004A2882E090E00E94410D60914728709140
:101B1000482883E090E00E94410D60914328709135
:101B2000442884E090E00E94410D60914528709126
:101B3000462885E090E00E94410D6091C628709192
:101B4000C72886E090E00E94410D60914128709185
:101B5000422887E090E00E94410D60913F287091FB
:101B6000402888E090E00E94410D6091C428709167
:101B7000C52889E090E00E94410D60913D28709158
:101B80003E288AE090E00E94410D6091C228709149
:101B9000C3288BE090E00E94410D6091B0287091C5
:101BA000B1288CE090E00E94410D8FB780688FBF14
:101BB0001092B0281092B128D0E0C0E0CE010E946F
:101BC000390D2091B0283091B128820F931F809356
:101BD000B0289093B1282196CC30D10579F731E027
:101BE00020E040911814509119144817590709F032
:101BF00030E0832F922FDF91CF91089590E080E025
:101C0000FACFCF93DF931092B0281092B128D0E092
:101C1000C0E0CE010E94390D2091B0283091B1284A
:101C2000820F931F8093B0289093B1282196CC30D7
:101C3000D10579F720911814309119148217930760
:101C400061F08091B8289091B92884608093B82879
:101C50009093B928DF91CF910895809100149091CD
:101C6000011480934D2890934E28809102149091F6
:101C7000031480934B2890934C28809104149091E6
:101C800005148093492890934A28809106149091D6
:101C900007148093472890934828809108149091C6
:101CA0000914809343289093442880910A149091BA
:101CB0000B14809345289093462880910C149091A2
:101CC0000D148093C6289093C72880910E1490918C
:101CD0000F14809341289093422880911014909182
:101CE000111480933F289093402880911214909172
:101CF00013148093C4289093C52880911414909154
:101D0000151480933D2890933E288091161490914D
:101D100017148093C2289093C3289CCFE0E0F4E08E
:101D200080E78183868388E08183858380E881835F
:101D30008583E0E4F4E084E081838583809362041A
:101D400081E08093A2040895882331F0813059F016
:101D500090E89093050403C090E89093060494E003
:101D60009093450406C090E89093050494E0909306
:101D7000460480933628089560914528709146283E
:101D8000409135286115710531F08091432890917B
:101D90004428009769F4433011F41092352880915B
:101DA0003528813009F094C182E080933528089568
:101DB00020913628223009F0B8C02091680422FB17
:101DC000222720F9309114282313AAC030918028AB
:101DD0003F5F30938028309180283A3020F0109275
:101DE00080282093132820911228241789F141304C
:101DF00009F0A2C083E080937F282091C028309111
:101E0000C12820937D2830937E28260F371F2093EA
:101E10007B2830937C282C503E4F20937928309398
:101E20007A28CB018C53964F28EE33E0B9010E94FB
:101E3000B21F6F5F7F4F629FC001639F900D729FC3
:101E4000900D11248093102890931128409312280C
:101E5000413081F58091C0289091C12820917D2842
:101E600030917E288217930708F481C0821B930B60
:101E700097FF85C08091C0289091C12820917B2830
:101E800030917C288217930708F487C0821B930B3C
:101E900097FF8BC08091C0289091C128209179280C
:101EA00030917A288217930708F48DC0821B930B18
:101EB00097FF91C080913528833009F009C1809146
:101EC000C0289091C12820917D2830917E288217CA
:101ED000930708F4A6C0821B930B97FFAAC08091BA
:101EE000C0289091C12820917B2830917C288217AE
:101EF000930708F4ACC0821B930B97FFB0C080918E
:101F0000C0289091C1282091792830917A28821791
:101F1000930708F4B2C0821B930B97FFB5C00895D6
:101F2000209314281092802856CF21E02093142863
:101F3000109280282FEF55CF433009F087CF2AE049
:101F400020937F282091C0283091C12820937D289C
:101F500030937E28280F391F20937B2830937C28CC
:101F60002C503E4F2093792830937A285BCFA901DB
:101F7000481B590BCA018130904808F47BCF8091EF
:101F8000102890911128280F391F20937D28309315
:101F90007E2881E00E94A40E6DCFA901481B590B39
:101FA000CA018130904808F475CF80911028909133
:101FB0001128280F391F20937B2830937C2882E03A
:101FC0000E94A40E67CFA901481B590BCA0181309A
:101FD000904808F46FCF8091102890911128280F15
:101FE000391F2093792830937A28809113288130E3
:101FF00021F482E0809335285DCF80917F28815045
:1020000080937F28811156CF83E08093352880917B
:10201000B8289091B92881608093B8289093B92806
:1020200049CFA901481B590BCA018130904808F4D7
:1020300056CF8091102890911128280F391F209396
:102040007D2830937E2880E00E94A40E48CFA9010D
:10205000481B590BCA018130904808F450CF809139
:10206000102890911128280F391F20937B28309336
:102070007C2882E00E94A40E42CFA901481B590B84
:10208000CA018130904820F1809110289091112848
:10209000280F391F2093792830937A2880911328AC
:1020A000811103C010923528089580917F288150B6
:1020B00080937F2881110CC084E080933528809123
:1020C000B8289091B92881608093B8289093B92856
:1020D00008958091A80480FD0EC080E00E94A40EA7
:1020E00090E080E00E947C070E94A90987EA97E0BF
:1020F0000E94F809FFCF0895E0EAF0E08081806255
:102100008083808182608083818182608183E0E836
:10211000F6E08081816080838FEF84830895E0E61C
:10212000F4E081E082838089887F808B808984606D
:10213000808B8089877F808B82E082838189887F02
:10214000818B81898460818B8189877F818B0895D0
:102150008091BD2881117AC01092000684E080939E
:1021600001061092020680910206836080930206A7
:10217000809102068093020680910206806480931B
:102180000206109203068091030680668093030680
:10219000809103068061809303068FE1809305069A
:1021A0008EE18093060610920A06809100068160F7
:1021B00080930006809108068160809308068091D4
:1021C0000B0680FFFCCF609110067091110690E025
:1021D00080E024E0660F771F881F991F2A95D1F7AA
:1021E000685C7F4F8F4F9F4F20E730E040E050E02A
:1021F0000E94DA1F80912111A0912011082E000C5D
:10220000990B281B390BB0E00E940420DC01CB01A4
:1022100080589F4FAF4FBF4F892F9A2FAB2FBB27AF
:1022200081519140A109B1098093AA289093AB28CC
:10223000809100068E7F8093000680910206806167
:10224000809302061092BD2881E0089580E00895F1
:102250008091BD2881115BC01092000684E08093BC
:1022600001061092020680910206836080930206A6
:10227000809102068061809302068091020680644C
:102280008093020610920306809103068066809375
:102290000306809103068061809303068FE180939B
:1022A00005068CE18093060610920A0680910006CE
:1022B0008160809300068091080681608093080603
:1022C00080910B0680FFFCCF209110063091110603
:1022D000B9017695679590E080E0645A7C40824928
:1022E0009D4F50E040E00E94DA1F2093A8283093D1
:1022F000A928809100068E7F8093000680910206B7
:102300008061809302061092BD2881E0089580E0EC
:102310000895CF93DF938091C0289091C128C091F8
:102320007728D09178288C179D0738F08C1B9D0B4F
:1023300097FF0AC0DF91CF9108959E01281B390BAA
:10234000C90181309048B0F380917628882369F0E4
:102350000E94A810882371F3C05FD84DC0937728DE
:10236000D093782810927628E5CF0E9428118823F0
:1023700009F3C05FD84DC0937728D093782881E0C7
:1023800080937628D7CFEF92FF920F931F93CF932E
:10239000DF938091BD28811178C191E09093BD2891
:1023A0001092000682E0809301061092020680914E
:1023B000020682608093020680910206806180930B
:1023C0000206809102068064809302061092030642
:1023D00080910306806280930306809103068061EA
:1023E000809303061092050610920A06809100065B
:1023F000816080930006909306068091200A909158
:10240000210A8A3F9105C8F38091200A9091210A00
:102410008A3F9105C8F781E08093080680910B06FA
:1024200080FFFCCF809110069091110695958795BD
:10243000959587958093A1289093A2280CE010E0B1
:102440008E3523E0920784F49C012C50334009E040
:1024500010E02633310540F08A5B92400FEF1FEF0A
:10246000C69710F406E010E080912D2890912E2858
:102470008017910709F0F4C08091A5288F5F8093A1
:10248000A5288091A528863018F085E08093A5289E
:102490008091A528853021F40093332810933428A7
:1024A0008091200A9091210A8E389241C8F381E0F0
:1024B0008093080680910B0680FFFCCF8091100668
:1024C00090911106959587959595879580939F286E
:1024D0009093A0288E5D9109EE24EA94FE2CC59776
:1024E00018F43CE0E32EF12C80912B2890912C28BD
:1024F0008E159F0509F0BBC08091A4288F5F809343
:10250000A4288091A428863018F085E08093A42820
:102510008091A428853021F4E0923128F09232286D
:102520001092060681E08093080680910B0680FFDA
:10253000FCCF809110069091110695958795959501
:10254000879580939D2890939E28C2E8D0E0853D92
:1025500023E09207BCF49C0125503140C8ECD0E048
:102560002B3D310578F022593F4FC0E4D1E02534AE
:10257000310540F08C549109CFEFDFEF8C9710F4C8
:10258000C6E7D2E08091292890912A288C179D07D0
:1025900009F074C08091A3288F5F8093A328809155
:1025A000A328863018F085E08093A3288091A32883
:1025B000853021F4C0932F28D093302880910006D5
:1025C0008E7F809300061092BD28809175288F5FC2
:1025D000809375282091C2283091C328232BF1F1D4
:1025E0008536E0F1109275280E94A90986E997E0E6
:1025F0000E94E10980E997E00E94E109C8010E9478
:10260000690A80E40E946A098091A1289091A22819
:102610000E94690A89E897E00E94E109C7010E94C7
:10262000690A80E40E946A0980919F289091A028FD
:102630000E94690A82E897E00E94E109CE010E94A7
:10264000690A80E40E946A0980919D2890919E28E1
:102650000E94690A0E947B090E94B70981E016C0A6
:1026600000932D2810932E281092A5280ACFE092CF
:102670002B28F0922C281092A42843CFC09329280D
:10268000D0932A281092A3288ACF80E0DF91CF919F
:102690001F910F91FF90EF900895CF93DF9380915A
:1026A000C0289091C128C0917328D091742820919E
:1026B000A6283091A728232BB9F48C179D0738F052
:1026C0008C1B9D0B97FF0AC0DF91CF9108959E014F
:1026D000281B390BC90181309048B0F36096C09334
:1026E0007328D0937428F0CF8C179D0748F08C1B6B
:1026F0009D0B97FDE9CF0E94C3118111EFCFE4CF6D
:102700009E01281B390BC90181309048A0F7DCCF0E
:10271000E0E6F4E080E282838589887F858B858985
:102720008460858B8589877F858B80E48283868919
:10273000887F868B86898460868B8689877F868B57
:1027400080E882838789887F878B87898460878BED
:102750008789877F878B089590919C28911152C01B
:102760009091BD2891114EC091E09093BD28109298
:1027700000061092010610920206909102069260E5
:1027800090930206909102069093020690910206A1
:10279000906490930206109203069091030690684D
:1027A000909303069AE090930506282F30E082303C
:1027B00019F1833019F1813019F585E0809306060F
:1027C000209398283093992891E090930A0680915D
:1027D000000681608093000610929A2810929B2830
:1027E0002091C0283091C1282093962830939728B3
:1027F00090939C2881E0089586E0E0CF87E0DECFCB
:102800001092BD2880E00895019729F481E00E948C
:10281000AC1390E0089590E080E00895019729F4CA
:1028200082E00E94AC1390E0089590E080E008956B
:10283000019729F483E00E94AC1390E0089590E0A2
:1028400080E008951F920F920FB60F9211242F93DC
:102850003F934F935F938F939F93EF93FF93409199
:1028600010065091110680919C28813001F58091CD
:102870009A2890919B289C012F5F3F4F20939A2884
:1028800030939B28880F991FFC01E65EF64D40832C
:102890005183283E33405CF082E080939C288091F5
:1028A000C0289091C1288093942890939528FF91F7
:1028B000EF919F918F915F914F913F912F910F9049
:1028C0000FBE0F901F9018958F929F92AF92BF925C
:1028D000CF92DF92EF92FF920F931F9380919C28EB
:1028E000823061F540910E2850910F2857FF3CC06F
:1028F000EAE1F9E24AEE50E380E090E0DC014E17B5
:102900005F0739F5BC01CD016C507E4F8F4F9F4F53
:1029100028EE33E040E050E00E94DA1F20930C28BC
:1029200030930D2810926F28109270281092712801
:102930001092722810920E2810920F281F910F915A
:10294000FF90EF90DF90CF90BF90AF909F908F90CF
:10295000089501911191012E000C220B330B800F71
:10296000911FA21FB31FCBCF483E23E05207ECF5C7
:102970008A010C591F4F093E83E0180714F008EE36
:1029800013E0E0900C28F0900D2880906F28909034
:102990007028A0907128B0907228FA01EE0FFF1FE6
:1029A000E65EF64D401751076CF080926F289092CA
:1029B0007028A0927128B092722840930E285093EC
:1029C0000F28BCCFA191B191AE19BF09B7FF03C0C9
:1029D000B195A195B1099D010E94FC1F860E971E1D
:1029E000A81EB91E4F5F5F4FDDCF483E23E0520760
:1029F00059F560916F28709170288091712890919D
:102A0000722863587F4F8F4F9F4F2AEF30E040E08E
:102A100050E00E94DA1FCA01B9010E94C1200E9441
:102A2000552120E030E040E05FE30E9426200E9434
:102A3000922060936D2870936E2889EE93E08093C6
:102A40000E2890930F287ACF493E534009F076CF55
:102A5000E0916D28F0916E28DF012EEC38E341E023
:102A600050E00E941A206B017C0120E8D20EE11C8C
:102A7000F11C6701EE24FF24A0914128B091422867
:102A80009F010E94132000913F2810914028012EA1
:102A9000000C220B330BDC01CB01800F911FA21F16
:102AA000B31F9E5FAF4FBF4F2AE0B595A79597958F
:102AB00087952A95D1F78A30910514F490E080E04B
:102AC00020919828309199282230310509F4B0C01E
:102AD0002330310509F4B9C02130310561F4E093A8
:102AE0002728F0932828C0922128D092222880936A
:102AF0001B2890931C2810929C281092BD288FEFC1
:102B00009FEF80930E2890930F288091C628909174
:102B1000C728892B09F412CF0E94A9098BE797E0F7
:102B20000E94E10980911B2890911C2897FD22C0EA
:102B300085E797E00E94E10980911B2890911C286D
:102B40000E94160A82E797E00E94E10980912128FD
:102B5000909122280E94160A8EE697E00E94E109D1
:102B600080912728909128280E94160A8BE697E0EA
:102B70000E94E1098091192890911A2897FD22C09E
:102B800085E697E00E94E1098091192890911A2822
:102B90000E94160A82E697E00E94E10980911F28B0
:102BA000909120280E94160A8EE597E00E94E10984
:102BB00080912528909126280E94160A8BE597E09F
:102BC0000E94E109809117289091182897FD22C052
:102BD00085E597E00E94E1098091172890911828D7
:102BE0000E94160A82E597E00E94E10980911D2863
:102BF00090911E280E94160A8EE497E00E94E10937
:102C000080912328909124280E94160A8BE497E053
:102C10000E94E1090E947B091F910F91FF90EF90A4
:102C2000DF90CF90BF90AF909F908F900C94B7099A
:102C3000E0932528F0932628C0921F28D0922028C0
:102C40008093192890931A2856CFE0932328F09365
:102C50002428C0921D28D0921E2880931728909374
:102C6000182849CF0F931F93CF93DF93C0910A2861
:102C7000D0910B288091922890919328892BF9F478
:102C800010929C288091C0289091C1288C179D0794
:102C900048F08C1B9D0B97FF0CC0DF91CF911F91CB
:102CA0000F9108959E01281B390BC901813090486E
:102CB000A0F3DC5FC0930A28D0930B28EECF0E94CC
:102CC00064148091C0289091C1288C179D07B8F09A
:102CD0008C1B9D0B97FDE1CF0091082810910928CE
:102CE000802F0E94AC138823C1F20F5F1F4F043066
:102CF00011056CF40093082810930928DACF9E017F
:102D0000281B390BC9018130904830F7C6CF81E0CC
:102D100090E08093082890930928CBCFE0E0F4E07E
:102D200084E0818385831092E405E0E0FAE080810D
:102D3000808381818760818388E893E186A397A35C
:102D400084EF91E084A795A781818F7B8183808127
:102D5000816080830895E0E8FAE01082118281E0CA
:102D6000858388EE93E08487958780818160808366
:102D700008951F920F920FB60F9211242F938F93E5
:102D80009F9380919C28813029F48091080681606E
:102D90008093080680916C288F5F80936C288A301E
:102DA00068F48091860A81608093860A9F918F9152
:102DB0002F910F900FBE0F901F90189510926C28B6
:102DC00080918E2890918F28019680938E289093E1
:102DD0008F2880918C2890918D28019680938C2843
:102DE00090938D2880918C2890918D2880339547E1
:102DF000C4F210928C2810928D28D3CF80918A0A29
:102E000090918B0A873B9340C8F780918E289091D0
:102E10008F288093C0289093C12880918C2890910E
:102E20008D288093BE289093BF2808958091C02854
:102E30009091C128209188283091892880938828F2
:102E40009093892840913B2850913C28452BC1F410
:102E5000821B930B20911528309116288217930717
:102E600020F4809315289093162820918A28309179
:102E70008B282817390720F480938A2890938B2871
:102E800010923B2810923C2808958CEA96E00E940C
:102E9000E10980911528909116280E94160A8FE268
:102EA0000E946A0980918A2890918B280E94160AB4
:102EB0000E947B098FEF9FEF80931528909316282F
:102EC00010928A2810928B2881E090E080933B2812
:102ED00090933C280895CF93DF932091C42830919C
:102EE000C528232B61F0EC010E94A909CE010E94A4
:102EF000E1090E947B09DF91CF910C94B709DF9122
:102F0000CF91089580914B2890914C2880938628EA
:102F1000909387288091492890914A28809384280B
:102F2000909385281092BC280895CF93DF938091C9
:102F30004B2890914C282091862830918728821721
:102F4000930724F480938628909387288091BC2847
:102F5000811118C08091902890919128892B09F4B3
:102F600038C481E08093BC288DE996E00E946B17FD
:102F70008091C0289091C1288854944F80936A28EA
:102F800090936B288091BC28813091F40E94500866
:102F90002091C0283091C12880916A2890916B2897
:102FA0002817390708F41DC4281B390B37FF1FC425
:102FB0008091BC28823071F590E080E00E947C070F
:102FC00090E080E00E942A080E94500890E080E093
:102FD0000E94FE0788E0809305040E945F0710921C
:102FE000682810926928109266281092672810921B
:102FF00064281092652810926228109263288091AC
:103000003528811107C085E696E00E946B1783E0A2
:103010008093BC288091BC28833069F48091B728C4
:10302000882349F088E596E00E946B171092B72834
:103030008AE08093BC288091BC288930E9F490E034
:1030400080E00E947C0790E080E00E942A080E94B5
:10305000500890E080E00E94FE0788E0809305041D
:103060008091B728882341F089E496E00E946B178D
:103070001092B7281092BC288091BC288A3051F554
:1030800090E080E00E947C0790E080E00E942A08A7
:1030900081E090E00E94FE070E94500888E0809343
:1030A00006041092682810926928109264281092E1
:1030B00065288091C0289091C128805D9A488093AE
:1030C0006028909361288EE396E00E946B178BE056
:1030D0008093BC288091BC288B3081F58091332867
:1030E00090913428099771F480912F28909130287D
:1030F000181619063CF483E396E00E946B1784E1EE
:103100008093BC282091C0283091C12880916028EC
:10311000909161282817390708F471C3281B390BCF
:1031200037FF73C38091B728882341F086E096E08B
:103130000E946B171092B7281092BC288091BC286F
:10314000843109F045C090E080E00E947C0790E067
:1031500080E00E942A0881E090E00E94FE0788E05B
:103160008093060481E090E00E946707109268282F
:103170001092692810926428109265288091352851
:10318000823031F58091862890918728CC970CF475
:1031900044C380912F2890913028CC970CF43DC3E4
:1031A0008091842890918528892B09F436C38091D9
:1031B000C0289091C128805F984D80935E2890939D
:1031C0005F288BEF95E00E946B1785E18093BC2808
:1031D0008091BC28853109F042C020918628309129
:1031E0008728209364283093652880912F28909118
:1031F00030288217930724F48093642890936528DD
:1032000080916428909165280E945C088091332801
:1032100090913428069739F483ED95E00E946B175E
:103220008EE18093BC288091B728882341F08DEBF4
:1032300095E00E946B171092B7281092BC2820913D
:10324000C0283091C12880915E2890915F2828176E
:10325000390708F4E8C2281B390B37FFEAC280910E
:10326000BC288E31C1F48091642890916528CC9758
:103270005CF08091842890918528892B29F0809199
:103280003528823009F4DDC280E995E00E946B1791
:103290008AE58093BC288091BC288F3109F051C009
:1032A000C0918428D0918528C0936828D09369283C
:1032B00080916428909165280E945C0888E0809342
:1032C000060481E090E00E94FE07CE010E947C0788
:1032D0008091AE289091AF28C817D90739F088E6B9
:1032E00095E00E946B178AE58093BC2881E090E00E
:1032F0000E942A088DE595E00E946B1780E280937A
:10330000BC288091C0289091C128805F984D8093FF
:103310005C2890935D288091AC289091AD28809393
:103320006628909367288FEF9FEF80935A28909399
:103330005B2880935828909359288093562890931F
:1033400057288091BC28803209F080C080911B28CA
:1033500090911C2820915A2830915B282817390712
:1033600024F480935A2890935B2880911928909197
:103370001A2820915828309159282817390724F401
:103380008093582890935928809117289091182855
:1033900020915628309157282817390724F4809314
:1033A0005628909357288091332890913428099774
:1033B00021F580915A2890915B28209158283091CE
:1033C0005928820F931F2091562830915728820F39
:1033D000931F20913D2830913E28821793076CF46B
:1033E0008091AC289091AD28079739F080E495E062
:1033F0000E946B1788E28093BC28809133289091BB
:103400003428069739F08AE295E00E946B1789E02C
:103410008093BC288091B728882341F084E195E00F
:103420000E946B171092B7281092BC282091C028D8
:103430003091C12880915C2890915D282817390728
:1034400008F405C2281B390B37FF07C28091BC283E
:10345000813209F07AC0109262281092632880911C
:10346000332890913428069751F18091C228909189
:10347000C328892BE9F00E94A9098AED94E00E94F3
:10348000E10984ED94E00E94E10980913328909154
:1034900034280E94690A80E40E946A098091A12868
:1034A0009091A2280E94690A0E947B090E94B70994
:1034B0008EEB94E00E946B1789E08093BC2880918A
:1034C000B728882341F088EA94E00E946B17109295
:1034D000B7281092BC2880912F28909130288C33E7
:1034E00091050CF0E5C110926428109265281092A5
:1034F0006828109269288091C2289091C328892B4E
:10350000E9F00E94A90986E994E00E94E10980E9B6
:1035100094E00E94E10980912F28909130280E9428
:10352000690A80E40E946A0980919D2890919E28F2
:103530000E94690A0E947B090E94B70984E794E00F
:103540000E946B1788E28093BC288091BC28883247
:1035500099F40E9450088091C0289091C128805F02
:10356000984D80936A2890936B2884E394E00E949E
:103570006B1789E28093BC288091BC28893219F5A9
:103580008091B728882341F087E294E00E946B176E
:103590001092B7281092BC282091C0283091C128E1
:1035A00080916A2890916B282817390708F4BAC1CE
:1035B000281B390B37FFBCC18091332890913428E8
:1035C000069709F0B5C18091BC28823329F590E0B7
:1035D00080E00E947C0788E08093050490E080E012
:1035E0000E942A0880916228909163280196809316
:1035F0006228909363288091C0289091C128805FB1
:10360000984D809354289093552881E194E00E942E
:103610006B1783E38093BC288091BC28833349F5E2
:103620008091622890916328059739F48EEF93E09A
:103630000E946B1789E08093BC288091B72888236B
:1036400041F08CEE93E00E946B171092B728109215
:10365000BC282091C0283091C12880915428909195
:1036600055282817390708F46BC1281B390B37FF79
:103670006DC18091BC288853843060F48091B72854
:10368000882341F089EC93E00E946B171092B728D1
:103690001092BC288091BC288833C9F48091862878
:1036A00090918728CC979CF080912F28909130287A
:1036B000CC976CF08091842890918528892B39F0E3
:1036C0008EEB93E00E946B178AE08093BC28809178
:1036D000BC28893311F5809164289091652884363F
:1036E0009105DCF480918628909187288436910595
:1036F000A4F080912F2890913028843691056CF0A9
:103700008091842890918528892B39F083EB93E070
:103710000E946B178AE08093BC288091BC288A3372
:10372000C9F48091862890918728CC979CF080914D
:103730002F2890913028CC976CF08091842890911C
:103740008528892B39F088EA93E00E946B178AE07C
:103750008093BC288091BC288B3331F580918628DA
:1037600090918728CC9704F180912F289091302850
:10377000CC97D4F080918428909185280097A1F06F
:1037800020916828309169288217930769F0809109
:10379000662890916728079739F08DE993E00E9499
:1037A0006B178AE08093BC288091BC288A3549F445
:1037B0002091B8283091B92822602093B8283093FE
:1037C000B92890E08093BA289093BB28DF91CF91DD
:1037D000089582E08093BC288EE896E00E946B17E3
:1037E000D1CB821B930B8130904808F4E1CB8FE75B
:1037F00096E00E946B1782E08093BC28D9CB821B95
:10380000930B8130904808F48DCC8CE196E00E94B7
:103810006B1789E08093BC2885CC80EE95E00E94F0
:103820006B1782E3D3CC821B930B8130904808F452
:1038300016CD8CE995E00E946B1782E38093BC283B
:103840000ECD85E895E00E946B178FE122CD821B9B
:10385000930B8130904808F4F9CD80915A289091CB
:103860005B282091582830915928820F931F20916E
:10387000562830915728820F931F20913D28309170
:103880003E288217930774F48091AC289091AD285C
:10389000079741F087EF94E00E946B1788E28093CE
:1038A000BC28D4CD8CEE94E00E946B1781E2F7CF58
:1038B00040918428509185284115510539F0209177
:1038C0008628309187282C3331055CF410926428C7
:1038D00010926528109268281092692889E594E072
:1038E0002FCE60916828709169284617570739F0E4
:1038F00010926428109265288FE394E021CE8217FD
:1039000093075CF0209364283093652880916428A5
:10391000909165280E945C0818CE8093642890934B
:103920006528F4CF821B930B8130904808F444CE75
:103930008CE194E00E946B1782E38093BC2843CE15
:10394000821B930B8130904808F493CE8BED93E06B
:103950000E946B17809168289091692820916428B3
:1039600030916528232B41F4892B51F488E380930F
:10397000BC287FCE89E3FBCF892BE1F38BE3F7CF24
:103980008AE3F5CF0F931F93CF93DF938091B528F0
:10399000811189C0C091BC28D0E080910628909107
:1039A0000728C817D90769F5C0911B28D0911C2892
:1039B0008091042890910528C817D907E9F5C0918E
:1039C0001928D0911A288091022890910328C817AD
:1039D000D90709F447C09C012B5F3F4F2C173D07C7
:1039E0004CF02A503109C217D30724F0D7FD02C08A
:1039F00097FF38C0C0930228D093032804E713E848
:103A000006C0C0930628D09307280FE613E88BE57D
:103A10000E946A09C8010E94C4098DE30E946A09D4
:103A2000CE010E94690A8DE50E946A09DF91CF915B
:103A30001F910F910C947B099C012B5F3F4F2C171A
:103A40003D074CF02A503109C217D30724F0D7FDA7
:103A500002C097FFB4CFC0930428D093052809E78C
:103A600013E8D5CFC0911728D0911828809100284D
:103A700090910128C817D907B1F09C012B5F3F4FE7
:103A80002C173D074CF02A503109C217D30724F0F8
:103A9000D7FD02C097FF07C0C0930028D09301282C
:103AA0000AE613E8B4CFDF91CF911F910F910895EB
:103AB000CF93DF93CFE6D4E888819981892B19F4DD
:103AC000DF91CF9108958AE993E00E94E10988810E
:103AD00099810E94C4098A819B81892B49F08DE3D9
:103AE0000E946A09EA81FB81808191810E94690AB2
:103AF0008CE090E00E94FC098A819B81892B61F017
:103B00008C819D81892B21F48E819F81892B21F0CD
:103B100084E993E00E94E1098A819B81892B61F409
:103B20008C819D81892B21F48E819F81892B21F0AD
:103B30008EE893E00E94E1098A819B81892B61F0E4
:103B40008C819D81892B41F48E819F81892B21F469
:103B500088E893E00E94E10988859985892B41F0E6
:103B600084E893E00E94E109888599850E94E10933
:103B70000E947B092A96A0CF8CE793E00E94F80967
:103B80000E94A90986E793E00E94F8098CE693E079
:103B90000E94F80986E493E00E94E10981E090E048
:103BA0000E94160A8EE20E946A0985E090E00E9457
:103BB000160A0E947B098FE193E00E94F80985E1D3
:103BC00093E00E94F8090E94581D8BE093E00E9448
:103BD000F8090E9445178FEF92E00E94E109809159
:103BE000BE289091BF280E94160A0E947B0980EF90
:103BF00092E00E94E1098091352890E00E94160A27
:103C00000E947B0982EE92E00E94E1098091BC282B
:103C100090E00E94160A0E947B0988ED92E00E94C3
:103C2000F80982ED92E00E94F8090E94B70981E04C
:103C300090E080933B2890933C280895892B11F0C5
:103C40000C94BC1D90E080E008959F92AF92BF92CB
:103C5000CF92DF92EF92FF920F931F93CF93DF9358
:103C6000FC017F01119111110DC080E0DF91CF9116
:103C70001F910F91FF90EF90DF90CF90BF90AF908A
:103C80009F9008955F011F3331F01D3321F01132F1
:103C900011F01E3731F7992E082FF70110828FE6A9
:103CA000C82E84E8D82E0BC0602F792D0E94AA213F
:103CB000EC01892B09F460C08AE0C80ED11CD60142
:103CC0008D919C91009781F7D0CF1E3741F480E30E
:103CD000D70111968C93119712961C9254C01D33E4
:103CE00009F451C01F3349F4D6011296ED91FC91AD
:103CF000309709F4BACFC081D181802F992D0E94CD
:103D0000C4098DE30E946A09CE010E94690A0E94DB
:103D10007B0981E0ABCFC1389CE0D9070CF0A5CF7F
:103D20004C9FB0014D9F700D1124A82FA053BB0BC9
:103D3000ED01C60FD71F819190ED980F9A3058F37F
:103D4000FE01E29FE001E39FD00DF29FD00D112410
:103D5000D6011696ED91FC911797309749F4149679
:103D6000ED91FC91309709F480CFC083D183C5CF0A
:103D7000CE010995EC01C1CF113209F0A6CF81E344
:103D8000F70181831282F7018181882309F46DCFC5
:103D900021E030E08D3231F45701F2E0AF0EB11C7A
:103DA0002FEF3FEFF5014AE0C6CFFC0120812F3312
:103DB00011F40C94BC1D0E94251E811104C086ECD8
:103DC00092E00C94F80908950E949D080E9426092B
:103DD0000E94A7080E948E0E0E947C100E948F10E5
:103DE0000E9488130E948E160E94AB168FB78068BF
:103DF0008FBF0E94010E80E992E00E94F8090E94A4
:103E0000821718E0C1E0D0E00E94FE160E9416174B
:103E10000E94AE080E94BC0E0E9469100E94FF081A
:103E20000E9432160E944D130E9489110E94C21CEA
:103E30008091B8289091B928892B09F460C010931B
:103E4000050490E080E00E947C0790E080E00E9402
:103E50002A0890E080E00E94FE070E945F078091A0
:103E600035286091B8287091B928811116C060FF7B
:103E700014C08091522890915328892B71F4C093DB
:103E80005228D09353288091C0289091C128805FF8
:103E9000984D809350289093512862307105A1F479
:103EA0008091522890915328892B71F46093522865
:103EB000709353288091C0289091C128805D9A48C2
:103EC00080935028909351288091522890915328A4
:103ED000009779F04091C0285091C1282091502836
:103EE0003091512842175307B8F0421B530B57FF2C
:103EF00018C08091B8289091B928892B11F40E949C
:103F000095170E94200D009721F00E94D51E0E9457
:103F10001B0D1092B72878CF241B350B2130304869
:103F200040F380959095862397238093B8289093AB
:103F3000B928892B11F41092BC28109252281092A3
:103F40005328D7CFDB018F939F930E941A20BF91F4
:103F5000AF91A29F800D911DA39F900DB29F900DD8
:103F600011240895AA1BBB1B51E107C0AA1FBB1F48
:103F7000A617B70710F0A61BB70B881F991F5A95F5
:103F8000A9F780959095BC01CD01089597FB072E68
:103F900016F4009407D077FD09D00E94B21F07FCE9
:103FA00005D03EF4909581959F4F08957095619549
:103FB0007F4F0895A1E21A2EAA1BBB1BFD010DC065
:103FC000AA1FBB1FEE1FFF1FA217B307E407F507C9
:103FD00020F0A21BB30BE40BF50B661F771F881FA5
:103FE000991F1A9469F760957095809590959B013B
:103FF000AC01BD01CF0108950E940420332312F4C7
:104000008A1B9B0B0C941520A29FB001B39FC0018B
:10401000A39F700D811D1124911DB29F700D811DF4
:104020001124911D08950E940420B7FF0895821B5A
:10403000930B08950E940420A59F900DB49F900DAE
:10404000A49F800D911D112408955058BB27AA27C5
:104050000E943D200C9415210E94072138F00E94F7
:104060000E2120F039F49F3F19F426F40C9404211A
:104070000EF4E095E7FB0C94FE20E92F0E94262128
:1040800058F3BA17620773078407950720F079F48D
:10409000A6F50C9448210EF4E0950B2EBA2FA02D16
:1040A0000B01B90190010C01CA01A0011124FF27E5
:1040B000591B99F0593F50F4503E68F11A16F040E0
:1040C000A22F232F342F4427585FF3CF46953795DF
:1040D0002795A795F0405395C9F77EF41F16BA0BA4
:1040E000620B730B840BBAF09150A1F0FF0FBB1F52
:1040F000661F771F881FC2F70EC0BA0F621F731F9B
:10410000841F48F4879577956795B795F7959E3FF7
:1041100008F0B0CF9395880F08F09927EE0F979588
:10412000879508950E942E2188F09F5798F0B92F07
:104130009927B751B0F0E1F0660F771F881F991FDC
:104140001AF0BA95C9F714C0B13091F00E94482115
:10415000B1E008950C944821672F782F8827B85F25
:1041600039F0B93FCCF3869577956795B395D9F734
:104170003EF490958095709561957F4F8F4F9F4F3E
:104180000895E89409C097FB3EF49095809570954A
:1041900061957F4F8F4F9F4F9923A9F0F92F96E993
:1041A000BB279395F695879577956795B795F11108
:1041B000F8CFFAF4BB0F11F460FF1BC06F5F7F4FA5
:1041C0008F4F9F4F16C0882311F096E911C07723B7
:1041D00021F09EE8872F762F05C0662371F096E8C0
:1041E000862F70E060E02AF09A95660F771F881F8F
:1041F000DAF7880F9695879597F9089597F99F674D
:1042000080E870E060E008959FEF80EC089500245E
:104210000A941616170618060906089500240A942B
:1042200012161306140605060895092E0394000CB1
:1042300011F4882352F0BB0F40F4BF2B11F460FF40
:1042400004C06F5F7F4F8F4F9F4F089557FD905869
:10425000440F551F59F05F3F71F04795880F97FB4A
:10426000991F61F09F3F79F0879508951216130604
:104270001406551FF2CF4695F1DF08C01616170633
:104280001806991FF1CF8695710561050894089568
:10429000E894BB2766277727CB0197F9089519F48F
:1042A00016F40C9404210C9495210E942E21B8F34D
:1042B0009923C9F3B6F39F57550B87FF0E94A3219B
:1042C0000024A0E640EA900180585695979528F47E
:1042D000805C660F771F881F20F026173707480776
:1042E00030F4621B730B840B202931294A2BA695CD
:1042F00017940794202531254A2758F7660F771F12
:10430000881F20F026173707480730F4620B730B1D
:10431000840B200D311D411DA09581F7B901842F1B
:104320009158880F9695879508959F3F31F0915049
:1043300020F4879577956795B795880F911D969589
:10434000879597F9089591505040660F771F881F01
:10435000D2F70895FB01DC018D91019080190110C5
:0A436000D9F3990B0895F894FFCFEC
:10436A00637572330063637373006375723200633B
:10437A00757231007665720078626C696E6B7300D3
:10438A0074696D650074656D700076636300736DA2
:10439A00617863757200636D617863757200616D2F
:1043AA006178637572007370686173657300617018
:1043BA006861736573006572726F72007361766506
:1043CA0000697068617365730069636E7463727300
:1043DA0000696D6178637572006C6F706E6D730041
:1043EA006C636C736D7300627264726576006363EA
:1043FA0073646D700073696772656C0070696C6FC5
:10440A007473006370696C6F740063706E736C70A0
:10441A00007070696C6F7400616463646D7000632E
:10442A007063757200726D7300726D733100726D14
:10443A00733200726D733300726D73646D70006352
:10444A00616C646D700063616C610063616C620031
:10445A006C6F636B007373720075736167650072CA
:10446A0065736574007E83278600000000190E8339
:10447A0083392839280000F00D828337283728002D
:10448A0000CD0D8A83BE2800004F07B40D8F83AA82
:10449A002800000000980D9483A8280000000086D8
:1044AA000D6F83BA28000000005C0D988386288669
:1044BA002800005B0CA0832F2800000000310DA803
:1044CA0083902800000000010DB08384288428000E
:1044DA0000270CB883AE2800000000CA0C79831BA1
:1044EA002800000000AA0C74831928000000009A12
:1044FA000C6A831728000000008A0CC083B82800C1
:10450A00000000FB0BC683000000005C0DCF0BCB44
:10451A0083492849280000770BD383472847280076
:10452A00004B0BDB834B284B280000A60BE383438D
:10453A0028432800005A08EA834528452800002F06
:10454A0008F1834D284D280000340BF8830000C47D
:10455A002800000A0BFF83000000004607D30A0662
:10456A0084A6280000FE07960A0D8433280000005E
:10457A00008A0A1484312800000000680A1B842F6C
:10458A002800000000470A22840000C22800001DFB
:10459A000A2984902800005C08E3092F84922800E5
:1045AA00002A08AA0933842728000004146F09384E
:1045BA0084252800000E145E093D84232800001873
:1045CA00144D09428400000000410B31094984005E
:1045DA0000C6280000F4085084412841280000D071
:1045EA000855843F283F280000AC085A8400000080
:1045FA0000670784085F84000000007C07F30763F4
:10460A0084000000001E1ECB0769840000000039E8
:0F461A0007AD07000000000000000000000F00C7
:10462900FFFFFFFFFFFFFFFF010005000002FFFF83
:10463900E80304FF01FFFFFFFFFFFFFFFFFFFFFF8D
:10464900FFFFFFFFFFFFFFFFFFFFFFFFFFFFFFFF71
:10465900FFFFFFFFFF0302FFFFFFFF01000A002C1E
:10466900FF6A046400640003007B00A0000C0000E2
:0400000300000200F7
:00000001FF
