:100200000C9496060C94B3060C94B3060C94B306A7
:100210000C94B3060C94B3060C94B3060C94B3067A
:100220000C94B3060C94B3060C94B3060C94B3066A
:100230000C94C8150C94B3060C94B3060C94B30636
:100240000C94B3060C94380C0C9487080C94B306E9
:100250000C94B3060C94B3060C9435130C94B306AB
:100260000C94B3060C94B3060C94B3060C94B3062A
:100270000C94B3060C94B3060C94B3060C94B3061A
:100280000C94B3060C94B3060C94B3060C94B3060A
:10029000252041474343532D4374726C323243202F
:1002A0002D2D2D20656E74657220223F5B43522FE9
:1002B0004C465D2220666F72206D6F72652064650A
:1002C0007461696C73007061727365206572726F1E
:1002D000720025205D5D5D0025203D3D3D3D3D3D9D
:1002E0003D0025206363732073746174653A2000B8
:1002F00025206C6F636B2073746174653A20002550
:100300002073797374696D653A200025203D3D3D69
:100310003D3D3D3D0025203D3D3D3D3D3D3D0025D4
:1003200020436F707972696768742054686F6D61DB
:1003300073204D6F6F722028632920323032302CA9
:10034000203230323100252041474343532D43743E
:10035000726C32324320415652204669726D776189
:1003600072652056657273696F6E200025203D3DD1
:100370003D3D3D3D3D0025205B5B5B007573616746
:10038000653D3100202520005B522F2D5D005B2D47
:100390002F575D005B522F575D0025200025205709
:1003A00039202D3E2041300025205739202D3E2078
:1003B00041300025205737202D3E20413000252098
:1003C0005736202D3E20413000252057362F372F1D
:1003D000382F39202D3E204F46460025205730200B
:1003E0002D3E2057362F372F382F390025205730F4
:1003F000202D3E204F46460025205031202D3E2006
:1004000057300025205031202D3E204F46463000E9
:1004100025205030202D3E20503100252043332010
:100420002D3E20503020287068617365206368611C
:100430006E6765290025204333202D3E2050302053
:1004400028696E76616C696420706F776572290027
:1004500025204333202D3E204F464630202862750C
:1004600074746F6E290025204333202D3E204F46A3
:10047000463920286370696C6F7429002520433247
:10048000202D3E2043330025204332202D3E205096
:100490003020287068617365732072656A656374C3
:1004A0006564290025204332202D3E204F464630EA
:1004B0002028627574746F6E290025204332202D28
:1004C0003E204F46463920286370696C6F742900BE
:1004D00025204332202D3E20503020287068617343
:1004E00065732072656A656374656429002520431D
:1004F00031202D3E2043320025204330202D3E2048
:1005000043310025204330202D3E20455252002506
:10051000204231202D3E2057302028756E686170B2
:10052000707920776974682043502D50574D290009
:1005300025204231202D3E204F464630202862752E
:1005400074746F6E290025204231202D3E204330E7
:100550002F310025204230202D3E205730202869A1
:100560006E76616C696420706F7765722900252052
:100570004230202D3E2042310025204131202D3EA9
:10058000204F4646302028627574746F6E2900250E
:10059000204131202D3E204F464639202874696D78
:1005A000656F7574290025204131202D3E20423091
:1005B0000025204130202D3E2041310025204F468E
:1005C0004639202D3E204F4646300025204F4646D6
:1005D00031202D3E20413000252063637320737449
:1005E0006174653A204F464632202D3E204F4646E4
:1005F000330025204F464631202D3E204F464632BF
:100600000025204F464630202D3E204F46463200E2
:1006100025204F464630202D3E204F464631006370
:1006200079636C652074696D65206D696E2F6D61ED
:100630007820006D735D003B2073616D706C6520E8
:1006400074696D6520003B20636E742023006D5635
:10065000205B6D65616E2023006D563B20726D73CB
:10066000503A20002520726D73463A20005D003B11
:100670002053756D503D003B2053756D463D003B4A
:1006800020467371723D00205B463D00200025200E
:10069000726D73002520726D73207265636F7264D2
:1006A0002064756D70002520726D73207265636F14
:1006B000726420696E636F6D706C65746500293BB0
:1006C000006D564000202800204C333A2000293B82
:1006D000006D564000202800204C323A2000293B73
:1006E000006D564000202800204C313A2000252083
:1006F000726D733A005B626F745D007573652022E2
:100700007265736574212220666F72206120736F99
:1007100066742072657365740075736520223F22CC
:10072000206F7220227573616765212220746F200B
:100730006F627461696E2074686973206C69737488
:10074000006F70657261746520636F6E74616374AD
:100750006F727320286465632E20656E636F646515
:1007600064292C2075736520227373727E222066A3
:100770006F722022616C6C206F6666220072656168
:10078000642F77726974652070756C7365206C6571
:100790006E67746820746F20636C6F7365206C6F74
:1007A000636B205B6D735D00726561642F777269A6
:1007B00074652070756C7365206C656E6774682055
:1007C000746F206F70656E206C6F636B205B6D7350
:1007D0005D0075736520226C6F636B21222F226C84
:1007E0006F636B7E2220746F206F70657261746519
:1007F00020746865206C6F636B00726561642F778D
:10080000726974652063616C6962726174696F6E8C
:1008100020706172616D657465722063420072655B
:1008200061642F77726974652063616C69627261BB
:1008300074696F6E20706172616D6574657220639A
:100840004100757365202263616C646D7021222004
:10085000666F7220706572696F6469632064756D7C
:100860007073206F6620524D5320636F756E7473E2
:1008700020287265712E2022726D73212229006456
:10088000756D70206D6F737420726563656E742072
:10089000726D73207265636F7264002D2D2D20645C
:1008A00069746F20666F7220435433002D2D2D2004
:1008B0006469746F20666F722043543200676574F8
:1008C00020726D732072656164696E67206F6620A7
:1008D000435431205B6D565D2C2075736520227268
:1008E0006D7331212220746F20747269676765729D
:1008F00020757064617465007573652022726D7374
:1009000021222F22726D737E2220746F20656E2F3C
:1009100064697361626C6520706572696F64696394
:100920002063757272656E742072656164696E67AA
:1009300000726561642F7772697465206D61782E2D
:100940002063757272656E7420696E646963617488
:10095000656420746F20746865204556207669614F
:100960002050574D206F6E20435000726561642007
:100970005050202873616D6520617320636D61782C
:10098000637572295B3130306D415D007265616461
:10099000204350206F6E20206E616761746976205D
:1009A00068616C6677617665205B2D565D007265C7
:1009B0006164204350205B565D0075736520227092
:1009C000696C6F747321222F2270696C6F79737E4A
:1009D0002220746F20656E2F64697361626C6520DC
:1009E000706572696F6469632070696C6F742072DE
:1009F000656164696E67007573652022736967724B
:100A0000656C21222F2273696772656C7E222074C7
:100A10006F20656E2F64697361626C652074686510
:100A2000207369676E616C2072656C617900757303
:100A3000652022636373646D70212220746F2074BB
:100A40007261636B2043435320737461746520703B
:100A5000726F6772657373007365742F67657420B6
:100A6000626F617264207265766973696F6E00727D
:100A70006561642F777269746520696E7374616C47
:100A80006C656420706861736573205B646563697D
:100A90006D616C20656E636F64696E675D00726581
:100AA00061642F777269746520696E7374616C6C10
:100AB0006564206D61782E2063757272656E745B5B
:100AC0003130306D415D007573652022736176654C
:100AD000212220746F207361766520636F6E6669D2
:100AE0006775726174696F6E20746F20454550524E
:100AF0004F4D0072656164206572726F7220666C82
:100B00006167732C20736565206465636C61726135
:100B100074696F6E2022675F6572726F7222007255
:100B20006561642F77726974652064796E2E207018
:100B3000686173657320616C6C6F636174656420B8
:100B40005B646563696D616C20656E636F64696E7B
:100B5000675D00726561642F7772697465206479DE
:100B60006E2E206D61782E2063757272656E742012
:100B7000617661696C61626C65205B3130306D411A
:100B80005D002D2D2D206469746F20666F72204CDE
:100B900033002D2D2D206469746F20666F72204CF8
:100BA0003200726561642063757272656E742064D0
:100BB0007261776E206F6E204C31205B31306D4159
:100BC0005D007265616420656E61626C65642070B1
:100BD0006861736564206173207365742062792095
:100BE00053535273205B646563696D616C20656E5D
:100BF000636F64696E675D290072656164206D6171
:100C0000782E2063757272656E74207369676E61E9
:100C10006C656420746F20455620766961204350CE
:100C2000205B3130306D415D007265616420505051
:100C30002C20692E652E2C206D61782E2063616238
:100C40006C65206361706163697479205B31303059
:100C50006D415D007265616420434353207374618C
:100C600074652C20736565207479706564656620F1
:100C7000226363735F73746174655F7422007265CD
:100C800061642041565220564343205B6D565D00FF
:100C90007265616420415652206469652074656DF7
:100CA00070657261747572205B435D00726561648A
:100CB0002F7365742073797374696D6520696E2074
:100CC0005B6D735D006F7665727772697465207312
:100CD000746174757320696E64696361746F7220E6
:100CE00028455350333229006F76657277726974E4
:100CF000652073746174757320696E6469636174CF
:100D00006F72202872656D6F746520686F73742927
:100D10000072656164206F7574206669726D776119
:100D200072652076657273696F6E000011241FBEB4
:100D3000CFEFCDBFDFE3DEBF18E2A0E0B8E2EAE527
:100D4000F3E402C005900D92AA34B107D9F721E36C
:100D5000AAE4B8E201C01D92AE32B207E1F70E94E8
:100D6000671D0C945D200C940001892B41F088EDE7
:100D700084BF80914100816080934100FFCF90E06B
:100D800080E0089528E0009719F020930604089564
:100D900020930504089520918A0A30918B0A273BFD
:100DA0003340C8F780938628909387288093AF2894
:100DB0009093B0280895809135288B7F19F083E0B7
:100DC000809335280895CF93DF93EC01892B69F048
:100DD00080913528823029F0843019F081E08093A9
:100DE0003528CE01DF91CF9108950E94DB06F9CF1F
:100DF00080E78093060410929F281092A0281092FA
:100E00009D2810929E280895EF92FF920F931F93B2
:100E1000CF93DF93EC01009751F40E94F806CE01C6
:100E2000DF91CF911F910F91FF90EF9008958093E4
:100E30009F289093A0288C01F0E0E0E020E08AE079
:100E4000E82EF12C101611065CF0E0939D28F0932B
:100E50009E282093050480E7282720930604DFCFEF
:100E6000C801B7010E94471E8230910569F08330A6
:100E7000910569F0019711F42064E160C801B701A0
:100E80000E94471E8B01DECF2062E260F7CF206117
:100E9000E3E0F0E0F3CF20919728309198282817CD
:100EA000390701F12FEF3FEF209333283093342897
:100EB000209331283093322820932F2830933028E4
:100EC0002EEF3FEF20932B2830932C2820932928B6
:100ED00030932A2820932D2830932E28809397280A
:100EE00090939828089520918C2830918D28281768
:100EF0003907F1F02FEF3FEF209327283093282870
:100F000020932528309326282093232830932428C3
:100F100020931B2830931C282093192830931A28DB
:100F2000209317283093182880938C2890938D282D
:100F30000895E0E0FAE081818F7B818310928A2816
:100F400010928B2890E080E00895009711F40C94A3
:100F5000990720918A2830918B2828173907A1F109
:100F60006AE0689FA001699F500D1124CA01039691
:100F700066E070E00E94471E643671052CF163350F
:100F800083E0780714F062E573E025E0269FC00156
:100F9000279F900D112480933C0A90933D0A8091E5
:100FA000010A80648093010A26E0269FC001279FE2
:100FB000900D112405966AE070E00E94471E9B0187
:100FC00060938A2870938B28C901089588ED84BFA7
:100FD00081E0809361008091630080FDFCCF0895E3
:100FE000E0E6F4E080E1828388E0818308958091E7
:100FF000AD2821E030E0893010F026E130E08E515C
:101000008A3010F425E130E08091A9289091AA2837
:10101000892B11F024E130E08091392890913A2811
:10102000181619060CF49C018091372890913828E5
:101030001816190654F125313105C1F08091AF28F9
:101040009091B02860ED77E00E94471E2531310570
:101050008CF464E670E00E94471E6217730724F068
:1010600088E0809366040895C297D4F788E080935F
:10107000650408952631310551F464EF71E00E9452
:10108000471E8A3F910564F7F1CF9C01D4CF0895A4
:101090009091680481E0292F207194FF80E0909165
:1010A0007D28981317C090917C289F5F90937C288F
:1010B00090917C28923369F4222339F090917B2817
:1010C000911103C091E09093A82880937B281092FF
:1010D0007C28089580937D2810927C28E9CFE0E059
:1010E000F8E08BE591E08087918783E087838581B5
:1010F00080688583A0E0B4E081E011968C9311971D
:1011000082E012968C938681806C868308951F926C
:101110000F920FB60F9211248F939F93EF93FF932B
:10112000E091A72891E09E0F9093A728F0E0E55268
:10113000FF4C8081882311F0933590F08091050851
:101140008F7D809305081092A7281092A628FF9102
:10115000EF919F918F910F900FBE0F901F90189558
:1011600080930208F4CF9091A62891110CC0E091D1
:10117000A728E03540F491E09E0F9093A728F0E077
:10118000E552FF4C808308958091A628811129C0E3
:10119000E091A728AE2FB0E0A552BF4C8DE08C9314
:1011A000A1E0AE0FB0E0A552BF4C8AE08C93EE5F99
:1011B000F0E0E552FF4C10821092A72881E0809366
:1011C000A6288091040885FFFCCF809105088062E5
:1011D000809305088091A528882319F08091A6287E
:1011E000FBCF08958091A6288111FCCF81E08093E8
:1011F000A52881E090E080933B2890933C280895B7
:101200008091A6288111FCCF1092A52881E090E062
:1012100080933B2890933C280895CF93DF932091AF
:10122000A628DC01222371F0DF91CF91089581E09F
:101230008E0F8093A728ED0121978881F0E0E55279
:10124000FF4C80838D91882379F3E091A728E035C6
:1012500070F3EACFFC018091A62881110BC0909118
:10126000A728A92FB0E0A552BF4C8491811103C0DB
:101270009093A72808959035D8F79F5F8D93319666
:10128000F4CF0E942A090C94C4089C018091A628DE
:1012900081110FC09091A728E92FF0E0E552FF4C93
:1012A00080E2AF014B5D5043421753071CF090930F
:1012B000A72808959035D8F79F5F8193F2CFEF92DA
:1012C000FF920F931F93CF93DF93EC018091A62899
:1012D00081110FC0E091A728209729F5E03548F447
:1012E00081E08E0F8093A728F0E0E552FF4C80E369
:1012F0008083DF91CF911F910F91FF90EF90089520
:1013000041505109C901A1F40E2F10E005521F4CA4
:101310008AE0E82EF12C2115310511F0E03590F02E
:10132000E093A728E6CF44E050E081E090E06AE057
:10133000689F9001699F300D1124C217D30700F7F1
:101340009C01E2CFCE01B9010E94331EEF5F605DC8
:10135000D8016D938D01EC01C901B7010E94331EC4
:101360009B01D9CF2091A628211124C0009771F4A8
:10137000E091A728E035F0F481E08E0F8093A72854
:10138000F0E0E552FF4C80E38083089597FF10C0A2
:10139000E091A728E03570F491958195910921E0BD
:1013A0002E0F2093A728F0E0E552FF4C2DE220837A
:1013B0000C945F0908954F925F926F927F928F9283
:1013C0009F92AF92BF92CF92DF92EF92FF920F93D4
:1013D0001F93CF93DF934B015C018091A62881116D
:1013E00012C0C091A72881149104A104B104A1F5F1
:1013F000C03548F481E08C0F8093A728D0E0C55217
:10140000DF4C80E38883DF91CF911F910F91FF9094
:10141000EF90DF90CF90BF90AF909F908F907F9094
:101420006F905F904F9008953197DC2D7D2C870150
:10143000C9F40C2F10E005521F4C8AE0482E512CA5
:10144000612C712CC114D104E104F10411F0C035F8
:10145000D8F0C093A728D7CFE9E0F0E0D1E0712C15
:1014600000E010E0AAE0B0E02D2F372DA8010E9487
:101470009B1E6B017C018C149D04AE04BF04A0F67E
:10148000CD2ED72C7801D5CFC501B401A701960187
:101490000E945B1ECF5F205DF80121938F014B01FD
:1014A0005C01C701B601A30192010E945B1E6901A4
:1014B0007A01C8CF2091A62821112BC06115710592
:1014C0008105910571F4E091A728E03510F581E0E0
:1014D0008E0F8093A728F0E0E552FF4C80E38083D5
:1014E000089597FF14C0E091A728E03590F49095F7
:1014F0008095709561957F4F8F4F9F4F21E02E0F04
:101500002093A728F0E0E552FF4C2DE220830C94B5
:10151000DB0908952F923F924F925F926F927F92D4
:101520008F929F92AF92BF92CF92DF92EF92FF92F3
:101530000F931F93CF93DF93CDB7DEB72E97CDBF19
:10154000DEBF8D879E87019799F4809194289091B2
:101550009528883E934021F480919628882359F05D
:101560000E94F20886EA96E00E9441090E94000962
:101570001D861E8665C184E996E00E9441094BE004
:1015800059E249835A834BED50E36BE0262E69E222
:10159000362E80E090E0DC01F101019111911F01F4
:1015A000012E000C220B330B800F911FA21FB31FC3
:1015B0004E175F0789F7BC01CD016C507E4F8F4FEE
:1015C0009F4F28EE33E040E050E00E945B1E2B83EB
:1015D0003C834D835E832B813C812B873C874091EC
:1015E0000B2950910C29421B530BC12CD12C760195
:1015F000812C912C5401412C512C3201A981BA81AA
:101600000D911D91A983BA83EB85FC850E1B1F0BE1
:101610009801D8010E947D1E460E571E681E791E35
:10162000C801841B950B092E000CAA0BBB0BBA2F0B
:10163000A92F982F8827880D991DAA1DBB1D492FFA
:101640005A2F6B2F772767FD7A954C015D01841A1D
:10165000950AA60AB70AC501B40142E09595879597
:10166000779567954A95D1F797FF07C09095809534
:10167000709561957F4F8F4F9F4F9B01AC010E94EA
:10168000231E9B01AC019AE0569547953795279507
:101690009A95D1F72F83388749875A87C20ED31E70
:1016A000E41EF51E0E94F2088EE896E00E942A09C8
:1016B00080919228909193280E94B2098CE896E03C
:1016C0000E942A09C8010E94B20987E896E00E9498
:1016D0002A09C501B4010E945A0A8FE796E00E94C8
:1016E0002A096F81788589859A850E94DB0987E7B9
:1016F00096E00E942A09C701B6010E94DB098FE625
:1017000096E00E942A09C301B2010E94DB098DE61E
:1017100096E00E942A090E94C4080E940009A801BC
:1017200089819A812816390609F068CFC301B20170
:1017300063587F4F8F4F9F4F2AEF30E040E050E0DB
:101740000E945B1ECA01B9010E94471F0E94FF1F31
:1017500020E030E040E05FE30E94A71E0E94181FD7
:101760009B01A4ECB9E00E94851E61507C4F8F4F15
:101770009F4F2FEF37E040E050E00E945B1E490191
:10178000C701B60128EE33E040E050E00E945B1E46
:10179000CA01B9010E94471F0E94FF1F20E030E0EC
:1017A00040E05FE30E94A71E0E94181F9B01369530
:1017B0002795A4ECB9E00E94851E61507E4F8F4FA3
:1017C0009F4F2FEF33E040E050E00E945B1E690125
:1017D0000E94F20884E696E00E942A09C6010E944F
:1017E0005F0989E596E00E942A09C4010E945F0909
:1017F0008EE496E00E942A098B819C810E945F09F9
:1018000086E496E00E942A0988EE93E00E94B209DD
:1018100087E396E00E942A0980918E2890918F2874
:101820002091902830919128821B930B0E94B2093D
:1018300083E396E00E942A090E94C4080E940009DE
:101840008D859E852E96CDBFDEBFDF91CF911F91F6
:101850000F91FF90EF90DF90CF90BF90AF909F904F
:101860008F907F906F905F904F903F902F90089552
:101870001F920F920FB60F9211248F939F93EF93A5
:10188000FF93809100089091A328911107C08D309B
:1018900029F08A3061F481E08093A328FF91EF91D1
:1018A0009F918F910F900FBE0F901F901895E09110
:1018B000A428E03598F791E09E0F9093A428F0E0DB
:1018C000E754F74D8083EACF1092A4281092A32802
:1018D00008958091A328882391F08091A3288130D6
:1018E00061F4E091A428F0E0E754F74D108282E023
:1018F0008093A32889EB98E208950E94640C90E0FD
:1019000080E00895FC01EE0FFF1FFF27F461808146
:10191000918108952091A1283091A228260F371F88
:101920002093A1283093A228FC01EE0FFF1FFF2770
:10193000F461608371838DE984BF83E0809300103C
:101940008091021081FDFCCF0895CF93DF93009723
:1019500009F482C08091AD28843108F080C08FB72F
:101960008F778FBF1092A1281092A22860914728EC
:101970007091482890E080E00E948A0C6091452890
:101980007091462881E090E00E948A0C6091432883
:101990007091442882E090E00E948A0C60913F2878
:1019A0007091402883E090E00E948A0C6091412869
:1019B0007091422884E090E00E948A0C6091B728E0
:1019C0007091B82885E090E00E948A0C60913D28D3
:1019D00070913E2886E090E00E948A0C6091B528C4
:1019E0007091B62887E090E00E948A0C6091B3283D
:1019F0007091B42888E090E00E948A0C6091A12840
:101A00007091A22889E090E00E948A0C8FB78068CC
:101A10008FBF1092A1281092A228D0E0C0E0CE0182
:101A20000E94820C2091A1283091A228820F931F3E
:101A30008093A1289093A2282196C930D10579F7E7
:101A400031E020E0409112145091131448175907C7
:101A500009F030E0832F922FDF91CF91089590E02D
:101A600080E0FACFCF93DF931092A1281092A228A2
:101A7000D0E0C0E0CE010E94820C2091A1283091DC
:101A8000A228820F931F8093A1289093A2282196C9
:101A9000C930D10579F720911214309113148217AF
:101AA000930761F08091A9289091AA28846080937F
:101AB000A9289093AA28DF91CF91089580910014CE
:101AC00090910114809347289093482880910214A4
:101AD0009091031480934528909346288091041494
:101AE0009091051480934328909344288091061484
:101AF0009091071480933F28909340288091081478
:101B000090910914809341289093422880910A145F
:101B100090910B148093B7289093B82880910C145F
:101B200090910D1480933D2890933E2880910E143F
:101B300090910F148093B5289093B628809110143B
:101B4000909111148093B3289093B428B4CFE0E01F
:101B5000F4E080E78183868388E08183858380E861
:101B600081838583E0E4F4E084E08183858380934E
:101B7000620481E08093A2040895882331F08130CB
:101B800059F090E89093050403C090E89093060400
:101B900094E09093450406C090E89093050494E087
:101BA000909346048093362808956091412870915F
:101BB0004228409135286115710531F080913F2808
:101BC00090914028009769F4433011F41092352821
:101BD00080913528813009F094C182E080933528C6
:101BE000089520913628223009F0B8C02091680469
:101BF00022FB222720F9309114282313AAC0309108
:101C00007A283F5F30937A2830917A283A3020F052
:101C100010927A282093132820911228241789F1F2
:101C2000413009F0A2C083E0809379282091B12847
:101C30003091B2282093772830937828260F371FC9
:101C400020937528309376282C503E4F209373288C
:101C500030937428CB018C53964F28EE33E0B901B2
:101C60000E94331E6F5F7F4F629FC001639F900D84
:101C7000729F900D11248093102890931128409307
:101C80001228413081F58091B1289091B22820919D
:101C90007728309178288217930708F481C0821B37
:101CA000930B97FF85C08091B1289091B228209125
:101CB0007528309176288217930708F487C0821B15
:101CC000930B97FF8BC08091B1289091B2282091FF
:101CD0007328309174288217930708F48DC0821BF3
:101CE000930B97FF91C080913528833009F009C18B
:101CF0008091B1289091B22820917728309178284E
:101D00008217930708F4A6C0821B930B97FFAAC003
:101D10008091B1289091B228209175283091762831
:101D20008217930708F4ACC0821B930B97FFB0C0D7
:101D30008091B1289091B228209173283091742815
:101D40008217930708F4B2C0821B930B97FFB5C0AC
:101D500008952093142810927A2856CF21E02093DA
:101D6000142810927A282FEF55CF433009F087CFEF
:101D70002AE0209379282091B1283091B22820932D
:101D8000772830937828280F391F209375283093AF
:101D900076282C503E4F20937328309374285BCFC5
:101DA000A901481B590BCA018130904808F47BCF28
:101DB0008091102890911128280F391F209377289F
:101DC0003093782881E00E94BD0D6DCFA901481B9A
:101DD000590BCA018130904808F475CF80911028C2
:101DE00090911128280F391F209375283093762859
:101DF00082E00E94BD0D67CFA901481B590BCA01A3
:101E00008130904808F46FCF80911028909111286C
:101E1000280F391F2093732830937428809113283A
:101E2000813021F482E0809335285DCF809179283C
:101E3000815080937928811156CF83E08093352893
:101E40008091A9289091AA2881608093A9289093D5
:101E5000AA2849CFA901481B590BCA0181309048D3
:101E600008F456CF8091102890911128280F391F1F
:101E7000209377283093782880E00E94BD0D48CFCA
:101E8000A901481B590BCA018130904808F450CF72
:101E90008091102890911128280F391F20937528C0
:101EA0003093762882E00E94BD0D42CFA901481BE5
:101EB000590BCA018130904820F1809110289091EF
:101EC0001128280F391F209373283093742880918C
:101ED0001328811103C01092352808958091792824
:101EE00081508093792881110CC084E0809335283B
:101EF0008091A9289091AA2881608093A928909325
:101F0000AA2808956091472870914828072E000C50
:101F1000880B990B0E94491F2AE939E949E95FE3D7
:101F20000E94131F87FD10C08091A80480FD0CC083
:101F300080E00E94BD0D0E94F8060E94F20885EF25
:101F400096E00E944109FFCF0895E0EAF0E0808129
:101F500080628083808182608083818182608183CE
:101F6000E0E8F6E08081816080838FEF84830895CC
:101F7000E0E6F4E081E082838089887F808B80893D
:101F80008460808B8089877F808B82E082838189D7
:101F9000887F818B81898460818B8189877F818B18
:101FA00008958091AE2881117AC01092000684E0D5
:101FB000809301061092020680910206836080934E
:101FC00002068091020680930206809102068064D8
:101FD0008093020610920306809103068066809328
:101FE0000306809103068061809303068FE180934E
:101FF00005068EE18093060610920A06809100067F
:1020000081608093000680910806816080930806B5
:1020100080910B0680FFFCCF609110067091110635
:1020200090E080E024E0660F771F881F991F2A95B3
:10203000D1F7685C7F4F8F4F9F4F20E730E040E043
:1020400050E00E945B1E80912111A0912011082E6A
:10205000000C990B281B390BB0E00E94851EDC0197
:10206000CB0180589F4FAF4FBF4F892F9A2FAB2F77
:10207000BB2781519140A109B10980939B2890937E
:102080009C28809100068E7F809300068091020636
:102090008061809302061092AE2881E0089580E06E
:1020A00008958091AE2881115BC01092000684E0F3
:1020B000809301061092020680910206836080934D
:1020C00002068091020680618093020680910206DA
:1020D0008064809302061092030680910306806656
:1020E00080930306809103068061809303068FE14D
:1020F000809305068CE18093060610920A06809173
:1021000000068160809300068091080681608093BC
:10211000080680910B0680FFFCCF209110063091BD
:102120001106B9017695679590E080E0645A7C408D
:1021300082499D4F50E040E00E945B1E2093992809
:1021400030939A28809100068E7F809300068091BC
:1021500002068061809302061092AE2881E0089505
:1021600080E00895CF93DF938091B1289091B228B9
:10217000C0917128D09172288C179D0738F08C1B64
:102180009D0B97FF0AC0DF91CF9108959E01281BF8
:10219000390BC90181309048B0F3809170288823B1
:1021A00069F00E94D10F882371F3C05FD84DC093AE
:1021B0007128D093722810927028E5CF0E94511098
:1021C000882309F3C05FD84DC0937128D09372283B
:1021D00081E080937028D7CF8091AE2881116EC1A5
:1021E00091E09093AE281092000682E08093010661
:1021F000109202068091020682608093020680910E
:1022000002068061809302068091020680648093BA
:1022100002061092030680910306806280930306F3
:102220008091030680618093030610920506109248
:102230000A0680910006816080930006909306064E
:102240008091200A9091210A8A3F9105C8F38091DC
:10225000200A9091210A8B3F9105C8F781E0809375
:10226000080680910B0680FFFCCF809110069091AC
:10227000110695958795959587954091472850919A
:1022800048284C3051050CF0D8C0853D23E092071A
:102290000CF0E5C09C012D5533402633310508F480
:1022A000E1C0815D92408F34910508F0D5C086E091
:1022B00090E020912B2830912C282E3F3F4F41F465
:1022C00010926F282FEF3FEF20932B2830932C286C
:1022D00020912B2830912C282817390709F0C5C0E8
:1022E00020916F282F5F20936F2820916F28253031
:1022F00021F480933328909334288091200A909180
:10230000210A8E389241C8F381E0809308068091BB
:102310000B0680FFFCCF80911006909111069595D9
:102320008795959587954C3051050CF0A5C04A9737
:102330008534910508F0A5C08CE090E02091292813
:1023400030912A282E3F3F4F41F410926E282FEFF4
:102350003FEF2093292830932A2820912928309173
:102360002A282817390709F08FC020916E282F5F7F
:1023700020936E2820916E28253021F480933128F7
:10238000909332281092060681E08093080680918F
:102390000B0680FFFCCF8091100690911106959559
:1023A0008795959587952091100630911106853D6A
:1023B00063E096070CF06FC09C01255031402B3D27
:1023C000310508F46BC022593F4F2534310508F41C
:1023D00068C08C5491098C9708F066C086E792E03B
:1023E00020912D2830912E282E3F3F4F41F41092FE
:1023F0006D282FEF3FEF20932D2830932E2820912A
:102400002D2830912E282817390709F050C0209127
:102410006D282F5F20936D2820916D28253021F4A1
:1024200080932F2890933028809100068E7F809390
:1024300000061092AE2881E008958E3563E096077D
:1024400074F49C012C5033402633310558F08A5BDC
:102450009240C69708F42BCF8FEF9FEF2ACF8CE0E6
:1024600090E027CF89E090E024CF80932B289093B1
:102470002C2810926F2839CF8E5D9109C59708F4EA
:102480005BCF8FEF9FEF5ACF8093292890932A2814
:1024900010926E286FCF82E890E0A2CF88EC90E097
:1024A0009FCF80E491E09CCF8FEF9FEF99CF8093F7
:1024B0002D2890932E2810926D28AECF80E008959D
:1024C000CF93DF938091B1289091B228C0916B286F
:1024D000D0916C282091972830919828232BB9F41B
:1024E0008C179D0738F08C1B9D0B97FF0AC0DF915E
:1024F000CF9108959E01281B390BC9018130904866
:10250000B0F36096C0936B28D0936C28F0CF8C17F3
:102510009D0748F08C1B9D0B97FDE9CF0E94EC10A6
:102520008111EFCFE4CF9E01281B390BC901813007
:102530009048A0F7DCCFE0E6F4E080E28283858972
:10254000887F858B85898460858B8589877F858B4E
:1025500080E482838689887F868B86898460868BE7
:102560008689877F868B80E882838789887F878BAF
:1025700087898460878B8789877F878B089590916F
:102580009628911152C09091AE2891114EC091E0C1
:102590009093AE2810920006109201061092020647
:1025A0009091020692609093020690910206909399
:1025B0000206909102069064909302061092030620
:1025C000909103069068909303069AE09093050615
:1025D000282F30E0823019F1833019F1813019F55C
:1025E00085E080930606209392283093932891E00B
:1025F00090930A06809100068160809300061092F5
:102600009428109295282091B1283091B2282093D7
:102610009028309391289093962881E0089586E041
:10262000E0CF87E0DECF1092AE2880E008950197DA
:1026300029F481E00E94BF1290E0089590E080E0CC
:102640000895019729F482E00E94BF1290E0089556
:1026500090E080E00895019729F483E00E94BF1282
:1026600090E0089590E080E008951F920F920FB6D9
:102670000F9211242F933F934F935F938F939F93C8
:10268000EF93FF9340911006509111068091962888
:10269000813001F580919428909195289C012F5FBD
:1026A0003F4F2093942830939528880F991FFC0161
:1026B000E55FF64D40835183283E33405CF082E075
:1026C000809396288091B1289091B22880938E288B
:1026D00090938F28FF91EF919F918F915F914F91F0
:1026E0003F912F910F900FBE0F901F9018958F92D2
:1026F0009F92AF92BF92CF92DF92EF92FF92CF93D1
:10270000DF9380919628823009F066C040910E28B0
:1027100050910F28EBE0F9E22BED30E380E090E000
:10272000DC0157FD3AC0483E23E052070CF072C06E
:10273000EA01CC59DF4FC93E83E0D80714F0C8EE58
:10274000D3E0E0900C28F0900D28809067289090BE
:102750006828A0906928B0906A28FA01EE0FFF1F40
:10276000E55FF64D4C175D070CF441C08092672879
:1027700090926828A0926928B0926A2840930E2807
:1027800050930F2829C0C190D1900D2C000CEE0859
:10279000FF088C0D9D1DAE1DBF1D2E173F0799F71D
:1027A000BC01CD016C507E4F8F4F9F4F28EE33E020
:1027B00040E050E00E945B1E20930C2830930D28CF
:1027C00010926728109268281092692810926A283F
:1027D00010920E2810920F28DF91CF91FF90EF906A
:1027E000DF90CF90BF90AF909F908F900895A19170
:1027F000B191AE19BF09B7FF03C0B195A195B10959
:102800009D010E947D1E860E971EA81EB91E4F5F59
:102810005F4FA8CF483E23E0520759F560916728E3
:10282000709168288091692890916A2863587F4F39
:102830008F4F9F4F2AEF30E040E050E00E945B1E38
:10284000CA01B9010E94471F0E94FF1F20E030E02B
:1028500040E05FE30E94A71E0E94181F6093652856
:102860007093662889EE93E080930E2890930F284A
:10287000B3CF493E534009F0AFCFE0916528F091C6
:102880006628DF012EEC38E341E050E00E949B1EF9
:102890006B017C0120E8D20EE11CF11C6701EE24E3
:1028A000FF24A0913D28B0913E289F010E94941ED4
:1028B000DC01CB01905EAF4FBF4F2EE0B695A795E0
:1028C000979587952A95D1F72091B5283091B6280C
:1028D000820F931F8A30910510F490E080E02091E0
:1028E0009228309193282230310509F4B0C023306A
:1028F000310509F4B9C02130310561F4E09327288E
:10290000F0932828C0922128D092222880931B2857
:1029100090931C28109296281092AE288FEF9FEF6C
:1029200080930E2890930F288091B7289091B82813
:10293000892B09F451CF0E94F2088EEE96E00E9496
:102940002A0980911B2890911C2897FD22C088EEAF
:1029500096E00E942A0980911B2890911C280E94D1
:102960005F0985EE96E00E942A09809121289091C6
:1029700022280E945F0981EE96E00E942A09809138
:102980002728909128280E945F098EED96E00E94EA
:102990002A098091192890911A2897FD22C088ED64
:1029A00096E00E942A098091192890911A280E9485
:1029B0005F0985ED96E00E942A0980911F28909179
:1029C00020280E945F0981ED96E00E942A098091EB
:1029D0002528909126280E945F098EEC96E00E949F
:1029E0002A09809117289091182897FD22C088EC19
:1029F00096E00E942A0980911728909118280E9439
:102A00005F0985EC96E00E942A0980911D2890912B
:102A10001E280E945F0981EC96E00E942A0980919D
:102A20002328909124280E945F098EEB96E00E9453
:102A30002A090E94C408DF91CF91FF90EF90DF90A8
:102A4000CF90BF90AF909F908F900C940009E0932F
:102A50002528F0932628C0921F28D0922028809302
:102A6000192890931A2856CFE0932328F09324280E
:102A7000C0921D28D0921E28809317289093182862
:102A800049CF0F931F93CF93DF93C0910A28D09122
:102A90000B2880918C2890918D28892BF9F4109225
:102AA00096288091B1289091B2288C179D0748F004
:102AB0008C1B9D0B97FF0CC0DF91CF911F910F9145
:102AC00008959E01281B390BC90181309048A0F35D
:102AD000DC5FC0930A28D0930B28EECF0E947713B7
:102AE0008091B1289091B2288C179D07B8F08C1B6B
:102AF0009D0B97FDE1CF0091082810910928802FA8
:102B00000E94BF128823C1F20F5F1F4F04301105CE
:102B10006CF40093082810930928DACF9E01281B33
:102B2000390BC9018130904830F7C6CF81E090E081
:102B30008093082890930928CBCFE0E0F4E084E06C
:102B4000818385831092E405E0E0FAE08081808350
:102B500081818760818388E893E186A397A384EFCE
:102B600091E084A795A781818F7B8183808181609B
:102B700080830895E0E8FAE01082118281E0858385
:102B800088EE93E0848795878081816080830895B3
:102B90001F920F920FB60F9211242F938F939F9332
:102BA00080919628813029F4809108068160809375
:102BB0000806809164288F5F809364288A3068F4C7
:102BC0008091860A81608093860A9F918F912F91D0
:102BD0000F900FBE0F901F9018951092642880914F
:102BE0008828909189280196809388289093892835
:102BF00080918628909187280196809386289093CB
:102C00008728809186289091872880339547C4F241
:102C10001092862810928728D3CF80918A0A9091AB
:102C20008B0A873B9340C8F7809188289091892828
:102C30008093B1289093B22880918628909187281C
:102C40008093AF289093B02808958091B1289091F7
:102C5000B2282091822830918328809382289093F3
:102C6000832840913B2850913C28452BC1F4821B7E
:102C7000930B20911528309116288217930720F482
:102C800080931528909316282091842830918528C8
:102C90002817390720F48093842890938528109270
:102CA0003B2810923C2808958FE196E00E942A0963
:102CB00080911528909116280E945F098FE20E944A
:102CC000B30880918428909185280E945F090E9412
:102CD000C4088FEF9FEF80931528909316281092C9
:102CE00084281092852881E090E080933B2890937F
:102CF0003C280895CF93DF932091B3283091B428D6
:102D0000232B61F0EC010E94F208CE010E942A09F7
:102D10000E94C408DF91CF910C940009DF91CF91FC
:102D2000089580914528909146288093802890931B
:102D30008128809143289091442880937E28909305
:102D40007F281092AD280895CF93DF938091452876
:102D500090914628209180283091812882179307EE
:102D600024F48093802890938128209180283091AA
:102D700081288217930724F48093802890938128D8
:102D80008091AD28811118C080918A2890918B285C
:102D9000892B09F4B6C381E08093AD2880E196E0E9
:102DA0000E947A168091B1289091B2288854944F4D
:102DB00080936228909363288091AD28813091F4AC
:102DC0000E9499072091B1283091B2288091622801
:102DD000909163282817390708F49BC3281B390BE7
:102DE00037FF9DC38091AD28823041F50E94F806DF
:102DF00090E080E00E9473070E94990790E080E0D5
:102E00000E944B0788E0809305040E94DB06109225
:102E100060281092612810925E2810925F2810920C
:102E20005C2810925D2880913528811107C088EDBB
:102E300095E00E947A1683E08093AD288091AD28BA
:102E4000833069F48091A828882349F08BEC95E0C1
:102E50000E947A161092A8288AE08093AD2880916B
:102E6000AD288930D9F40E94F80690E080E00E94F5
:102E700073070E94990790E080E00E944B0788E06A
:102E8000809305048091A828882341F08CEB95E07D
:102E90000E947A161092A8281092AD288091AD2831
:102EA0008A3041F50E94F80690E080E00E947307A6
:102EB00081E090E00E944B070E94990788E0809390
:102EC0000604109260281092612810925C281092DB
:102ED0005D288091B1289091B228805D9A488093B6
:102EE0005A2890935B2881EB95E00E947A168BE03C
:102EF0008093AD288091AD288B3081F58091332867
:102F000090913428099771F480912F28909130285E
:102F1000181619063CF486EA95E00E947A1684E1B8
:102F20008093AD282091B1283091B22880915A2801
:102F300090915B282817390708F4F9C2281B390B30
:102F400037FFFBC28091A828882341F089E795E0EC
:102F50000E947A161092A8281092AD288091AD2870
:102F6000843109F043C00E94F80690E080E00E949E
:102F7000730781E090E00E944B0788E0809306048D
:102F800081E090E00E94E306109260281092612890
:102F900010925C2810925D2880913528823031F59E
:102FA0008091802890918128CC970CF4CEC280919A
:102FB0002F2890913028CC970CF4C7C280917E289E
:102FC00090917F28892B09F4C0C28091B1289091FB
:102FD000B228805F984D80935828909359288EE6A8
:102FE00095E00E947A1685E18093AD288091AD2806
:102FF000853109F042C020918028309181282093AA
:103000005C2830935D2880912F289091302882177A
:10301000930724F480935C2890935D2880915C282A
:1030200090915D280E94A5078091332890913428C3
:10303000069739F486E495E00E947A168EE1809333
:10304000AD288091A828882341F080E395E00E9474
:103050007A161092A8281092AD282091B1283091AC
:10306000B22880915828909159282817390708F4D8
:1030700072C2281B390B37FF74C28091AD288E3184
:10308000C1F480915C2890915D28CC975CF0809190
:103090007E2890917F28892B29F0809135288230D5
:1030A00009F467C283E095E00E947A168AE580936E
:1030B000AD288091AD288F3109F049C0C0917E289C
:1030C000D0917F28C0936028D093612880915C289C
:1030D00090915D280E94A50788E080930604CE01A8
:1030E0000E94040781E090E00E94730781E090E075
:1030F0000E944B078DEE94E00E947A1680E2809346
:10310000AD288091B1289091B228805D9A48809333
:1031100056289093572880915E2890915F2820919F
:103120009D2830919E28822B932B80935E2890932C
:103130005F288FEF9FEF80935428909355288093BA
:10314000522890935328809350289093512880912F
:10315000AD28803209F07BC080911B2890911C28FB
:1031600020915428309155282817390724F480934A
:103170005428909355288091192890911A282091CD
:103180005228309153282817390724F48093522865
:1031900090935328809117289091182820915028B7
:1031A000309151282817390724F4809350289093A0
:1031B000512880913328909134280997F9F480910F
:1031C0005428909155282091522830915328820FED
:1031D000931F2091502830915128820F931F8D9773
:1031E0006CF480919D2890919E28079739F080ED8E
:1031F00094E00E947A1688E28093AD28809133286B
:1032000090913428069739F08AEB94E00E947A1660
:1032100089E08093AD288091A828882341F084EA32
:1032200094E00E947A161092A8281092AD2820915E
:10323000B1283091B22880915628909157282817AC
:10324000390708F49CC1281B390B37FF9EC18091B8
:10325000AD288132E9F58091332890913428069782
:1032600039F086E694E00E947A1689E08093AD28D2
:103270008091A828882341F080E594E00E947A1686
:103280001092A8281092AD28C0917E28D0917F2856
:10329000209779F020918028309181282C333105B6
:1032A00044F080912F28909130288C3391050CF0B8
:1032B00092C110925C2810925D28109260281092A2
:1032C000612885E394E00E947A1688E28093AD2815
:1032D0008091AD28883299F40E9499078091B12895
:1032E0009091B228805F984D8093622890936328D4
:1032F00080E194E00E947A1689E28093AD28809163
:10330000AD28893229F58091A828882341F083E0EF
:1033100094E00E947A161092A8281092AD2880910D
:10332000B1289091B22820916228309163288217A9
:10333000930708F474C1AC01421B530B57FF75C1CE
:1033400020913328309134282630310509F06DC1A1
:103350008091AD28823329F50E94F80688E0809399
:10336000050490E080E00E9473078091A8288823DC
:1033700041F08CEE93E00E947A161092A8281092E9
:10338000AD282091B1283091B22880914E2890919B
:103390004F282817390708F456C1281B390B37FF67
:1033A00058C18091AD288853843060F48091A8285A
:1033B000882341F089EC93E00E947A161092A828A5
:1033C0001092AD288091AD288833C9F4809180286F
:1033D00090918128CC979CF080912F289091302853
:1033E000CC976CF080917E2890917F28892B39F0C2
:1033F0008EEB93E00E947A168AE08093AD2880914C
:10340000AD28893311F580915C2890915D28843630
:103410009105DCF480918028909181288436910573
:10342000A4F080912F2890913028843691056CF07B
:1034300080917E2890917F28892B39F083EB93E04F
:103440000E947A168AE08093AD288091AD288A3355
:10345000C9F48091802890918128CC979CF080912C
:103460002F2890913028CC976CF080917E289091F5
:103470007F28892B39F088EA93E00E947A168AE047
:103480008093AD288091AD288B3331F580918028D1
:1034900090918128CC9704F180912F289091302829
:1034A000CC97D4F080917E2890917F280097A1F04E
:1034B00020916028309161288217930769F08091EC
:1034C0005E2890915F28079739F48DE993E00E9478
:1034D0007A168AE08093AD288091AD288A3549F428
:1034E0002091A9283091AA2822602093A9283093FE
:1034F000AA2890E08093AB289093AC28DF91CF91DD
:10350000089582E08093AD2881E096E00E947A16CB
:1035100053CC821B930B8130904808F463CC82EF2C
:1035200095E00E947A1682E08093AD285BCC821BE6
:10353000930B8130904808F405CD8FE895E00E9408
:103540007A1689E08093AD28FDCC83E595E00E9452
:103550007A1682E349CD821B930B8130904808F4A0
:103560008CCD8FE095E00E947A1682E38093AD289F
:1035700084CD88EF94E00E947A168FE198CD821B6B
:10358000930B8130904808F462CE8091542890913A
:1035900055282091522830915328820F931F209153
:1035A000502830915128820F931F8D9774F4809189
:1035B0009D2890919E28079741F087E894E00E940B
:1035C0007A1688E28093AD2842CE8CE794E00E9480
:1035D0007A1681E2F7CF4091602850916128C41794
:1035E000D50739F010925C2810925D288BE194E0A9
:1035F0006ACE8217930774F020935C2830935D287D
:1036000080915C2890915D280E94A507CE010E94C0
:1036100004075ECE80935C2890935D28F1CF281B31
:10362000390B2130304808F48BCE805F984D809361
:103630004E2890934F2888EF93E00E947A1682E3F9
:103640008093AD2885CE821B930B8130904808F47F
:10365000A8CE8BED93E00E947A168091602890911D
:10366000612820915C2830915D28232B41F4892B1F
:1036700051F488E38093AD2894CE89E3FBCF892B66
:10368000E1F38BE3F7CF8AE3F5CF0F931F93CF934B
:10369000DF938091A628811189C0C091AD28D0E028
:1036A0008091062890910728C817D90769F5C0911D
:1036B0001B28D0911C288091042890910528C817B8
:1036C000D907E9F5C0911928D0911A2880910228CC
:1036D00090910328C817D90709F447C09C012B5FB4
:1036E0003F4F2C173D074CF02A503109C217D30722
:1036F00024F0D7FD02C097FF38C0C0930228D093B2
:10370000032808EC10E806C0C0930628D0930728C9
:1037100003EC10E88BE50E94B308C8010E940D0974
:103720008DE30E94B308CE010E94B2098DE50E948C
:10373000B308DF91CF911F910F910C94C4089C01A5
:103740002B5F3F4F2C173D074CF02A503109C21711
:10375000D30724F0D7FD02C097FFB4CFC09304284D
:10376000D09305280DEC10E8D5CFC0911728D09143
:1037700018288091002890910128C817D907B1F026
:103780009C012B5F3F4F2C173D074CF02A5031090D
:10379000C217D30724F0D7FD02C097FF07C0C0931C
:1037A0000028D09301280EEB10E8B4CFDF91CF9121
:1037B0001F910F910895CF93DF93C4EBD1E88881D7
:1037C0009981892B19F4DF91CF9108958AE993E0CB
:1037D0000E942A09888199810E940D098A819B8112
:1037E000892B49F08DE30E94B308EA81FB81808137
:1037F00091810E94B2098CE090E00E9445098A8183
:103800009B81892B61F08C819D81892B21F48E8194
:103810009F81892B21F084E993E00E942A098A8103
:103820009B81892B61F48C819D81892B21F48E8170
:103830009F81892B21F08EE893E00E942A098A81DA
:103840009B81892B61F08C819D81892B41F48E8134
:103850009F81892B21F488E893E00E942A098885BA
:103860009985892B41F084E893E00E942A09888594
:1038700099850E942A090E94C4082A96A0CF8CE745
:1038800093E00E9441090E94F20886E793E00E94BB
:1038900041098CE693E00E94410986E493E00E948E
:1038A0002A0981E090E00E945F098EE20E94B3083D
:1038B00083E090E00E945F090E94C4088FE193E0DA
:1038C0000E94410985E193E00E9441090E94DB1BAF
:1038D0008BE093E00E9441090E9454168FEF92E022
:1038E0000E942A098091AF289091B0280E945F0918
:1038F0000E94C40880EF92E00E942A098091352836
:1039000090E00E945F090E94C40882EE92E00E944B
:103910002A098091AD2890E00E945F090E94C408A6
:1039200088ED92E00E94410982ED92E00E944109F7
:103930000E94000981E090E080933B2890933C280E
:103940000895892B11F00C943F1C90E080E00895BD
:103950009F92AF92BF92CF92DF92EF92FF920F931E
:103960001F93CF93DF93FC017F01119111110DC0C3
:1039700080E0DF91CF911F910F91FF90EF90DF904A
:10398000CF90BF90AF909F9008955F011F3331F0AB
:103990001D3321F0113211F01E3731F7992E082F07
:1039A000F701108284EBC82E81E8D82E0BC0602F5F
:1039B000792D0E945420EC01892B09F460C08AE023
:1039C000C80ED11CD6018D919C91009781F7D0CF64
:1039D0001E3741F480E3D70111968C93119712960C
:1039E0001C9254C01D3309F451C01F3349F4D60151
:1039F0001296ED91FC91309709F4BACFC081D18134
:103A0000802F992D0E940D098DE30E94B308CE01ED
:103A10000E94B2090E94C40881E0ABCFC1389CE08B
:103A2000D9070CF0A5CF4C9FB0014D9F700D11240C
:103A3000A82FA053BB0BED01C60FD71F819190EDAE
:103A4000980F9A3058F3FE01E29FE001E39FD00DFA
:103A5000F29FD00D1124D6011696ED91FC91179787
:103A6000309749F41496ED91FC91309709F480CF8A
:103A7000C083D183C5CFCE010995EC01C1CF1132EE
:103A800009F0A6CF81E3F70181831282F7018181DA
:103A9000882309F46DCF21E030E08D3231F45701F5
:103AA000F2E0AF0EB11C2FEF3FEFF5014AE0C6CFB9
:103AB000FC0120812F3311F40C943F1C0E94A81CA0
:103AC000811104C086EC92E00C94410908950E9493
:103AD000E6070E946F080E94F0070E94A70D0E944F
:103AE000A50F0E94B80F0E949B120E949D150E9474
:103AF000BA158FB780688FBF0E94320D80E992E0BF
:103B00000E9441090E94911618E0C1E0D0E00E9495
:103B10000D160E9425160E94F7070E94D50D0E94DF
:103B2000820F0E9448080E9441150E9460120E9464
:103B3000B2100E94451B8091A9289091AA28892B38
:103B400009F45EC0109305040E94F80690E080E03E
:103B50000E94730790E080E00E944B070E94DB0602
:103B6000809135286091A9287091AA28811116C0EA
:103B700060FF14C080914C2890914D28892B71F4DE
:103B8000C0934C28D0934D288091B1289091B228B1
:103B9000805F984D80934A2890934B28623071053E
:103BA000A1F480914C2890914D28892B71F4609359
:103BB0004C2870934D288091B1289091B228805D57
:103BC0009A4880934A2890934B2880914C28909152
:103BD0004D28009779F04091B1285091B22820915A
:103BE0004A2830914B2842175307B8F0421B530B19
:103BF00057FF18C08091A9289091AA28892B11F409
:103C00000E94A4160E94690C009721F00E94581D82
:103C10000E94640C1092A8287ACF241B350B213007
:103C2000304840F380959095862397238093A92868
:103C30009093AA28892B11F41092AD2810924C2849
:103C400010924D28D7CFDB018F939F930E949B1E2C
:103C5000BF91AF91A29F800D911DA39F900DB29F28
:103C6000900D11240895AA1BBB1B51E107C0AA1F88
:103C7000BB1FA617B70710F0A61BB70B881F991F0D
:103C80005A95A9F780959095BC01CD01089597FBB1
:103C9000072E16F4009407D077FD09D00E94331E3A
:103CA00007FC05D03EF4909581959F4F089570953F
:103CB00061957F4F0895A1E21A2EAA1BBB1BFD013F
:103CC0000DC0AA1FBB1FEE1FFF1FA217B307E407FB
:103CD000F50720F0A21BB30BE40BF50B661F771F53
:103CE000881F991F1A9469F7609570958095909533
:103CF0009B01AC01BD01CF0108950E94851E3323B5
:103D000012F48A1B9B0B0C94961EA29FB001B39FCA
:103D1000C001A39F700D811D1124911DB29F700DD4
:103D2000811D1124911D08950E94851EB7FF0895DD
:103D3000821B930B08950E94851EA59F900DB49F32
:103D4000900DA49F800D911D112408955058BB27FC
:103D5000AA270E94BE1E0C94BF1F0E94B11F38F0FC
:103D60000E94B81F20F039F49F3F19F426F40C94F8
:103D7000AE1F0EF4E095E7FB0C94A81FE92F0E94FC
:103D8000D01F58F3BA17620773078407950720F00E
:103D900079F4A6F50C94F21F0EF4E0950B2EBA2FD1
:103DA000A02D0B01B90190010C01CA01A001112441
:103DB000FF27591B99F0593F50F4503E68F11A16ED
:103DC000F040A22F232F342F4427585FF3CF46957E
:103DD00037952795A795F0405395C9F77EF41F16A0
:103DE000BA0B620B730B840BBAF09150A1F0FF0F6A
:103DF000BB1F661F771F881FC2F70EC0BA0F621F56
:103E0000731F841F48F4879577956795B795F79545
:103E10009E3F08F0B0CF9395880F08F09927EE0FDA
:103E20009795879508950E94841F08F481E008956E
:103E30000E94D81F88F09F5798F0B92F9927B75143
:103E4000B0F0E1F0660F771F881F991F1AF0BA953E
:103E5000C9F714C0B13091F00E94F21FB1E008958B
:103E60000C94F21F672F782F8827B85F39F0B93F7D
:103E7000CCF3869577956795B395D9F73EF49095F1
:103E80008095709561957F4F8F4F9F4F0895E8946F
:103E900009C097FB3EF490958095709561957F4F92
:103EA0008F4F9F4F9923A9F0F92F96E9BB27939540
:103EB000F695879577956795B795F111F8CFFAF450
:103EC000BB0F11F460FF1BC06F5F7F4F8F4F9F4F81
:103ED00016C0882311F096E911C0772321F09EE8DF
:103EE000872F762F05C0662371F096E8862F70E045
:103EF00060E02AF09A95660F771F881FDAF7880F1F
:103F00009695879597F90895990F0008550FAA0B74
:103F1000E0E8FEEF16161706E807F907C0F01216DC
:103F20001306E407F50798F0621B730B840B950BDF
:103F300039F40A2661F0232B242B252B21F4089534
:103F40000A2609F4A140A6958FEF811D811D0895D1
:103F500097F99F6780E870E060E008959FEF80EC3C
:103F6000089500240A9416161706180609060895DF
:103F700000240A9412161306140605060895092E45
:103F80000394000C11F4882352F0BB0F40F4BF2BB4
:103F900011F460FF04C06F5F7F4F8F4F9F4F0895F4
:103FA00057FD9058440F551F59F05F3F71F04795EA
:103FB000880F97FB991F61F09F3F79F087950895CF
:103FC000121613061406551FF2CF4695F1DF08C0EE
:103FD000161617061806991FF1CF8695710561050B
:103FE00008940895E894BB2766277727CB0197F9B3
:103FF000089519F416F40C94AE1F0C943F200E94FF
:10400000D81FB8F39923C9F3B6F39F57550B87FF11
:104010000E944D200024A0E640EA90018058569569
:10402000979528F4805C660F771F881F20F026176D
:104030003707480730F4621B730B840B20293129A2
:104040004A2BA69517940794202531254A2758F71F
:10405000660F771F881F20F026173707480730F4B0
:10406000620B730B840B200D311D411DA09581F750
:10407000B901842F9158880F9695879508959F3F91
:1040800031F0915020F4879577956795B795880F13
:10409000911D9695879597F9089591505040660F18
:1040A000771F881FD2F70895FB01DC018D910190E5
:0E40B00080190110D9F3990B0895F894FFCFF1
:1040BE0063757233006363737300637572320063EA
:1040CE00757231007665720078626C696E6B730082
:1040DE0074696D650074656D700076636300636D61
:1040EE00617863757200616D6178637572006170DD
:1040FE006861736573006572726F720073617665C5
:10410E00006970686173657300696D6178637572BB
:10411E00007370686173657300736D617863757297
:10412E000062726472657600636373646D7000730F
:10413E00696772656C0070696C6F74730063706987
:10414E006C6F740063706E736C70007070696C6F5E
:10415E007400637063757200726D7300726D7331EB
:10416E0000726D733200726D733300726D73646D15
:10417E00700063616C646D700063616C61006361FB
:10418E006C62006C6F636B006C6F706E6D73006CA5
:10419E00636C736D73007373720075736167650082
:1041AE00726573657400D280588300000000110D93
:1041BE00D780392839280000E80CD68037283728D0
:1041CE000000C50CDE80AF280000CB06AC0CE380EF
:1041DE009B2800000000900CE88099280000000049
:1041EE007E0CC380AB2800000000540CEC802F28FE
:1041FE0000000000290CF4808A2800000000F90B52
:10420E00FC809F2800000000C20BCD801B28000000
:10421E000000A20BC880192800000000920BBE807F
:10422E00172800000000820B0481A928000000005E
:10423E00F30A0A8100000000A50CC70A0F8143286B
:10424E00432800006F0A17814528452800009E0A62
:10425E001F817E287E2800001F0B27818028802842
:10426E000000530B2F81472847280000580A36813B
:10427E000000B32800002E0A3D8100000000C20697
:10428E00F7094481972800004B07BA094B81332860
:10429E0000000000AE0952813128000000008C0998
:1042AE0059812F28000000006B0960818A280000C8
:1042BE00A507310966818C2800007307F8086A810A
:1042CE00272800001713BD086F8125280000211331
:1042DE00AC087481232800002B139B087981000001
:1042EE0000008A0A7F0880810000B728000042087B
:1042FE0087813D283D2800001E088C81B528B528F1
:10430E000000FA07918100000000E306D2079681B3
:10431E003F283F280000A8079D8141284128000022
:10432E007D07A4810000000004074107A88100005A
:10433E000000A11C1907AE8100000000B506FB06A7
:0C434E00000000000000000000000D0056
:10435A00FFFFFFFFFFFFFFFF010005000002FFFF55
:10436A00E80304FF01FFFFFFFFFFFFFFFFFFFFFF5F
:10437A00FFFFFFFFFFFFFFFFFFFEFFFEFFFEFFFF46
:10438A00FFFFFFFFFF0302FFFFFFFF01004B4A642D
:0A439A000064007B00A0000C00008E
:0400000300000200F7
:00000001FF
