:100200000C9401070C941E070C941E070C941E07F7
:100210000C941E070C941E070C941E070C941E07CA
:100220000C941E070C941E070C941E070C941E07BA
:100230000C94B2160C941E070C941E070C941E0707
:100240000C941E070C94D20C0C9421090C941E07DC
:100250000C941E070C941E070C941B140C941E0780
:100260000C941E070C941E070C941E070C941E077A
:100270000C941E070C941E070C941E070C941E076A
:100280000C941E070C941E070C941E070C941E075A
:10029000252041474343532D4374726C323243202F
:1002A0002D2D2D20656E74657220223F5B43522FE9
:1002B0004C465D2220666F72206D6F72652064650A
:1002C0007461696C73007061727365206572726F1E
:1002D000720025205D5D5D0025203D3D3D3D3D3D9D
:1002E0003D0025206363732073746174653A2000B8
:1002F00025206C6F636B2073746174653A20002550
:100300002073797374696D653A200025203D3D3D69
:100310003D3D3D3D0025203D3D3D3D3D3D3D0025D4
:1003200020436F707972696768742054686F6D61DB
:1003300073204D6F6F722028632920323032302CA9
:10034000203230323100252041474343532D43743E
:10035000726C32324320415652204669726D776189
:1003600072652056657273696F6E200025203D3DD1
:100370003D3D3D3D3D0025205B5B5B007573616746
:10038000653D3100202520005B522F2D5D005B2D47
:100390002F575D005B522F575D0025200025205709
:1003A00039202D3E2041300025205739202D3E2078
:1003B00041300025205737202D3E20413000252098
:1003C0005736202D3E20413000252057362F372F1D
:1003D000382F39202D3E204F46460025205730200B
:1003E0002D3E2057362F372F382F390025205731F3
:1003F000202D3E204F4646202862746E290025207D
:100400005731202D3E204F4646202872747279299C
:100410000025205730202D3E205731002520503117
:10042000202D3E2057300025205031202D3E204FDA
:100430004646300025205030202D3E2050310025EA
:10044000204333202D3E2050302028706861736592
:10045000206368616E6765290025204333202D3EA7
:100460002050302028696E76616C696420706F7747
:100470006572290025204333202D3E20503020284E
:10048000696E76616C6964206361626C6529002520
:10049000204333202D3E204F46463020286275747D
:1004A000746F6E290025204333202D3E204F464691
:1004B0003920286370696C6F74290025204332202D
:1004C0002D3E2043330025204332202D3E20503046
:1004D00020287068617365732072656A656374654E
:1004E00064290025204332202D3E204F46463020EF
:1004F00028627574746F6E290025204332202D3ECA
:10050000204F46463920286370696C6F7429002596
:10051000204332202D3E20503020287068617365C2
:10052000732072656A656374656429002520433110
:10053000202D3E2043320025204331202D3E2045F2
:1005400052522028696C6C6567616C207068617319
:100550006573290025204330202D3E20433100259E
:10056000204330202D3E204552520025204231208C
:100570002D3E2057302028756E6861707079207785
:100580006974682043502D50574D29002520423171
:10059000202D3E204F4646302028627574746F6EC1
:1005A000290025204231202D3E2043302F310025C7
:1005B000204230202D3E2057302028696E76616C15
:1005C000696420706F776572290025204230202DE4
:1005D0003E2042310025204131202D3E204F46460D
:1005E000302028627574746F6E29002520413120F7
:1005F0002D3E204F464639202874696D656F75740D
:10060000290025204131202D3E2042300025204167
:1006100030202D3E2041310025204F464639202DE7
:100620003E204F4646300025204F464631202D3E85
:100630002041300025206363732073746174653A30
:10064000204F464632202D3E204F4646330025207F
:100650004F464631202D3E204F4646320025204F42
:10066000464630202D3E204F4646320025204F463C
:100670004630202D3E204F464631006379636C653D
:100680002074696D65206D696E2F6D617820006D35
:10069000735D003B2073616D706C652074696D65DE
:1006A00020003B20636E742023006D56205B6D6537
:1006B000616E2023006D563B20726D73503A20000E
:1006C0002520726D73463A20005D003B2053756D06
:1006D000503D003B2053756D463D003B20467371F5
:1006E000723D00205B463D0020002520726D7300A6
:1006F0002520726D73207265636F72642064756D5E
:1007000070002520726D73207265636F72642069BA
:100710006E636F6D706C65746500293B006D5640AB
:1007200000202800204C333A2000293B006D564021
:1007300000202800204C323A2000293B006D564012
:1007400000202800204C313A20002520726D733A99
:10075000003B2070703A20003B2064703A2000205B
:1007600063703A2000252070696C6F742075706486
:100770006174653A20005B626F745D00757365207B
:10078000227265736574212220666F722061207366
:100790006F66742072657365740075736520223FFF
:1007A00022206F7220227573616765212220746F89
:1007B000206F627461696E2074686973206C69735C
:1007C00074006F70657261746520636F6E7461632D
:1007D000746F727320286465632E20656E636F6486
:1007E0006564292C2075736520227373727E222024
:1007F000666F722022616C6C206F666622007265E3
:1008000061642F77726974652070756C7365206CF4
:10081000656E67746820746F20636C6F7365206CFD
:100820006F636B205B6D735D00726561642F77721F
:100830006974652070756C7365206C656E6774688B
:1008400020746F206F70656E206C6F636B205B6D22
:10085000735D0075736520226C6F636B21222F22FC
:100860006C6F636B7E2220746F206F706572617491
:100870006520746865206C6F636B00726561642F1E
:1008800077726974652063616C6962726174696F03
:100890006E20706172616D657465722063420072D2
:1008A0006561642F77726974652063616C69627237
:1008B0006174696F6E20706172616D65746572201C
:1008C000634100757365202263616C646D70212241
:1008D00020666F7220706572696F64696320647549
:1008E0006D7073206F6620524D5320636F756E7468
:1008F0007320287265712E2022726D7321222900C7
:1009000064756D70206D6F737420726563656E74AD
:1009100020726D73207265636F7264002D2D2D201F
:100920006469746F20666F7220435433002D2D2D3F
:10093000206469746F20666F7220435432006765CB
:100940007420726D732072656164696E67206F66D2
:1009500020435431205B6D565D2C20757365202239
:10096000726D7331212220746F207472696767651C
:100970007220757064617465007573652022726DF4
:100980007321222F22726D737E2220746F20656E78
:100990002F64697361626C6520706572696F646948
:1009A000632063757272656E742072656164696E2E
:1009B0006700726561642F7772697465206D617874
:1009C0002E2063757272656E7420696E646963614E
:1009D00074656420746F20746865204556207669BC
:1009E000612050574D206F6E20435000656E61624C
:1009F0006C652041444320636F756E74207265708E
:100A00006F727420666F722070696C6F74207265EB
:100A10006164696E670072656164205050202873BC
:100A2000616D6520617320636D6178637572295B08
:100A30003130306D415D0072656164204350206F3C
:100A40006E20206E6167617469762068616C6677DC
:100A5000617665205B2D565D0072656164204350B0
:100A6000205B565D00757365202270696C6F74732E
:100A700021222F2270696C6F79737E2220746F207F
:100A8000656E2F64697361626C6520706572696F51
:100A90006469632070696C6F742072656164696E4B
:100AA0006700757365202273696772656C21222F58
:100AB0002273696772656C7E2220746F20656E2FC9
:100AC00064697361626C6520746865207369676E20
:100AD000616C2072656C61790075736520226363B7
:100AE00073646D70212220746F20747261636B20B7
:100AF0004343532073746174652070726F6772652D
:100B00007373007365742F67657420626F6172641C
:100B1000207265766973696F6E00726561642F7704
:100B20007269746520696E7374616C6C65642063AE
:100B30006F6E746163746F7273205B312C2032208E
:100B40006F7220335D00726561642F77726974651E
:100B500020696E7374616C6C656420706861736584
:100B600073205B646563696D616C20656E636F649F
:100B7000696E675D00726561642F777269746520C4
:100B8000696E7374616C6C6564206D61782E20638E
:100B9000757272656E745B3130306D415D007573D6
:100BA00065202273617665212220746F207361763F
:100BB0006520636F6E66696775726174696F6E2018
:100BC000746F20454550524F4D0072656164206539
:100BD00072726F7220666C6167732C20736565207A
:100BE0006465636C61726174696F6E2022675F6512
:100BF00072726F722200726561642F777269746518
:100C00002064796E2E2070686173657320616C6C4E
:100C10006F6361746564205B646563696D616C20FA
:100C2000656E636F64696E675D00726561642F77DE
:100C3000726974652064796E2E206D61782E206350
:100C4000757272656E7420617661696C61626C6543
:100C5000205B3130306D415D002D2D2D2064697495
:100C60006F20666F72204C33002D2D2D2064697427
:100C70006F20666F72204C3200726561642063756C
:100C80007272656E7420647261776E206F6E204C94
:100C900031205B31306D415D007265616420656EAD
:100CA00061626C65642070686173656420617320A3
:100CB0007365742062792053535273205B646563BB
:100CC000696D616C20656E636F64696E675D290094
:100CD00072656164206D61782E2063757272656E35
:100CE00074207369676E616C656420746F2045566B
:100CF00020766961204350205B3130306D415D00CA
:100D0000726561642050502C20692E652E2C206D58
:100D100061782E206361626C652063617061636934
:100D20007479205B3130306D415D00726561642003
:100D30004343532073746174652C2073656520747C
:100D400079706564656620226363735F7374617490
:100D5000655F7422007265616420415652205643DB
:100D600043205B6D565D00726561642041565220E0
:100D70006469652074656D70657261747572205B5D
:100D8000435D00726561642F7365742073797374B9
:100D9000696D6520696E205B6D735D006F766572AD
:100DA00077726974652073746174757320696E64F9
:100DB000696361746F722028455350333229006F84
:100DC00076657277726974652073746174757320C7
:100DD000696E64696361746F72202872656D6F74E7
:100DE0006520686F7374290072656164206F757483
:100DF000206669726D776172652076657273696FBE
:100E00006E0011241FBECFEFCDBFDFE3DEBF18E2BF
:100E1000A0E0B8E2EDE8F5E402C005900D92A0353F
:100E2000B107D9F721E3A0E5B8E201C01D92A733CD
:100E3000B207E1F70E94961E0C9465210C94000104
:100E4000892B41F088ED84BF8091410081608093BF
:100E50004100FFCF90E080E0089528E0009719F06E
:100E600020930604089520930504089520918A0A8A
:100E700030918B0A273B3340C8F780938F2890939B
:100E800090288093B8289093B928089580913528A8
:100E90008B7F19F083E0809335280895CF93DF93FB
:100EA000EC01892B69F080913528823029F084305B
:100EB00019F081E080933528CE01DF91CF9108951C
:100EC0000E944607F9CF0F931F93CF93DF93FC0146
:100ED000009709F46EC0EC0130E020E00AE010E079
:100EE0001C161D0684F08091472890914828813077
:100EF000910501F54091492850914A28E417F507DA
:100F000039F580E442C0CE01B8010E94781F8230DA
:100F1000910561F08330910559F0019709F4216042
:100F2000CE01B8010E94781FEB01DACF2260F8CF22
:100F30002460F6CF8230910589F4E130F10501F1AA
:100F40004091492850914A2880E2E417F507E9F0DA
:100F500080E030E020E050E040E017C0039799F4D3
:100F60008091492890914A28853691058CF380E03C
:100F700020FD80E421FD806222FD8061AF0105C07B
:100F800041E050E0BECFAF0180E08093050490E7E0
:100F90008927809306044093A8285093A92820937A
:100FA000A6283093A728CF01DF91CF911F910F91F1
:100FB000089580E7809306041092A8281092A9282B
:100FC0001092A6281092A728EECF2091A028309149
:100FD000A1282817390701F12FEF3FEF209333287D
:100FE00030933428209331283093322820932F28AF
:100FF000309330282EEF3FEF20932B2830932C286E
:101000002093292830932A2820932D2830932E28A6
:101010008093A0289093A12808952091952830913D
:10102000962828173907F1F02FEF3FEF2093272854
:10103000309328282093252830932628209323288E
:101040003093242820931B2830931C2820931928A0
:1010500030931A28209317283093182880939528C6
:10106000909396280895E0E0FAE081818F7B818358
:10107000109293281092942890E080E008950097B1
:1010800011F40C9433082091932830919428281758
:101090003907A1F16AE0689FA001699F500D1124F2
:1010A000CA01039666E070E00E94781F64367105FD
:1010B0002CF1633583E0780714F062E573E025E0F6
:1010C000269FC001279F900D112480933C0A909386
:1010D0003D0A8091010A80648093010A26E0269FE0
:1010E000C001279F900D112405966AE070E00E94D0
:1010F000781F9B016093932870939428C9010895E9
:1011000088ED84BF81E0809361008091630080FD61
:10111000FCCF0895E0E6F4E080E1828388E08183FB
:1011200008958091B62821E030E0893010F026E162
:1011300030E08E518A3010F425E130E08091B22801
:101140009091B328892B11F024E130E08091392867
:1011500090913A28181619060CF49C0180913728B2
:10116000909138281816190654F125313105C1F02F
:101170008091B8289091B92860ED77E00E94781F9F
:10118000253131058CF464E670E00E94781F621707
:10119000730724F088E0809366040895C297D4F71B
:1011A00088E08093650408952631310551F464EF99
:1011B00071E00E94781F8A3F910564F7F1CF9C018E
:1011C000D4CF08959091680481E0292F207194FF75
:1011D00080E090918628981317C0909185289F5F92
:1011E0009093852890918528923369F4222339F0D1
:1011F00090918428911103C091E09093B12880933D
:101200008428109285280895809386281092852836
:10121000E9CFE0E0F8E08BE591E08087918783E01B
:101220008783858180688583A0E0B4E081E01196A2
:101230008C93119782E012968C938681806C8683C2
:1012400008951F920F920FB60F9211248F939F93C0
:10125000EF93FF93E091B02891E09E0F9093B02818
:10126000F0E0EC51FF4C8081882311F0933590F031
:10127000809105088F7D809305081092B028109208
:10128000AF28FF91EF919F918F910F900FBE0F901C
:101290001F90189580930208F4CF9091AF28911178
:1012A0000CC0E091B028E03540F491E09E0F90939F
:1012B000B028F0E0EC51FF4C808308958091AF2876
:1012C000811129C0E091B028AE2FB0E0AC51BF4CE5
:1012D0008DE08C93A1E0AE0FB0E0AC51BF4C8AE042
:1012E0008C93EE5FF0E0EC51FF4C10821092B0282E
:1012F00081E08093AF288091040885FFFCCF809126
:1013000005088062809305088091AE28882319F033
:101310008091AF28FBCF08958091AF288111FCCF39
:1013200081E08093AE2881E090E080933B28909309
:101330003C2808958091AF288111FCCF1092AE28EF
:1013400081E090E080933B2890933C280895CF93D0
:10135000DF932091AF28DC01222371F0DF91CF9140
:10136000089581E08E0F8093B028ED012197888148
:10137000F0E0EC51FF4C80838D91882379F3E0916C
:10138000B028E03570F3EACFFC018091AF288111DD
:101390000BC09091B028A92FB0E0AC51BF4C849104
:1013A000811103C09093B02808959035D8F79F5FBE
:1013B0008D933196F4CF0E94C4090C945E099C0170
:1013C0008091AF2881110FC09091B028E92FF0E0F3
:1013D000EC51FF4C80E2AF01445E5043421753078B
:1013E0001CF09093B02808959035D8F79F5F8193B3
:1013F000F2CFEF92FF920F931F93CF93DF93EC0105
:101400008091AF2881110FC0E091B028209729F575
:10141000E03548F481E08E0F8093B028F0E0EC5185
:10142000FF4C80E38083DF91CF911F910F91FF905C
:10143000EF90089541505109C901A1F40E2F10E019
:101440000C511F4C8AE0E82EF12C2115310511F0CA
:10145000E03590F0E093B028E6CF44E050E081E042
:1014600090E06AE0689F9001699F300D1124C217D7
:10147000D30700F79C01E2CFCE01B9010E94641F9F
:10148000EF5F605DD8016D938D01EC01C901B7017B
:101490000E94641F9B01D9CF2091AF28211124C045
:1014A000009771F4E091B028E035F0F481E08E0F00
:1014B0008093B028F0E0EC51FF4C80E380830895E6
:1014C00097FF10C0E091B028E03570F491958195B8
:1014D000910921E02E0F2093B028F0E0EC51FF4C51
:1014E0002DE220830C94F90908954F925F926F9238
:1014F0007F928F929F92AF92BF92CF92DF92EF92A4
:10150000FF920F931F93CF93DF934B015C01809168
:10151000AF28811112C0C091B02881149104A10498
:10152000B104A1F5C03548F481E08C0F8093B02858
:10153000D0E0CC51DF4C80E38883DF91CF911F91C5
:101540000F91FF90EF90DF90CF90BF90AF909F9062
:101550008F907F906F905F904F9008953197DC2D22
:101560007D2C8701C9F40C2F10E00C511F4C8AE030
:10157000482E512C612C712CC114D104E104F104CA
:1015800011F0C035D8F0C093B028D7CFE9E0F0E033
:10159000D1E0712C00E010E0AAE0B0E02D2F372D53
:1015A000A8010E94CC1F6B017C018C149D04AE0429
:1015B000BF04A0F6CD2ED72C7801D5CFC501B4013C
:1015C000A70196010E948C1FCF5F205DF801219337
:1015D0008F014B015C01C701B601A30192010E947A
:1015E0008C1F69017A01C8CF2091AF2821112BC02F
:1015F000611571058105910571F4E091B028E03520
:1016000010F581E08E0F8093B028F0E0EC51FF4C94
:1016100080E38083089597FF14C0E091B028E035FF
:1016200090F490958095709561957F4F8F4F9F4F67
:1016300021E02E0F2093B028F0E0EC51FF4C2DE27A
:1016400020830C94750A08952F923F924F925F92D7
:101650006F927F928F929F92AF92BF92CF92DF92C2
:10166000EF92FF920F931F93CF93DF93CDB7DEB727
:101670002E97CDBFDEBF8D879E87019799F480910D
:101680009D2890919E28883E934021F480919F2828
:10169000882359F00E948C0982E097E00E94DB09C0
:1016A0000E949A091D861E8665C180EF96E00E9401
:1016B000DB0944E159E249835A8344EE50E364E193
:1016C000262E69E2362E80E090E0DC01F1010191E6
:1016D00011911F01012E000C220B330B800F911F63
:1016E000A21FB31F4E175F0789F7BC01CD016C50D5
:1016F0007E4F8F4F9F4F28EE33E040E050E00E9436
:101700008C1F2B833C834D835E832B813C812B87F5
:101710003C874091142950911529421B530BC12C31
:10172000D12C7601812C912C5401412C512C320169
:10173000A981BA810D911D91A983BA83EB85FC859E
:101740000E1B1F0B9801D8010E94AE1F460E571E9C
:10175000681E791EC801841B950B092E000CAA0B6C
:10176000BB0BBA2FA92F982F8827880D991DAA1D6A
:10177000BB1D492F5A2F6B2F772767FD7A954C0198
:101780005D01841A950AA60AB70AC501B40142E0B0
:1017900095958795779567954A95D1F797FF07C0F7
:1017A00090958095709561957F4F8F4F9F4F9B01CE
:1017B000AC010E94541F9B01AC019AE056954795DD
:1017C000379527959A95D1F72F83388749875A8778
:1017D000C20ED31EE41EF51E0E948C098AEE96E00E
:1017E0000E94C40980919B2890919C280E944C0AD9
:1017F00088EE96E00E94C409C8010E944C0A83EE5C
:1018000096E00E94C409C501B4010E94F40A8BED60
:1018100096E00E94C4096F81788589859A850E9427
:10182000750A83ED96E00E94C409C701B6010E94C3
:10183000750A8BEC96E00E94C409C301B2010E94B4
:10184000750A89EC96E00E94C4090E945E090E9414
:101850009A09A80189819A812816390609F068CF6A
:10186000C301B20163587F4F8F4F9F4F2AEF30E083
:1018700040E050E00E948C1FCA01B9010E94732011
:101880000E94072120E030E040E05FE30E94D81F83
:101890000E9444209B01A4ECB9E00E94B61F615055
:1018A0007C4F8F4F9F4F2FEF37E040E050E00E947A
:1018B0008C1F4901C701B60128EE33E040E050E03B
:1018C0000E948C1FCA01B9010E9473200E94072147
:1018D00020E030E040E05FE30E94D81F0E944420F7
:1018E0009B0136952795A4ECB9E00E94B61F615084
:1018F0007E4F8F4F9F4F2FEF33E040E050E00E942C
:101900008C1F69010E948C0980EC96E00E94C4093A
:10191000C6010E94F90985EB96E00E94C409C40142
:101920000E94F9098AEA96E00E94C4098B819C8191
:101930000E94F90982EA96E00E94C40988EE93E0C9
:101940000E944C0A83E996E00E94C409809197287E
:10195000909198282091992830919A28821B930B76
:101960000E944C0A8FE896E00E94C4090E945E091A
:101970000E949A098D859E852E96CDBFDEBFDF9190
:10198000CF911F910F91FF90EF90DF90CF90BF907C
:10199000AF909F908F907F906F905F904F903F900F
:1019A0002F9008951F920F920FB60F9211248F93CC
:1019B0009F93EF93FF93809100089091AC28911131
:1019C00007C08D3029F08A3061F481E08093AC2823
:1019D000FF91EF919F918F910F900FBE0F901F90ED
:1019E0001895E091AD28E03598F791E09E0F90931F
:1019F000AD28F0E0EE53F74D8083EACF1092AD288A
:101A00001092AC2808958091AC28882391F08091A1
:101A1000AC28813061F4E091AD28F0E0EE53F74D51
:101A2000108282E08093AC2882EC98E208950E94B4
:101A3000FE0C90E080E00895FC01EE0FFF1FFF27F1
:101A4000F4618081918108952091AA283091AB287A
:101A5000260F371F2093AA283093AB28FC01EE0FE6
:101A6000FF1FFF27F461608371838DE984BF83E0EA
:101A7000809300108091021081FDFCCF0895CF93D8
:101A8000DF93009709F49AC08091B628843108F05A
:101A900098C08FB78F778FBF1092AA281092AB286B
:101AA00060914D2870914E2890E080E00E94240DB6
:101AB00060914B2870914C2881E090E00E94240DA9
:101AC0006091492870914A2882E090E00E94240D9C
:101AD000609147287091482883E090E00E94240D8F
:101AE000609143287091442884E090E00E94240D86
:101AF000609145287091462885E090E00E94240D71
:101B00006091C0287091C12886E090E00E94240D69
:101B1000609141287091422887E090E00E94240D56
:101B200060913F287091402888E090E00E94240D49
:101B30006091BE287091BF2889E090E00E94240D3A
:101B400060913D2870913E288AE090E00E94240D2B
:101B50006091BC287091BD288BE090E00E94240D1C
:101B60006091AA287091AB288CE090E00E94240D2F
:101B70008FB780688FBF1092AA281092AB28D0E050
:101B8000C0E0CE010E941C0D2091AA283091AB2804
:101B9000820F931F8093AA289093AB282196CC3074
:101BA000D10579F731E020E04091181450911914D3
:101BB0004817590709F030E0832F922FDF91CF911A
:101BC000089590E080E0FACFCF93DF931092AA2897
:101BD0001092AB28D0E0C0E0CE010E941C0D2091F5
:101BE000AA283091AB28820F931F8093AA28909344
:101BF000AB282196CC30D10579F72091181430917B
:101C000019148217930761F08091B2289091B3283C
:101C100084608093B2289093B328DF91CF91089588
:101C2000809100149091011480934D2890934E2838
:101C3000809102149091031480934B2890934C2828
:101C400080910414909105148093492890934A2818
:101C50008091061490910714809347289093482808
:101C600080910814909109148093432890934428FC
:101C700080910A1490910B148093452890934628E4
:101C800080910C1490910D148093C0289093C128DA
:101C900080910E1490910F148093412890934228C4
:101CA000809110149091111480933F2890934028B4
:101CB00080911214909113148093BE289093BF28A2
:101CC000809114149091151480933D2890933E2890
:101CD00080911614909117148093BC289093BD287E
:101CE0009CCFE0E0F4E080E78183868388E0818315
:101CF000858380E881838583E0E4F4E084E0818368
:101D000085838093620481E08093A20408958823F0
:101D100031F0813059F090E89093050403C090E8C9
:101D20009093060494E09093450406C090E8909345
:101D3000050494E0909346048093362808956091BA
:101D4000452870914628409135286115710531F07C
:101D50008091432890914428009769F4433011F40E
:101D60001092352880913528813009F094C182E0A5
:101D700080933528089520913628223009F0B8C084
:101D80002091680422FB222720F930911428231384
:101D9000AAC0309183283F5F3093832830918328F5
:101DA0003A3020F010928328209313282091122893
:101DB000241789F1413009F0A2C083E08093822882
:101DC0002091BA283091BB28209380283093812815
:101DD000260F371F20937E2830937F282C503E4FAC
:101DE00020937C2830937D28CB018C53964F28EE8E
:101DF00033E0B9010E94641F6F5F7F4F629FC00193
:101E0000639F900D729F900D1124809310289093E2
:101E1000112840931228413081F58091BA28909181
:101E2000BB2820918028309181288217930708F4DD
:101E300081C0821B930B97FF85C08091BA28909137
:101E4000BB2820917E2830917F288217930708F4C1
:101E500087C0821B930B97FF8BC08091BA2890910B
:101E6000BB2820917C2830917D288217930708F4A5
:101E70008DC0821B930B97FF91C0809135288330D2
:101E800009F009C18091BA289091BB28209180283F
:101E9000309181288217930708F4A6C0821B930B08
:101EA00097FFAAC08091BA289091BB2820917E28E4
:101EB00030917F288217930708F4ACC0821B930BE4
:101EC00097FFB0C08091BA289091BB2820917C28C0
:101ED00030917D288217930708F4B2C0821B930BC0
:101EE00097FFB5C00895209314281092832856CFE9
:101EF00021E020931428109283282FEF55CF4330F0
:101F000009F087CF2AE0209382282091BA283091C7
:101F1000BB282093802830938128280F391F2093D5
:101F20007E2830937F282C503E4F20937C2830937E
:101F30007D285BCFA901481B590BCA01813090480D
:101F400008F47BCF8091102890911128280F391F19
:101F5000209380283093812881E00E94870E6DCFE6
:101F6000A901481B590BCA018130904808F475CF6C
:101F70008091102890911128280F391F20937E28D6
:101F800030937F2882E00E94870E67CFA901481B0B
:101F9000590BCA018130904808F46FCF8091102806
:101FA00090911128280F391F20937C2830937D2889
:101FB00080911328813021F482E0809335285DCF11
:101FC00080918228815080938228811156CF83E0AE
:101FD000809335288091B2289091B32881608093B6
:101FE000B2289093B32849CFA901481B590BCA01C5
:101FF0008130904808F456CF809110289091112894
:10200000280F391F209380283093812880E00E9478
:10201000870E48CFA901481B590BCA01813090484F
:1020200008F450CF8091102890911128280F391F63
:1020300020937E2830937F2882E00E94870E42CF33
:10204000A901481B590BCA018130904820F18091A9
:10205000102890911128280F391F20937C28309345
:102060007D2880911328811103C01092352808958E
:102070008091822881508093822881110CC084E055
:10208000809335288091B2289091B3288160809305
:10209000B2289093B32808958091A80480FD0EC0C3
:1020A00080E00E94870E90E080E00E9463070E941B
:1020B0008C0986E797E00E94DB09FFCF0895E0EAEC
:1020C000F0E0808180628083808182608083818172
:1020D00082608183E0E8F6E08081816080838FEF19
:1020E00084830895E0E6F4E081E082838089887F3C
:1020F000808B80898460808B8089877F808B82E061
:1021000082838189887F818B81898460818B8189A9
:10211000877F818B08958091B72881117AC01092B2
:10212000000684E080930106109202068091020668
:10213000836080930206809102068093020680915C
:1021400002068064809302061092030680910306C3
:102150008066809303068091030680618093030666
:102160008FE1809305068EE18093060610920A06A1
:10217000809100068160809300068091080681604E
:102180008093080680910B0680FFFCCF60911006BB
:102190007091110690E080E024E0660F771F881FA1
:1021A000991F2A95D1F7685C7F4F8F4F9F4F20E78B
:1021B00030E040E050E00E948C1F80912111A091FE
:1021C0002011082E000C990B281B390BB0E00E943F
:1021D000B61FDC01CB0180589F4FAF4FBF4F892FF7
:1021E0009A2FAB2FBB2781519140A109B109809350
:1021F000A4289093A528809100068E7F80930006E6
:10220000809102068061809302061092B72881E0D7
:10221000089580E008958091B72881115BC01092E5
:10222000000684E080930106109202068091020667
:10223000836080930206809102068061809302068B
:1022400080910206806480930206109203068091BA
:102250000306806680930306809103068061809365
:1022600003068FE1809305068CE1809306061092A9
:102270000A0680910006816080930006809108061E
:1022800081608093080680910B0680FFFCCF20912F
:10229000100630911106B9017695679590E080E0BF
:1022A000645A7C4082499D4F50E040E00E948C1F60
:1022B0002093A2283093A328809100068E7F8093DC
:1022C0000006809102068061809302061092B72872
:1022D00081E0089580E00895CF93DF938091BA283C
:1022E0009091BB28C0917A28D0917B288C179D07AC
:1022F00038F08C1B9D0B97FF0AC0DF91CF9108959A
:102300009E01281B390BC90181309048B0F38091A0
:102310007928882369F00E948B10882371F3C05FAD
:10232000D84DC0937A28D0937B2810927928E5CF96
:102330000E940B11882309F3C05FD84DC0937A28FF
:10234000D0937B2881E080937928D7CF8F929F927A
:10235000AF92BF92CF92DF92EF92FF920F931F93B3
:10236000CF93DF938091B728811182C191E0909340
:10237000B7281092000682E08093010610920206B0
:10238000809102068260809302068091020680613D
:102390008093020680910206806480930206109268
:1023A00003068091030680628093030680910306F2
:1023B0008061809303061092050610920A068091B0
:1023C0000006816080930006909306068091200AA3
:1023D0009091210A8A3F9105C8F38091200A90913B
:1023E000210A8A3F9105C8F781E080930806809111
:1023F0000B0680FFFCCFC0901006D0901106D5943C
:10240000C794D594C7946CE0E62EF12C2EE5C21645
:1024100023E0D2069CF4C6018C50934059E0E52E8F
:10242000F12C8633910550F08E5A9F4FEE24EA949A
:10243000FE2CC69718F446E0E42EF12C80912B2850
:1024400090912C28029641F4109278288FEF9FEFFC
:1024500080932B2890932C2880912B2890912C28C6
:102460008E159F0509F0EFC0809178288F5F8093CB
:10247000782880917828853021F4E0923328F092F2
:1024800034288091200A9091210A8E389241C8F315
:1024900081E08093080680910B0680FFFCCF80903E
:1024A0001006909011069594879495948794C40192
:1024B0008E5D9109AA24AA94BA2CC59718F49CE0C1
:1024C000A92EB12C8091292890912A28029641F4B6
:1024D000109277288FEF9FEF8093292890932A28D6
:1024E0008091292890912A288A159B0509F0B2C06D
:1024F000809177288F5F8093772880917728853027
:1025000021F4A0923128B09232281092060681E080
:102510008093080680910B0680FFFCCF0091100687
:102520001091110615950795159507958091100640
:1025300090911106C2E8D0E0053D83E01807BCF495
:10254000C80185509140C8ECD0E08B3D910578F0F2
:1025500082599F4FC0E4D1E08534910540F0855BFE
:102560009F4FCFEFDFEF8C9710F4C6E7D2E080915A
:102570002D2890912E28029641F4109276288FEF04
:102580009FEF80932D2890932E2880912D28909155
:102590002E288C179D0709F064C0809176288F5FE4
:1025A0008093762880917628853021F4C0932F2857
:1025B000D0933028809100068E7F80930006109281
:1025C000B728809175288F5F809375282091BC284B
:1025D0003091BD28232BA9F1853698F110927528EA
:1025E0000E948C0985E697E00E94C4098FE597E078
:1025F0000E94C409C7010E944C0A80E40E944D0950
:10260000C6010E944C0A88E597E00E94C409C501F2
:102610000E944C0A80E40E944D09C4010E944C0AA9
:1026200081E597E00E94C409CE010E944C0A80E433
:102630000E944D09C8010E944C0A0E945E090E9436
:102640009A0981E016C0E0922B28F0922C28109273
:1026500078280FCFA0922928B0922A2810927728A4
:102660004CCFC0932D28D0932E28109276289ACF45
:1026700080E0DF91CF911F910F91FF90EF90DF905D
:10268000CF90BF90AF909F908F900895CF93DF939E
:102690008091BA289091BB28C0917328D09174285A
:1026A0002091A0283091A128232BB9F48C179D07E5
:1026B00038F08C1B9D0B97FF0AC0DF91CF910895D6
:1026C0009E01281B390BC90181309048B0F36096F8
:1026D000C0937328D0937428F0CF8C179D0748F0CF
:1026E0008C1B9D0B97FDE9CF0E94A6118111EFCFA6
:1026F000E4CF9E01281B390BC90181309048A0F717
:10270000DCCFE0E6F4E080E282838589887F858BF8
:1027100085898460858B8589877F858B80E482832A
:102720008689887F868B86898460868B8689877F69
:10273000868B80E882838789887F878B87898460FE
:10274000878B8789877F878B089590919F28911128
:1027500052C09091B72891114EC091E09093B72844
:102760001092000610920106109202069091020645
:1027700092609093020690910206909302069091C7
:10278000020690649093020610920306909103064D
:102790009068909303069AE090930506282F30E006
:1027A000823019F1833019F1813019F585E0809379
:1027B000060620939B2830939C2891E090930A066C
:1027C0008091000681608093000610929D281092EF
:1027D0009E282091BA283091BB28209399283093C5
:1027E0009A2890939F2881E0089586E0E0CF87E0C3
:1027F000DECF1092B72880E00895019729F481E098
:102800000E94A51390E0089590E080E0089501975C
:1028100029F482E00E94A51390E0089590E080E002
:102820000895019729F483E00E94A51390E008958C
:1028300090E080E008951F920F920FB60F9211243E
:102840002F933F934F935F938F939F93EF93FF93B8
:10285000409110065091110680919F28813001F51A
:1028600080919D2890919E289C012F5F3F4F20933F
:102870009D2830939E28880F991FFC01EC5EF64D31
:1028800040835183283E33405CF082E080939F2850
:102890008091BA289091BB2880939728909398288C
:1028A000FF91EF919F918F915F914F913F912F9168
:1028B0000F900FBE0F901F9018958F929F92AF921E
:1028C000BF92CF92DF92EF92FF920F931F9380916E
:1028D0009F28823061F540910E2850910F2857FFB4
:1028E0003CC0E4E1F9E244EE50E380E090E0DC013A
:1028F0004E175F0739F5BC01CD016C507E4F8F4FED
:102900009F4F28EE33E040E050E00E948C1F209360
:102910000C2830930D2810926F2810927028109276
:1029200071281092722810920E2810920F281F9171
:102930000F91FF90EF90DF90CF90BF90AF909F905E
:102940008F90089501911191012E000C220B330BF1
:10295000800F911FA21FB31FCBCF483E23E0520729
:10296000ECF58A010C591F4F093E83E0180714F05B
:1029700008EE13E0E0900C28F0900D2880906F286E
:1029800090907028A0907128B0907228FA01EE0FF4
:10299000FF1FEC5EF64D401751076CF080926F28D8
:1029A00090927028A0927128B092722840930E28BD
:1029B00050930F28BCCFA191B191AE19BF09B7FFB9
:1029C00003C0B195A195B1099D010E94AE1F860E6D
:1029D000971EA81EB91E4F5F5F4FDDCF483E23E014
:1029E000520759F560916F28709170288091712875
:1029F0009091722863587F4F8F4F9F4F2AEF30E09E
:102A000040E050E00E948C1FCA01B9010E9473206F
:102A10000E94072120E030E040E05FE30E94D81FE1
:102A20000E94442060936D2870936E2889EE93E095
:102A300080930E2890930F287ACF493E534009F097
:102A400076CFE0916D28F0916E28DF012EEC38E30F
:102A500041E050E00E94CC1F6B017C0120E8D20EC7
:102A6000E11CF11C6701EE24FF24A0914128B091E4
:102A700042289F010E94C51F00913F2810914028C5
:102A8000012E000C220B330BDC01CB01800F911FB8
:102A9000A21FB31F9E5FAF4FBF4F2AE0B595A7950A
:102AA000979587952A95D1F78A30910514F490E08F
:102AB00080E020919B2830919C282230310509F438
:102AC000B0C02330310509F4B9C02130310561F4BB
:102AD000E0932728F0932828C0922128D09222281A
:102AE00080931B2890931C2810929F281092B7283F
:102AF0008FEF9FEF80930E2890930F288091C0282E
:102B00009091C128892B09F412CF0E948C098AE484
:102B100097E00E94C40980911B2890911C2897FD82
:102B200022C084E497E00E94C40980911B28909100
:102B30001C280E94F90981E497E00E94C409809151
:102B40002128909122280E94F9098DE397E00E94A4
:102B5000C40980912728909128280E94F9098AE3C6
:102B600097E00E94C4098091192890911A2897FD36
:102B700022C084E397E00E94C409809119289091B3
:102B80001A280E94F90981E397E00E94C409809104
:102B90001F28909120280E94F9098DE297E00E9459
:102BA000C40980912528909126280E94F9098AE27B
:102BB00097E00E94C409809117289091182897FDEA
:102BC00022C084E297E00E94C40980911728909166
:102BD00018280E94F90981E297E00E94C4098091B7
:102BE0001D2890911E280E94F9098DE197E00E940E
:102BF000C40980912328909124280E94F9098AE130
:102C000097E00E94C4090E945E091F910F91FF90F6
:102C1000EF90DF90CF90BF90AF909F908F900C94EB
:102C20009A09E0932528F0932628C0921F28D09275
:102C300020288093192890931A2856CFE0932328B0
:102C4000F0932428C0921D28D0921E288093172824
:102C50009093182849CF0F931F93CF93DF93C09180
:102C60000A28D0910B288091952890919628892B3D
:102C7000F9F410929F288091BA289091BB288C1764
:102C80009D0748F08C1B9D0B97FF0CC0DF91CF91E7
:102C90001F910F9108959E01281B390BC9018130A6
:102CA0009048A0F3DC5FC0930A28D0930B28EECFA6
:102CB0000E945D148091BA289091BB288C179D07C3
:102CC000B8F08C1B9D0B97FDE1CF00910828109167
:102CD0000928802F0E94A5138823C1F20F5F1F4F80
:102CE000043011056CF40093082810930928DACFFA
:102CF0009E01281B390BC9018130904830F7C6CF9F
:102D000081E090E08093082890930928CBCFE0E001
:102D1000F4E084E0818385831092E405E0E0FAE04A
:102D20008081808381818760818388E893E186A3A5
:102D300097A384EF91E084A795A781818F7B8183FE
:102D40008081816080830895E0E8FAE0108211823A
:102D500081E0858388EE93E0848795878081816018
:102D6000808308951F920F920FB60F9211242F9314
:102D70008F939F9380919F28813029F4809108063A
:102D800081608093080680916C288F5F80936C2807
:102D90008A3068F48091860A81608093860A9F91C8
:102DA0008F912F910F900FBE0F901F90189510923A
:102DB0006C28809191289091922801968093912877
:102DC0009093922880918F289091902801968093DB
:102DD0008F289093902880918F289091902880330D
:102DE0009547C4F210928F2810929028D3CF8091EB
:102DF0008A0A90918B0A873B9340C8F7809191286B
:102E0000909192288093BA289093BB2880918F2824
:102E1000909190288093B8289093B9280895809134
:102E2000BA289091BB2820918B2830918C288093D0
:102E30008B2890938C2840913B2850913C28452B1F
:102E4000C1F4821B930B209115283091162882170C
:102E5000930720F4809315289093162820918D28AD
:102E600030918E282817390720F480938D2890936D
:102E70008E2810923B2810923C2808958BE796E00C
:102E80000E94C40980911528909116280E94F90982
:102E90008FE20E944D0980918D2890918E280E948A
:102EA000F9090E945E098FEF9FEF80931528909398
:102EB000162810928D2810928E2881E090E0809341
:102EC0003B2890933C280895CF93DF932091BE2810
:102ED0003091BF28232B61F0EC010E948C09CE01B8
:102EE0000E94C4090E945E09DF91CF910C949A0957
:102EF000DF91CF91089580914B2890914C28809339
:102F0000892890938A288091492890914A28809313
:102F10008728909388281092B6280895CF93DF933E
:102F200080914B2890914C282091892830918A28B3
:102F30008217930724F48093892890938A2880919C
:102F4000B628811118C08091932890919428892BDC
:102F500009F4F1C381E08093B6288CE696E00E94E4
:102F600064178091BA289091BB288854944F80931D
:102F70006A2890936B288091B628813091F40E9442
:102F800033082091BA283091BB2880916A2890910B
:102F90006B282817390708F4D6C3281B390B37FFCD
:102FA000D8C38091B628823071F590E080E00E940D
:102FB000630790E080E00E940D080E94330890E0D3
:102FC00080E00E94E50788E0809305040E944607A0
:102FD000109268281092692810926628109267282B
:102FE000109264281092652810926228109263282B
:102FF00080913528811107C084E396E00E94641710
:1030000083E08093B6288091B628833069F480915C
:10301000B128882349F087E296E00E946417109255
:10302000B1288AE08093B6288091B6288930E9F4E7
:1030300090E080E00E94630790E080E00E940D082D
:103040000E94330890E080E00E94E50788E08093CA
:1030500005048091B128882341F088E196E00E9420
:1030600064171092B1281092B6288091B6288A3041
:1030700051F590E080E00E94630790E080E00E94BC
:103080000D0881E090E00E94E5070E94330888E087
:103090008093060410926828109269281092642880
:1030A000109265288091BA289091BB28805D9A483B
:1030B00080936028909361288DE096E00E946417C9
:1030C0008BE08093B6288091B6288B3081F5809173
:1030D000332890913428099771F480912F2890918A
:1030E0003028181619063CF482E096E00E94641716
:1030F00084E18093B6282091BA283091BB28809132
:103100006028909161282817390708F42AC3281BE2
:10311000390B37FF2CC38091B128882341F085ED0E
:1031200095E00E9464171092B1281092B628809101
:10313000B628843109F045C090E080E00E94630722
:1031400090E080E00E940D0881E090E00E94E50799
:1031500088E08093060481E090E00E944E07109280
:10316000682810926928109264281092652880912E
:103170003528823031F58091892890918A28CC9722
:103180000CF4FDC280912F2890913028CC970CF43C
:10319000F6C28091872890918828892B09F4EFC284
:1031A0008091BA289091BB28805F984D80935E28CB
:1031B00090935F288AEC95E00E94641785E18093E4
:1031C000B6288091B628853109F042C0209189281F
:1031D00030918A28209364283093652880912F2885
:1031E000909130288217930724F480936428909359
:1031F000652880916428909165280E943F088091FD
:10320000332890913428069739F482EA95E00E9499
:1032100064178EE18093B6288091B128882341F00D
:103220008CE895E00E9464171092B1281092B6289D
:103230002091BA283091BB2880915E2890915F2818
:103240002817390708F4A1C2281B390B37FFA3C27E
:103250008091B6288E31C1F48091642890916528C0
:10326000CC975CF08091872890918828892B29F051
:1032700080913528823009F496C28FE595E00E944E
:1032800064178AE58093B6288091B6288F3109F0BB
:1032900051C0C0918728D0918828C0936828D093C6
:1032A000692880916428909165280E943F0888E0F1
:1032B0008093060481E090E00E94E507CE010E9421
:1032C00063078091A8289091A928C817D90739F0D9
:1032D00087E395E00E9464178AE58093B62881E031
:1032E00090E00E940D088CE295E00E94641780E255
:1032F0008093B6288091BA289091BB28805F984D22
:1033000080935C2890935D288091A6289091A728AF
:1033100080936628909367288FEF9FEF80935A28B9
:1033200090935B288093582890935928809356282F
:10333000909357288091B628803209F080C0809100
:103340001B2890911C2820915A2830915B2828171F
:10335000390724F480935A2890935B288091192888
:1033600090911A2820915828309159282817390708
:1033700024F480935828909359288091172890918D
:10338000182820915628309157282817390724F4F7
:103390008093562890935728809133289091342811
:1033A000099721F580915A2890915B2820915828FF
:1033B00030915928820F931F209156283091572819
:1033C000820F931F20913D2830913E28821793074A
:1033D0006CF48091A6289091A728079739F08FE088
:1033E00095E00E94641788E28093B6288091332884
:1033F00090913428069739F089EF94E00E94641781
:1034000089E08093B6288091B128882341F083EE2B
:1034100094E00E9464171092B1281092B62820916F
:10342000BA283091BB2880915C2890915D2828179C
:10343000390708F4BEC1281B390B37FFC0C1809182
:10344000B6288132A1F510926228109263288091EB
:10345000332890913428069739F085EA94E00E9449
:10346000641789E08093B6288091B128882341F0C1
:103470008FE894E00E9464171092B1281092B62849
:1034800080912F28909130288C3391050CF0C2C187
:10349000109264281092652810926828109269286A
:1034A00084E794E00E94641788E28093B6288091B4
:1034B000B628883299F40E9433088091BA289091F6
:1034C000BB28805F984D80936A2890936B2884E393
:1034D00094E00E94641789E28093B6288091B62810
:1034E000893219F58091B128882341F087E294E070
:1034F0000E9464171092B1281092B6282091BA2821
:103500003091BB2880916A2890916B282817390741
:1035100008F4BAC1281B390B37FFBCC1809133288E
:1035200090913428069709F0B5C18091B62882336E
:1035300029F590E080E00E94630788E0809305040D
:1035400090E080E00E940D088091622890916328AD
:10355000019680936228909363288091BA28909175
:10356000BB28805F984D809354289093552881E123
:1035700094E00E94641783E38093B6288091B62874
:10358000833349F58091622890916328059739F437
:103590008EEF93E00E94641789E08093B6288091B3
:1035A000B128882341F08CEE93E00E9464171092BA
:1035B000B1281092B6282091BA283091BB2880916A
:1035C0005428909155282817390708F46BC1281BF7
:1035D000390B37FF6DC18091B6288853843060F471
:1035E0008091B128882341F089EC93E00E94641710
:1035F0001092B1281092B6288091B6288833C9F469
:103600008091892890918A28CC979CF080912F28CE
:1036100090913028CC976CF08091872890918828E1
:10362000892B39F08EEB93E00E9464178AE0809337
:10363000B6288091B628893311F58091642890913D
:10364000652884369105DCF48091892890918A2838
:1036500084369105A4F080912F28909130288436EB
:1036600091056CF08091872890918828892B39F0FA
:1036700083EB93E00E9464178AE08093B6288091E0
:10368000B6288A33C9F48091892890918A28CC97EA
:103690009CF080912F2890913028CC976CF08091ED
:1036A000872890918828892B39F088EA93E00E9436
:1036B00064178AE08093B6288091B6288B3331F561
:1036C0008091892890918A28CC9704F180912F28A5
:1036D00090913028CC97D4F08091872890918828B9
:1036E0000097A1F0209168283091692882179307EC
:1036F00069F08091662890916728079739F08DE9E5
:1037000093E00E9464178AE08093B6288091B628DF
:103710008A3549F42091B2283091B3282260209351
:10372000B2283093B32890E08093B4289093B528C2
:10373000DF91CF91089582E08093B6288DE596E0E1
:103740000E94641718CC821B930B8130904808F4B8
:1037500028CC8EE496E00E94641782E08093B6281D
:1037600020CC821B930B8130904808F4D4CC8BEE94
:1037700095E00E94641789E08093B628CCCC8FEA4C
:1037800095E00E94641782E31ACD821B930B81306F
:10379000904808F45DCD8BE695E00E94641782E3C3
:1037A0008093B62855CD84E595E00E9464178FE19B
:1037B00069CD821B930B8130904808F440CE8091F4
:1037C0005A2890915B282091582830915928820FCF
:1037D000931F2091562830915728820F931F2091D4
:1037E0003D2830913E288217930774F48091A628D3
:1037F0009091A728079741F086EC94E00E94641707
:1038000088E28093B6281BCE8BEB94E00E9464176D
:1038100081E2F7CF409187285091882841155105C2
:1038200039F02091892830918A282C3331055CF4B5
:1038300010926428109265281092682810926928C6
:1038400089E594E02FCE6091682870916928461729
:10385000570739F010926428109265288FE394E09E
:1038600021CE821793075CF020936428309365285B
:1038700080916428909165280E943F0818CE80931B
:10388000642890936528F4CF821B930B8130904875
:1038900008F444CE8CE194E00E94641782E38093A4
:1038A000B62843CE821B930B8130904808F493CE08
:1038B0008BED93E00E9464178091682890916928AD
:1038C0002091642830916528232B41F4892B51F4F1
:1038D00088E38093B6287FCE89E3FBCF892BE1F381
:1038E0008BE3F7CF8AE3F5CF0F931F93CF93DF934B
:1038F0008091AF28811189C0C091B628D0E0809115
:10390000062890910728C817D90769F5C0911B2888
:10391000D0911C288091042890910528C817D907B8
:10392000E9F5C0911928D0911A2880910228909128
:103930000328C817D90709F447C09C012B5F3F4FE4
:103940002C173D074CF02A503109C217D30724F039
:10395000D7FD02C097FF38C0C0930228D093032838
:1039600008ED12E806C0C0930628D093072803ED9F
:1039700012E88BE50E944D09C8010E94A7098DE35A
:103980000E944D09CE010E944C0A8DE50E944D090E
:10399000DF91CF911F910F910C945E099C012B5FD9
:1039A0003F4F2C173D074CF02A503109C217D3075F
:1039B00024F0D7FD02C097FFB4CFC0930428D09362
:1039C00005280DED12E8D5CFC0911728D091182801
:1039D0008091002890910128C817D907B1F09C0167
:1039E0002B5F3F4F2C173D074CF02A503109C2176F
:1039F000D30724F0D7FD02C097FF07C0C09300286B
:103A0000D09301280EEC12E8B4CFDF91CF911F9133
:103A10000F910895CF93DF93C3EDD3E88881998107
:103A2000892B19F4DF91CF9108958AE993E00E94E0
:103A3000C409888199810E94A7098A819B81892B69
:103A400049F08DE30E944D09EA81FB8180819181DB
:103A50000E944C0A8CE090E00E94DF098A819B81E1
:103A6000892B61F08C819D81892B21F48E819F812E
:103A7000892B21F084E993E00E94C4098A819B810B
:103A8000892B61F48C819D81892B21F48E819F810A
:103A9000892B21F08EE893E00E94C4098A819B81E2
:103AA000892B61F08C819D81892B41F48E819F81CE
:103AB000892B21F488E893E00E94C40988859985C0
:103AC000892B41F084E893E00E94C4098885998598
:103AD0000E94C4090E945E092A96A0CF8CE793E059
:103AE0000E94DB090E948C0986E793E00E94DB09B3
:103AF0008CE693E00E94DB0986E493E00E94C4090F
:103B000081E090E00E94F9098EE20E944D0985E073
:103B100090E00E94F9090E945E098FE193E00E9403
:103B2000DB0985E193E00E94DB090E940A1D8BE01E
:103B300093E00E94DB090E943E178FEF92E00E9403
:103B4000C4098091B8289091B9280E94F9090E946F
:103B50005E0980EF92E00E94C4098091352890E0D0
:103B60000E94F9090E945E0982EE92E00E94C40957
:103B70008091B62890E00E94F9090E945E0988EDC4
:103B800092E00E94DB0982ED92E00E94DB090E9434
:103B90009A0981E090E080933B2890933C28089517
:103BA000892B11F00C946E1D90E080E008959F9297
:103BB000AF92BF92CF92DF92EF92FF920F931F933B
:103BC000CF93DF93FC017F01119111110DC080E0B3
:103BD000DF91CF911F910F91FF90EF90DF90CF90E9
:103BE000BF90AF909F9008955F011F3331F01D3358
:103BF00021F0113211F01E3731F7992E082FF701FD
:103C0000108283EDC82E83E8D82E0BC0602F792D4B
:103C10000E945C21EC01892B09F460C08AE0C80E87
:103C2000D11CD6018D919C91009781F7D0CF1E3782
:103C300041F480E3D70111968C93119712961C9250
:103C400054C01D3309F451C01F3349F4D6011296F4
:103C5000ED91FC91309709F4BACFC081D181802FCA
:103C6000992D0E94A7098DE30E944D09CE010E9463
:103C70004C0A0E945E0981E0ABCFC1389CE0D907B5
:103C80000CF0A5CF4C9FB0014D9F700D1124A82FB3
:103C9000A053BB0BED01C60FD71F819190ED980F7C
:103CA0009A3058F3FE01E29FE001E39FD00DF29FAE
:103CB000D00D1124D6011696ED91FC9117973097EF
:103CC00049F41496ED91FC91309709F480CFC083AC
:103CD000D183C5CFCE010995EC01C1CF113209F0D6
:103CE000A6CF81E3F70181831282F70181818823C6
:103CF00009F46DCF21E030E08D3231F45701F2E06C
:103D0000AF0EB11C2FEF3FEFF5014AE0C6CFFC012B
:103D100020812F3311F40C946E1D0E94D71D811148
:103D200004C086EC92E00C94DB0908950E948008A0
:103D30000E9409090E948A080E94710E0E945F1069
:103D40000E9472100E9481130E9487160E94A4167E
:103D50008FB780688FBF0E94E40D80E992E00E94D7
:103D6000DB090E947B1718E0C1E0D0E00E94F71643
:103D70000E940F170E9491080E949F0E0E944C10F3
:103D80000E94E2080E942B160E9446130E946C11AA
:103D90000E94741C8091B2289091B328892B09F459
:103DA00060C01093050490E080E00E94630790E0FB
:103DB00080E00E940D0890E080E00E94E5070E94EC
:103DC0004607809135286091B2287091B3288111FF
:103DD00016C060FF14C08091522890915328892BFF
:103DE00071F4C0935228D09353288091BA289091AF
:103DF000BB28805F984D8093502890935128623063
:103E00007105A1F48091522890915328892B71F467
:103E100060935228709353288091BA289091BB28C0
:103E2000805D9A4880935028909351288091522821
:103E300090915328009779F04091BA285091BB286F
:103E4000209150283091512842175307B8F0421B57
:103E5000530B57FF18C08091B2289091B328892B3B
:103E600011F40E948E170E94030D009721F00E940A
:103E7000871E0E94FE0C1092B12878CF241B350BB0
:103E80002130304840F38095909586239723809386
:103E9000B2289093B328892B11F41092B62810926F
:103EA000522810925328D7CFDB018F939F930E9403
:103EB000CC1FBF91AF91A29F800D911DA39F900D2C
:103EC000B29F900D11240895AA1BBB1B51E107C09E
:103ED000AA1FBB1FA617B70710F0A61BB70B881F9A
:103EE000991F5A95A9F780959095BC01CD01089529
:103EF00097FB072E16F4009407D077FD09D00E9497
:103F0000641F07FC05D03EF4909581959F4F08955E
:103F1000709561957F4F0895A1E21A2EAA1BBB1BD5
:103F2000FD010DC0AA1FBB1FEE1FFF1FA217B30785
:103F3000E407F50720F0A21BB30BE40BF50B661F9B
:103F4000771F881F991F1A9469F76095709580955F
:103F500090959B01AC01BD01CF0108950E94B61F51
:103F6000332312F48A1B9B0B0C94C71FA29FB00132
:103F7000B39FC001A39F700D811D1124911DB29F9D
:103F8000700D811D1124911D08950E94B61FB7FF69
:103F90000895821B930B08950E94B61FA59F900D54
:103FA000B49F900DA49F800D911D11240895505829
:103FB000BB27AA270E94EF1F0C94C7200E94B9209C
:103FC00038F00E94C02020F039F49F3F19F426F405
:103FD0000C94B6200EF4E095E7FB0C94B020E92F8A
:103FE0000E94D82058F3BA17620773078407950711
:103FF00020F079F4A6F50C94FA200EF4E0950B2E3F
:10400000BA2FA02D0B01B90190010C01CA01A0012A
:104010001124FF27591B99F0593F50F4503E68F185
:104020001A16F040A22F232F342F4427585FF3CFC6
:10403000469537952795A795F0405395C9F77EF497
:104040001F16BA0B620B730B840BBAF09150A1F0E0
:10405000FF0FBB1F661F771F881FC2F70EC0BA0F66
:10406000621F731F841F48F4879577956795B795EE
:10407000F7959E3F08F0B0CF9395880F08F09927E9
:10408000EE0F9795879508950E94E02088F09F573E
:1040900098F0B92F9927B751B0F0E1F0660F771F6C
:1040A000881F991F1AF0BA95C9F714C0B13091F062
:1040B0000E94FA20B1E008950C94FA20672F782F1F
:1040C0008827B85F39F0B93FCCF386957795679527
:1040D000B395D9F73EF490958095709561957F4F93
:1040E0008F4F9F4F0895E89409C097FB3EF4909539
:1040F0008095709561957F4F8F4F9F4F9923A9F0C1
:10410000F92F96E9BB279395F6958795779567954F
:10411000B795F111F8CFFAF4BB0F11F460FF1BC093
:104120006F5F7F4F8F4F9F4F16C0882311F096E926
:1041300011C0772321F09EE8872F762F05C06623D4
:1041400071F096E8862F70E060E02AF09A95660F8D
:10415000771F881FDAF7880F9695879597F9089546
:1041600097F99F6780E870E060E008959FEF80EC2A
:10417000089500240A9416161706180609060895CD
:1041800000240A9412161306140605060895092E33
:104190000394000C11F4882352F0BB0F40F4BF2BA2
:1041A00011F460FF04C06F5F7F4F8F4F9F4F0895E2
:1041B00057FD9058440F551F59F05F3F71F04795D8
:1041C000880F97FB991F61F09F3F79F087950895BD
:1041D000121613061406551FF2CF4695F1DF08C0DC
:1041E000161617061806991FF1CF869571056105F9
:1041F00008940895E894BB2766277727CB0197F9A1
:10420000089519F416F40C94B6200C9447210E94DA
:10421000E020B8F39923C9F3B6F39F57550B87FFF6
:104220000E9455210024A0E640EA9001805856954E
:10423000979528F4805C660F771F881F20F026175B
:104240003707480730F4621B730B840B2029312990
:104250004A2BA69517940794202531254A2758F70D
:10426000660F771F881F20F026173707480730F49E
:10427000620B730B840B200D311D411DA09581F73E
:10428000B901842F9158880F9695879508959F3F7F
:1042900031F0915020F4879577956795B795880F01
:1042A000911D9695879597F9089591505040660F06
:1042B000771F881FD2F70895FB01DC018D910190D3
:0E42C00080190110D9F3990B0895F894FFCFDF
:1042CE0063757233006363737300637572320063D8
:1042DE00757231007665720078626C696E6B730070
:1042EE0074696D650074656D700076636300736D3F
:1042FE00617863757200636D617863757200616DCC
:10430E0061786375720073706861736573006170B4
:10431E006861736573006572726F720073617665A2
:10432E0000697068617365730069636E746372739C
:10433E0000696D6178637572006C6F706E6D7300DD
:10434E006C636C736D730062726472657600636386
:10435E0073646D700073696772656C0070696C6F61
:10436E007473006370696C6F740063706E736C703D
:10437E00007070696C6F7400616463646D700063CB
:10438E007063757200726D7300726D733100726DB1
:10439E00733200726D733300726D73646D700063EF
:1043AE00616C646D700063616C610063616C6200CE
:1043BE006C6F636B00737372007573616765007267
:1043CE006573657400E2828B8500000000E80DE7DE
:1043DE0082392839280000BF0DE682372837280099
:1043EE00009C0DEE82B82800003607830DF382A4E0
:1043FE002800000000670DF882A22800000000557A
:10440E000DD382B428000000002B0DFC8289288970
:10441E002800002A0C04832F2800000000000D0C39
:10442E0083932800000000D00C148387288728006F
:10443E0000F60B1C83A82800000000990CDD821BDF
:10444E002800000000790CD88219280000000069AD
:10445E000CCE82172800000000590C2483B22800CD
:10446E00000000CA0B2A83000000003F0D9E0B2F98
:10447E0083492849280000460B37834728472800E0
:10448E00001A0B3F834B284B280000750B478343C4
:10449E00284328000029084E83452845280000FEA1
:1044AE000755834D284D280000030B5C830000BE8A
:1044BE00280000D90A6383000000002D07A20A6AB3
:1044CE0083A0280000E507650A71833328000000E9
:1044DE0000590A7883312800000000370A7F832FA5
:1044EE002800000000160A86830000BC280000EC9D
:1044FE00098D83932800003F08B209938395280005
:10450E00000D087909978327280000FD133E099CAA
:10451E00832528000007142D09A1832328000011EC
:10452E00141C09A68300000000240B0009AD8300B3
:10453E0000C0280000C308B4834128412800009F12
:10454E0008B9833F283F2800007B08BE8300000087
:10455E00004E075308C383000000006307C207C75D
:10456E008300000000D01D9A07CD830000000020BC
:0F457E00077C07000000000000000000000F0095
:10458D00FFFFFFFFFFFFFFFF010005000002FFFF20
:10459D00E80304FF01FFFFFFFFFFFFFFFFFFFFFF2A
:1045AD00FFFFFFFFFFFFFFFFFFFEFFFEFFFEFFFF11
:1045BD00FFFFFFFFFF0302FFFFFFFF01000A002CBB
:1045CD00FF6A046400640003007B00A0000C00007F
:0400000300000200F7
:00000001FF
